:0400000013EF28F0E2
:080008006BEF00F000000000A6
:100010000000000000000000046ED8CF05F0E0CF23
:1000200006F00001E9CF0CF0EACF07F0E1CF08F0CD
:10003000E2CF09F0D9CF0AF0DACF0BF0F3CF12F00C
:10004000F4CF13F0FACF14F0F5CF15F0F6CF16F089
:10005000F7CF17F000C00EF001C00FF002C010F093
:1000600003C011F0A0A238EF00F0A1B283EF05F0B9
:100070009DAA3EEF00F09EBA88EF06F0A3AA44EFD7
:1000800000F0A4BAACEF06F00EC000F00FC001F013
:1000900010C002F011C003F00CC0E9FF07C0EAFF76
:1000A000078E08C0E1FF09C0E2FF0AC0D9FF0BC0FC
:1000B000DAFF12C0F3FF13C0F4FF14C0FAFF15C03B
:1000C000F5FF16C0F6FF17C0F7FF045006C0E0FFAB
:1000D00005C0D8FF1000196ED8CF1AF0E0CF1BF082
:1000E0000001E9CF21F0EACF1CF0E1CF1DF0E2CF13
:1000F0001EF0D9CF1FF0DACF20F0F3CF27F0F4CFE6
:1001000028F0FACF29F0F5CF2AF0F6CF2BF0F7CF71
:100110002CF000C023F001C024F002C025F003C081
:1001200026F09DA297EF00F09EB2EEEF05F023C0FF
:1001300000F024C001F025C002F026C003F021C069
:10014000E9FF1CC0EAFF1C8E1DC0E1FF1EC0E2FFDC
:100150001FC0D9FF20C0DAFF27C0F3FF28C0F4FF7B
:1001600029C0FAFF2AC0F5FF2BC0F6FF2CC0F7FF0D
:1001700019501BC0E0FF1AC0D8FF10008A0FF66E9E
:10018000010EF7220900F5501200000000000000E7
:1001900000000000E6E9FFAB01887870E05F8D5356
:1001A000094A76424C3C2D37DC322B2FFA2B302972
:1001B000BC268E249C22DC20471FD71D881C551B83
:1001C0003B1A3619451865179516D3151E15731465
:1001D000D4133E13B0122A12AC113411C2105710AE
:1001E000F00F8E0F310FD80E840E320EE50D9A0DE2
:1001F000530D0E0DCD0C8D0C500C160CDD0BA70BFA
:10020000720B400B0F0BDF0AB10A850A5A0A310A3A
:10021000080AE109BB099709730950092F090E095A
:10022000EE08CF08B108940877085B084008250855
:100230000C08F207DA07C207AA0794077D076707C9
:1002400052073D07290715070107EE06DB06C90619
:10025000B706A6069406830673066306530643068E
:100260003406250616060806F905EC05DE05D00558
:10027000C305B605AA059D059105850579056D059A
:10028000620556054B05400535052B05200516056D
:100290000C050205F804EF04E504DC04D204C904EB
:1002A000C004B804AF04A6049E0495048D0485041C
:1002B0007D0475046E0466045E0457044F0448040C
:1002C00041043A0433042C0425041E0418041104C8
:1002D0000B040404FE03F803F203EC03E603E0035B
:1002E000DA03D403CE03C903C303BD03B803B303C6
:1002F000AD03A803A3039D03980393038E0389030F
:10030000840380037B03760371036D036803640336
:100310005F035B03560352034E0349034503410346
:100320003D033903340330032C0329032503210340
:100330001D031903150312030E030A030703030326
:10034000FF02FC02F802F502F202EE02EB02E70203
:10035000E402E102DE02DA02D702D402D102CE02C6
:10036000CB02C802C502C202BF02BC02B902B60279
:10037000B302B002AD02AA02A802A502A2029F0225
:100380009D029A0297029502920290028D028A02C1
:1003900088028502830280027E027C027902770253
:1003A0007402720270026D026B02690266026402DC
:1003B000620260025D025B0259025702550253025B
:1003C00051024E024C024A024802460244024202D4
:1003D00040023E023C023A02380236023402330244
:1003E00031022F022D022B022902270225022402AC
:1003F000220220021E021D021B021902170216020F
:100400001402120211020F020D020C020A0208026B
:1004100007020502030202020002FF01FD01FC01C6
:10042000FA01F901F701F501F401F201F101EF011F
:10043000EE01ED01EB01EA01E801E701E501E4016C
:10044000E301E101E001DE01DD01DC01DA01D901B6
:10045000D801D601D501D401D201D101D001CE01FC
:10046000CD01CC01CB01C901C801C701C601C4013E
:10047000C301C201C101C001BE01BD01BC01BB017C
:10048000BA01B801B701B601B501B401B301B201B7
:10049000B001AF01AE01AD01AC01AB01AA01A901F0
:1004A000A801A701A501A401A301A201A101A00126
:1004B0009F019E019D019C019B019A019901980158
:1004C0009701960195019401930192019101900188
:1004D0008F018E018D018C018B018A018A018901B6
:1004E00088018701860185018401830182018101E0
:1004F000800180017F017E017D017C017B017A0109
:10050000790179017801770176017501740174012F
:1005100073017201710170016F016F016E016D0154
:100520006C016B016B016A01690168016801670177
:100530006601650164016401630162016101610199
:1005400060015F015E015E015D015C015C015B01B8
:100550005A015901590158015701560156015501D7
:1005600054015401530152015201510150015001F3
:100570004F014E014E014D014C014C014B014A010E
:100580004A01490148014801470146014601450128
:100590004401440143014301420141014101400141
:1005A0003F013F013E013E013D013C013C013B0159
:1005B0003B013A013901390138013801370137016E
:1005C0003601350135013401340133013301320183
:1005D00031013101300130012F012F012E012E0197
:1005E0002D012C012C012B012B012A012A012901AB
:1005F00029012801280127012701260126012501BB
:1006000025012401230123012201220121012101CD
:10061000200120011F011F011E011E011D011D01DE
:100620001D011C011C011B011B011A011A011901EA
:1006300019011801180117011701160116011501FA
:100640001501140114011401130113011201120107
:10065000110111011001100110010F010F010E0114
:100660000E010D010D010C010C010C010B010B0120
:100670000A010A010901090109010801080107012C
:100680000701070106010601050105010401040136
:100690000401030103010201020102010101010140
:1006A000000100010001FF00FF00FE00FE00FE004F
:1006B000FD00FD00FD00FC00FC00FB00FB00FB005A
:1006C000FA00FA00FA00F900F900F800F800F80062
:1006D000F700F700F700F600F600F500F500F5006A
:1006E000F400F400F400F300F300F300F200F20071
:1006F000F200F100F100F100F000F000EF00EF0077
:10070000EF00EE00EE00EE00ED00ED00ED00EC007D
:10071000EC00EC00EB00EB00EB00EA00EA00EA0082
:10072000E900E900E900E800E800E800E700E70088
:10073000E700E700E600E600E600E500E500E5008A
:10074000E400E400E400E300E300E300E200E20090
:10075000E200E200E100E100E100E000E000E00092
:10076000DF00DF00DF00DE00DE00DE00DE00DD0097
:10077000DD00DD00DC00DC00DC00DC00DB00DB0099
:10078000DB00DA00DA00DA00DA00D900D900D9009B
:10079000D800D800D800D800D700D700D700D6009E
:1007A000D600D600D600D500D500D500D500D4009F
:1007B000D400D400D300D300D300D300D200D200A1
:1007C000D200D200D100D100D100D100D000D000A1
:1007D000D000D000CF00CF00CF00CE00CE00CE00A2
:1007E000CE00CD00CD00CD00CD00CC00CC00CC00A3
:1007F000CC00CB00CB00CB00CB00CA00CA00CA00A3
:10080000CA00C900C900C900C900C900C800C800A1
:10081000C800C800C700C700C700C700C600C600A0
:10082000C600C600C500C500C500C500C400C400A0
:10083000C400C400C400C300C300C300C300C2009E
:10084000C200C200C200C200C100C100C100C1009C
:10085000C000C000C000C000C000BF00BF00BF009B
:10086000BF00BE00BE00BE00BE00BE00BD00BD0099
:10087000BD00BD00BC00BC00BC00BC00BC00BB0097
:10088000BB00BB00BB00BB00BA00BA00BA00BA0094
:10089000BA00B900B900B900B900B800B800B80092
:1008A000B800B800B700B700B700B700B700B6008F
:1008B000B600B600B600B600B500B500B500B5008C
:1008C000B500B400B400B400B400B400B400B30088
:1008D000B300B300B300B300B200B200B200B20084
:1008E000B200B100B100B100B100B100B000B00081
:1008F000B000B000B000B000AF00AF00AF00AF007C
:10090000AF00AE00AE00AE00AE00AE00AE00AD0077
:10091000AD00AD00AD00AD00AC00AC00AC00AC0073
:10092000AC00AC00AB00AB00AB00AB00AB00AB006D
:10093000AA00AA00AA00AA00AA00A900A900A9006A
:10094000A900A900A900A800A800A800A800A80064
:10095000A800A700A700A700A700A700A700A6005F
:10096000A600A600A600A600A600A500A500A5005A
:10097000A500A500A500A400A400A400A400A40054
:10098000A400A300A300A300A300A300A300A3004E
:10099000A200A200A200A200A200A200A100A10049
:1009A000A100A100A100A100A000A000A000A00043
:1009B000A000A000A0009F009F009F009F009F003C
:1009C0009F009E009E009E009E009E009E009E0036
:1009D0009D009D009D009D009D009D009D009C0030
:1009E0009C009C009C009C009C009C009B009B0029
:1009F0009B009B009B009B009B009A009A009A0022
:100A00009A009A009A009A0099009900990099001A
:100A10009900990099009800980098009800980013
:100A2000980098009700970097009700970097000C
:100A30009700960096009600960096009600960005
:100A400096009500950095009500950095009500FD
:100A500094009400940094009400940094009400F6
:100A600093009300930093009300930093009200EF
:100A700092009200920092009200920092009100E7
:100A800091009100910091009100910091009000DF
:100A900090009000900090009000900090008F00D7
:100AA0008F008F008F008F008F008F008F008E00CF
:100AB0008E008E008E008E008E008E008E008E00C6
:100AC0008D008D008D008D008D008D008D008D00BE
:100AD0008C008C008C008C008C008C008C008C00B6
:100AE0008B008B008B008B008B008B00F76AFC0F58
:100AF000F66E0A0EF7220900F550120031302D4D26
:100B000061792D313700B10EB36EE00EB26E81CF38
:100B10005AF1D8900301E13505015A6F0301E2351E
:100B200005015B6F000E01015AAB010E05015A135E
:100B30005AC5E1F305015B51E0090301E26FE1539E
:100B400009E1E251F00806E10101598758811E0EC2
:100B5000616F0301D890E33505015A6F0301E43555
:100B600005015B6F000E01015AAD010E05015A131C
:100B70005AC5E3F305015B51E0090301E46FE35358
:100B800009E1E451F00806E10101598958811E0E7E
:100B9000616F0301D890E53505015A6F0301E63511
:100BA00005015B6F000E01015AAF010E05015A13DA
:100BB0005AC5E5F305015B51E0090301E66FE55312
:100BC00009E1E651F00806E10101598558811E0E40
:100BD000616F0301A192000144EF00F00301E72BD4
:100BE000E751640804E1E76B0101588D03014E2CC5
:100BF0003BD0938005015D9381B05D835DB30CD0E4
:100C00000301EAB102D0050107D00101682BD8B475
:100C1000692B3F2AD8B4402A0301EA9105015DA35C
:100C200003D00301EA8105010301E82BD8B4E92BC5
:100C3000E851100818E1E951270815E1E96BE86B64
:100C400069C13CF068C13BF00101696B686B3E50C3
:100C50003C5C08E303E13B503D5C04E23CC03EF0F9
:100C60003BC03DF0030144D005015DA10CD0010162
:100C7000643D05D0653D03D0050105D00101642B1D
:100C8000D8B4652B050193805D9381B05D835DB31E
:100C900026D00301EAB102D0050121D0392AD8B407
:100CA0003A2AEAA313D005015D9165C136F064C10B
:100CB00035F03650385C08E303E13750355C04E228
:100CC00036C038F035C037F00301EA93EAB307D0F5
:100CD0000101656B646B05015D810301EA8303011A
:100CE000EA9105015DA303D00301EA810501030137
:100CF0009E92000197EF00F09EAAFED7ABCF34F092
:100D0000AECF01F034A202D0AB98AB888BEF06F0E7
:100D1000D36BD26BF1D701C05AF5D1530EE1D0514C
:100D20007F080BE3500ED025E96E000ED121EA6E4C
:100D30005AC5EFFFD02BD8B4D12B9E9A44EF00F0C8
:100D4000A4AAFED76BCF34F06ECF01F034A202D04C
:100D50006B986B88ADEF06F0F3D701C05AF5A49AF3
:100D600044EF00F0232044617461666C6173682075
:100D70007061676520726561642066726F6D202501
:100D80006C750D0A00000D0A00000D0A2320446F47
:100D90006E650D0A00002320696E697469616C69D3
:100DA0007A696E67206C6F6767696E670D0A00006D
:100DB000526573657474696E67204C6F672100001B
:100DC000446F6E6500003E20646F6E650D0A000082
:100DD0002320706C6179696E67206C6F670D0A0063
:100DE0003E20646F6E650D0A0000232044756D700F
:100DF000696E67206C6F670D0A003E20646F6E6538
:100E00000D0A000050616765205265713A25303542
:100E10006C750000204E2050616765733A253035AF
:100E20006C750000556E697420557074696D653A73
:100E30000000256C75206D696E75746573005769C7
:100E400072656C657373206F6E3A000025752073B0
:100E500065636F6E647300005344204361726420C5
:100E60005374617475733A00202020204C6F6767BB
:100E7000696E67002020204E6F742052656164798E
:100E80002100496E7465726E616C204D656D6F72E4
:100E90007900256C752F256C752066756C6C0000CB
:100EA000496E7075743A2025302E316C6620766F4D
:100EB0006C747300426174746572793A20256425FC
:100EC000250057696E6420446972656374696F6EAA
:100ED0003A00536563746F722025752028003435FD
:100EE0000000393000003133350031383000323203
:100EF000350032373000333135004628487A292012
:100F0000464D61782020436E74005420202020201C
:100F1000546D696E20436F756E7400004461746592
:100F20003A203230253032752D253032752D25305E
:100F3000327500004E6F7720253032753A253032F9
:100F4000753A25303275205554430000537065655D
:100F5000643A202530322E3166206D2F730047759C
:100F600073743A20202530322E3166206D2F7300A5
:100F70005072657620205365742020204E65787469
:100F800000002D20202020205365742020202020C8
:100F9000202B00002D20202020204E65787420205A
:100FA0002020202B00004E4F2020202059455300A8
:100FB0005072657620456E74657220204E65787497
:100FC000000057726F74652044656661756C74200B
:100FD000534E000053657269616C3A202563256C9D
:100FE00075202020202000002D2020202020444F8C
:100FF0004E4520202020202B000057726F74652062
:10100000534E0000202D2048572054595045202D84
:10101000200052444C202020202020202020524418
:101020004C55000057726F746520485720547970F2
:101030006500202D20414E454D4F205459504520EC
:101040002D2000002334304843202020202020542D
:1010500048454953000057726F746520416E656DB5
:101060006F20547970650000446174653A20323015
:10107000253032642D253032642D25303264000055
:1010800054696D653A20253032643A253032643A2D
:1010900025303264000072646C28552900007264A7
:1010A0006C556E690000756E6B6E6F776E21000077
:1010B0002023343048430000205448454953000061
:1010C00020554E4B4E4F574E0000557020696E20F4
:1010D00025752049443D2563256C7520000023209B
:1010E000555020494E202575205345434F4E4453BB
:1010F0000D0A0000232072644C6F67676572556E9D
:101100006976657273616C20257320283230253032
:1011100032752D253032752D2530327529202873F2
:10112000657269616C202563256C752920286861CA
:10113000726477617265202575292028616E656D5E
:101140006F6D65746572202575290D0A00003130B8
:101150002D4D61792D3137005072657373206D69A3
:1011600064646C650000627574746F6E20746F2027
:10117000636C65617200639A9598958A959C300EB0
:10118000636EC00E646E95968C8695948C84000078
:101190004CEF0BF0948694884DEF0BF0050EEA6E41
:1011A000480EE96EEF500DE0020E016E006A002E4F
:1011B000FED7012EFBD7970E006E002EFED7EF2E26
:1011C000F3D7120097968E8697968E96120004019A
:1011D0004DBF02D08E9E01D08E8E979E4DBD02D007
:1011E0008E9C01D08E8C979C4DBB02D08E9A01D0E4
:1011F0008E8A979A4DB902D08E9801D08E88979892
:101200000001E0DF04014DB702D08E9E01D08E8E2A
:10121000979E4DB502D08E9C01D08E8C979C4DB37D
:1012200002D08E9A01D08E8A979A4DB102D08E98B4
:1012300001D08E8897980001C5DF1A0E006E002E2F
:10124000FED7000012000F0E0501486F0001A6DF57
:1012500097928E9297948E94979E8E9E979C8E9C3A
:10126000979A8E8A97988E88ADDF050E0501486F94
:10127000000194DFA7DF420E006E002EFED70000B3
:10128000A1DF050E0501486F000188DF97988E9851
:1012900099DF1A0E006E002EFED70000280E040102
:1012A0004D6F000194DF0C0E04014D6F00018FDFC4
:1012B000060E04014D6F00018ADF010E04014D6F1F
:1012C000000185DF4EEF0BF0080E016E00008B96DB
:1012D00094960000050151378B98D8B09488D8A017
:1012E0009498948682A6FED7012E01D002D00001E8
:1012F000EDD700008B9694960000948800000000C3
:10130000948682A6FED7016A000082B801808B967F
:1013100094968B989498000112009488000094860B
:1013200000008B98949800008B969496D00E05013F
:10133000516F0001C9DF015004014F9101B04F818D
:101340004FA102D00001E9D74DC451F50001BCDF27
:101350004EC451F5B9DF94980000948682A6FED75A
:10136000000000D00000948800001200070E040165
:101370004D6F100E4E6F0001D0DF4FEF0BF0080ED7
:1013800005014F6F00C050F594880000948682A636
:10139000FED782B8D88082A8D890013600009496F3
:1013A0008B964F2FF1D7948800008B985051D8A47A
:1013B00094980000948682A6FED700008B9694969F
:1013C00000008B9894980001120094880000948685
:1013D00000008B98949800008B969496D00E05018F
:1013E000516F000171DF01500108EFE04DC451F56C
:1013F0006BDF948800009486000082A6FED78B984D
:10140000949800008B969496D10E0501516F0001BF
:101410005BDF01500108EDE0006AB1DF01C04EF46E
:1014200094980000948682A6FED7000000D00000A9
:101430009488000004014EC401F000011200040170
:101440004E394F6F0F0E4F174E510F0B506F4F51BC
:101450000A0DF3505025016E0001120004014D6B7E
:101460004E6B00015ADF060E04014D6F0A0E4E6FDF
:10147000000153DF050E04014D6F010E4E6F000198
:101480004CDF040E04014D6F010E4E6F000145DF6D
:10149000020E04014D6F4E6B00013FDF010E04018F
:1014A0004D6F4E6B000139DF5DEF0BF0720ED36EA6
:1014B000D350C150C00B0B09C16EC050C00B0709FF
:1014C000C06EC08EC28001015893589558975881BC
:1014D0005899589B5981589D589F59955997599992
:1014E00081CF5AF11E0E616F366A356A38683768E7
:1014F0003A6A396A3C6A3B6A3E6A3D6A406A3F6AB8
:10150000696B686B040EEA6E2D0EE96E000E000129
:1015100076EC05F00A000900F550EE6E0009FBE1DB
:10152000300E04012D5D0A0DF3CF4AF0300E2E5D12
:101530004A2630514A080FE13151410803E1010EBA
:10154000496E08D032514E0803E1060E496E02D0B2
:10155000070E496E37D03051410809E1315150082A
:1015600003E1040E496E02D0080E496E2BD03051B3
:101570004D0809E13251520803E1030E496E02D0D1
:10158000050E496E1FD03051460803E1020E496E28
:1015900019D03051530803E1090E496E13D0305170
:1015A0004F0803E10A0E496E0DD030514E0803E199
:1015B0000B0E496E07D03051440803E10C0E496E02
:1015C00001D04968300E345D0A0DF3CF48F0300E7B
:1015D000355D48264C6A4B6A4F900001D16BD06B49
:1015E000D369D269D569D46901015791F2CF4DF41D
:1015F000F29CF29EAA6A100EA96EA69CA69EA680D8
:10160000A85004014DBDF28C4DBFF28E456EF2CF55
:101610004DF4F29CF29EAA6A110EA96EA69CA69E9B
:10162000A680A8504DBDF28C4DBFF28E466EF2CF13
:101630004DF4F29CF29EAA6A120EA96EA69CA69E7A
:10164000A680A8504DBDF28C4DBFF28E476EF2CFF2
:101650004DF4F29CF29EAA6A130EA96EA69CA69E59
:10166000A680A8504DBDF28C4DBFF28E4D6EF2CFCC
:101670004DF4F29CF29EAA6A140EA96EA69CA69E38
:10168000A680A8504DBDF28C4DBFF28E4E6E030168
:10169000DE69DD6900016FD57DD5D5D567D6060E2B
:1016A00004014D6F000191DE01C04DF401C04EF404
:1016B000C6DE0150040801E3D1D6000E0509CA6E4A
:1016C000310ECB6E850EB16E9D8AA38AF19EC00E3F
:1016D000F2129AEF28F0040130510101625D02E23A
:1016E00030C462F1969A8D9A0001120097928E9200
:1016F000010E04014D6F00016ADD020E0501486F05
:1017000000014CDD120097928E8243C44DF45FDDE0
:1017100012000900F5520CE0F6CF33F4F7CF34F4A1
:10172000F5CF43F4F0DF33C4F6FF34C4F7FFF1D74D
:10173000120097928E92800E04013625376F4D6FFE
:10174000000145DD12000900F6CF37F4F7CF38F479
:10175000F5CF43F4D8DF37C4F6FF38C4F7FF0401F0
:10176000362F01D002D00001EED700011200EACFDF
:101770003BF4E9CF3AF404013439F009366F3627E7
:10178000E20F376F320F396F34510F0B372737277E
:101790003927E90F386F3827382733390F0B3827A7
:1017A000392738373937391F393733510F0B392734
:1017B0003637070E356F0A0E38073927FDE337072E
:1017C0003827FDE336073727FDE335073627FDE3E6
:1017D000040EEA6E350EE96E070E3A153A9DE926BB
:1017E000390EE95CD8B43A8DEF50006E08E13ABD8D
:1017F00006D03AB915D03AB702D0200E03D03A87B6
:101800003A99300E0026EACF34F4E9CF33F400C021
:1018100043F4000178DF34C4EAFF33C4E9FF040174
:10182000EE503AADDDD70001120004012D53D8B4BB
:1018300081D0AA6A100EA96E520EA86EA69CA69E12
:10184000A684F250006EF29CF29E0F01550EA76E18
:10185000AA0EA76EA682A6B2FED7A6940050F212D8
:10186000AA6A110EA96EA86AA69CA69EA684F2CFAB
:1018700000F0F29CF29E550EA76EAA0EA76EA682ED
:10188000A6B2FED7A6940050F212AA6A120EA96E52
:10189000A86AA69CA69EA684F2CF00F0F29CF29EB7
:1018A000550EA76EAA0EA76EA682A6B2FED7A69464
:1018B0000050F212AA6A130EA96E020EA86EA69C20
:1018C000A69EA684F2CF00F0F29CF29E550EA76E63
:1018D000AA0EA76EA682A6B2FED7A6940050F21258
:1018E000AA6A140EA96EA86AA69CA69EA684F2CF28
:1018F00000F0F29CF29E550EA76EAA0EA76EA6826D
:10190000A6B2FED7A6940050F2120001EFDEC20E7E
:10191000F66E0F0EF76EFDDE040E0401336FFA0E45
:101920000501486F00013ADC0401332FF8D70001AC
:10193000DDDE0401F2CF33F4F29CF29EAA6A100EAF
:10194000A96EA69CA69EA680A85033BDF28C33BF7C
:10195000F28E2E6FF2CF33F4F29CF29EAA6A110E31
:10196000A96EA69CA69EA680A85033BDF28C33BF5C
:10197000F28E346FF2CF35F4F29CF29EAA6A120E08
:10198000A96EA69CA69EA680A85035BDF28C35BF38
:10199000F28E366F34C430F436C42FF4366B000147
:1019A000C8DED40EF66E0F0EF76E080E0401366F09
:1019B0000001C9DE2EC443F4A6DE100EE96E30C469
:1019C00034F42FC433F4D3DEE10EF66E0F0EF76E4F
:1019D000050E0401366F0001B6DE400E0401366FBD
:1019E0000001A7DEE80EF66E0F0EF76E92DE010123
:1019F00059A902D059991AD059A506D05995040170
:101A00002F2BD8B4302B010159A706D059970401C8
:101A10002F51D8B430072F07140E0501486F00016D
:101A2000CEEC08F004000401B9D70101AA6A100E37
:101A3000A96E520EA86EA69CA69EA684F250006EB9
:101A4000F29CF29E0F01550EA76EAA0EA76EA682FB
:101A5000A6B2FED7A6940050F21230C433F4AA6A9C
:101A6000110EA96E30C4A8FFA69CA69EA684F2CF34
:101A700000F0F29CF29E550EA76EAA0EA76EA682EB
:101A8000A6B2FED7A6940050F2122FC433F4AA6A6D
:101A9000120EA96E2FC4A8FFA69CA69EA684F2CF04
:101AA00000F0F29CF29E550EA76EAA0EA76EA682BB
:101AB000A6B2FED7A6940050F212AA6A130EA96E1F
:101AC00031C4A8FFA69CA69EA684F2CF00F0F29C8B
:101AD000F29E550EA76EAA0EA76EA682A6B2FED7DC
:101AE000A6940050F212AA6A140EA96E32C4A8FF7E
:101AF000A69CA69EA684F2CF00F0F29CF29E550E04
:101B0000A76EAA0EA76EA682A6B2FED7A694005014
:101B1000F212F2CF33F4F29CF29EAA6A100EA96E72
:101B2000A69CA69EA680A850040133BDF28C33BFAC
:101B3000F28E456EF2CF33F4F29CF29EAA6A110E39
:101B4000A96EA69CA69EA680A85033BDF28C33BF7A
:101B5000F28E466EF2CF33F4F29CF29EAA6A120E17
:101B6000A96EA69CA69EA680A85033BDF28C33BF5A
:101B7000F28E476EF2CF33F4F29CF29EAA6A130EF5
:101B8000A96EA69CA69EA680A85033BDF28C33BF3A
:101B9000F28E4D6EF2CF33F4F29CF29EAA6A140ECE
:101BA000A96EA69CA69EA680A85033BDF28C33BF1A
:101BB000F28E4E6E00019ADDFA0EF66E0F0EF76E83
:101BC000A8DD040E0401336FFA0E0501486F000111
:101BD000CEEC08F00401332FF7D7000187DD0401B4
:101BE000366B0001A6DD040EF66E100EF76E91DD69
:101BF000400E0401366F00019CDD120EF66E100ED1
:101C0000F76E87DD010159A901D0599959A506D070
:101C10005995020E0401316F10D0010159A704D06B
:101C200059970401316B09D0140E0501486F00016A
:101C3000CEEC08F00400D3D70401AA6A130EA96EF3
:101C400031C4A8FFA69CA69EA684F250006EF29C0A
:101C5000F29E0F01550EA76EAA0EA76EA682A6B21F
:101C6000FED7A6940050F212F2CF33F4F29CF29E0B
:101C7000AA6A130EA96EA69CA69EA680A85004016F
:101C800033BDF28C33BFF28E4D6E00012FDD240E7A
:101C9000F66E100EF76E3DDD040E0401336FFA0E82
:101CA0000501486F0001CEEC08F00401332FF7D78F
:101CB00000011CDD0401366B00013BDD320EF66EC7
:101CC000100EF76E26DD400E0401366F000131DD87
:101CD000440EF66E100EF76E1CDD010159A901D0FD
:101CE000599959A506D05995010E0401326F10D0AB
:101CF000010159A704D059970401326B09D0140E81
:101D00000501486F0001CEEC08F00400D3D70401B0
:101D1000AA6A140EA96E32C4A8FFA69CA69EA68429
:101D2000F250006EF29CF29E0F01550EA76EAA0EA5
:101D3000A76EA682A6B2FED7A6940050F212F2CFEA
:101D400033F4F29CF29EAA6A140EA96EA69CA69E7B
:101D5000A680A850040133BDF28C33BFF28E4E6EC4
:101D60000001C4DC560EF66E100EF76ED2DC040EC7
:101D70000401336FFA0E0501486F0001CEEC08F044
:101D80000401332FF7D70001B1DC1200F2CF2DF49C
:101D9000F29CF29EAA6A100EA96EA69CA69EA68030
:101DA000A85004012DBDF28C2DBFF28E520822E105
:101DB000F2CF2EF4F29CF29EAA6A130EA96EA69C94
:101DC000A69EA680A8502EBDF28C2EBFF28E0208D1
:101DD00011E3F2CF2FF4F29CF29EAA6A140EA96EC0
:101DE000A69CA69EA680A8502FBDF28C2FBFF28E77
:101DF000010805E2010E2D6F000117DD0CD0010175
:101E000059B50AD059A908D059B706D05999040133
:101E10002D6B00010ADD01010001B4EF28F005017E
:101E20004351016A425D03E242C500F00CD0006AF2
:101E3000080E446F423700364351005CD8B0006E44
:101E40000136442FF7D700011200015032C442F589
:101E5000640E0501436F0001E2DF00C032F401505F
:101E6000300E08E1040133A30ED033B70CD033B9E0
:101E7000200E04D00401339733993381012601C029
:101E800043F4000140DC32C442F50A0E0501436F01
:101E90000001C5DF00C032F40150300E08E104013A
:101EA00033B70AD033A108D033B9200E0001012680
:101EB00001C043F428DC0401300E322732C443F45D
:101EC000000121DC12000900F6CF33F4F7CF34F41F
:101ED000F5509EA8FED7AD6E33C4F6FF34C4F7FFAD
:101EE0000401322F01D002D00001EDD70001120011
:101EF000015032C442F5640E0501436F00018FDFCB
:101F000000C032F40150300E08E1040133A30ED0BA
:101F100033B70CD033B9200E04D004013397339972
:101F20003381012601509EA8FED7AD6E32C442F522
:101F30000A0E0501436F000172DF00C032F4015048
:101F4000300E08E1040133B70BD033A109D033B907
:101F5000200E0001012601509EA8FED7AD6E04019F
:101F6000300E322732519EA8FED7AD6E000112000E
:101F70000900F5520DE0F6CF32F4F7CF33F4F55007
:101F80009EA8FED7AD6E32C4F6FF33C4F7FFF0D77C
:101F90001200EACF3AF4E9CF39F404013339F009F9
:101FA000356F3527E20F366F320F386F33510F0B15
:101FB000362736273827E90F376F37273727323943
:101FC0000F0B3727382737373837381F3837325114
:101FD0000F0B38273537070E346F0A0E37073827AF
:101FE000FDE336073727FDE335073627FDE33407E2
:101FF0003527FDE3040EEA6E340EE96E070E39153F
:10200000399DE926380EE95CD8B4398DEF50006E61
:1020100008E139BD06D039B90CD039B702D0200E4D
:1020200003D039873999300E002600509EA8FED77C
:10203000AD6EEE5039ADE6D7000143EF11F004016B
:102040002D6B140E306F00016BEC0BF04D5207E15D
:10205000960EF66E100EF76E89EC0BF010D04D5008
:10206000020807E19E0EF66E100EF76E89EC0BF07B
:1020700006D0A60EF66E100EF76E89EC0BF04E52DF
:1020800007E1B00EF66E100EF76E89EC0BF00FD074
:102090004E2C07D0B80EF66E100EF76E89EC0BF0D2
:1020A00006D0C00EF66E100EF76E89EC0BF0F2CF74
:1020B00030F4F29CF29EAA6A110EA96EA69CA69E0E
:1020C000A680A850040130BDF28C30BFF28E316F73
:1020D000F2CF32F4F29CF29EAA6A120EA96EA69C6E
:1020E000A69EA680A85032BDF28C32BFF28E336F0E
:1020F00031C42FF433C42EF40A0E2D6F2D536AE031
:10210000400E366F000199EC0BF0F2CF30F4F29CE8
:10211000F29EAA6A100EA96EA69CA69EA680A85042
:10212000040130BDF28C30BFF28E316FCA0EF66EF4
:10213000100EF76E060E366F0001A3EC0BF02DC4E7
:1021400032F41B0E0401336F00017FDED20EF66EF7
:10215000100EF76E040E0401366F0001A3EC0BF0B5
:1021600031C443F483EC0BF0100EE96E2FC434F449
:102170002EC433F4B7EC0BF0200E0401436F0001C2
:1021800083EC0BF0DE0EF66E100EF76E080E0401F7
:10219000326F000198DE2DC432F41B0E0401336F40
:1021A0000001A6DEE80EF66E100EF76E0A0E0401B0
:1021B000326F000188DE040E0401306FFA0E050153
:1021C000486F0001CEEC08F00401302FF7D704006F
:1021D0002D0794D7F2CF30F4F29CF29EAA6A100E2B
:1021E000A96EA69CA69EA680A85030BDF28C30BFDA
:1021F000F28E316FF40EF66E100EF76E140E326F13
:10220000000161DE4E0EF66E110EF76EB1DE0A0EA3
:10221000F66E110EF76E040E0401326F000153DEEC
:1022200048C032F4010E0401336F000161DE2D0E4F
:102230009EA8FED7AD6E49C032F4010E0401336F83
:10224000000156DE2D0E9EA8FED7AD6E4AC032F4B8
:10225000010E0401336F00014BDE1C0EF66E110EF1
:10226000F76E0A0E0401326F00012DDE04013151B8
:102270009EA8FED7AD6E100EE96E2FC433F42EC4A7
:1022800032F4000186D62B0EF66E110EF76E0C0E90
:102290000401326F000117DE4DC032F41B0E040141
:1022A000336F000125DE390EF66E110EF76E0E0E3D
:1022B0000401326F000107DE4EC032F41B0E040130
:1022C000336F000115DE290E9EA8FED7AD6E0D0EF0
:1022D0009EA8FED7AD6E0A0E9EA8FED7AD6EB6EFD5
:1022E00028F0A00E05014E6F4C517F0802E24E838C
:1022F0004C9F94880000948600008B98949800006E
:102300008B9694964EC551F5000164EC09F04CC5CE
:102310004FF50501506B4CC551F5000164EC09F017
:102320004BC551F564EC09F04DC551F564EC09F06D
:1023300094980000948682A6FED7000000D000008A
:10234000948800001200960EF66E0D0EF76E10DEE9
:1023500076EC0BF0B00EF66E0D0EF76E89EC0BF00E
:10236000050E04012D6FF00E0501486F0001CEEC43
:1023700008F004012D2FF7D705014C6B4B6B4D6B0B
:102380000001AFDF05014C6B020E4B6F4D6B00017E
:10239000A8DF05014C6B030E4B6F4D6B0001A1DFF5
:1023A00095948C9400006650500E666E6430FEE387
:1023B0006650666A6430FEE36650666A6430FEE327
:1023C0006650666A6430FEE395948C8400000A0EC1
:1023D0000501486F0001CEEC08F095948C94000044
:1023E0006650D70E666E6430FEE36650666A6430EF
:1023F000FEE366CF5DF495948C84000004015DC417
:1024000001F001C02DF401BE04D004000001E5D7A5
:102410000401400E366F000199EC0BF0C00EF66E11
:102420000D0EF76E89EC0BF0C60EF66E0D0EF76E04
:102430009FDD050E04012D6FF00E0501486F0001B0
:10244000CEEC08F004012D2FF7D70001120081CF48
:102450002DF404012DB907D001015AB902D00401AD
:1024600002D0588F04012DA907D001015AA902D02A
:10247000040102D0588104012DC45AF10001D23D5B
:1024800003D0D33D01D003D0D22BD8B4D32BD43D2D
:1024900003D0D53D01D003D0D42BD8B4D52BD05107
:1024A000D1110BE0D35303E1D251050806E2D23D2E
:1024B00003D0D33D01D001D04F80D89004012735FF
:1024C0002E6F28352F6F000E01015AAB010E04014B
:1024D0002E132EC427F42F51E009286F275309E14A
:1024E0002851F00806E10101598758811E0E616FDD
:1024F0000401D89029352E6F2A352F6F000E010167
:102500005AAD010E04012E132EC429F42F51E009F7
:102510002A6F295309E12A51F00806E1010159897E
:1025200058811E0E616F0401D8902B352E6F2C350B
:102530002F6F000E01015AAF010E04012E132EC49D
:102540002BF42F51E0092C6F2B5309E12C51F0088B
:1025500006E10101598558811E0E616F04010001D9
:1025600004EF29F0020E04014D6F0001E5EC09F0C3
:1025700001503F0B04012D6F4E6F00011FEC0AF05C
:1025800001C05BF1010E04014D6F0001E5EC09F0A3
:1025900001C02DF401C04EF41FEC0AF001C05CF143
:1025A00004014D6B0001E5EC09F001507F0B0401C3
:1025B0002D6F4E6F00011FEC0AF001C05DF1040E9B
:1025C00004014D6F0001E5EC09F001C02DF401C0DC
:1025D0004EF41FEC0AF001C05EF1050E04014D6FD0
:1025E0000001E5EC09F001C02DF401C04EF41FEC30
:1025F0000AF001C05FF1060E04014D6F0001E5EC29
:1026000009F001C02DF401C04EF41FEC0AF001C026
:1026100060F110EF13F0969A8D8A1DEF13F0A2D798
:102620000101615303E197908E8003D097908E90C3
:102630006107625304E10001EED708D001010401F3
:10264000306B00016BEC0BF0010162070101635379
:1026500004E15889090E636F01D063070401265114
:1026600001015C5D21E058835CC126F44B3C03D042
:102670004C3C01D003D04B2AD8B44C2A5C511E08E4
:1026800002E1598104D05C512D0801E159915C515E
:10269000050809E05C51140806E05C51230803E0DA
:1026A0005C51320801E1588B00010BEF29F09D9A33
:1026B000010157B12DD0EA6AD60EE96EE26A500EDA
:1026C000E16ED1C002F0D0C001F0015202E0022A56
:1026D00002D0025206E0E6CFEEFF012EFCD7022E1A
:1026E000FAD7010E0001D02504012D6F000E000164
:1026F000D12104012E6FD60E2D25E96E000E2E215C
:10270000EA6EEF6A010157810001D16BD06B0101C4
:102710009D8A000111EF29F00401776976697451EF
:102720007407000A26E073C403F07251722BD8B408
:10273000732BE96E03C0EAFFEF50761B756B755182
:10274000070816E37651010B006E036A0050031070
:102750000AE0D8907731796F7631010A766F795136
:10276000A00A776F03D0D89077337633752BE7D7ED
:10277000D6D776C401F077C402F00001120001013F
:1027800057A148D057910001D651230842E1D751B3
:10279000455C3FE1D851465C3CE1D951475C39E1A9
:1027A000DA510D0836E1DB51160833E10401736B91
:1027B000D70E726F0A0E746F0001AEDF02C02EF4E6
:1027C00001C02DF4E1C003F0E25104012D5D03E1ED
:1027D00003502E5D01E01FD0FA0E306F00016BEC4C
:1027E0000BF0DC5105E0010A07E0030A09E011D013
:1027F0000101588B00010DD001015885000109D05D
:10280000DDC0DEF3DEC0DDF3DFC0E0F3E0C0DFF308
:1028100000D001010401000115EF29F0D8B204D065
:10282000050EEA6E550EE96E006A016A026A036AD5
:102830000501556B566B576B586B54515311521120
:1028400051112CE0200E596FD8904D374E374F372D
:10285000503755375637573758375451585D08E178
:102860005351575D05E15251565D02E15151555D9D
:102870000FE35151555F5251D8A0523D565F53510D
:10288000D8A0533D575F5451D8A0543D585FD880CD
:102890000036013602360336592FD6D755C5EFFF1D
:1028A00056C5ECFF57C5ECFF58C5ECFF0001120000
:1028B000D89004011E35036AFE0FE96E030E032053
:1028C000EA6E33C4ECFFED5232C4EFFF1E2B1E51F3
:1028D0000F0801E21E6B1F510F0801E31F2B3B6B1A
:1028E0003A6B396B386B3C6B1F513C5D14E2D890EE
:1028F0003C35036AFE0FE96E030E0320EA6EECCF4F
:1029000003F0ED52EF50382703503923000E3A23DD
:102910003B233C2BE9D7D8901F31006E016A026A35
:10292000036A005038253E6F015039213F6F025035
:102930003A21406F03503B21416FD892E8CF50F5C8
:1029400040C44FF53FC44EF53EC44DF50501546BF0
:10295000536B526B1FC451F5000160DF03C037F4A5
:1029600002C036F401C035F400C034F4040134C4AC
:1029700001F035C402F00001CEEF15F00401315131
:10298000000808E2FF0A03E13051440803E20A0E9E
:10299000016E65D03151000808E2FF0A03E13051B1
:1029A0003F0803E2090E016E5AD03151000808E2D7
:1029B000FF0A03E130513D0803E2080E016E4FD0DB
:1029C0003151000808E2FF0A03E130513A0803E2FE
:1029D000070E016E44D03151000808E2FF0A03E1FE
:1029E0003051370803E2060E016E39D0315100082C
:1029F00008E2FF0A03E13051330803E2050E016EDD
:102A00002ED03151000808E2FF0A03E130512F08AF
:102A100003E2040E016E23D03151000808E2FF0AE0
:102A200003E130512C0803E2030E016E18D031513E
:102A3000000808E2FF0A03E13051270803E2020E12
:102A4000016E0DD03151000808E2FF0A03E1305158
:102A5000200803E2010E016E02D0000E016E00019B
:102A6000DFEF15F00401335303E132513F0808E270
:102A7000335306E13251BF0803E3010E016E6BD000
:102A8000335303E13251BF080AE23351010807E32F
:102A900003E132513F0803E3020E016E5CD0335173
:102AA00000080FE2FF0A03E132513F080AE2335106
:102AB000010807E303E13251BF0803E3030E016E8F
:102AC0004AD0335100080FE2FF0A03E13251BF0838
:102AD0000AE23351020807E303E132513F0803E3FE
:102AE000040E016E38D0335101080FE2FF0A03E1F2
:102AF00032513F080AE23351020807E303E1325141
:102B0000BF0803E3050E016E26D0335101080FE222
:102B1000FF0A03E13251BF080AE23351030807E319
:102B200003E132513F0803E3060E016E14D0335126
:102B300002080FE2FF0A03E132513F080AE2335173
:102B4000030807E303E13251BF0803E3070E016EF8
:102B500002D0000E016E000104EF16F0000E016EAF
:102B6000C250C30B0110C26E010E0501486F000177
:102B7000CEEC08F004012D6B2D510F0816E3C28234
:102B8000C2B2FED7C4CF03F0C3CF30F4C4CF31F408
:102B9000C4CF33F4C3CF32F400018AD602C02FF47D
:102BA00001C02EF404012D2BE7D72FC442F02EC410
:102BB00041F02FC431F42EC430F40001DFD601C03F
:102BC00044F04D50020807E1040E016EC250C30BE1
:102BD0000110C26E06D00C0E016EC250C30B011064
:102BE000C26E010E0501486F0001CEEC08F0C282F2
:102BF000C2B2FED7C4CF31F4C3CF30F4C4CF33F464
:102C0000C3CF32F400012ED701C043F0ABEF16F072
:102C100004014051030809E2FF0A03E13F51B008F3
:102C200004E2FF0E016E026E12D0D8903F35026EA4
:102C30004035036E025003C0F7FF0001BEEC00F008
:102C40000900F5CF03F0016E03C002F0040100019A
:102C500012009EA8FED7AD6E1200230E04012D6F48
:102C600045C02EF446C02FF447C030F40F0E316F2C
:102C7000070E326F4E2C1CD03CC040F43BC03FF4DA
:102C80000001C6DF02C036F001C035F03EC040F49E
:102C90003DC03FF4BDDF02C038F001C037F040C096
:102CA0003AF03FC039F03E6A3D6A406A3F6A04012B
:102CB00036C033F435C034F438C035F437C036F498
:102CC00044383F6FF00E3F1743500F0B3F25376FCF
:102CD0003AC038F439C039F4040E736F2E0E726F97
:102CE0000C0E746F000118DD02C03DF401C03CF40D
:102CF00004013DC43AF43CC43BF43E6B3E510E0823
:102D00000FE3036A3E512D0FE96E040E0320EA6EB5
:102D1000EFCF3FF43F5100019CDF04013E2BEED783
:102D20000001ACEF16F00301EABB0BD0010E040169
:102D3000306F00016BEC0BF0D56BD46B0301EA8BA9
:102D40000DD00001D55303E1D4510D0807E2010174
:102D50005899000103D781D70301EA9B00011BEFBB
:102D600029F0A00E05014D6F4B517F0802E24D8303
:102D70004B9F94880000948600008B9894980000E4
:102D80008B9694964DC551F5000164EC09F04BC546
:102D90004EF505014F6B4BC551F5000164EC09F090
:102DA0004AC551F564EC09F094880000948600004F
:102DB00082A6FED78B98949800008B969496050176
:102DC0004D5101094E6F516F000164EC09F0006A2A
:102DD000BFEC09F001C04CF594980000948682A6DF
:102DE000FED7000000D000009488000005014CC50B
:102DF00001F000011200230E04012D6F45C02EF4D6
:102E000046C02FF447C030F42B0E316F080E326FDE
:102E100036C033F435C034F438C035F437C036F436
:102E20003AC037F439C038F460C139F45FC13AF4BC
:102E30005EC13BF45BC13CF45CC13DF45DC13EF45A
:102E400095948C9400006650D70E666E6430FEE355
:102E50006650666A6430FEE366CF5DF495948C84B8
:102E600000005DC401F001C03FF405014B6B020E90
:102E70004A6F000176DF01C040F405014B6B030E81
:102E80004A6F00016EDF01C041F442C042F4040108
:102E900041C043F49682446B84B2442B010E5E6FB2
:102EA0006A0E5EC45CF45B6F5BC4E9FF5CC4EAFF5E
:102EB000EFCF45F4010E5B25E96E000E5C21EA6E52
:102EC000EFCF46F4020E5B25E96E000E5C21EA6E40
:102ED000EFCF47F4030E5B25E96E000E5C21EA6E2E
:102EE000EFCF48F4010E5E6F6E0E5EC45CF45B6F54
:102EF0005BC4E9FF5CC4EAFFEFCF49F4010E5B2538
:102F0000E96E000E5C21EA6EEFCF4AF4020E5B25FB
:102F1000E96E000E5C21EA6EEFCF4BF4030E5B25E9
:102F2000E96E000E5C21EA6EEFCF4CF443C04DF425
:102F30004E6B4F6B506B48C051F449500F0B5D6F97
:102F400001016251F00B04015D25526F4AC053F438
:102F50004CC054F44BC055F4040E736F2E0E726FB8
:102F6000280E746F00018CEC13F002C059F401C0FC
:102F700058F4040159C456F458C457F45A6B5A51C2
:102F80002A080FE3036A5A512D0FE96E040E03203D
:102F9000EA6EEFCF5DF45D5100015BDE04015A2B58
:102FA000EED70001EDEF17F00301EABD0CD00001F0
:102FB000D56BD46B010E0401306F00016BEC0BF08C
:102FC0000301EA8D0CD00001D55303E1D4510D0863
:102FD00006E20101589B00010ED70301EA9D0001A2
:102FE00021EF29F095948C9400006650D20E666E05
:102FF0006430FEE304012D372E372D372E37FC0EBB
:103000002D172EC431F466502EC466FF6430FEE3E3
:103010002DC431F466502DC466FF6430FEE3665063
:10302000666A6430FEE36650666A6430FEE36650AA
:10303000666A6430FEE36650666A6430FEE366509A
:10304000666A6430FEE3306B2F6B3051020814E384
:1030500003E12F510F0810E3CD0E2F25E96E010E6D
:103060003021EA6E6650666A6430FEE366CFEFFF99
:103070002F2BD8B4302BE9D795948C840000000115
:1030800022EF19F005014A514C03F3CF01F0F4CFC0
:1030900000F04D03F35000264B514C03F350002039
:1030A000026E0001120005014B6B4A6B000159DEF4
:1030B000036A01C031F403C032F405014B6B0C0EFE
:1030C0004A6F03C04DF501C04CF50001DBDF02C0C3
:1030D00030F401C02FF404012E6B2D6B2E51305DA6
:1030E00023E303E12F512D5D1FE2CD0E2D25016E4F
:1030F000010E2E21036E01C031F4326F2DC433F462
:10310000020E2E25346FE8CF4BF52DC44AF5000191
:1031100028DE32C4EAFF31C4E9FF01C0EFFF040139
:103120002D2BD8B42E2BDAD72E5102080FE303E152
:103130002D510F080BE3CD0E2D25E96E010E2E212A
:10314000EA6EEF682D2BD8B42E2BEED7000126EFB8
:1031500019F0230E0401356F45C036F446C037F42C
:1031600047C038F43A0E396F150E3A6F32C43BF44B
:1031700031C43CF4716B71512F081DE3080E7125A9
:10318000036A350F016E040E032271513325746FEB
:10319000000E3421756FCD0E7425E96E010E752178
:1031A000EA6EEFCF76F403C0EAFF01C0E9FF76C410
:1031B000EFFF712BE0D7040E736F360E726F370E70
:1031C000746F00018CEC13F002C070F401C06FF456
:1031D000040170C46DF46FC46EF4716B71513908E1
:1031E0000FE3036A7151350FE96E040E0320EA6E96
:1031F000EFCF72F4725100012CDD0401712BEED778
:1032000000015AEF19F00301DE510F0805E2FF0A31
:1032100007E1DD51010804E3DF5305E1E05303E179
:10322000E06BDF6B5BD0968884A801D057D0ED535C
:103230000DE1DE510F0808E3DEC32EF4DDC32DF4EB
:103240000001D0D603D0030100012DD7010E0401E7
:10325000306F00016BEC0BF0DEC34BF5DDC34AF5BC
:1032600005014D6B0B0E4C6F00010CDF02C02EF4FC
:1032700001C02DF40301ED5104012D27000E2E2372
:10328000306BEDC32FF430C44BF5EDC34AF50501A7
:103290004D6B300E4C6F0001F5DE02C030F401C002
:1032A0002FF42EC432F42DC431F402C034F401C022
:1032B00033F44FD70301ED2BED510B080FE1ED6B0C
:1032C000DF5302E1E05308E0DD2BD8B4DE2BDF5101
:1032D000D8B4E007DF0702D0DE69DD69000124EF22
:1032E00029F08E0E006E37C401F036C402F0036A76
:1032F000015209E102C001F0026A080E005E0152AB
:1033000002E1006A08D0D89001BE04D0023601362E
:103310000006F9D7019E120004013651D8B4A5D099
:10332000426F3A51D8B4A1D0425F05E37F0E4227E5
:10333000D8B09BD006D0810E425FD8A096D0D8B42A
:1033400094D042C400F0016A026A036A416B37C438
:1033500040F4408F38C43FF439C43EF4190E426F34
:103360003D513E5F0DE2010E3F5F0AE2405F08E221
:10337000415F06E2412B402B3F2B3D513E2728D099
:103380003C513F5F12E2010E405F0FE2415F0DE2F0
:10339000412B402B3C513F273D513E2719E33F2B0A
:1033A00017E1402B15E1412B13D03B518009405FC1
:1033B0000EE2010E415F0BE2412B3B518009402799
:1033C0003C513F27E9E3402BE7E1412BE5D7038060
:1033D000422F01D00BD0D8903E373F37403741378E
:1033E000D8900336023601364337BAD743A106D008
:1033F000D890013202320332433302D0000635E066
:1034000043BF1ED0D8903E373F37403741373D51FC
:103410003E5F07E2010E3F5F04E2405F02E2415F70
:103420001AE33C513F5F05E2010E405F02E2415F5B
:1034300012E33B518009405F03E2010E415F0BE361
:10344000032A09E1022A07E1012A05E1002A0DE029
:1034500001320232033237C442F43B51421B42AFC5
:1034600002D0018E06D0019E04D0006A016A026A71
:10347000036A00011200800ED8A202D004013F1B93
:103480000401446B456B3BC443F43F51431B3A5129
:10349000D8B4DFD0426F006E3E51D8B4E3D0425F63
:1034A000D8B483D03EE33FC448F4488F40C447F4C7
:1034B00041C446F4456BD8904833473346334533CF
:1034C000422FF8D743AF03D04481E0D044914291DA
:1034D0004489040EEA6E3D0EE96EEBD0449943BF79
:1034E0000AD042A113D04833473346334533002A2C
:1034F000D8B4C7D00BD048BF0CD0D890453746378A
:10350000473748370006D8B4BCD0F5D7448D6DD0C6
:10351000449D3BC443F43BAF02D0488FABD0489F9F
:10352000A9D03EC442F43EC400F03A51425F3BC4CD
:1035300048F4488F3CC447F43DC446F4456BD890EA
:103540004833473346334533422FF8D743AF03D090
:1035500044839CD044934291448B040EEA6E410E06
:10356000E96EA7D0449B43BF0AD042A113D0483391
:10357000473346334533002AD8B483D00BD048BFF5
:103580000CD0D89045374637473748370006D8B46F
:1035900078D0F5D7448F29D0449F3FC443F43FAF40
:1035A00002D0488F67D0489F65D03FC448F4488F09
:1035B00040C447F441C446F443AF04D0489F448517
:1035C00065D04495456B4291040EEA6E3D0EE96E5E
:1035D00070D043BF1CD03BC443F442A106D0483353
:1035E000473346334533002A4CE045AF0BD0462BDA
:1035F00009E1472B07E1482B05E1483347334633C0
:10360000002A3FE044BD84D744BFC6D71CD0800EFB
:10361000481B48AF04D03AD03FC443F40AD03BC45F
:1036200043F4485306E1475304E1465302E1006A7C
:1036300021D048BF08D0D89045374637473748375C
:10364000002EF7D71ED043AF02D0488F13D0489F2B
:1036500011D03EC400F03FC448F440C447F441C414
:1036600046F408D03AC400F03BC448F43CC447F4E4
:103670003DC446F448C401F047C402F046C403F018
:1036800034D0006A016A026A036A2FD0456B461F74
:10369000471F481F451F452B05E1462B03E1472BDC
:1036A00001E1482B44B112D744B354D744B589D76C
:1036B000B3D7EF50462705E3472B03E1482BD8B497
:1036C0004281ED52EF50472703E3482BD8B44281A3
:1036D000ED52EF50EFBE01D0800A4827D8B04281AA
:1036E00044B9FCD644BB3ED774D700011200050193
:1036F0004D51D8B471D0006E5151D8B46DD0002660
:1037000004E3810E002668E204D07F0E005E64E3CD
:1037100063E04EC555F55251551B4E8F528F505197
:103720005403F4CF57F54F515303F4CF03F0F3CFC5
:1037300056F55403F3505727F4505623000E032236
:1037400050515303F3505727F4505623000E026A8A
:10375000032202224E515403F3505627F450032201
:10376000000E02224E515303F3500326F45002225E
:10377000000E016A012250515203F3505627F450B3
:103780000322000E022201224F515203F35003265E
:10379000F4500222000E01224E515203F350022631
:1037A000F4500122002A01BE05D0563703360236F6
:1037B00001360006000E56AF0AD0032A022201226B
:1037C000015005E1025003E1035001E1002A55BF19
:1037D000018E55AF019E04D0006A016A026A036A35
:1037E0000001120005014D51B6084D6F036A4EC528
:1037F00051F54E8FD8904E334F335033033202324F
:10380000013200324D2FF6D751AF0BD0001E011EF2
:10381000021E031E002AD8B4012AD8B4022AD8B442
:10382000032A00011200E95004013B6F3A513D6F39
:103830001CE039C450F538C44FF537C44EF536C4D2
:103840004DF50501546B536B200E526F820E516F74
:1038500000014DDF03C039F402C038F401C037F471
:1038600000C036F404013D2FE4D739C450F538C404
:103870004FF537C44EF536C44DF50001B3DF03C034
:1038800039F402C038F401C037F400C036F4040142
:1038900039AF0DD03B073B8B361F371F381F391F01
:1038A000362BD8B4372BD8B4382BD8B4392B3B0EA1
:1038B000426F9A0E416FCA0E406F3F6B0A0E3D6F0A
:1038C0003A51D8B43B2BD882040EEA6E360EE96E1C
:1038D00039C450F538C44FF537C44EF536C44DF5EC
:1038E00042C454F541C453F540C452F53FC451F5A8
:1038F00000010EEC14F00150005213E104013A29CA
:103900003D5DD8A402D000010CD03B510DE00F0B5F
:103910003D5D01E044E23BBF42D03BBD05D0200EFF
:1039200037D0200E04013B173BAB0FD03B9B3A51E5
:10393000D8A43B0700503B6F2D0E436F000183EC72
:103940000BF004013B51006E3B6B3A513D5D0DE1C4
:1039500000503B6F2E0E436F000183EC0BF004010F
:103960003B51006E200E3B17000E300E3BAB10D0CB
:103970003B9B3A51D8A43B0700503B6F2D0E436F41
:10398000000183EC0BF004013B51006E3B6B300EE9
:10399000002600C043F4000183EC0BF00401D89230
:1039A00042C450F541C44FF540C44EF53FC44DF5F7
:1039B0000501546B536B526B0A0E516F00010EECF4
:1039C00014F003C042F402C041F401C040F400C04E
:1039D0003FF404013D2F77D7000112004E52D8A4C6
:1039E00085D0355202E136523EE0353C03D0363CBC
:1039F00001D039D036C037F435C036F472DC04015A
:103A0000396B100E386F6F0E376F8B0E366F03C029
:103A10003DF402C03CF401C03BF400C03AF40001A4
:103A20007BDC00C036F401C037F402C038F403C0B8
:103A300039F4D89203C03DF402C03CF401C03BF419
:103A400000C03AF4330E0401416F406F3F6F7D0EAA
:103A50003E6F000110DD03C031F402C030F401C03C
:103A60002FF400C02EF4375202E138523EE0373CCA
:103A700003D0383C01D039D038C037F437C036F4E1
:103A800030DC0401396B100E386F6F0E376F8B0E00
:103A9000366F03C03DF402C03CF401C03BF400C0EB
:103AA0003AF4000139DC00C036F401C037F402C03A
:103AB00038F403C039F4D89203C03DF402C03CF49A
:103AC00001C03BF400C03AF4330E0401416F406F73
:103AD0003F6F7D0E3E6F0001CEDC03C035F402C0A7
:103AE00034F401C033F400C032F4A1D04E2C91D094
:103AF0003B5202E13C523EE03CC037F43BC036F45E
:103B000071EC19F0860E0501506F550E4F6F3C0E8B
:103B10004E6F7A0E4D6F03C054F502C053F501C0CD
:103B200052F500C051F50001E2DD00C036F401C0DD
:103B300037F402C038F403C039F4D89203C03DF41E
:103B400002C03CF401C03BF400C03AF4030E04018F
:103B5000416FCF0E406F7D0E3F6F7C0E3E6F0001B8
:103B60008ADC03C031F402C030F401C02FF400C07D
:103B70002EF406D00401316B306B2F6B2E6B0001DD
:103B80003D5202E13E523EE03EC037F43DC036F4C5
:103B900071EC19F0860E0501506F550E4F6F3C0EFB
:103BA0004E6F7A0E4D6F03C054F502C053F501C03D
:103BB00052F500C051F500019ADD00C036F401C095
:103BC00037F402C038F403C039F4D89203C03DF48E
:103BD00002C03CF401C03BF400C03AF4030E0401FF
:103BE000416FCF0E406F7D0E3F6F7C0E3E6F000128
:103BF00042DC03C035F402C034F401C033F400C029
:103C000032F406D00401356B346B336B326B000138
:103C10000ED00401316B306B800E2F6F7F0E2E6F34
:103C2000356B346B800E336F7F0E326F00014C0E9C
:103C3000F66E0F0EF76E070E0401366F0001A3EC4F
:103C40000BF0410EE96E31C439F430C438F42FC49E
:103C500037F42EC436F4010E04013A6F0001E3DD9F
:103C6000590EF66E0F0EF76E040E0401366F00014A
:103C7000A3EC0BF0400E0401366F000199EC0BF041
:103C80005E0EF66E0F0EF76E070E0401366F000122
:103C9000A3EC0BF0410EE96E35C439F434C438F4AA
:103CA00033C437F432C436F4010E04013A6F000114
:103CB000BADD6B0EF66E0F0EF76E040E0401366F52
:103CC0000001A3EC0BF0E7EF23F0C20EF66E0E0E30
:103CD000F76E89EC0BF0400E0401366F000199EC91
:103CE0000BF0D20EF66E0E0EF76E070E0401366F55
:103CF0000001A3EC0BF043C032F41B0E0401336F40
:103D0000000125EC0FF0200E0401436F000183EC4D
:103D10000BF0280E0401436F000183EC0BF04350BD
:103D2000F80F3BE2080FDBEF1EF0300E0401436F8B
:103D3000000183EC0BF031D0DE0EF66E0E0EF76E46
:103D400089EC0BF02AD0E20EF66E0E0EF76E89ECBF
:103D50000BF023D0E60EF66E0E0EF76E89EC0BF02C
:103D60001CD0EA0EF66E0E0EF76E89EC0BF015D035
:103D7000EE0EF66E0E0EF76E89EC0BF00ED0F20E14
:103D8000F66E0E0EF76E89EC0BF007D0F60EF66E9F
:103D90000E0EF76E89EC0BF000D0DF0E0401436FBE
:103DA000000183EC0BF0290E0401436F000183EC4A
:103DB0000BF0EDEF23F0E824F76AF736D10FF66E3B
:103DC0003D0EF7220A00F550FA6E0800F550F96E24
:103DD0002A3D383D463D543D623D703D7E3D8C3D23
:103DE0001C0EF66E0F0EF76E080E0401366F000102
:103DF000A3EC0BF060C132F4010E0401336F00013B
:103E000025EC0FF02D0E0401436F000183EC0BF045
:103E10005FC132F4010E0401336F000125EC0FF095
:103E20002D0E0401436F000183EC0BF05EC132F4F0
:103E3000010E0401336F000125EC0FF0400E040168
:103E4000366F000199EC0BF0340EF66E0F0EF76E24
:103E5000040E0401366F0001A3EC0BF05BC132F4D9
:103E6000010E0401336F000125EC0FF03A0E04013E
:103E7000436F000183EC0BF05CC132F4010E0401CE
:103E8000336F000125EC0FF03A0E0401436F00017F
:103E900083EC0BF05DC132F4010E0401336F0001BD
:103EA00025EC0FF0460EF66E0F0EF76E040E0401B1
:103EB000366F0001A3EC0BF0F3EF23F0820EF66EE9
:103EC0000E0EF76E89EC0BF0400E0401366F000108
:103ED00099EC0BF005014B6B020E4A6F0001B1EC3F
:103EE00016F001C02EF405014B6B030E4A6F000162
:103EF000B1EC16F001C02FF42EC431F401C030F43F
:103F0000100EE96E2EC434F401C033F4B7EC0BF09C
:103F10002F0E0401436F000183EC0BF0100EE96ECD
:103F20000401346F336B0001B7EC0BF0990EF66EA1
:103F30000E0EF76E050E0401366F0001A3EC0BF0B8
:103F4000F9EF23F0580EF66E0E0EF76E89EC0BF0BB
:103F5000400E0401366F000199EC0BF0968284B29A
:103F600007D0680EF66E0E0EF76E89EC0BF006D0D9
:103F7000740EF66E0E0EF76E89EC0BF0010159A966
:103F800002D05999588B0001FFEF23F04E2C31D00D
:103F9000100EE96E3CC034F43BC033F4B7EC0BF0C8
:103FA000060E0401366F000199EC0BF0100EE96E5D
:103FB0003EC034F43DC033F4B7EC0BF00C0E0401FA
:103FC000366F000199EC0BF0100EE96E40C034F42E
:103FD0003FC033F4B7EC0BF0400E0401366F000124
:103FE00099EC0BF0FA0EF66E0E0EF76E89EC0BF0F4
:103FF00030D0080EE96E36C034F435C033F4B7EC77
:104000000BF0060E0401366F000199EC0BF0080E60
:10401000E96E38C034F437C033F4B7EC0BF00C0E53
:104020000401366F000199EC0BF0090EE96E3AC0FD
:1040300034F439C033F4B7EC0BF0400E0401366FA2
:10404000000199EC0BF00A0EF66E0F0EF76E89EC7C
:104050000BF005EF24F0200E040134A9300E356F6B
:1040600033C400F033AF08D0001E002A00C033F480
:104070002D0E356F348F3481015033C442F5640EF8
:104080000501436F00010FEC0FF000C033F4300E58
:1040900001240401366F33C442F50A0E0501436F53
:1040A00000010FEC0FF0300E00240401386F300EC9
:1040B0000124376F35C400F0300E365D04E03483E0
:1040C00034BF348512D035C436F4200E356F300E2F
:1040D000375D04E0348134BF348307D0D8A4348101
:1040E00004E136C437F4200E366F34B505D034B34E
:1040F00008D034B10BD00FD035C443F4000183ECA9
:104100000BF036C443F4000183EC0BF037C443F4E6
:10411000000183EC0BF038C443F4000183EC0BF096
:10412000F1EF20F042C037F441C036F471EC19F0E1
:104130000501506B4F6B200E4E6F7A0E4D6F03C012
:1041400054F502C053F501C052F500C051F500010D
:1041500077EC1BF003C031F402C030F401C02FF43F
:1041600000C02EF4A00EF66E0E0EF76E070E0401C0
:10417000366F0001A3EC0BF0C90EE96E31C439F4BF
:1041800030C438F42FC437F42EC436F4010E0401C1
:104190003A6F000113EC1CF0AD0EF66E0E0EF76ECA
:1041A000060E0401366F0001A3EC0BF0400E040173
:1041B000366F000199EC0BF044500A0DF3CF32F446
:1041C0000401B40EF66E0E0EF76E090E366F000186
:1041D000A3EC0BF032C433F4180E0401346F000169
:1041E0003AD7250E0401436F000183EC0BF00AEF70
:1041F00024F03E0EF66E0E0EF76E89EC0BF0400EBC
:104200000401366F000199EC0BF062C132F41B0E11
:104210000401336F000125EC0FF04E0EF66E0E0E0A
:10422000F76E080E0401366F0001A3EC0BF00FEFE0
:1042300024F0200E040134A9300E356F33C400F091
:1042400033AF08D0001E002A00C033F42D0E356FA6
:10425000348F3481015033C442F5640E0501436F3D
:1042600000010FEC0FF000C033F4300E0124040104
:10427000366F33C442F50A0E0501436F00010FEC9F
:104280000FF0300E00240401386F300E0124376F18
:1042900035C400F0300E365D04E0348334BF34851D
:1042A00012D034B510D035C436F434B304D0300E47
:1042B000375D04E0348134BF348305D0D8A4348121
:1042C000D8B436C437F434B505D034B308D034B1DB
:1042D0000BD00FD035C443F4000183EC0BF036C48F
:1042E00043F4000183EC0BF037C443F4000183EC8A
:1042F0000BF038C443F4000183EC0BF01200400EC5
:104300000401366F000199EC0BF0700EF66E0F0E83
:10431000F76E89EC0BF01200400E0401366F0001BD
:1043200099EC0BF0820EF66E0F0EF76E89EC0BF027
:10433000120097928E9233C44DF4E7EC08F01A0EF7
:10434000006E002EFED70000120033C434F40401C6
:10435000356B3451090805E20A0E345F100E35271B
:1043600003D03451352701D0F4D735C401F0000112
:104370001200040132912051000A000105E0010AF7
:104380000DE0030A15E01FD004012F6B630E306FA0
:10439000090E2E6F60C131F4000115D0010E040129
:1043A0002F6F0C0E306F2E6F5FC131F400010BD0F8
:1043B000010E04012F6F1F0E306F0F0E2E6F5EC1A6
:1043C00031F4000100D0680EF66E100EF76E080E84
:1043D0000401366F0001A3EC0BF060C133F4010E51
:1043E0000401346F000125DF2D0E0401436F00012D
:1043F00083EC0BF05FC133F4010E0401346F000154
:1044000018DF2D0E0401436F000183EC0BF05EC139
:1044100033F4010E0401346F00010BDF0301EAB530
:104420000CD0010159A905D00301EA850101599970
:1044300003D0000164DF01010301EAA52ED00001D1
:104440006BDF2EC436F499EC0BF00E0E0401336FC3
:1044500000016FDF010159A50CD059950401312BE2
:1044600031BF05D03151305D02E22FC431F43281C9
:10447000010159A70CD059970401310731BF03D06E
:104480002F51315D02E230C431F43281010159A96A
:1044900004D059990401202B0101040132A13DD01F
:1044A0000101588104012051000A000105E0010AC0
:1044B00013E0030A21E030D031C460F160C133F46D
:1044C00044DF01C033F4060E04014D6F01C04EF409
:1044D00000018DEC09F020D031C45FF15FC133F4ED
:1044E00034DF01C033F4050E04014D6F01C04EF4FA
:1044F00000018DEC09F010D031C45EF15EC133F4DF
:1045000024DF01C033F4040E04014D6F01C04EF4EA
:1045100000018DEC09F000D004012051030808E1EE
:104520000301EA950401206B0C0E336F000101DFDB
:10453000000E0301EAB5010E016E000114EF24F034
:10454000040132912151000A000105E0010A0DE049
:10455000030A15E01ED004012F6B170E306F070EF3
:104560002E6F5BC131F4000114D004012F6B3B0EA0
:10457000306F0A0E2E6F5CC131F400010AD00401C5
:104580002F6B3B0E306F0D0E2E6F5DC131F40001AD
:1045900000D0800EF66E100EF76E060E0401366F18
:1045A0000001A3EC0BF05BC133F4010E0401346F86
:1045B00000013FDE3A0E0401436F000183EC0BF073
:1045C0005CC133F4010E0401346F000132DE3A0E97
:1045D0000401436F000183EC0BF05DC133F4010E65
:1045E0000401346F000125DE0301EAB70DD001019B
:1045F00059A906D00301EA8701015999588103D0CE
:1046000000017DDE01010301EAA731D0000184DE53
:104610002EC436F499EC0BF00E0E0401336F00013A
:1046200088DE010159A50DD059950401312B31BF08
:1046300005D03151305D02E22FC431F432810101E5
:10464000588159A70DD059970401310731BF03D0C4
:104650002F51315D02E230C431F4328101015881C1
:1046600059A905D059990401212B01015881040150
:1046700032A13CD00101588104012151000A0001FE
:1046800005E0010A13E0030A21E02FD031C45BF1F9
:104690005BC133F45ADE01C033F4020E04014D6FE6
:1046A00001C04EF400018DEC09F01FD031C45CF163
:1046B0005CC133F44ADE01C033F4010E04014D6FD6
:1046C00001C04EF400018DEC09F00FD031C45DF152
:1046D0005DC133F43ADE01507F0B0401336F4D6B43
:1046E0004E6F00018DEC09F000D004012151030848
:1046F0000AE10301EA970401216B0C0E336F0001FC
:1047000018DE01015881000E0301EAB7010E016EA7
:1047100000011BEF24F0040EF66E0E0EF76E090E6C
:104720000401366F0001A3EC0BF0080EE96EDEC346
:1047300034F4DDC333F4B7EC0BF0400E0401366FF4
:10474000000199EC0BF0140EF66E0E0EF76E090ECA
:104750000401366F0001A3EC0BF0080EE96EE0C314
:1047600034F4DFC333F4B7EC0BF022EF24F00A0E7D
:1047700004012D6F0301EAB90ED0010159B502D031
:10478000030109D0599504012D51225D02E2222B2B
:1047900001D0226B0301EAB90DD0010159B702D053
:1047A000030108D059970401225302E0220702D0E6
:1047B0002DC422F4000176EC0BF004012251F50F18
:1047C00046E20B0F00012AEF24F0EEEF1CF003018C
:1047D000EA9904013CD065EF1EF00301EA99040157
:1047E00036D0F0EF1EF00301EA99040130D05EEFFD
:1047F0001FF00301EA9904012AD0A2EF1FF0030180
:10480000EA99040124D0C6EF1FF00301EA990401DC
:104810001ED088D40301EA99040119D0EAD4030117
:10482000EA99040114D0A5D50301EA9901B0EA89F7
:1048300004010DD085D60301EA9901B0EA8904018B
:1048400006D069D70301EA99040101D004010001EF
:104850002BEF29F0E824F76AF7366F0FF66E480E53
:10486000F7220A00F550FA6E0800F550F96ECA47B3
:10487000D647E247EE47FA47064812481C48264802
:1048800034484248ECC3EAFFEBC3E9FF05014DC5DC
:10489000EFFFE92AD8B4EA2AEF6A0301EB2BD8B478
:1048A000EC2B00011200015040C542F5640E0501D9
:1048B000436F00010FEC0FF000C040F50150300EC7
:1048C00008E1050141A30FD041B70DD041B9200E39
:1048D00004D00501419741994181012601C04DF560
:1048E0000001D0DF050140C542F50A0E436F00010B
:1048F0000FEC0FF000C040F50150300E08E105014B
:1049000041B70AD041A108D041B9200E00010126CB
:1049100001C04DF5B7DF0501300E402740C54DF50C
:104920000001B0DF1200EACF48F5E9CF47F50501F5
:104930004139F009436F4327E20F446F320F466F4E
:1049400041510F0B442744274627E90F456F452760
:10495000452740390F0B4527462745374637461F21
:10496000463740510F0B46274337070E426F0A0E5A
:1049700045074627FDE344074527FDE34307442752
:10498000FDE342074327FDE3050EEA6E420EE96EA2
:10499000070E4715479DE926460EE95CD8B4478DBA
:1049A000EF50006E08E147BD06D047B915D047B7B4
:1049B00002D0200E03D047874799300E0026EACF59
:1049C00041F5E9CF40F500C04DF500015BDF41C581
:1049D000EAFF40C5E9FF0501EE5047ADDDD7000114
:1049E0001200E9500501456F4451476F1CE043C573
:1049F00050F542C54FF541C54EF540C54DF5546BD8
:104A0000536B200E526F820E516F000177EC1BF03A
:104A100003C043F502C042F501C041F500C040F5B6
:104A20000501472FE4D743C550F542C54FF541C5B1
:104A30004EF540C54DF50001F2EC1BF003C043F507
:104A400002C042F501C041F500C040F5050143AF89
:104A50000DD04507458B401F411F421F431F402B70
:104A6000D8B4412BD8B4422BD8B4432B3B0E4C6F57
:104A70009A0E4B6FCA0E4A6F496B0A0E476F44512C
:104A8000D8B4452BD882050EEA6E400EE96E43C5B8
:104A900050F542C54FF541C54EF540C54DF54CC5E5
:104AA00054F54BC553F54AC552F549C551F50001BA
:104AB0000EEC14F00150005213E105014429475D4A
:104AC000D8A402D000010CD045510DE00F0B475D7A
:104AD00001E040E245BF3ED045BD05D0200E34D0B8
:104AE000200E0501451745AB0ED0459B4451D8A477
:104AF00045070050456F2D0E4D6F0001C3DE0501C7
:104B00004551006E456B4451475D0CE10050456FC7
:104B10002E0E4D6F0001B6DE05014551006E200ED0
:104B20004517000E300E45AB0FD0459B4451D8A41D
:104B300045070050456F2D0E4D6F0001A3DE0501A6
:104B40004551006E456B300E002600C04DF500014A
:104B500099DE0501D8924CC550F54BC54FF54AC5B5
:104B60004EF549C54DF5546B536B526B0A0E516FA0
:104B700000010EEC14F003C04CF502C04BF501C06F
:104B80004AF500C049F50501472F7CD70001120006
:104B900095948C9400006650AB0E666E6430FEE314
:104BA00095948C840000010E0501486F0001CEEC45
:104BB00008F039EF26F005014B6B4A6B0001B1ECB0
:104BC00016F001C044F5036A050144C548F503C069
:104BD00049F54B6B0C0E4A6F03C04DF544C54CF5BF
:104BE000000142EC18F001C042F50501020E02245A
:104BF000436F476B47510B081BE347514225486FF2
:104C0000000E4321496F036A47514025E96E415127
:104C10000320EA6EEFCF4AF549C54CF548C54BF580
:104C20004AC54DF5000171EC11F00501472BE2D7A3
:104C3000442B4C6B4B6B44C54DF5000171EC11F0EE
:104C4000050144512C08D8A47BD04B6B020E4A6F4F
:104C50000001B1EC16F001C048F505014B6B030EE5
:104C60004A6F0001B1EC16F048C546F501C045F5A4
:104C70008FD795948C9400006650820E666E6430D7
:104C8000FEE305014535426F4635436F42374337F2
:104C9000FC0E421743C548F5665043C566FF6430B5
:104CA000FEE342C548F5665042C566FF6430FEE348
:104CB0006650666A6430FEE3436B426B4351020800
:104CC0001CE303E142510F0818E3040042C548F514
:104CD000020E4325496F4B6F42C54AF50001B1EC06
:104CE00016F001C047F5665047C566FF6430FEE325
:104CF0000501422BD8B4432BE1D795948C84000056
:104D00004C6B4B6B4D6B000171EC11F00501452BA9
:104D1000D8B4462B46C548F54C6B020E4B6F46C5C2
:104D20004DF5000171EC11F045C548F505014C6BDE
:104D3000030E4B6F45C54DF5000171EC11F00501F7
:104D40000001EFEF27F041C543F540C542F543C5EB
:104D500003F0050142C5E9FF43C5EAFFEF5206E053
:104D6000422BD8B4432B0001F2D705014051425DDC
:104D7000006E41514359036E00C001F00001F7EF8E
:104D800027F0A4A8FED76D6E07EF28F09D9236C0DD
:104D90003AF535C039F538C03CF537C03BF53AC077
:104DA0003EF539C03DF5366A356A386837683A6A83
:104DB000396A9D8260C12DF45FC12EF45EC12FF46B
:104DC0005BC130F45CC131F43AC532F4040139C539
:104DD00033F404013CC534F404013BC535F404014B
:104DE0003EC536F404013DC537F4040144380501DD
:104DF000406FF00E401743500F0B40250401386FF1
:104E0000040E0301EC6F390EEB6F320E05014D6F8E
:104E1000000138DD300E05014D6F000133DD60C14A
:104E200040F5010E0501416F00013DDD2D0E05012C
:104E30004D6F000127DD5FC140F5010E0501416F97
:104E4000000131DD2D0E05014D6F00011BDD5EC13E
:104E500040F5010E0501416F000125DD200E050121
:104E60004D6F00010FDD5BC140F5010E0501416F83
:104E7000000119DD3A0E05014D6F000103DD5CC133
:104E800040F5010E0501416F00010DDD2C0E0501FD
:104E90004D6F0001F7DC100EE96E3AC541F539C5DA
:104EA00040F541DD2C0E05014D6F0001EBDC100ECD
:104EB000E96E3CC541F53BC540F535DD2C0E0501DD
:104EC0004D6F0001DFDC100EE96E3EC541F53DC5BA
:104ED00040F529DD2C0E05014D6F0001D3DC100ECD
:104EE000E96E42C041F541C040F51DDD2C0E0501C3
:104EF0004D6F0001C7DC43C040F51B0E0501416F3B
:104F00000001D1DC2C0E05014D6F0001BBDCC90E88
:104F1000E96E6DC143F56CC142F56BC141F56AC1E3
:104F200040F5050E0501446F00015BDD2C0E050107
:104F30004D6F0001A7DCC90EE96E71C143F570C168
:104F400042F56FC141F56EC140F5050E0501446F94
:104F5000000147DD2C0E05014D6F000193DC0501BA
:104F6000406B1B0E416F00019EDC2C0E05014D6F46
:104F7000000188DC0501406B1B0E416F000193DCD2
:104F80002C0E05014D6F00017DDC0501406B1B0EF1
:104F9000416F000188DC2C0E05014D6F000172DCB1
:104FA000100EE96E4CC041F54BC040F5BCDC2C0E38
:104FB00005014D6F000166DC100EE96E0501416BC5
:104FC000406B0001B0DC0A0E05014D6F00015ADC98
:104FD000040E0501416F2D0E406F0001ECD5050157
:104FE0003F6B040E416F390E406F0001ACD601508B
:104FF00005013F5D15E2036A3F51390FE96E040E6A
:105000000320EA6EEFCF40F540510001BAD6010E01
:105010000501486F0001CEEC08F005013F2BE1D7F8
:10502000000131EF29F0F86A9F82A2929F9AA59A17
:10503000D08E078EEA6AE96A700ED36ED350346A56
:105040007E86220EAF6E000E7F6EA60EAC6E900EA8
:10505000AB6E7C960C0E6F6EA20E6C6E900E6B6E2D
:105060000301E26BE16BE46BE36BE66BE56BE76B13
:10507000E96BE86BEA91EA93EC6BEB6BED6BFC6B25
:10508000FD6B04011E6B1F6B0301EA950401206B8D
:105090000301EA970401216B0301EA990401236BE0
:1050A000246B256B0301EA9BEA9D640E0401266FC5
:1050B000286B276B2A6B296B2C6B2B6BC150C00B99
:1050C0000F09C16E070EB46E2E6A2F6A0301EE6BD4
:1050D000EF6BF06BF16BF26BF36BF46BF56BF66BE4
:1050E000F76BF86BF96BFA6BFB6BFE6BFF6B0401F4
:1050F000006B016B026B036B046B056B066B076B3C
:10510000086B096B0A6B0B6B0C6B0D6B0E6B0F6BEB
:10511000106B116B126B136B146B156B166B176B9B
:10512000186B196B1A6B1B6B1C6B1D6B226B0001D0
:1051300056EF0AF0A08297908E901E0E0401306FF9
:1051400000016BEC0BF0020E04012D6FFA0E05014D
:10515000486F0001CEEC08F004012D2FF7D70001B5
:1051600076EC0BF0C6EF0EF01FEF10F001015ABB0A
:1051700035D05ABD33D05ABD31D059955997599928
:10518000000176EC0BF0580EF66E110EF76E89ECFE
:105190000BF0400E0401366F000199EC0BF0660E27
:1051A000F66E110EF76E89EC0BF0040E04012D6FF4
:1051B000FA0E0501486F0001CEEC08F004012D2F16
:1051C000F7D7010159995995599759A906D0599975
:1051D0000001A3EC11F003D00101F7D700010A0E82
:1051E0000101636F640E0501486F0001CEEC08F009
:1051F000A09297908E809D820400010158AD05D049
:10520000589D000127EF12F0010158AF05D0589FBB
:1052100000010FEF13F001014FA004D0000157EF80
:1052200013F04F900001BFEF13F0010158A904D013
:10523000000193EF16F0010158AB03D00001D4EF49
:1052400017F0000103EF19F0010158A105D05891A2
:105250000001B7EF23F0010158A304D058930001D7
:1052600095D5010158A505D058950001A3EC11F082
:0852700001010001C1D7FFD7C5
:020000040030CA
:0E0000000048111A03053000FFC0FFE0FF406A
:00000001FF
;PIC18F6622
;CRC=6608  CREATED="10-May-17 20:56"
