:040000001FEF31F0CD
:080008006BEF00F000000000A6
:100010000000000000000000046ED8CF05F0E0CF23
:1000200006F00001E9CF0CF0EACF07F0E1CF08F0CD
:10003000E2CF09F0D9CF0AF0DACF0BF0F3CF12F00C
:10004000F4CF13F0FACF14F0F5CF15F0F6CF16F089
:10005000F7CF17F000C00EF001C00FF002C010F093
:1000600003C011F0A0A238EF00F0A1B248EF0AF0EF
:100070009DAA3EEF00F09EBA57EF0BF0A3AA44EF03
:1000800000F0A4BA7BEF0BF00EC000F00FC001F03F
:1000900010C002F011C003F00CC0E9FF07C0EAFF76
:1000A000078E08C0E1FF09C0E2FF0AC0D9FF0BC0FC
:1000B000DAFF12C0F3FF13C0F4FF14C0FAFF15C03B
:1000C000F5FF16C0F6FF17C0F7FF045006C0E0FFAB
:1000D00005C0D8FF1000196ED8CF1AF0E0CF1BF082
:1000E0000001E9CF21F0EACF1CF0E1CF1DF0E2CF13
:1000F0001EF0D9CF1FF0DACF20F0F3CF27F0F4CFE6
:1001000028F0FACF29F0F5CF2AF0F6CF2BF0F7CF71
:100110002CF000C023F001C024F002C025F003C081
:1001200026F09DA297EF00F09EB2B3EF0AF023C035
:1001300000F024C001F025C002F026C003F021C069
:10014000E9FF1CC0EAFF1C8E1DC0E1FF1EC0E2FFDC
:100150001FC0D9FF20C0DAFF27C0F3FF28C0F4FF7B
:1001600029C0FAFF2AC0F5FF2BC0F6FF2CC0F7FF0D
:1001700019501BC0E0FF1AC0D8FF1000F76A8C0F9F
:10018000F66E010EF7220900F55012001027E80361
:1001900064000A000100A40FF66E010EF7220900A8
:1001A000F550120000000000000000000000E6E929
:1001B000FFAB01887870E05F8D53094A76424C3C72
:1001C0002D37DC322B2FFA2B3029BC268E249C2293
:1001D000DC20471FD71D881C551B3B1A36194518B4
:1001E00065179516D3151E157314D4133E13B0124C
:1001F0002A12AC113411C2105710F00F8E0F310FAC
:10020000D80E840E320EE50D9A0D530D0E0DCD0C49
:100210008D0C500C160CDD0BA70B720B400B0F0B4B
:10022000DF0AB10A850A5A0A310A080AE109BB093C
:100230009709730950092F090E09EE08CF08B10874
:10024000940877085B08400825080C08F207DA07CD
:10025000C207AA0794077D07670752073D072907CA
:1002600015070107EE06DB06C906B706A6069406C3
:1002700083067306630653064306340625061606F0
:100280000806F905EC05DE05D005C305B605AA0587
:100290009D059105850579056D05620556054B059A
:1002A000400535052B05200516050C050205F8044B
:1002B000EF04E504DC04D204C904C004B804AF04AC
:1002C000A6049E0495048D0485047D0475046E04C3
:1002D00066045E0457044F04480441043A0433049E
:1002E0002C0425041E04180411040B040404FE034A
:1002F000F803F203EC03E603E003DA03D403CE03CE
:10030000C903C303BD03B803B303AD03A803A30329
:100310009D03980393038E038903840380037B0367
:10032000760371036D03680364035F035B03560385
:1003300052034E034903450341033D03390334038C
:1003400030032C032903250321031D03190315037F
:1003500012030E030A0307030303FF02FC02F80261
:10036000F502F202EE02EB02E702E402E102DE0233
:10037000DA02D702D402D102CE02CB02C802C502F1
:10038000C202BF02BC02B902B602B302B002AD02A1
:10039000AA02A802A502A2029F029D029A02970247
:1003A0009502920290028D028A02880285028302DF
:1003B00080027E027C02790277027402720270026D
:1003C0006D026B02690266026402620260025D02F3
:1003D0005B02590257025502530251024E024C026F
:1003E0004A02480246024402420240023E023C02E5
:1003F0003A02380236023402330231022F022D0251
:100400002B022902270225022402220220021E02B8
:100410001D021B0219021702160214021202110217
:100420000F020D020C020A02080207020502030273
:1004300002020002FF01FD01FC01FA01F901F701CE
:10044000F501F401F201F101EF01EE01ED01EB0123
:10045000EA01E801E701E501E401E301E101E0016E
:10046000DE01DD01DC01DA01D901D801D601D501B7
:10047000D401D201D101D001CE01CD01CC01CB01FB
:10048000C901C801C701C601C401C301C201C1013C
:10049000C001BE01BD01BC01BB01BA01B801B70179
:1004A000B601B501B401B301B201B001AF01AE01B3
:1004B000AD01AC01AB01AA01A901A801A701A501E9
:1004C000A401A301A201A101A0019F019E019D0120
:1004D0009C019B019A019901980197019601950150
:1004E000940193019201910190018F018E018D0180
:1004F0008C018B018A018A018901880187018601AB
:1005000085018401830182018101800180017F01D5
:100510007E017D017C017B017A01790179017801FD
:100520007701760175017401740173017201710123
:1005300070016F016F016E016D016C016B016B0148
:100540006A0169016801680167016601650164016A
:100550006401630162016101610160015F015E018B
:100560005E015D015C015C015B015A0159015901A9
:1005700058015701560156015501540154015301C8
:10058000520152015101500150014F014E014E01E3
:100590004D014C014C014B014A014A0149014801FE
:1005A0004801470146014601450144014401430118
:1005B000430142014101410140013F013F013E0130
:1005C0003E013D013C013C013B013B013A01390147
:1005D000390138013801370137013601350135015C
:1005E0003401340133013301320131013101300171
:1005F00030012F012F012E012E012D012C012C0184
:100600002B012B012A012A01290129012801280196
:1006100027012701260126012501250124012301A7
:1006200023012201220121012101200120011F01BA
:100630001F011E011E011D011D011D011C011C01C8
:100640001B011B011A011A011901190118011801D6
:1006500017011701160116011501150114011401E6
:1006600014011301130112011201110111011001F2
:10067000100110010F010F010E010E010D010D01FE
:100680000C010C010C010B010B010A010A0109010B
:100690000901090108010801070107010701060115
:1006A0000601050105010401040104010301030120
:1006B000020102010201010101010001000100012A
:1006C000FF00FF00FE00FE00FE00FD00FD00FD003B
:1006D000FC00FC00FB00FB00FB00FA00FA00FA0043
:1006E000F900F900F800F800F800F700F700F7004B
:1006F000F600F600F500F500F500F400F400F40053
:10070000F300F300F300F200F200F200F100F10058
:10071000F100F000F000EF00EF00EF00EE00EE005F
:10072000EE00ED00ED00ED00EC00EC00EC00EB0065
:10073000EB00EB00EA00EA00EA00E900E900E9006A
:10074000E800E800E800E700E700E700E700E6006F
:10075000E600E600E500E500E500E400E400E40072
:10076000E300E300E300E200E200E200E200E10077
:10077000E100E100E000E000E000DF00DF00DF007A
:10078000DE00DE00DE00DE00DD00DD00DD00DC007E
:10079000DC00DC00DC00DB00DB00DB00DA00DA0080
:1007A000DA00DA00D900D900D900D800D800D80082
:1007B000D800D700D700D700D600D600D600D60084
:1007C000D500D500D500D500D400D400D400D30086
:1007D000D300D300D300D200D200D200D200D10087
:1007E000D100D100D100D000D000D000D000CF0087
:1007F000CF00CF00CE00CE00CE00CE00CD00CD0089
:10080000CD00CD00CC00CC00CC00CC00CB00CB0088
:10081000CB00CB00CA00CA00CA00CA00C900C90088
:10082000C900C900C900C800C800C800C800C70086
:10083000C700C700C700C600C600C600C600C50086
:10084000C500C500C500C400C400C400C400C40085
:10085000C300C300C300C300C200C200C200C20084
:10086000C200C100C100C100C100C000C000C00082
:10087000C000C000BF00BF00BF00BF00BE00BE0080
:10088000BE00BE00BE00BD00BD00BD00BD00BC007E
:10089000BC00BC00BC00BC00BB00BB00BB00BB007C
:1008A000BB00BA00BA00BA00BA00BA00B900B90079
:1008B000B900B900B800B800B800B800B800B70077
:1008C000B700B700B700B700B600B600B600B60074
:1008D000B600B500B500B500B500B500B400B40071
:1008E000B400B400B400B400B300B300B300B3006C
:1008F000B300B200B200B200B200B200B100B10069
:10090000B100B100B100B000B000B000B000B00064
:10091000B000AF00AF00AF00AF00AF00AE00AE0060
:10092000AE00AE00AE00AE00AD00AD00AD00AD005B
:10093000AD00AC00AC00AC00AC00AC00AC00AB0057
:10094000AB00AB00AB00AB00AB00AA00AA00AA0052
:10095000AA00AA00A900A900A900A900A900A9004D
:10096000A800A800A800A800A800A800A700A70049
:10097000A700A700A700A700A600A600A600A60043
:10098000A600A600A500A500A500A500A500A5003D
:10099000A400A400A400A400A400A400A300A30039
:1009A000A300A300A300A300A300A200A200A20032
:1009B000A200A200A200A100A100A100A100A1002C
:1009C000A100A000A000A000A000A000A000A00026
:1009D0009F009F009F009F009F009F009E009E0021
:1009E0009E009E009E009E009E009D009D009D001A
:1009F0009D009D009D009D009C009C009C009C0013
:100A00009C009C009C009B009B009B009B009B000B
:100A10009B009B009A009A009A009A009A009A0004
:100A20009A009900990099009900990099009900FD
:100A300098009800980098009800980098009700F7
:100A400097009700970097009700970096009600F0
:100A500096009600960096009600960095009500E8
:100A600095009500950095009500940094009400E1
:100A700094009400940094009400930093009300D9
:100A800093009300930093009200920092009200D2
:100A900092009200920092009100910091009100CA
:100AA00091009100910091009000900090009000C2
:100AB00090009000900090008F008F008F008F00BA
:100AC0008F008F008F008F008E008E008E008E00B2
:100AD0008E008E008E008E008E008D008D008D00A9
:100AE0008D008D008D008D008D008C008C008C00A1
:100AF0008C008C008C008C008C008B008B008B0099
:100B00008B008B008B00140FF66E0B0EF722090082
:100B1000F55012000000030003000400040005006B
:100B2000050006000600070007000800080008008E
:100B3000090009000A000A000B000B000C000C0061
:100B40000D000D000E000E000E000F000F00100033
:100B50001000110011001200120013001300130006
:100B600014001400150015001600160017001700D9
:100B7000180018001900190019001A001A001B00AB
:100B80001B001C001C001D001D001E001E001F007D
:100B90001F001F0020002000210021002200220051
:100BA0002300230024002400250025002500260022
:100BB00026002700270028002800290029002A00F5
:100BC0002A002A002B002B002C002C002D002D00C9
:100BD0002E002E002F002F0030003000300031009A
:100BE000310032003200330033003400340035006D
:100BF0003500360036003600370037003800380040
:100C0000390039003A003A003B003B003B003C0011
:100C10003C003D003D003E003E003F003F004000E4
:100C200040004100410041004200420043004300B7
:100C30004400440045004500460046004700470088
:100C4000470048004800490049004A004A004B005C
:100C50004B004C004C004D004D004D004E004E002E
:100C60004F004F0050005000510051005200520000
:100C700052005300530054005400550055005600D4
:100C800056005700570058005800580059005900A6
:100C90005A005A005B005B005C005C005D005D0078
:100CA0005E005E005E005F005F006000600061004B
:100CB000610062006200630063006300640064001E
:100CC00065006500660066006700670068006800F0
:100CD0006900690069006A006A006B006B006C00C3
:100CE0006C006D006D006E006E006F006F006F0095
:100CF0007000700071007100720072007300730068
:100D00007400740075007500750076007600770039
:100D1000770078007800790079007A007A007A000C
:100D20007B007B007C007C007D007D007E007E00DF
:100D30007F007F00800080008000810081008200B1
:100D40008200830083008400840085008500860083
:100D50008600860087008700880088008900890057
:100D60008A008A008B008B008B008C008C008D0029
:100D70008D008E008E008F008F00900090009100FB
:100D800091009100920092009300930094009400CF
:100D900095009500960096009700970097009800A0
:100DA0009800990099009A009A009B009B009C0073
:100DB0009C009D009D009D009E009E009F009F0046
:100DC000A000A000A100A100A200A200A200A30018
:100DD000A300A400A400A500A500A600A600A700EB
:100DE000A700A800A800A800A900A900AA00AA00BE
:100DF000AB00AB00AC00AC00AD00AD00AE00AE008F
:100E0000AE00AF00AF00B000B000B100B100B20062
:100E1000B200B300B300B400B400B400B500B50034
:100E2000B600B600B700B700B800B800B900B90006
:100E3000B900BA00BA00BB00BB00BC00BC00BD00DA
:100E4000BD00BE00BE00BF00BF00BF00C000C000AC
:100E5000C100C100C200C200C300C300C400C4007E
:100E6000C500C500C500C600C600C700C700C80051
:100E7000C800C900C900CA00CA00CA00CB00CB0024
:100E8000CC00CC00CD00CD00CE00CE00CF00CF00F6
:100E9000D000D000D000D100D100D200D200D300C9
:100EA000D300D400D400D500D500D600D600D6009B
:100EB000D700D700D800D800D900D900DA00DA006E
:100EC000DB00DB00DC00DC00DC00DD00DD00DE0040
:100ED000DE00DF00DF00E000E000E100E100E10013
:100EE000E200E200E300E300E400E400E500E500E6
:100EF000E600E600E700E700E700E800E800E900B8
:100F0000E900EA00EA00EB00EB00EC00EC00ED0089
:100F1000ED00ED00EE00EE00EF00EF00F000F0005D
:100F2000F100F100F200F200F200F300F300F4002F
:100F3000F400F500F500F600F600F700F700F80001
:100F4000F800F800F900F900FA00FA00FB00FB00D5
:100F5000FC00FC00FD00FD00FE00FE00FE00FF00A6
:100F6000FF00000100010101010102010201030172
:100F70000301040104010401050105010601060144
:100F800007010701080108010901090109010A0116
:100F90000A010B010B010C010C010D010D010E01E9
:100FA0000E010F010F010F011001100111011101BC
:100FB000120112011301130114011401150115018D
:100FC0001501160116011701170118011801190161
:100FD00019011A011A011A011B011B011C011C0134
:100FE0001D011D011E011E011F011F012001200105
:100FF00020012101210122012201230123012401D9
:1010000024012501250126012601260127012701AA
:1010100028012801290129012A012A012B012B017C
:101020002C012C012C012D012D012E012E012F014F
:101030002F01300130013101310131013201320122
:1010400033013301340134013501350136013601F4
:1010500037013701370138013801390139013A01C7
:101060003A013B013B013C013C013D013D013D0199
:101070003E013E013F013F0140014001410141016C
:10108000420142014201430143014401440145013F
:101090004501460146014701470148014801480111
:1010A000490149014A014A014B014B014C014C01E4
:1010B0004D014D014E014E014E014F014F015001B6
:1010C0005001510151015201520153015301540188
:1010D000540154015501550156015601570157015C
:1010E000580158015901590159015A015A015B012E
:1010F0005B015C015C015D015D015E015E015F0100
:101100005F015F01600160016101610162016201D3
:1011100063016301640164016501650165016601A4
:1011200066016701670168016801690169016A0177
:101130006A016B016B016B016C016C016D016D014A
:101140006E016E016F016F0170017001700171011C
:1011500071017201720173017301740174017501EF
:1011600075017601760176017701770178017801C2
:10117000790179017A017A017B017B017C017C0193
:101180007C017D017D017E017E017F017F01800167
:10119000800181018101810182018201830183013A
:1011A000840184018501850186018601870187010B
:1011B000870188018801890189018A018A018B01DF
:1011C0008B018C018C018D018D018D018E018E01B1
:1011D0008F018F0190019001910191019201920183
:1011E0009301930193019401940195019501960156
:1011F0009601970197019801980198019901990129
:101200009A019A019B019B019C019C019D019D01FA
:101210009E019E019E019F019F01A001A001A101CD
:10122000A101A201A201A301A301A401A401A4019F
:10123000A501A501A601A601A701A701A801A80172
:10124000A901A901A901AA01AA01AB01AB01AC0145
:10125000AC01AD01AD01AE01AE01AF01AF01AF0117
:10126000B001B001B101B101B201B201B301B301EA
:10127000B401B401B501B501B501B601B601B701BC
:10128000B701B801B801B901B901BA01BA01BB018E
:10129000BB01BB01BC01BC01BD01BD01BE01BE0162
:1012A000BF01BF01C001C001C001C101C101C20134
:1012B000C201C301C301C401C401C501C501C60106
:1012C000C601C601C701C701C801C801C901C901DA
:1012D000CA01CA01CB01CB01CC01CC01CC01CD01AB
:1012E000CD01CE01CE01CF01CF01D001D001D1017E
:1012F000D101D101D201D201D301D301D401D40152
:10130000D501D501D601D601D701D701D701D80122
:10131000D801D901D901DA01DA01DB01DB01DC01F5
:10132000DC01DD01DD01DD01DE01DE01DF01DF01C8
:10133000E001E001E101E101E201E201E301E30199
:10134000E301E401E401E501E501E601E601E7016D
:10135000E701E801E801E801E901E901EA01EA0140
:10136000EB01EB01EC01EC01ED01ED01EE01EE0111
:10137000EE01EF01EF01F001F001F101F101F201E5
:10138000F201F301F301F401F401F401F501F501B7
:10139000F601F601F701F701F801F801F901F90189
:1013A000F901FA01FA01FB01FB01FC01FC01FD015D
:1013B000FD01FE01FE01FF01FF01FF01000200022D
:1013C00001020102020202020302030204020402F9
:1013D00005020502050206020602070207020802CC
:1013E0000802090209020A020A020B020B020B029E
:1013F0000C020C020D020D020E020E020F020F0271
:101400001002100210021102110212021202130243
:101410001302140214021502150216021602160215
:101420001702170218021802190219021A021A02E8
:101430001B021B021C021C021C021D021D021E02BA
:101440001E021F021F02200220022102210222028C
:101450002202220223022302240224022502250260
:101460002602260227022702270228022802290232
:1014700029022A022A02F76A860FF66E140EF72254
:101480000900F550120032362D4A756C2D313800A6
:10149000B10EB36EE00EB26E81CF5CF1D890030155
:1014A000E93505016C6F0301EA3505016D6F000E2A
:1014B00001015CAB010E05016C136CC5E9F305017C
:1014C0006D51E0090301EA6FE95309E1EA51F008BF
:1014D00006E101015B875A811E0E636F0301D890FC
:1014E000EB3505016C6F0301EC3505016D6F000EE6
:1014F00001015CAD010E05016C136CC5EBF3050138
:101500006D51E0090301EC6FEB5309E1EC51F00878
:1015100006E101015B895A811E0E636F0301D890B9
:10152000ED3505016C6F0301EE3505016D6F000EA1
:1015300001015CAF010E05016C136CC5EDF30501F3
:101540006D51E0090301EE6FED5309E1EE51F00832
:1015500006E101015B855A811E0E636F0301A192B2
:10156000000144EF00F00301EF2BEF51640804E1A8
:10157000EF6B01015A8D03014E2C42D0938005017F
:101580006F9381B06F836FB30FD00301F2B102D0BC
:1015900005010AD00101682BD8B4692B3B2AD8B4C5
:1015A0003C2A392AD8B43A2A0301F29105016FA3E3
:1015B00003D00301F28105010301F02BD8B4F12B14
:1015C000F05110081CE1F151270819E1F16BF06BA3
:1015D00069C136F068C135F00101696B686B38503C
:1015E000365C04E307E13550375C04E3373C06D052
:1015F000383C04D036C038F035C037F0030147D04E
:1016000005016FA10CD00101663D05D0673D03D0F7
:10161000050105D00101662BD8B4672B0501938025
:101620006F9381B06F836FB329D00301F2B102D001
:10163000050124D03B2AD8B43C2A392AD8B43A2A06
:10164000F2A313D005016F9167C136F066C135F082
:101650003650385C08E303E13750355C04E236C0AD
:1016600038F035C037F00301F293F2B307D001012F
:10167000676B666B05016F810301F2830301F291D1
:1016800005016FA303D00301F281050103019E92BE
:10169000000197EF00F09EAAFED7ABCF34F0AECF9B
:1016A00001F034A202D0AB98AB885AEF0BF0D56BA7
:1016B000D46BF1D701C06CF5D3530EE1D2517F0842
:1016C0000BE3520ED225E96E000ED321EA6E6CC5F3
:1016D000EFFFD22BD8B4D32B9E9A44EF00F0A4AAEC
:1016E000FED76BCF34F06ECF01F034A202D06B98EE
:1016F0006B887CEF0BF0F3D701C06CF5A49A44EF34
:1017000000F0232044617461666C6173682070612D
:10171000676520726561642066726F6D20256C7547
:101720000D0A00000D0A00000D0A2320446F6E65AB
:101730000D0A00002320696E697469616C697A6919
:101740006E67206C6F6767696E670D0A00005265EF
:1017500073657474696E67204C6F67210000446F75
:101760006E6500003E20646F6E650D0A0000232048
:10177000706C6179696E67206C6F670D0A003E209E
:10178000646F6E650D0A0000232044756D70696EEC
:1017900067206C6F670D0A003E20646F6E650D0A4E
:1017A000000050616765205265713A202530356C24
:1017B0007500204E2050616765733A202530356CE6
:1017C0007500556E697420557074696D653A000036
:1017D000256C75206D696E75746573005769726547
:1017E0006C657373206F6E3A000025752073656316
:1017F0006F6E64730000534420436172642053741D
:10180000617475733A004C6F6767696E67202831A1
:1018100030207365632900004C6F6767696E67202D
:10182000283630207365632900004E6F742072657E
:10183000616479212028313029004E6F742072654F
:1018400061647921202836302900496E7465726EF2
:10185000616C204D656D6F72793A0000256C752FB3
:10186000256C752066756C6C0000416E616C6F674D
:1018700020303A20256C7500416E616C6F67203115
:101880003A20256C7500496E7075743A2025302E0B
:10189000316C6620766F6C7473004261747465728B
:1018A000793A20256425250057696E6420446972C1
:1018B000656374696F6E3A00536563746F722025B7
:1018C00075202800343500003930000031333500F0
:1018D00031383000323235003237300033313500A4
:1018E0004628487A2920464D61782020436E7400AE
:1018F000542020202020546D696E20436F756E7433
:101900000000446174653A203230253032752D254F
:101910003032752D2530327500004E6F772025301E
:1019200032753A253032753A253032752055544398
:1019300000004669726D7761726520566572736941
:101940006F6E3A0031303A34393A34330000537014
:101950006565643A202530322E3166206D2F730084
:10196000477573743A20202530322E3166206D2F52
:10197000730053706565643A202530342E3177202A
:101980006D2F7300477573743A20202530342E3143
:1019900077206D2F73005072657620205365742078
:1019A00020204E65787400002D20202020205365D3
:1019B000742020202020202B00002D2020202020FB
:1019C0004E65787420202020202B00004E4F2020D0
:1019D0002020594553005072657620456E7465721B
:1019E00020204E657874000057726F74652044653E
:1019F0006661756C7420534E000053657474696E93
:101A00006720534E2E2E2E0053657269616C3A206A
:101A10002563000057726F746520534E0000202D1F
:101A20002048572054595045202D200052444C2026
:101A3000202020202020202052444C5500005772A6
:101A40006F7465204857205479706500202D20411F
:101A50004E454D4F2054595045202D200000233431
:101A6000304843202020202020544849455300007E
:101A700057726F746520416E656D6F205479706583
:101A80000000202D205344204C4F47205241544504
:101A9000202D200036302073656320202020313037
:101AA00020736563000057726F7465205344207281
:101AB00061746500202D204C49564520464F524DFB
:101AC0004154202D200053484F52542020202020E4
:101AD000202046554C4C000057726F7465206C698D
:101AE0007665207479706500446174653A203230FF
:101AF000253032642D253032642D253032640000CB
:101B000054696D653A20253032643A253032643AA2
:101B100025303264000072646C285529000072641C
:101B20006C556E690000756E6B6E6F776E210000EC
:101B300020233430484300002054484945530000D6
:101B400020554E4B4E4F574E0000557020696E2069
:101B500025752049443D2563256C75200000232010
:101B6000555020494E202575205345434F4E445330
:101B70000D0A0000232072644C6F67676572556E12
:101B80006976657273616C202573202832302530A8
:101B900032752D253032752D253032752920287368
:101BA000657269616C202563256C75292028686140
:101BB000726477617265202575292028616E656DD4
:101BC0006F6D65746572202575290D0A0000323627
:101BD0002D4A756C2D3138005072657373206D6914
:101BE00064646C650000627574746F6E20746F209D
:101BF000636C65617200639A9598958A959C300E26
:101C0000636EC00E646E95968C8695948C840000ED
:101C1000A8EF10F094869488A9EF10F0050EEA6EF4
:101C2000600EE96EEF500DE0020E016E006A002EAC
:101C3000FED7012EFBD7970E006E002EFED7EF2E9B
:101C4000F3D7120097968E8697968E96120004010F
:101C500055BF02D08E9E01D08E8E979E55BD02D06C
:101C60008E9C01D08E8C979C55BB02D08E9A01D051
:101C70008E8A979A55B902D08E9801D08E889798FF
:101C80000001E0DF040155B702D08E9E01D08E8E98
:101C9000979E55B502D08E9C01D08E8C979C55B3E3
:101CA00002D08E9A01D08E8A979A55B102D08E9822
:101CB00001D08E8897980001C5DF1A0E006E002EA5
:101CC000FED7000012000F0E0501606F0001A6DFB5
:101CD00097928E9297948E94979E8E9E979C8E9CB0
:101CE000979A8E8A97988E88ADDF050E0501606FF2
:101CF000000194DFA7DF420E006E002EFED7000029
:101D0000A1DF050E0501606F000188DF97988E98AE
:101D100099DF1A0E006E002EFED70000280E040177
:101D2000556F000194DF0C0E0401556F00018FDF29
:101D3000060E0401556F00018ADF010E0401556F84
:101D4000000185DFAAEF10F0080E016E00008B96EF
:101D50009496000005015B378B98D8B09488D8A082
:101D60009498948682A6FED7012E01D002D000015D
:101D7000EDD700008B969496000094880000000038
:101D8000948682A6FED7016A000082B801808B96F5
:101D900094968B9894980001120094880000948681
:101DA00000008B98949800008B969496D00E0501B5
:101DB0005B6F0001C9DF01500401579101B05781E9
:101DC00057A102D00001E9D755C45BF50001BCDF83
:101DD00056C45BF5B9DF94980000948682A6FED7BE
:101DE000000000D00000948800001200070E0401DB
:101DF000556F100E566F0001D0DFABEF10F0080EDC
:101E00000501596F00C05AF594880000948682A697
:101E1000FED782B8D88082A8D89001360000949668
:101E20008B96592FF1D7948800008B985A51D8A4DB
:101E300094980000948682A6FED700008B96949614
:101E400000008B98949800011200948800009486FA
:101E500000008B98949800008B969496D00E050104
:101E60005B6F000171DF01500108EFE055C45BF5C5
:101E70006BDF948800009486000082A6FED78B98C2
:101E8000949800008B969496D10E05015B6F00012B
:101E90005BDF01500108EDE0006AB1DF01C056F4DC
:101EA00094980000948682A6FED7000000D000001F
:101EB00094880000040156C401F0000112000401DE
:101EC0005639576F0F0E571756510F0B586F575102
:101ED0000A0DF3505825016E000112000401556BE4
:101EE000566B00015ADF060E0401556F0A0E566F3D
:101EF000000153DF050E0401556F010E566F0001FE
:101F00004CDF040E0401556F010E566F000145DFD2
:101F1000020E0401556F566B00013FDF010E0401F4
:101F2000556F566B000139DFB9EF10F0720ED36EAA
:101F3000D350C150C00B0B09C16EC050C00B070974
:101F4000C06EC08EC28001015A935A955A975A8129
:101F50005A995A9B5B815A9D5A9F5B955B975B99F7
:101F600081CF5CF11E0E636F366A356A3868376858
:101F70003C6A3B6A3A6A396A696B686B040EEA6EBE
:101F8000350EE96E000E00013BEC0AF00A00090074
:101F9000F550EE6E0009FBE1300E0401355D0A0DCF
:101FA000F3CF4AF0300E365D4A2638514A080FE129
:101FB0003951410803E1010E496E08D03A514E08EB
:101FC00003E1060E496E02D0070E496E37D0385134
:101FD000410809E13951500803E1040E496E02D06D
:101FE000080E496E2BD038514D0809E13A5152087C
:101FF00003E1030E496E02D0050E496E1FD0385121
:10200000460803E1020E496E19D03851530803E126
:10201000090E496E13D038514F0803E10A0E496E7C
:102020000DD038514E0803E10B0E496E07D03851E0
:10203000440803E10C0E496E01D04968300E3C5D46
:102040000A0DF3CF48F0300E3D5D48264C6A4B6ACE
:1020500051900001D36BD26BD569D469D769D66929
:1020600001015991F2CF55F4F29CF29EAA6A100E2A
:10207000A96EA69CA69EA680A850040155BDF28C10
:1020800055BFF28E456EF2CF55F4F29CF29EAA6ACD
:10209000110EA96EA69CA69EA680A85055BDF28CD6
:1020A00055BFF28E466EF2CF55F4F29CF29EAA6AAC
:1020B000120EA96EA69CA69EA680A85055BDF28CB5
:1020C00055BFF28E476EF2CF55F4F29CF29EAA6A8B
:1020D000130EA96EA69CA69EA680A85055BDF28C94
:1020E00055BFF28E4D6EF2CF55F4F29CF29EAA6A65
:1020F000140EA96EA69CA69EA680A85055BDF28C73
:1021000055BFF28E4E6EF2CF55F4F29CF29EAA6A43
:10211000150EA96EA69CA69EA680A85055BDF28C51
:1021200055BFF28E506EF2CF55F4F29CF29EAA6A21
:10213000160EA96EA69CA69EA680A85055BDF28C30
:1021400055BFF28E4F6E0301DE69DD69000153D584
:1021500061D5B9D54BD6060E0401556F000175DE69
:1021600001C055F401C056F4AADE0150040801E391
:10217000B5D6000E0509CA6E310ECB6E850EB16E56
:102180009D8AA38AF19EC00EF212A6EF31F00401DF
:1021900038510101645D02E238C464F1969A8D9A67
:1021A0000001120097928E92010E0401556F0001FA
:1021B0004EDD020E0501606F000130DD12009792C6
:1021C0008E8249C455F443DD12000900F5520CE03B
:1021D000F6CF45F4F7CF46F4F5CF49F4F0DF45C428
:1021E000F6FF46C4F7FFF1D712000900F6CF40F41E
:1021F000F7CF41F4F5CF49F4E2DF40C4F6FF41C424
:10220000F7FF04013F2F01D002D00001EED70001FB
:102210001200F4C3EAFFF3C3E9FF05016BC5EFFF4A
:10222000E92AD8B4EA2AEF6A0301F32BD8B4F42BD5
:1022300000011200EACF6AF5E9CF69F505016339BB
:10224000F009656F6527E20F666F320F686F6351A3
:102250000F0B662766276827E90F676F67276727D1
:1022600062390F0B6727682767376837681F683739
:1022700062510F0B68276537070E646F0A0E6707F8
:102280006827FDE366076727FDE365076627FDE32B
:1022900064076527FDE3050EEA6E640EE96E070E1E
:1022A0006915699DE926680EE95CD8B4698DEF501F
:1022B000006E08E169BD06D069B915D069B702D0D2
:1022C000200E03D069876999300E0026EACF63F5A6
:1022D000E9CF62F500C06BF500019BDF63C5EAFF43
:1022E00062C5E9FF0501EE5069ADDDD700011200BE
:1022F00097928E92800E04014625476F556F00011C
:10230000A6DC1200400E0401466F0001F1DFA80EAA
:10231000F66E190EF76E59DF1200EF520FE0EACF9A
:1023200046F4E9CF45F4EFCF49F449DF46C4EAFF6C
:1023300045C4E9FFE92AD8B4EA2AEFD7D2EF11F071
:1023400097928E9245C455F482DC1A0E006E002ED0
:10235000FED700001200050154515603F3CF01F0DF
:10236000F4CF00F05703F350002655515603F350B5
:102370000020026E00011200040E0301F46F3F0EF4
:10238000F36F080EE96EE2C363F5E1C362F5000185
:1023900051DFB8DFE7C346F4ABDF040EEA6E3F0E51
:1023A000E96EBBD70301E751E8250401456F466F8D
:1023B00000019EDF0E0E0401456F0001C1DF010127
:1023C0005BA549D05B95036A0301E8513F0FE96EB5
:1023D000040E0320EA6EEF50350807E1E85305E1EB
:1023E000500EE15FC30EE25B34D0036AE8513F0F49
:1023F000E96E040E0320EA6EEF5039081DE1D89013
:10240000E835036A0001BEEC00F00900F5CF03F0E7
:102410000401456F03C046F403C055F5E8CF54F5F9
:102420000501576B090E566F000195DF015003013E
:10243000E15F0250E25B0DD0D890E835036A0001FD
:10244000BEEC00F00900F5CF03F00301E1270350D3
:10245000E22301015A815BA749D05B97036A03011C
:10246000E8513F0FE96E040E0320EA6EEF5030088A
:1024700007E1E85305E1500EE127C30EE22334D013
:10248000036AE8513F0FE96E040E0320EA6EEF5035
:1024900030081DE1D890E835036A0001BEEC00F079
:1024A0000900F5CF03F00401456F03C046F403C0F3
:1024B00055F5E8CF54F50501576B090E566F00012D
:1024C0004ADF01500301E1270250E2230DD0D890EA
:1024D000E835036A0001BEEC00F00900F5CF03F017
:1024E0000301E15F0350E25B01015A815BA905D062
:1024F0005B990301E82B01015A810301E8510508AA
:1025000009E10C0E0401456F00011ADF010E016E96
:1025100003D00301000E016E00019FEF13F00401D0
:102520003553D8B497D0AA6A100EA96E520EA86E71
:10253000A69CA69EA684F250006EF29CF29E0F010D
:10254000550EA76EAA0EA76EA682A6B2FED7A694B7
:102550000050F212AA6A110EA96EA86AA69CA69E45
:10256000A684F2CF00F0F29CF29E550EA76EAA0E42
:10257000A76EA682A6B2FED7A6940050F212AA6A4F
:10258000120EA96EA86AA69CA69EA684F2CF00F0A1
:10259000F29CF29E550EA76EAA0EA76EA682A6B258
:1025A000FED7A6940050F212AA6A130EA96E020E6C
:1025B000A86EA69CA69EA684F2CF00F0F29CF29E86
:1025C000550EA76EAA0EA76EA682A6B2FED7A69437
:1025D0000050F212AA6A140EA96EA86AA69CA69EC2
:1025E000A684F2CF00F0F29CF29E550EA76EAA0EC2
:1025F000A76EA682A6B2FED7A6940050F212AA6ACF
:10260000150EA96EA86AA69CA69EA684F2CF00F01D
:10261000F29CF29E550EA76EAA0EA76EA682A6B2D7
:10262000FED7A6940050F2120001BCDDE80EF66E53
:10263000190EF76ECADD040E04013F6FFA0E050194
:10264000606F00010EEC0EF004013F2FF7D7000180
:10265000A9DD0401F2CF3FF4F29CF29EAA6A100EAB
:10266000A96EA69CA69EA680A8503FBDF28C3FBF37
:10267000F28E366FF2CF3FF4F29CF29EAA6A110EF0
:10268000A96EA69CA69EA680A8503FBDF28C3FBF17
:10269000F28E406FF2CF41F4F29CF29EAA6A120EC3
:1026A000A96EA69CA69EA680A85041BDF28C41BFF3
:1026B000F28E426F40C438F442C437F401015B9794
:1026C0005B955B9900016EDDFA0EF66E190EF76EE2
:1026D0007CDD0A0E04013F6FFA0E0501606F0001F8
:1026E0000EEC0EF004013F2FF7D738C4E2F337C4E5
:1026F000E1F30301E86B090EE76F04013E693D69F0
:1027000004000301E15104013D5D05E10301E251D3
:1027100004013E5D12E0000145DD080EF66E1A0E62
:10272000F76E080E04013F6F00015FDD36C449F407
:1027300046DDE2C33EF4E1C33DF400011DD6015283
:1027400005E0E2C338F4E1C337F403D00401D8D77D
:102750000001AA6A100EA96E520EA86EA69CA69E33
:10276000A684F250006EF29CF29E0F01550EA76EE9
:10277000AA0EA76EA682A6B2FED7A6940050F212A9
:1027800038C43FF4AA6A110EA96E38C4A8FFA69CEB
:10279000A69EA684F2CF00F0F29CF29E550EA76E84
:1027A000AA0EA76EA682A6B2FED7A6940050F21279
:1027B00037C43FF4AA6A120EA96E37C4A8FFA69CBC
:1027C000A69EA684F2CF00F0F29CF29E550EA76E54
:1027D000AA0EA76EA682A6B2FED7A6940050F21249
:1027E000AA6A130EA96E39C4A8FFA69CA69EA68449
:1027F000F2CF00F0F29CF29E550EA76EAA0EA76EC5
:10280000A682A6B2FED7A6940050F212AA6A140EAF
:10281000A96E3AC4A8FFA69CA69EA684F2CF00F09B
:10282000F29CF29E550EA76EAA0EA76EA682A6B2C5
:10283000FED7A6940050F212F2CF3FF4F29CF29E23
:10284000AA6A100EA96EA69CA69EA680A850040196
:102850003FBDF28C3FBFF28E456EF2CF3FF4F29C4B
:10286000F29EAA6A110EA96EA69CA69EA680A850EA
:102870003FBDF28C3FBFF28E466EF2CF3FF4F29C2A
:10288000F29EAA6A120EA96EA69CA69EA680A850C9
:102890003FBDF28C3FBFF28E476EF2CF3FF4F29C09
:1028A000F29EAA6A130EA96EA69CA69EA680A850A8
:1028B0003FBDF28C3FBFF28E4D6EF2CF3FF4F29CE3
:1028C000F29EAA6A140EA96EA69CA69EA680A85087
:1028D0003FBDF28C3FBFF28E4E6E000163DC140EE2
:1028E000F66E1A0EF76E71DC040E04013F6FFA0EDD
:1028F0000501606F00010EEC0EF004013F2FF7D7C9
:10290000000150DC0401466B0001F2DC1E0EF66E85
:102910001A0EF76E5ADC400E0401466F0001E8DC27
:102920002C0EF66E1A0EF76E50DC01015BA901D079
:102930005B995BA506D05B95020E0401396F10D040
:1029400001015BA704D05B970401396B09D0140E19
:102950000501606F00010EEC0EF00400D3D70401F6
:10296000AA6A130EA96E39C4A8FFA69CA69EA684C7
:10297000F250006EF29CF29E0F01550EA76EAA0E49
:10298000A76EA682A6B2FED7A6940050F212F2CF8E
:102990003FF4F29CF29EAA6A130EA96EA69CA69E14
:1029A000A680A85004013FBDF28C3FBFF28E4D6E51
:1029B0000001D2EC10F03E0EF66E1A0EF76E05DC3A
:1029C000040E04013F6FFA0E0501606F00010EEC6A
:1029D0000EF004013F2FF7D70001D2EC10F00401F4
:1029E000466B000185DC4C0EF66E1A0EF76EE5ECB8
:1029F00010F0400E0401466F00017ADC5E0EF66EA8
:102A00001A0EF76EE5EC10F001015BA901D05B999D
:102A10005BA506D05B95010E04013A6F10D0010151
:102A20005BA704D05B9704013A6B09D0140E050133
:102A3000606F00010EEC0EF00400D1D70401AA6A09
:102A4000140EA96E3AC4A8FFA69CA69EA684F250B6
:102A5000006EF29CF29E0F01550EA76EAA0EA76E95
:102A6000A682A6B2FED7A6940050F212F2CF3FF48F
:102A7000F29CF29EAA6A140EA96EA69CA69EA6803F
:102A8000A85004013FBDF28C3FBFF28E4E6E000194
:102A9000D2EC10F0700EF66E1A0EF76EE5EC10F038
:102AA000040E04013F6FFA0E0501606F00010EEC89
:102AB0000EF004013F2FF7D70001D2EC10F0040113
:102AC000466B000115DC820EF66E1A0EF76EE5EC11
:102AD00010F0400E0401466F00010ADC940EF66E01
:102AE0001A0EF76EE5EC10F001015BA901D05B99BD
:102AF0005BA506D05B95010E04013B6F10D0010170
:102B00005BA704D05B9704013B6B09D0140E050151
:102B1000606F00010EEC0EF00400D1D70401AA6A28
:102B2000150EA96E3BC4A8FFA69CA69EA684F250D3
:102B3000006EF29CF29E0F01550EA76EAA0EA76EB4
:102B4000A682A6B2FED7A6940050F212F2CF3FF4AE
:102B5000F29CF29EAA6A150EA96EA69CA69EA6805D
:102B6000A85004013FBDF28C3FBFF28E506E0001B1
:102B7000D2EC10F0A60EF66E1A0EF76EE5EC10F021
:102B8000040E04013F6FFA0E0501606F00010EECA8
:102B90000EF004013F2FF7D70001D2EC10F0040132
:102BA000466B000178EC11F0B40EF66E1A0EF76E5B
:102BB000E5EC10F0400E0401466F000178EC11F0D6
:102BC000C60EF66E1A0EF76EE5EC10F001015BA969
:102BD00001D05B995BA505D05B9504013C6B11D0DE
:102BE00001015BA705D05B97010E04013C6F09D082
:102BF000140E0501606F00010EEC0EF00400CFD73B
:102C00000401AA6A160EA96E3CC4A8FFA69CA69E43
:102C1000A684F250006EF29CF29E0F01550EA76E34
:102C2000AA0EA76EA682A6B2FED7A6940050F212F4
:102C3000F2CF3FF4F29CF29EAA6A160EA96EA69CF1
:102C4000A69EA680A85004013FBDF28C3FBFF28E25
:102C50004F6E0001D2EC10F0D80EF66E1A0EF76E21
:102C6000E5EC10F0040E04013F6FFA0E0501606FF1
:102C700000010EEC0EF004013F2FF7D70001D2EC5B
:102C800010F01200F2CF35F4F29CF29EAA6A100EF8
:102C9000A96EA69CA69EA680A850040135BDF28C04
:102CA00035BFF28E520833E1F2CF36F4F29CF29E39
:102CB000AA6A130EA96EA69CA69EA680A85036BD31
:102CC000F28C36BFF28E020822E3F2CF37F4F29C88
:102CD000F29EAA6A140EA96EA69CA69EA680A85073
:102CE00037BDF28C37BFF28E010811E3F2CF38F412
:102CF000F29CF29EAA6A160EA96EA69CA69EA680BB
:102D0000A85038BDF28C38BFF28E010805E2010EE2
:102D1000356F000104DC0DD001015BB50BD05BA960
:102D200009D05BB707D05B990401356B00018FECCC
:102D300012F001010001C0EF31F005016551016A97
:102D4000645D03E264C500F00CD0006A080E666F93
:102D5000643700366551005CD8B0006E0136662FCE
:102D6000F7D70001120001503AC464F5640E050162
:102D7000656F0001E2DF00C03AF40150300E08E157
:102D800004013BA30FD03BB70DD03BB9200E04D0BC
:102D900004013B973B993B81012601C049F40001A6
:102DA000DFEC10F03AC464F50A0E0501656F00010E
:102DB000C4DF00C03AF40150300E08E104013BB713
:102DC0000BD03BA109D03BB9200E0001012601C068
:102DD00049F4DFEC10F00401300E3A273AC449F40C
:102DE0000001DFEC10F01200EACF42F4E9CF41F429
:102DF00004013B39F0093D6F3D27E20F3E6F320F72
:102E0000406F3B510F0B3E273E274027E90F3F6F96
:102E10003F273F273A390F0B3F2740273F3740379F
:102E2000401F40373A510F0B40273D37070E3C6F8C
:102E30000A0E3F074027FDE33E073F27FDE33D071E
:102E40003E27FDE33C073D27FDE3040EEA6E3C0E02
:102E5000E96E070E4115419DE926400EE95CD8B4A4
:102E6000418DEF50006E08E141BD06D041B916D04A
:102E700041B702D0200E03D041874199300E002681
:102E8000EACF3BF4E9CF3AF400C049F40001DFECAB
:102E900010F03BC4EAFF3AC4E9FF0401EE5041AD33
:102EA000DCD7000112000900F6CF3BF4F7CF3CF469
:102EB000F5509EA8FED7AD6E3BC4F6FF3CC4F7FFAD
:102EC00004013A2F01D002D00001EDD70001120019
:102ED00001503AC464F5640E0501656F00012DDFF1
:102EE00000C03AF40150300E08E104013BA30ED0BB
:102EF0003BB70CD03BB9200E04D004013B973B9963
:102F00003B81012601509EA8FED7AD6E3AC464F500
:102F10000A0E0501656F000110DF00C03AF4015090
:102F2000300E08E104013BB70BD03BA109D03BB9FF
:102F3000200E0001012601509EA8FED7AD6E0401AF
:102F4000300E3A273A519EA8FED7AD6E000112000E
:102F50000900F5520DE0F6CF3AF4F7CF3BF4F55007
:102F60009EA8FED7AD6E3AC4F6FF3BC4F7FFF0D77C
:102F70001200EACF42F4E9CF41F404013B39F009F1
:102F80003D6F3D27E20F3E6F320F406F3B510F0BFD
:102F90003E273E274027E90F3F6F3F273F273A391B
:102FA0000F0B3F2740273F374037401F40373A51EC
:102FB0000F0B40273D37070E3C6F0A0E3F07402797
:102FC000FDE33E073F27FDE33D073E27FDE33C07CA
:102FD0003D27FDE3040EEA6E3C0EE96E070E411537
:102FE000419DE926400EE95CD8B4418DEF50006E5A
:102FF00008E141BD06D041B90CD041B702D0200E46
:1030000003D041874199300E002600509EA8FED77C
:10301000AD6EEE5041ADE6D7000138EF19F0040176
:10302000356B93948A8493968A86959E8C8E140E23
:10303000386F0001C7EC10F04D5207E1160EF66E26
:103040001B0EF76EE5EC10F010D04D50020807E1B2
:103050001E0EF66E1B0EF76EE5EC10F006D0260E77
:10306000F66E1B0EF76EE5EC10F04E5207E1300ED7
:10307000F66E1B0EF76EE5EC10F00FD04E2C07D05D
:10308000380EF66E1B0EF76EE5EC10F006D0400E13
:10309000F66E1B0EF76EE5EC10F0F2CF38F4F29CF2
:1030A000F29EAA6A110EA96EA69CA69EA680A850A2
:1030B000040138BDF28C38BFF28E396FF2CF3AF48A
:1030C000F29CF29EAA6A120EA96EA69CA69EA680EB
:1030D000A8503ABDF28C3ABFF28E3B6F39C437F438
:1030E0003BC436F40A0E356F355369E0400E466F27
:1030F000000178EC11F0F2CF38F4F29CF29EAA6A4B
:10310000100EA96EA69CA69EA680A850040138BDEC
:10311000F28C38BFF28E396F4A0EF66E1B0EF76EC8
:10312000060E3F6F0001F5EC10F035C43AF41B0EAB
:1031300004013B6F000117DE520EF66E1B0EF76E98
:10314000040E04013F6F0001F5EC10F039C449F49E
:10315000DFEC10F0100EE96E37C43BF436C43AF4DD
:1031600043DE200E0401496F0001DFEC10F05E0E1B
:10317000F66E1B0EF76E080E04013A6F000193DE27
:1031800035C43AF41B0E04013B6F0001A1DE680E4A
:10319000F66E1B0EF76E0A0E04013A6F000183DE15
:1031A000040E0401386FFA0E0501606F00010EEC89
:1031B0000EF00401382FF7D70400350795D7F2CF6A
:1031C00038F4F29CF29EAA6A100EA96EA69CA69EE6
:1031D000A680A85038BDF28C38BFF28E396F740EBD
:1031E000F66E1B0EF76E140E3A6F00015CDECE0E0B
:1031F000F66E1B0EF76EACDE8A0EF66E1B0EF76EC9
:10320000040E04013A6F00014EDE48C03AF4010E8C
:1032100004013B6F00015CDE2D0E9EA8FED7AD6E53
:1032200049C03AF4010E04013B6F000151DE2D0E3E
:103230009EA8FED7AD6E4AC03AF4010E04013B6F62
:10324000000146DE9C0EF66E1B0EF76E0A0E0401A0
:103250003A6F000128DE040139519EA8FED7AD6EF9
:10326000100EE96E37C43BF436C43AF4000181D63F
:10327000AB0EF66E1B0EF76E0C0E04013A6F0001DA
:1032800012DE4DC03AF41B0E04013B6F000120DE3C
:10329000B90EF66E1B0EF76E0E0E04013A6F0001AA
:1032A00002DE4EC03AF41B0E04013B6F000110DE3B
:1032B000290E9EA8FED7AD6E0D0E9EA8FED7AD6E50
:1032C0000A0E9EA8FED7AD6EC2EF31F0A00E05012A
:1032D000586F56517F0802E25883569F9488000029
:1032E000948600008B98949800008B96949658C50D
:1032F0005BF50001A4EC0EF056C559F505015A6BBB
:1033000056C55BF50001A4EC0EF055C55BF5A4ECC9
:103310000EF057C55BF5A4EC0EF09498000094866F
:1033200082A6FED7000000D00000948800001200A2
:10333000340EF66E170EF76E0BDED2EC10F04E0E5A
:10334000F66E170EF76EE5EC10F0050E0401356F02
:10335000F00E0501606F00010EEC0EF00401352F38
:10336000F7D70501566B556B576B0001AFDF0501B1
:10337000566B020E556F576B0001A8DF0501566BA7
:10338000030E556F576B0001A1DF95948C940000DC
:103390006650500E666E6430FEE36650666A6430B6
:1033A000FEE36650666A6430FEE36650666A643027
:1033B000FEE395948C8400000A0E0501606F000105
:1033C0000EEC0EF095948C9400006650D70E666E4D
:1033D0006430FEE36650666A6430FEE366CF65F4EF
:1033E00095948C840000040165C401F001C035F49B
:1033F00001BE04D004000001E5D70401400E466F71
:10340000000178EC11F05E0EF66E170EF76EE5EC2B
:1034100010F0640EF66E170EF76E9ADD050E0401BD
:10342000356FF00E0501606F00010EEC0EF0040127
:10343000352FF7D70001120081CF35F4040135B9DB
:1034400007D001015CB902D0040102D05A8F0401F7
:1034500035A907D001015CA902D0040102D05A812C
:10346000040135C45CF10001D43D03D0D53D01D049
:1034700003D0D42BD8B4D52BD63D03D0D73D01D023
:1034800003D0D62BD8B4D72BD251D3110BE0D553C0
:1034900003E1D451050806E2D43D03D0D53D01D067
:1034A00001D05180D89004012F35366F3035376FF9
:1034B000000E01015CAB010E0401361336C42FF47B
:1034C0003751E009306F2F5309E13051F00806E120
:1034D00001015B875A811E0E636F0401D89031355C
:1034E000366F3235376F000E01015CAD010E0401FD
:1034F000361336C431F43751E009326F315309E1E4
:103500003251F00806E101015B895A811E0E636F9A
:103510000401D8903335366F3435376F000E010112
:103520005CAF010E0401361336C433F43751E009A1
:10353000346F335308E13451F00805E101015B8534
:103540005A811E0E636F0101645303E093968A86CD
:1035500002D093968A96000110EF32F0020E040119
:10356000556F000125EC0FF001503F0B0401356F42
:10357000566F00015FEC0FF001C05DF1010E040118
:10358000556F000125EC0FF001C035F401C056F471
:103590005FEC0FF001C05EF10401556B000125ECFA
:1035A0000FF001507F0B0401356F566F00015FEC87
:1035B0000FF001C05FF1040E0401556F000125EC0E
:1035C0000FF001C035F401C056F45FEC0FF001C0FC
:1035D00060F1050E0401556F000125EC0FF001C0EC
:1035E00035F401C056F45FEC0FF001C061F1060E36
:1035F0000401556F000125EC0FF001C035F401C046
:1036000056F45FEC0FF001C062F10CEF1BF0969ADC
:103610008D8A19EF1BF0A2D70101635303E1979044
:103620008E8003D097908E906307645304E100016D
:10363000EED708D001010401386B0001C7EC10F08F
:10364000010164070101655304E15A89090E656FA0
:1036500001D0650704012E5101015E5D21E05A830E
:103660005EC12EF44B3C03D04C3C01D003D04B2A1E
:10367000D8B44C2A5E511E0802E15B8104D05E5131
:103680002D0801E15B915E51050809E05E511408C7
:1036900006E05E51230803E05E51320801E15A8BD7
:1036A000968284B203D093948A8402D093948A94AD
:1036B0003B5202E13C5203E0959E8C8E02D0959ED7
:1036C0008C9E000117EF32F09D9A010159B12DD067
:1036D000EA6AD80EE96EE26A520EE16ED3C002F0D9
:1036E000D2C001F0015202E0022A02D0025206E0EA
:1036F000E6CFEEFF012EFCD7022EFAD7010E000115
:10370000D2250401356F000E0001D3210401366F6C
:10371000D80E3525E96E000E3621EA6EEF6A0101FA
:1037200059810001D36BD26B01019D8A00011DEF0D
:1037300032F005016569646962516207000A26E09A
:1037400061C503F06051602BD8B4612BE96E03C0F2
:10375000EAFFEF50641B636B6351070816E3645183
:10376000010B006E036A005003100AE0D890653127
:10377000676F6431010A646F6751A00A656F03D0F7
:10378000D89065336433632BE7D7D6D764C501F08F
:1037900065C502F000011200010159A148D05991FC
:1037A0000001D851230842E1D951455C3FE1DA518B
:1037B000465C3CE1DB51475C39E1DC510D0836E108
:1037C000DD51160833E10501616BD90E606F0A0EF9
:1037D000626F0001AEDF02C036F401C035F4E3C011
:1037E00003F0E4510401355D03E10350365D01E06F
:1037F0001FD0FA0E386F0001C7EC10F0DE5105E063
:10380000010A07E0030A09E011D001015A8B000107
:103810000DD001015A85000109D0DFC0DEF3E0C000
:10382000DDF3E1C0E0F3E2C0DFF300D00101040109
:10383000000121EF32F0D8B204D0040EEA6E520E2D
:10384000E96E006A016A026A036A0401526B536BF3
:10385000546B556B515150114F114E112CE0200EED
:10386000566FD8904A374B374C374D37523753370E
:10387000543755375151555D08E15051545D05E1BC
:103880004F51535D02E14E51525D0FE34E51525F75
:103890004F51D8A04F3D535F5051D8A0503D545F79
:1038A0005151D8A0513D555FD880003601360236BF
:1038B0000336562FD6D752C4EFFF53C4ECFF54C47F
:1038C000ECFF55C4ECFF00011200D890040126352E
:1038D000036A060FE96E040E0320EA6E3BC4ECFF98
:1038E000ED523AC4EFFF262B26510F0801E2266B5A
:1038F00027510F0801E3272B436B426B416B406B51
:10390000446B2751445D14E2D8904435036A060F96
:10391000E96E040E0320EA6EECCF03F0ED52EF5097
:10392000402703504123000E42234323442BE9D771
:10393000D8902731006E016A026A036A0050402560
:10394000466F01504121476F02504221486F03509A
:103950004321496FD8924D6F48C44CF447C44BF48F
:1039600046C44AF4516B506B4F6B27C44EF40001B0
:1039700062DF03C03FF402C03EF401C03DF400C06A
:103980003CF404013CC401F03DC402F00001D9EF55
:103990001DF004013951000808E2FF0A03E1385123
:1039A000440803E20A0E016E65D03951000808E2AE
:1039B000FF0A03E138513F0803E2090E016E5AD0B5
:1039C0003951000808E2FF0A03E138513D0803E2DB
:1039D000080E016E4FD03951000808E2FF0A03E1DA
:1039E00038513A0803E2070E016E44D039510008FD
:1039F00008E2FF0A03E13851370803E2060E016EC0
:103A000039D03951000808E2FF0A03E13851330880
:103A100003E2050E016E2ED03951000808E2FF0ABC
:103A200003E138512F0803E2040E016E23D039510F
:103A3000000808E2FF0A03E138512C0803E2030EF4
:103A4000016E18D03951000808E2FF0A03E138512D
:103A5000270803E2020E016E0DD03951000808E27A
:103A6000FF0A03E13851200803E2010E016E02D083
:103A7000000E016E0001EAEF1DF00401395303E16D
:103A800038513F0808E2395306E13851BF0803E3D3
:103A9000010E016E6BD0395303E13851BF080AE2C1
:103AA0003951010807E303E138513F0803E3020EEF
:103AB000016E5CD0395100080FE2FF0A03E1385172
:103AC0003F080AE23951010807E303E13851BF0812
:103AD00003E3030E016E4AD0395100080FE2FF0ADA
:103AE00003E13851BF080AE23951020807E303E154
:103AF00038513F0803E3040E016E38D039510108F4
:103B00000FE2FF0A03E138513F080AE23951020887
:103B100007E303E13851BF0803E3050E016E26D029
:103B2000395101080FE2FF0A03E13851BF080AE2E8
:103B30003951030807E303E138513F0803E3060E58
:103B4000016E14D0395102080FE2FF0A03E1385127
:103B50003F080AE23951030807E303E13851BF087F
:103B600003E3070E016E02D0000E016E00010EEF9E
:103B70001EF0000E016EC250C30B0110C26E010E8A
:103B80000501606F00010EEC0EF00401356B35513C
:103B90000F0816E3C282C2B2FED7C4CF03F0C3CF70
:103BA00038F4C4CF39F4C4CF3BF4C3CF3AF40001A6
:103BB0008CD602C037F401C036F40401352BE7D7A8
:103BC00037C43EF036C43DF037C439F436C438F457
:103BD0000001DFD601C040F04D50020807E1040E9D
:103BE000016EC250C30B0110C26E06D00C0E016EE6
:103BF000C250C30B0110C26E010E0501606F0001BF
:103C00000EEC0EF0C282C2B2FED7C3CF41F0C4CFD9
:103C100042F042C039F441C038F42FD701C03FF020
:103C2000080E016EC250C30B0110C26E010E0501D9
:103C3000606F00010EEC0EF0C282C2B2FED7C3CF9D
:103C400043F0C4CF44F0A9EF20F00501615103080F
:103C500009E2FF0A03E16051B00804E2FF0E016EC1
:103C6000026E12D0D8906035026E6135036E02503C
:103C700003C0F7FF0001CBEC00F00900F5CF03F023
:103C8000016E03C002F00501000112009EA8FED7DC
:103C9000AD6E1200015062C564F5640E0501656FDA
:103CA00000019DEC16F000C062F50150300E08E1F5
:103CB000050163A310D063B70ED063B9200E04D002
:103CC0000501639763996381012601C06BF50001CB
:103CD00009EC11F0050162C564F50A0E656F00017B
:103CE0009DEC16F000C062F50150300E08E10501B0
:103CF00063B70BD063A109D063B9200E0001012680
:103D000001C06BF509EC11F00501300E622762C5A8
:103D10006BF5000109EC11F0120061C563F560C597
:103D200062F563C503F0050162C5E9FF63C5EAFFFB
:103D3000EF5206E0622BD8B4632B0001F2D70501E5
:103D40006051625D006E61516359036E00C001F005
:103D500000011200A4A8FED76D6E12009D9236C01D
:103D60005BF535C05AF538C05DF537C05CF53CC031
:103D70005FF53BC05EF53C6A3B6A9D824F2C6ED07E
:103D8000230E0401356F45C036F446C037F447C0F2
:103D900038F40F0E396F070E3A6F4E2C21D05BC5E9
:103DA00061F55AC560F5000150DF02C059F501C048
:103DB00058F559C53BF4040158C53CF404015DC5F0
:103DC00061F55CC560F5000140DF02C059F501C036
:103DD00058F559C53DF4040158C53EF404010CD012
:103DE0005BC53BF404015AC53CF404015DC53DF4D8
:103DF00004015CC53EF404015FC53FF404015EC5E7
:103E000040F40401466B46C445F445C444F444C43C
:103E100043F443C442F442C441F442C047F441C0B5
:103E200048F444C049F443C04AF43EC04BF43DC09A
:103E30004CF4040E0501616F360E606F170E626F51
:103E4000000177DC02C056F501C055F556C54DF4AA
:103E5000040155C54EF4040160D00001230E040195
:103E6000356F45C036F446C037F447C038F40F0EFE
:103E7000396F070E3A6F4E2C21D05BC561F55AC5DC
:103E800060F50001E2DE02C059F501C058F559C5E0
:103E90003BF4040158C53CF404015DC561F55CC503
:103EA00060F50001D2DE02C059F501C058F559C5D0
:103EB0003DF4040158C53EF404010CD05BC53BF44D
:103EC00004015AC53CF404015DC53DF404015CC520
:103ED0003EF4040140380501606FF00E60173F505A
:103EE0000F0B602504013F6F5FC540F404015EC500
:103EF00041F40401040E0501616F360E606F0C0E73
:103F0000626F000116DC02C056F501C055F556C5BA
:103F100042F4040155C543F404010501576B040143
:103F200039510501575D0FE2036A5751350FE96EAC
:103F3000040E0320EA6EEFCF60F560510001A6DEAB
:103F40000501572BECD7502CE9D046C061F547C08E
:103F500060F5040E0301F46F550EF36F320E050188
:103F60006B6F000109EC11F0300E05016B6F000161
:103F700009EC11F062C162F5010E0501636F0001E9
:103F800089DE2D0E05016B6F000109EC11F061C196
:103F900062F5010E0501636F00017CDE2D0E050147
:103FA0006B6F000109EC11F060C162F5010E0501B3
:103FB000636F00016FDE200E05016B6F000109ECDD
:103FC00011F05DC162F5010E0501636F000162DE53
:103FD0003A0E05016B6F000109EC11F05EC162F54C
:103FE000010E0501636F000155DE3A0E05016B6F8E
:103FF000000109EC11F05FC162F5010E0501636F6C
:10400000000148DE2C0E05016B6F000109EC11F078
:10401000100EE96E5BC563F55AC562F51AEC11F036
:104020002C0E05016B6F000109EC11F0100EE96E0A
:104030005DC563F55CC562F51AEC11F02C0E050147
:104040006B6F000109EC11F0100EE96E5FC563F5AE
:104050005EC562F51AEC11F02C0E05016B6F0001C4
:1040600009EC11F0100EE96E3EC063F53DC062F53B
:104070001AEC11F02C0E05016B6F000109EC11F028
:104080003FC062F51B0E0501636F000103DE2C0EBD
:1040900005016B6F000109EC11F0100EE96E4CC0C8
:1040A00063F54BC062F51AEC11F02C0E05016B6F35
:1040B000000109EC11F045C06BF509EC11F0100E90
:1040C000E96E61C563F560C562F51AEC11F00A0E80
:1040D00005016B6F000109EC11F00501576B040E2F
:1040E000616F550E606F000118DE01500501575DCC
:1040F00015E2036A5751550FE96E040E0320EA6E6C
:10410000EFCF60F56051000125DE010E0501606F03
:1041100000010EEC0EF00501572BE1D70001AAEFCC
:1041200020F00301F2BB0BD0010E0401386F000137
:10413000C7EC10F0D76BD66B0301F28B0DD00001EA
:10414000D75303E1D6510D0807E201015A99000146
:1041500010D504D60301F29B000127EF32F0A00E28
:104160000501576F55517F0802E25783559F948888
:104170000000948600008B98949800008B9694968B
:1041800057C55BF50001A4EC0EF055C558F50501C7
:10419000596B55C55BF50001A4EC0EF054C55BF5F9
:1041A000A4EC0EF0948800009486000082A6FED74E
:1041B0008B98949800008B969496050157510109AD
:1041C000586F5B6F0001A4EC0EF0006AFFEC0EF07C
:1041D00001C056F594980000948682A6FED7000090
:1041E00000D0000094880000050156C501F00001D0
:1041F0001200230E0401356F45C036F446C037F473
:1042000047C038F42B0E396F080E3A6F36C03BF4B6
:1042100035C03CF438C03DF437C03EF43CC03FF4F8
:104220003BC040F462C141F461C142F460C143F457
:104230005DC144F45EC145F45FC146F495948C942D
:1042400000006650D70E666E6430FEE36650666A04
:104250006430FEE366CF65F495948C84000065C4F9
:1042600001F001C047F40501556B020E546F0001C7
:1042700076DF01C048F40501556B030E546F000151
:104280006EDF01C049F43EC04AF404013DC04BF466
:1042900096824C6B84B24C2B010E666F6A0E66C41C
:1042A00064F4636F63C4E9FF64C4EAFFEFCF4DF4C5
:1042B000010E6325E96E000E6421EA6EEFCF4EF425
:1042C000020E6325E96E000E6421EA6EEFCF4FF413
:1042D000030E6325E96E000E6421EA6EEFCF50F401
:1042E000010E666F6E0E66C464F4636F63C4E9FF0B
:1042F00064C4EAFFEFCF51F4010E6325E96E000EAE
:104300006421EA6EEFCF52F4020E6325E96E000ECF
:104310006421EA6EEFCF53F4030E6325E96E000EBD
:104320006421EA6EEFCF54F43FC055F4566B576BDF
:10433000586B48C059F449500F0B656F0101645127
:10434000F00B040165255A6F4AC05BF44CC05CF465
:104350004BC05DF4040E0501616F360E606F280ED0
:10436000626F000199EC1BF002C061F401C060F4BF
:10437000040161C45EF460C45FF4626B62512A0898
:104380000FE3036A6251350FE96E040E0320EA6EF3
:10439000EFCF65F46551000179DC0401622BEED7A3
:1043A0000001ECEF21F00301F2BD0CD00001D76B4E
:1043B000D66B010E0401386F0001C7EC10F0030149
:1043C000F28D0CD00001D75303E1D6510D0806E25F
:1043D00001015A9B00010DD70301F29D00012DEF51
:1043E00032F095948C9400006650D20E666E643064
:1043F000FEE304013537363735373637FC0E3517CF
:1044000036C439F4665036C466FF6430FEE335C402
:1044100039F4665035C466FF6430FEE36650666A60
:104420006430FEE36650666A6430FEE36650666A96
:104430006430FEE36650666A6430FEE36650666A86
:104440006430FEE3386B376B3851020814E303E144
:1044500037510F0810E3CD0E3725E96E010E3821D4
:10446000EA6E6650666A6430FEE366CFEFFF372B74
:10447000D8B4382BE9D795948C840000000113EF51
:1044800023F00501556B546B000169DE036A01C01E
:1044900039F403C03AF40501556B0C0E546F03C098
:1044A00057F501C056F50001ABEC11F002C038F42D
:1044B00001C037F40401366B356B3651385D23E3A8
:1044C00003E13751355D1FE2CD0E3525016E010E3A
:1044D0003621036E01C039F43A6F35C43BF4020E45
:1044E00036253C6FE8CF55F535C454F5000137DE6D
:1044F0003AC4EAFF39C4E9FF01C0EFFF0401352BDC
:10450000D8B4362BDAD7365102080FE303E1355120
:104510000F080BE3CD0E3525E96E010E3621EA6E4C
:10452000EF68352BD8B4362BEED7000117EF23F008
:10453000230E04013D6F45C03EF446C03FF447C022
:1045400040F43A0E416F150E426F3AC443F439C439
:1045500044F4796B79512F081DE3080E7925036A1D
:104560003D0F016E040E032279513B257C6F000E36
:104570003C217D6FCD0E7C25E96E010E7D21EA6E1A
:10458000EFCF7EF403C0EAFF01C0E9FF7EC4EFFF76
:10459000792BE0D7040E0501616F3E0E606F370E78
:1045A000626F000199EC1BF002C078F401C077F44F
:1045B000040178C475F477C476F4796B79513908BD
:1045C00010E3036A79513D0FE96E040E0320EA6E91
:1045D000EFCF7AF47A51000146EC1EF00401792BFA
:1045E000EDD700014DEF23F00301DE510F0805E286
:1045F000FF0A07E1DD51010804E3DF5305E1E05361
:1046000003E1E06BDF6B5DD0968884A801D059D0C0
:10461000F5530DE1DE510F0808E3DEC336F4DDC3C8
:1046200035F40001DED603D0030100012AD7010EC4
:104630000401386F0001C7EC10F0DEC355F5DDC38F
:1046400054F50501576B0B0E566F0001ABEC11F0E2
:1046500002C036F401C035F40301F55104013527D9
:10466000000E3623386BF5C337F438C455F5F5C35F
:1046700054F50501576B300E566F0001ABEC11F08D
:1046800002C038F401C037F436C43AF435C439F402
:1046900002C03CF401C03BF44BD70301F52BF551AC
:1046A0000B080FE1F56BDF5302E1E05308E0DD2B6F
:1046B000D8B4DE2BDF51D8B4E007DF0702D0DE69C3
:1046C000DD69000130EF32F08E0E006E3BC401F068
:1046D0003AC402F0036A015209E102C001F0026A21
:1046E000080E005E015202E1006A08D0D89001BEB7
:1046F00004D0023601360006F9D7019E12000401EB
:104700003A51D8B4A5D0466F3E51D8B4A1D0465F37
:1047100005E37F0E4627D8B09BD006D0810E465FBA
:10472000D8A096D0D8B494D046C400F0016A026AEA
:10473000036A456B3BC444F4448F3CC443F43DC41A
:1047400042F4190E466F4151425F0DE2010E435F84
:104750000AE2445F08E2455F06E2452B442B432B07
:104760004151422728D04051435F12E2010E445F7D
:104770000FE2455F0DE2452B442B40514327415149
:10478000422719E3432B17E1442B15E1452B13D0A6
:104790003F518009445F0EE2010E455F0BE2452B5D
:1047A0003F518009442740514327E9E3442BE7E187
:1047B000452BE5D70380462F01D00BD0D890423748
:1047C000433744374537D8900336023601364737EA
:1047D000BAD747A106D0D89001320232033247330C
:1047E00002D0000635E047BF1ED0D890423743378D
:1047F000443745374151425F07E2010E435F04E20F
:10480000445F02E2455F1AE34051435F05E2010E57
:10481000445F02E2455F12E33F518009445F03E2D7
:10482000010E455F0BE3032A09E1022A07E1012A91
:1048300005E1002A0DE00132023203323BC446F4A6
:104840003F51461B46AF02D0018E06D0019E04D0D8
:10485000006A016A026A036A00011200800ED8A28F
:1048600002D00401431B0401486B496B3FC447F469
:104870004351471B3E51D8B4DFD0466F006E4251C2
:10488000D8B4E3D0465FD8B483D03EE343C44CF4FD
:104890004C8F44C44BF445C44AF4496BD8904C3314
:1048A0004B334A334933462FF8D747AF03D04881BB
:1048B000E0D0489146914889040EEA6E410EE96EB7
:1048C000EBD0489947BF0AD046A113D04C334B33A5
:1048D0004A334933002AD8B4C7D00BD04CBF0CD0D0
:1048E000D89049374A374B374C370006D8B4BCD03C
:1048F000F5D7488D6DD0489D3FC447F43FAF02D0F7
:104900004C8FABD04C9FA9D042C446F442C400F0B7
:104910003E51465F3FC44CF44C8F40C44BF441C4FD
:104920004AF4496BD8904C334B334A334933462FC2
:10493000F8D747AF03D048839CD048934691488B23
:10494000040EEA6E450EE96EA7D0489B47BF0AD019
:1049500046A113D04C334B334A334933002AD8B4E1
:1049600083D00BD04CBF0CD0D89049374A374B3747
:104970004C370006D8B478D0F5D7488F29D0489F57
:1049800043C447F443AF02D04C8F67D04C9F65D0EF
:1049900043C44CF44C8F44C44BF445C44AF447AF71
:1049A00004D04C9F488565D04895496B4691040ECC
:1049B000EA6E410EE96E70D047BF1CD03FC447F489
:1049C00046A106D04C334B334A334933002A4CE0DE
:1049D00049AF0BD04A2B09E14B2B07E14C2B05E1EA
:1049E0004C334B334A33002A3FE048BD84D748BF9D
:1049F000C6D71CD0800E4C1B4CAF04D03AD043C459
:104A000047F40AD03FC447F44C5306E14B5304E14A
:104A10004A5302E1006A21D04CBF08D0D8904937F0
:104A20004A374B374C37002EF7D71ED047AF02D04E
:104A30004C8F13D04C9F11D042C400F043C44CF4AF
:104A400044C44BF445C44AF408D03EC400F03FC40B
:104A50004CF440C44BF441C44AF44CC401F04BC480
:104A600002F04AC403F034D0006A016A026A036AA1
:104A70002FD0496B4A1F4B1F4C1F491F492B05E183
:104A80004A2B03E14B2B01E14C2B48B112D748B321
:104A900054D748B589D7B3D7EF504A2705E34B2BF6
:104AA00003E14C2BD8B44681ED52EF504B2703E382
:104AB0004C2BD8B44681ED52EF50EFBE01D0800AA6
:104AC0004C27D8B0468148B9FCD648BB3ED774D7EE
:104AD0000001120004014751D8B471D0006E4B514F
:104AE000D8B46DD0002604E3810E002668E204D01D
:104AF0007F0E005E64E363E048C44FF44C514F1BEB
:104B0000488F4C8F4A514E03F4CF51F449514D0315
:104B1000F4CF03F0F3CF50F44E03F3505127F45089
:104B20005023000E03224A514D03F3505127F450F5
:104B30005023000E026A0322022248514E03F35012
:104B40005027F4500322000E022248514D03F35027
:104B50000326F4500222000E016A01224A514C033E
:104B6000F3505027F4500322000E02220122495133
:104B70004C03F3500326F4500222000E0122485148
:104B80004C03F3500226F4500122002A01BE05D046
:104B900050370336023601360006000E50AF0AD0F9
:104BA000032A02220122015005E1025003E10350D1
:104BB00001E1002A4FBF018E4FAF019E04D0006A71
:104BC000016A026A036A0001120004014751B60833
:104BD000476F036A48C44BF4488FD8904833493331
:104BE0004A330332023201320032472FF6D74BAF3D
:104BF0000BD0001E011E021E031E002AD8B4012A7B
:104C0000D8B4022AD8B4032A000132EF26F0E950C2
:104C100004013F6F3E51416F1BE03DC44AF43CC468
:104C200049F43BC448F43AC447F44E6B4D6B200E34
:104C30004C6F820E4B6F00014DDF03C03DF402C08C
:104C40003CF401C03BF400C03AF40401412FE5D725
:104C50003DC44AF43CC449F43BC448F43AC447F464
:104C60000001B3D703C03DF402C03CF401C03BF4E3
:104C700000C03AF404013DAF0DD03F073F8B3A1F0F
:104C80003B1F3C1F3D1F3A2BD8B43B2BD8B43C2BC9
:104C9000D8B43D2B3B0E466F9A0E456FCA0E446F3B
:104CA000436B0A0E416F3E51D8B43F2BD882040E9D
:104CB000EA6E3A0EE96E3DC44DF43CC44CF43BC47C
:104CC0004BF43AC44AF446C451F445C450F444C4C5
:104CD0004FF443C44EF400011BEC1CF00150005291
:104CE00013E104013E29415DD8A402D000010CD09B
:104CF0003F510DE00F0B415D01E044E23FBF42D068
:104D00003FBD05D0200E37D0200E04013F173FAB2A
:104D10000FD03F9B3E51D8A43F0700503F6F2D0E50
:104D2000496F0001DFEC10F004013F51006E3F6B52
:104D30003E51415D0DE100503F6F2E0E496F000165
:104D4000DFEC10F004013F51006E200E3F17000E03
:104D5000300E3FAB10D03F9B3E51D8A43F070050D0
:104D60003F6F2D0E496F0001DFEC10F004013F5141
:104D7000006E3F6B300E002600C049F40001DFECEE
:104D800010F00401D89246C44DF445C44CF444C418
:104D90004BF443C44AF4516B506B4F6B0A0E4E6F89
:104DA00000011BEC1CF003C046F402C045F401C036
:104DB00044F400C043F40401412F78D700011200ED
:104DC00004013B51030809E2FF0A03E13A51B0082C
:104DD00004E2000E016E026E12D0D8903A35026ED7
:104DE0003B35036E025003C0F7FF000183EC05F072
:104DF0000900F5CF03F0016E03C002F004010001C9
:104E00001200E9500401416F3B0E486F9A0E476F44
:104E1000CA0E466F456B0A0E436F4051D8A4410736
:104E2000D882040EEA6E3C0EE96E3FC44DF43EC4D7
:104E30004CF43DC44BF43CC44AF448C451F447C458
:104E400050F446C44FF445C44EF400011BEC1CF072
:104E50000150005213E104014029435DD8A402D05F
:104E600000010CD041510CE00F0B435D01E020E24A
:104E700041BF1ED041BD04D0200E13D00401416BB0
:104E80004051435D0DE100C041F42E0E496F000119
:104E9000DFEC10F0040141C400F0200E4117000EB9
:104EA000300E002600C049F40001DFEC10F00401D0
:104EB000D89248C44DF447C44CF446C44BF445C49E
:104EC0004AF4516B506B4F6B0A0E4E6F00011BEC96
:104ED0001CF003C048F402C047F401C046F400C00F
:104EE00045F40401432F9CD7000112004E52D8A470
:104EF000E2D0355202E1365241E0353C03D0363C37
:104F000001D03CD036C03BF435C03AF464EC23F019
:104F100004013D6B100E3C6F6F0E3B6F8B0E3A6FB2
:104F200003C041F402C040F401C03FF400C03EF4AD
:104F300000017FEC23F000C03AF401C03BF402C052
:104F40003CF403C03DF4D89203C041F402C040F4E5
:104F500001C03FF400C03EF4330E0401456F446FBE
:104F6000436F7D0E426F000179DC03C039F402C04B
:104F700038F401C037F400C036F406D00401396BB0
:104F8000386B376B366B00014E0EF66E190EF76EEE
:104F9000070E04013F6F0001F5EC10F0410EE96EC1
:104FA00039C43DF438C43CF437C43BF436C43AF455
:104FB000010E04013E6F00012ADE5B0EF66E190E33
:104FC000F76E040E04013F6F0001F5EC10F037524C
:104FD00002E1385241E0373C03D0383C01D03CD0AC
:104FE00038C03BF437C03AF464EC23F004013D6B65
:104FF000100E3C6F6F0E3B6F8B0E3A6F03C041F487
:1050000002C040F401C03FF400C03EF400017FEC58
:1050100023F000C03AF401C03BF402C03CF403C0EA
:105020003DF4D89203C041F402C040F401C03FF403
:1050300000C03EF4330E0401456F446F436F7D0E94
:10504000426F00010BDC03C039F402C038F401C028
:1050500037F400C036F405D00401396B386B376B78
:10506000366B400E0401466F000178EC11F0600EC3
:10507000F66E190EF76E070E04013F6F0001F5EC96
:1050800010F0410EE96E39C43DF438C43CF437C425
:105090003BF436C43AF4010E04013E6F0001B7DD63
:1050A0006D0EF66E190EF76E040E04013F6F0001CF
:1050B000F5EC10F05CD04E2C5AD036C03BF435C025
:1050C0003AF47EDE02C03BF401C03AF4720EF66E92
:1050D000190EF76E070E04013F6F0001F5EC10F09A
:1050E000440EE96E04013F6B3E6B3BC43DF43AC491
:1050F0003CF4010E406F000184DE7F0EF66E190E47
:10510000F76E040E04013F6F0001F5EC10F0400E45
:105110000401466F000178EC11F038C03BF437C051
:105120003AF44EDE02C03BF401C03AF4840EF66E4F
:10513000190EF76E070E04013F6F0001F5EC10F039
:10514000440EE96E04013F6B3E6B3BC43DF43AC430
:105150003CF4010E406F000154DE910EF66E190E04
:10516000F76E040E04013F6F0001F5EC10F08CEFB8
:105170002EF0A80EF66E180EF76EE5EC10F0400E4D
:105180000401466F000178EC11F0B80EF66E180EAF
:10519000F76E070E04013F6F0001F5EC10F03FC001
:1051A0003AF41B0E04013B6F0001B3EC16F0200E25
:1051B0000401496F0001DFEC10F0280E0401496F73
:1051C0000001DFEC10F03F50F80F3BE2080F2FEF2B
:1051D00029F0300E0401496F0001DFEC10F031D0EE
:1051E000C40EF66E180EF76EE5EC10F02AD0C80E5D
:1051F000F66E180EF76EE5EC10F023D0CC0EF66EBE
:10520000180EF76EE5EC10F01CD0D00EF66E180EEE
:10521000F76EE5EC10F015D0D40EF66E180EF76EA2
:10522000E5EC10F00ED0D80EF66E180EF76EE5EC29
:1052300010F007D0DC0EF66E180EF76EE5EC10F0ED
:1052400000D0DF0E0401496F0001DFEC10F0290EE1
:105250000401496F0001DFEC10F092EF2EF0E8241A
:10526000F76AF736790FF66E520EF7220A00F550FC
:10527000FA6E0800F550F96ED251E051EE51FC5132
:105280000A52185226523452020EF66E190EF76E5A
:10529000080E04013F6F0001F5EC10F062C13AF412
:1052A000010E04013B6F0001B3EC16F02D0E04015A
:1052B000496F0001DFEC10F061C13AF4010E040106
:1052C0003B6F0001B3EC16F02D0E0401496F000195
:1052D000DFEC10F060C13AF4010E04013B6F0001F5
:1052E000B3EC16F0400E0401466F000178EC11F0AB
:1052F0001A0EF66E190EF76E040E04013F6F0001D0
:10530000F5EC10F05DC13AF4010E04013B6F0001B1
:10531000B3EC16F03A0E0401496F0001DFEC10F017
:105320005EC13AF4010E04013B6F0001B3EC16F0CC
:105330003A0E0401496F0001DFEC10F05FC13AF44E
:10534000010E04013B6F0001B3EC16F02C0EF66E5B
:10535000190EF76E040E04013F6F0001F5EC10F01A
:1053600098EF2EF04A0EF66E180EF76EE5EC10F080
:10537000400E0401466F000178EC11F00501556BF9
:10538000020E546F0001AFEC20F001C036F40501AD
:10539000556B030E546F0001AFEC20F001C037F4E1
:1053A00036C439F401C038F4100EE96E36C43BF44B
:1053B00001C03AF4F4EC16F02F0E0401496F00011D
:1053C000DFEC10F0100EE96E04013B6F3A6B000148
:1053D000F4EC16F0630EF66E180EF76E050E04016F
:1053E0003F6F0001F5EC10F09EEF2EF0F60EF66E1A
:1053F000170EF76EE5EC10F0400E0401466F000149
:1054000078EC11F0968284B210D0502C07D0060EA2
:10541000F66E180EF76EE5EC10F006D0180EF66E6C
:10542000180EF76EE5EC10F00FD0502C07D02A0EB6
:10543000F66E180EF76EE5EC10F006D03A0EF66E2A
:10544000180EF76EE5EC10F001015BA902D05B9934
:105450005A8B0001A4EF2EF04E2C31D0100EE96EC5
:1054600036C03BF435C03AF4F4EC16F0060E0401F5
:10547000466F000178EC11F0100EE96E38C03BF475
:1054800037C03AF4F4EC16F00C0E0401466F00013C
:1054900078EC11F0100EE96E3CC03BF43BC03AF4DE
:1054A000F4EC16F0400E0401466F000178EC11F0A8
:1054B000E00EF66E180EF76EE5EC10F030D0080E28
:1054C000E96E36C03BF435C03AF4F4EC16F0060E43
:1054D0000401466F000178EC11F0080EE96E38C047
:1054E0003BF437C03AF4F4EC16F00C0E0401466FAE
:1054F000000178EC11F0090EE96E3CC03BF43BC0B2
:105500003AF4F4EC16F0400E0401466F000178EC1A
:1055100011F0F00EF66E180EF76EE5EC10F0AAEF33
:105520002EF06A0EF66E180EF76E0A0E04013F6F2B
:105530000001F5EC10F0100EE96E42C03BF441C0E2
:105540003AF4F4EC16F0400E0401466F000178ECDA
:1055500011F0780EF66E180EF76E0A0E04013F6F0A
:105560000001F5EC10F0100EE96E44C03BF443C0AE
:105570003AF4F4EC16F0B0EF2EF0200E04013CA942
:10558000300E3D6F3BC400F03BAF08D0001E002A38
:1055900000C03BF42D0E3D6F3C8F3C8101503BC45D
:1055A00064F5640E0501656F00019DEC16F000C006
:1055B0003BF4300E012404013E6F3BC464F50A0E37
:1055C0000501656F00019DEC16F0300E002404010A
:1055D000406F300E01243F6F3DC400F0300E3E5D41
:1055E00004E03C833CBF3C8512D03DC43EF4200E19
:1055F0003D6F300E3F5D04E03C813CBF3C8307D0F3
:10560000D8A43C8104E13EC43FF4200E3E6F3CB57B
:1056100005D03CB308D03CB10BD00FD03DC449F409
:105620000001DFEC10F03EC449F40001DFEC10F0A3
:105630003FC449F40001DFEC10F040C449F400011C
:10564000DFEC10F083EF2BF03EC03BF43DC03AF4AA
:1056500064EC23F004014A6B496B200E486F7A0E0C
:10566000476F03C04EF402C04DF401C04CF400C0BB
:105670004BF400016AEC25F003C039F402C038F4A1
:1056800001C037F400C036F4860EF66E180EF76EC1
:10569000070E04013F6F0001F5EC10F0C90EE96E32
:1056A00039C43DF438C43CF437C43BF436C43AF44E
:1056B000010E04013E6F000107EC26F0930EF66E1A
:1056C000180EF76E060E04013F6F0001F5EC10F0A6
:1056D000400E0401466F000178EC11F040500A0DB5
:1056E000F3CF3AF404019A0EF66E180EF76E090E17
:1056F0003F6F0001F5EC10F03AC43BF4180E0401C2
:105700003C6F00013AD7250E0401496F0001DFEC20
:1057100010F0B5EF2EF0DC0EF66E170EF76EE5EC1E
:1057200010F0400E0401466F000178EC11F064C1E6
:105730003AF41B0E04013B6F0001B3EC16F0EC0EC3
:10574000F66E170EF76E080E04013F6F0001F5ECC0
:1057500010F0BAEF2EF0200E04013CA9300E3D6F80
:105760003BC400F03BAF08D0001E002A00C03BF451
:105770002D0E3D6F3C8F3C8101503BC464F5640E9F
:105780000501656F00019DEC16F000C03BF4300E82
:10579000012404013E6F3BC464F50A0E0501656FE8
:1057A00000019DEC16F0300E00240401406F300E15
:1057B00001243F6F3DC400F0300E3E5D04E03C83A9
:1057C0003CBF3C8512D03CB510D03DC43EF43CB348
:1057D00004D0300E3F5D04E03C813CBF3C8305D0EB
:1057E000D8A43C81D8B43EC43FF43CB505D03CB30A
:1057F00008D03CB10BD00FD03DC449F40001DFEC20
:1058000010F03EC449F40001DFEC10F03FC449F44D
:105810000001DFEC10F040C449F40001DFEC10F0AF
:105820001200400E0401466F000178EC11F0960E54
:10583000F66E190EF76EE5EC10F012003BC43CF466
:1058400004013D6B3C51090805E20A0E3C5F100E55
:105850003D2703D03C513D2701D0F4D73DC401F092
:105860000001120004013A912851000A000105E0EC
:10587000010A0DE0030A15E01FD00401376B630E27
:10588000386F090E366F62C139F4000115D0010E70
:105890000401376F0C0E386F366F61C139F40001A7
:1058A0000BD0010E0401376F1F0E386F0F0E366FCD
:1058B00060C139F4000100D0E80EF66E1A0EF76EE2
:1058C000080E04013F6F0001F5EC10F062C13BF4DB
:1058D000010E04013C6F00013EDF2D0E0401496FF3
:1058E0000001DFEC10F061C13BF4010E04013C6FDC
:1058F000000131DF2D0E0401496F0001DFEC10F0D3
:1059000060C13BF4010E04013C6F000124DF030180
:10591000F2B50CD001015BA905D00301F2850101AC
:105920005B9903D000017DDF01010301F2A530D0B6
:10593000000182EC11F036C446F478EC11F00E0E42
:105940000401456F0001A0EC11F001015BA50CD032
:105950005B950401392B39BF05D03951385D02E21E
:1059600037C439F43A8101015BA70CD05B9704017D
:10597000390739BF03D03751395D02E238C439F4F1
:105980003A8101015BA904D05B990401282B010134
:1059900004013AA13DD001015A8104012851000AB5
:1059A000000105E0010A13E0030A21E030D039C408
:1059B00062F162C13BF442DF01C03BF4060E040118
:1059C000556F01C056F40001CDEC0EF020D039C463
:1059D00061F161C13BF432DF01C03BF4050E04010B
:1059E000556F01C056F40001CDEC0EF010D039C453
:1059F00060F160C13BF422DF01C03BF4040E0401FE
:105A0000556F01C056F40001CDEC0EF000D004013A
:105A10002851030809E10301F2950401286B0C0EDB
:105A2000456F0001A0EC11F0000E0301F2B5010E6C
:105A3000016E0001BFEF2EF004013A912951000AD6
:105A4000000105E0010A0DE0030A15E01ED0040183
:105A5000376B170E386F070E366F5DC139F40001D2
:105A600014D00401376B3B0E386F0A0E366F5EC1DF
:105A700039F400010AD00401376B3B0E386F0D0E6C
:105A8000366F5FC139F4000100D0000EF66E1B0EB8
:105A9000F76E060E04013F6F0001F5EC10F05DC1DA
:105AA0003BF4010E04013C6F000155DE3A0E040187
:105AB000496F0001DFEC10F05EC13BF4010E040100
:105AC0003C6F000148DE3A0E0401496F0001DFEC33
:105AD00010F05FC13BF4010E04013C6F00013BDE9E
