:0400000091EF2DF05F
:080008006BEF00F000000000A6
:100010000000000000000000046ED8CF05F0E0CF23
:1000200006F00001E9CF0CF0EACF07F0E1CF08F0CD
:10003000E2CF09F0D9CF0AF0DACF0BF0F3CF12F00C
:10004000F4CF13F0FACF14F0F5CF15F0F6CF16F089
:10005000F7CF17F000C00EF001C00FF002C010F093
:1000600003C011F0A0A238EF00F0A1B23BEF0AF0FC
:100070009DAA3EEF00F09EBA4AEF0BF0A3AA44EF10
:1000800000F0A4BA6EEF0BF00EC000F00FC001F04C
:1000900010C002F011C003F00CC0E9FF07C0EAFF76
:1000A000078E08C0E1FF09C0E2FF0AC0D9FF0BC0FC
:1000B000DAFF12C0F3FF13C0F4FF14C0FAFF15C03B
:1000C000F5FF16C0F6FF17C0F7FF045006C0E0FFAB
:1000D00005C0D8FF1000196ED8CF1AF0E0CF1BF082
:1000E0000001E9CF21F0EACF1CF0E1CF1DF0E2CF13
:1000F0001EF0D9CF1FF0DACF20F0F3CF27F0F4CFE6
:1001000028F0FACF29F0F5CF2AF0F6CF2BF0F7CF71
:100110002CF000C023F001C024F002C025F003C081
:1001200026F09DA297EF00F09EB2A6EF0AF023C042
:1001300000F024C001F025C002F026C003F021C069
:10014000E9FF1CC0EAFF1C8E1DC0E1FF1EC0E2FFDC
:100150001FC0D9FF20C0DAFF27C0F3FF28C0F4FF7B
:1001600029C0FAFF2AC0F5FF2BC0F6FF2CC0F7FF0D
:1001700019501BC0E0FF1AC0D8FF10008A0FF66E9E
:10018000010EF7220900F5501200000000000000E7
:1001900000000000E6E9FFAB01887870E05F8D5356
:1001A000094A76424C3C2D37DC322B2FFA2B302972
:1001B000BC268E249C22DC20471FD71D881C551B83
:1001C0003B1A3619451865179516D3151E15731465
:1001D000D4133E13B0122A12AC113411C2105710AE
:1001E000F00F8E0F310FD80E840E320EE50D9A0DE2
:1001F000530D0E0DCD0C8D0C500C160CDD0BA70BFA
:10020000720B400B0F0BDF0AB10A850A5A0A310A3A
:10021000080AE109BB099709730950092F090E095A
:10022000EE08CF08B108940877085B084008250855
:100230000C08F207DA07C207AA0794077D076707C9
:1002400052073D07290715070107EE06DB06C90619
:10025000B706A6069406830673066306530643068E
:100260003406250616060806F905EC05DE05D00558
:10027000C305B605AA059D059105850579056D059A
:10028000620556054B05400535052B05200516056D
:100290000C050205F804EF04E504DC04D204C904EB
:1002A000C004B804AF04A6049E0495048D0485041C
:1002B0007D0475046E0466045E0457044F0448040C
:1002C00041043A0433042C0425041E0418041104C8
:1002D0000B040404FE03F803F203EC03E603E0035B
:1002E000DA03D403CE03C903C303BD03B803B303C6
:1002F000AD03A803A3039D03980393038E0389030F
:10030000840380037B03760371036D036803640336
:100310005F035B03560352034E0349034503410346
:100320003D033903340330032C0329032503210340
:100330001D031903150312030E030A030703030326
:10034000FF02FC02F802F502F202EE02EB02E70203
:10035000E402E102DE02DA02D702D402D102CE02C6
:10036000CB02C802C502C202BF02BC02B902B60279
:10037000B302B002AD02AA02A802A502A2029F0225
:100380009D029A0297029502920290028D028A02C1
:1003900088028502830280027E027C027902770253
:1003A0007402720270026D026B02690266026402DC
:1003B000620260025D025B0259025702550253025B
:1003C00051024E024C024A024802460244024202D4
:1003D00040023E023C023A02380236023402330244
:1003E00031022F022D022B022902270225022402AC
:1003F000220220021E021D021B021902170216020F
:100400001402120211020F020D020C020A0208026B
:1004100007020502030202020002FF01FD01FC01C6
:10042000FA01F901F701F501F401F201F101EF011F
:10043000EE01ED01EB01EA01E801E701E501E4016C
:10044000E301E101E001DE01DD01DC01DA01D901B6
:10045000D801D601D501D401D201D101D001CE01FC
:10046000CD01CC01CB01C901C801C701C601C4013E
:10047000C301C201C101C001BE01BD01BC01BB017C
:10048000BA01B801B701B601B501B401B301B201B7
:10049000B001AF01AE01AD01AC01AB01AA01A901F0
:1004A000A801A701A501A401A301A201A101A00126
:1004B0009F019E019D019C019B019A019901980158
:1004C0009701960195019401930192019101900188
:1004D0008F018E018D018C018B018A018A018901B6
:1004E00088018701860185018401830182018101E0
:1004F000800180017F017E017D017C017B017A0109
:10050000790179017801770176017501740174012F
:1005100073017201710170016F016F016E016D0154
:100520006C016B016B016A01690168016801670177
:100530006601650164016401630162016101610199
:1005400060015F015E015E015D015C015C015B01B8
:100550005A015901590158015701560156015501D7
:1005600054015401530152015201510150015001F3
:100570004F014E014E014D014C014C014B014A010E
:100580004A01490148014801470146014601450128
:100590004401440143014301420141014101400141
:1005A0003F013F013E013E013D013C013C013B0159
:1005B0003B013A013901390138013801370137016E
:1005C0003601350135013401340133013301320183
:1005D00031013101300130012F012F012E012E0197
:1005E0002D012C012C012B012B012A012A012901AB
:1005F00029012801280127012701260126012501BB
:1006000025012401230123012201220121012101CD
:10061000200120011F011F011E011E011D011D01DE
:100620001D011C011C011B011B011A011A011901EA
:1006300019011801180117011701160116011501FA
:100640001501140114011401130113011201120107
:10065000110111011001100110010F010F010E0114
:100660000E010D010D010C010C010C010B010B0120
:100670000A010A010901090109010801080107012C
:100680000701070106010601050105010401040136
:100690000401030103010201020102010101010140
:1006A000000100010001FF00FF00FE00FE00FE004F
:1006B000FD00FD00FD00FC00FC00FB00FB00FB005A
:1006C000FA00FA00FA00F900F900F800F800F80062
:1006D000F700F700F700F600F600F500F500F5006A
:1006E000F400F400F400F300F300F300F200F20071
:1006F000F200F100F100F100F000F000EF00EF0077
:10070000EF00EE00EE00EE00ED00ED00ED00EC007D
:10071000EC00EC00EB00EB00EB00EA00EA00EA0082
:10072000E900E900E900E800E800E800E700E70088
:10073000E700E700E600E600E600E500E500E5008A
:10074000E400E400E400E300E300E300E200E20090
:10075000E200E200E100E100E100E000E000E00092
:10076000DF00DF00DF00DE00DE00DE00DE00DD0097
:10077000DD00DD00DC00DC00DC00DC00DB00DB0099
:10078000DB00DA00DA00DA00DA00D900D900D9009B
:10079000D800D800D800D800D700D700D700D6009E
:1007A000D600D600D600D500D500D500D500D4009F
:1007B000D400D400D300D300D300D300D200D200A1
:1007C000D200D200D100D100D100D100D000D000A1
:1007D000D000D000CF00CF00CF00CE00CE00CE00A2
:1007E000CE00CD00CD00CD00CD00CC00CC00CC00A3
:1007F000CC00CB00CB00CB00CB00CA00CA00CA00A3
:10080000CA00C900C900C900C900C900C800C800A1
:10081000C800C800C700C700C700C700C600C600A0
:10082000C600C600C500C500C500C500C400C400A0
:10083000C400C400C400C300C300C300C300C2009E
:10084000C200C200C200C200C100C100C100C1009C
:10085000C000C000C000C000C000BF00BF00BF009B
:10086000BF00BE00BE00BE00BE00BE00BD00BD0099
:10087000BD00BD00BC00BC00BC00BC00BC00BB0097
:10088000BB00BB00BB00BB00BA00BA00BA00BA0094
:10089000BA00B900B900B900B900B800B800B80092
:1008A000B800B800B700B700B700B700B700B6008F
:1008B000B600B600B600B600B500B500B500B5008C
:1008C000B500B400B400B400B400B400B400B30088
:1008D000B300B300B300B300B200B200B200B20084
:1008E000B200B100B100B100B100B100B000B00081
:1008F000B000B000B000B000AF00AF00AF00AF007C
:10090000AF00AE00AE00AE00AE00AE00AE00AD0077
:10091000AD00AD00AD00AD00AC00AC00AC00AC0073
:10092000AC00AC00AB00AB00AB00AB00AB00AB006D
:10093000AA00AA00AA00AA00AA00A900A900A9006A
:10094000A900A900A900A800A800A800A800A80064
:10095000A800A700A700A700A700A700A700A6005F
:10096000A600A600A600A600A600A500A500A5005A
:10097000A500A500A500A400A400A400A400A40054
:10098000A400A300A300A300A300A300A300A3004E
:10099000A200A200A200A200A200A200A100A10049
:1009A000A100A100A100A100A000A000A000A00043
:1009B000A000A000A0009F009F009F009F009F003C
:1009C0009F009E009E009E009E009E009E009E0036
:1009D0009D009D009D009D009D009D009D009C0030
:1009E0009C009C009C009C009C009C009B009B0029
:1009F0009B009B009B009B009B009A009A009A0022
:100A00009A009A009A009A0099009900990099001A
:100A10009900990099009800980098009800980013
:100A2000980098009700970097009700970097000C
:100A30009700960096009600960096009600960005
:100A400096009500950095009500950095009500FD
:100A500094009400940094009400940094009400F6
:100A600093009300930093009300930093009200EF
:100A700092009200920092009200920092009100E7
:100A800091009100910091009100910091009000DF
:100A900090009000900090009000900090008F00D7
:100AA0008F008F008F008F008F008F008F008E00CF
:100AB0008E008E008E008E008E008E008E008E00C6
:100AC0008D008D008D008D008D008D008D008D00BE
:100AD0008C008C008C008C008C008C008C008C00B6
:100AE0008B008B008B008B008B008B00FA0FF66E57
:100AF0000A0EF7220900F55012000000030003005F
:100B000004000400050005000600060007000700B9
:100B1000080008000800090009000A000A000B008C
:100B20000B000C000C000D000D000E000E000E005E
:100B30000F000F0010001000110011001200120031
:100B40001300130013001400140015001500160004
:100B500016001700170018001800190019001900D6
:100B60001A001A001B001B001C001C001D001D00A9
:100B70001E001E001F001F001F002000200021007B
:100B8000210022002200230023002400240025004D
:100B90002500250026002600270027002800280021
:100BA000290029002A002A002A002B002B002C00F3
:100BB0002C002D002D002E002E002F002F003000C5
:100BC0003000300031003100320032003300330099
:100BD000340034003500350036003600360037006A
:100BE000370038003800390039003A003A003B003D
:100BF0003B003B003C003C003D003D003E003E0011
:100C00003F003F00400040004100410041004200E1
:100C100042004300430044004400450045004600B4
:100C20004600470047004700480048004900490087
:100C30004A004A004B004B004C004C004D004D0058
:100C40004D004E004E004F004F005000500051002C
:100C500051005200520052005300530054005400FF
:100C600055005500560056005700570058005800D0
:100C70005800590059005A005A005B005B005C00A4
:100C80005C005D005D005E005E005E005F005F0076
:100C90006000600061006100620062006300630048
:100CA000630064006400650065006600660067001C
:100CB0006700680068006900690069006A006A00EE
:100CC0006B006B006C006C006D006D006E006E00C0
:100CD0006F006F006F007000700071007100720093
:100CE0007200730073007400740075007500750065
:100CF0007600760077007700780078007900790038
:100D00007A007A007A007B007B007C007C007D000A
:100D10007D007E007E007F007F00800080008000DC
:100D200081008100820082008300830084008400AF
:100D30008500850086008600860087008700880081
:100D40008800890089008A008A008B008B008B0054
:100D50008C008C008D008D008E008E008F008F0027
:100D600090009000910091009100920092009300F9
:100D700093009400940095009500960096009700CB
:100D80009700970098009800990099009A009A009F
:100D90009B009B009C009C009D009D009D009E0070
:100DA0009E009F009F00A000A000A100A100A20043
:100DB000A200A200A300A300A400A400A500A50017
:100DC000A600A600A700A700A800A800A800A900E8
:100DD000A900AA00AA00AB00AB00AC00AC00AD00BB
:100DE000AD00AE00AE00AE00AF00AF00B000B0008E
:100DF000B100B100B200B200B300B300B400B4005F
:100E0000B400B500B500B600B600B700B700B80032
:100E1000B800B900B900B900BA00BA00BB00BB0005
:100E2000BC00BC00BD00BD00BE00BE00BF00BF00D6
:100E3000BF00C000C000C100C100C200C200C300AA
:100E4000C300C400C400C500C500C500C600C6007C
:100E5000C700C700C800C800C900C900CA00CA004E
:100E6000CA00CB00CB00CC00CC00CD00CD00CE0022
:100E7000CE00CF00CF00D000D000D000D100D100F4
:100E8000D200D200D300D300D400D400D500D500C6
:100E9000D600D600D600D700D700D800D800D90099
:100EA000D900DA00DA00DB00DB00DC00DC00DC006B
:100EB000DD00DD00DE00DE00DF00DF00E000E0003E
:100EC000E100E100E100E200E200E300E300E40011
:100ED000E400E500E500E600E600E700E700E700E3
:100EE000E800E800E900E900EA00EA00EB00EB00B6
:100EF000EC00EC00ED00ED00ED00EE00EE00EF0088
:100F0000EF00F000F000F100F100F200F200F2005A
:100F1000F300F300F400F400F500F500F600F6002D
:100F2000F700F700F800F800F800F900F900FA00FF
:100F3000FA00FB00FB00FC00FC00FD00FD00FE00D1
:100F4000FE00FE00FF00FF000001000101010101A1
:100F5000020102010301030104010401040105016E
:100F60000501060106010701070108010801090141
:100F7000090109010A010A010B010B010C010C0115
:100F80000D010D010E010E010F010F010F011001E6
:100F900010011101110112011201130113011401B9
:100FA000140115011501150116011601170117018C
:100FB00018011801190119011A011A011A011B015E
:100FC0001B011C011C011D011D011E011E011F0131
:100FD0001F01200120012001210121012201220104
:100FE00023012301240124012501250126012601D5
:100FF00026012701270128012801290129012A01A9
:101000002A012B012B012C012C012C012D012D017A
:101010002E012E012F012F0130013001310131014C
:101020003101320132013301330134013401350120
:1010300035013601360137013701370138013801F2
:10104000390139013A013A013B013B013C013C01C4
:101050003D013D013D013E013E013F013F01400197
:10106000400141014101420142014201430143016A
:10107000440144014501450146014601470147013C
:10108000480148014801490149014A014A014B010F
:101090004B014C014C014D014D014E014E014E01E1
:1010A0004F014F01500150015101510152015201B4
:1010B0005301530154015401540155015501560186
:1010C0005601570157015801580159015901590159
:1010D0005A015A015B015B015C015C015D015D012C
:1010E0005E015E015F015F015F01600160016101FE
:1010F00061016201620163016301640164016501D0
:1011000065016501660166016701670168016801A3
:10111000690169016A016A016B016B016B016C0174
:101120006C016D016D016E016E016F016F01700147
:10113000700170017101710172017201730173011B
:1011400074017401750175017601760176017701EC
:10115000770178017801790179017A017A017B01BF
:101160007B017C017C017C017D017D017E017E0192
:101170007F017F0180018001810181018101820164
:101180008201830183018401840185018501860137
:10119000860187018701870188018801890189010A
:1011A0008A018A018B018B018C018C018D018D01DB
:1011B0008D018E018E018F018F01900190019101AF
:1011C0009101920192019301930193019401940181
:1011D0009501950196019601970197019801980153
:1011E0009801990199019A019A019B019B019C0127
:1011F0009C019D019D019E019E019E019F019F01F9
:10120000A001A001A101A101A201A201A301A301CA
:10121000A401A401A401A501A501A601A601A7019D
:10122000A701A801A801A901A901A901AA01AA0170
:10123000AB01AB01AC01AC01AD01AD01AE01AE0142
:10124000AF01AF01AF01B001B001B101B101B20115
:10125000B201B301B301B401B401B501B501B501E7
:10126000B601B601B701B701B801B801B901B901BA
:10127000BA01BA01BB01BB01BB01BC01BC01BD018C
:10128000BD01BE01BE01BF01BF01C001C001C0015F
:10129000C101C101C201C201C301C301C401C40132
:1012A000C501C501C601C601C601C701C701C80104
:1012B000C801C901C901CA01CA01CB01CB01CC01D6
:1012C000CC01CC01CD01CD01CE01CE01CF01CF01AA
:1012D000D001D001D101D101D101D201D201D3017C
:1012E000D301D401D401D501D501D601D601D7014E
:1012F000D701D701D801D801D901D901DA01DA0122
:10130000DB01DB01DC01DC01DD01DD01DD01DE01F2
:10131000DE01DF01DF01E001E001E101E101E201C5
:10132000E201E301E301E301E401E401E501E50198
:10133000E601E601E701E701E801E801E801E9016A
:10134000E901EA01EA01EB01EB01EC01EC01ED013D
:10135000ED01EE01EE01EE01EF01EF01F001F00110
:10136000F101F101F201F201F301F301F401F401E1
:10137000F401F501F501F601F601F701F701F801B5
:10138000F801F901F901F901FA01FA01FB01FB0188
:10139000FC01FC01FD01FD01FE01FE01FF01FF0159
:1013A000FF01000200020102010202020202030226
:1013B00003020402040205020502050206020602F7
:1013C0000702070208020802090209020A020A02C9
:1013D0000B020B020B020C020C020D020D020E029C
:1013E0000E020F020F02100210021002110211026F
:1013F0001202120213021302140214021502150241
:101400001602160216021702170218021802190213
:1014100019021A021A021B021B021C021C021C02E5
:101420001D021D021E021E021F021F0220022002B8
:10143000210221022202220222022302230224028A
:10144000240225022502260226022702270227025D
:1014500028022802290229022A022A02F76A6C0FAE
:10146000F66E140EF7220900F550120032302D4DA1
:1014700061722D313800B10EB36EE00EB26E81CFC5
:1014800057F1D8900301DC3505014F6F0301DD35BD
:101490000501506F000E010157AB010E05014F13FE
:1014A0004FC5DCF305015051E0090301DD6FDC534A
:1014B00009E1DD51F00806E10101568755811E0E54
:1014C0005E6F0301D890DE3505014F6F0301DF35F4
:1014D0000501506F000E010157AD010E05014F13BC
:1014E0004FC5DEF305015051E0090301DF6FDE5304
:1014F00009E1DF51F00806E10101568955811E0E10
:101500005E6F0301D890E03505014F6F0301E135AF
:101510000501506F000E010157AF010E05014F1379
:101520004FC5E0F305015051E0090301E16FE053BD
:1015300009E1E151F00806E10101568555811E0ED1
:101540005E6F0301A192000144EF00F00301E22B62
:10155000E251640804E1E26B0101558D03014A2C5C
:1015600042D093800501529381B0528352B30FD081
:101570000301E5B102D005010AD00101632BD8B403
:10158000642B3B2AD8B43C2A392AD8B43A2A03011E
:10159000E591050152A303D00301E5810501030193
:1015A000E32BD8B4E42BE35110081CE1E4512708E5
:1015B00019E1E46BE36B64C136F063C135F00101FE
:1015C000646B636B3850365C04E307E13550375C7D
:1015D00004E3373C06D0383C04D036C038F035C080
:1015E00037F0030147D0050152A10CD00101613D44
:1015F00005D0623D03D0050105D00101612BD8B4AF
:10160000622B05019380529381B0528352B329D04B
:101610000301E5B102D0050124D03B2AD8B43C2A0D
:10162000392AD8B43A2AE5A313D00501529162C1F0
:1016300036F061C135F03650385C08E303E13750CD
:10164000355C04E236C038F035C037F00301E5936D
:10165000E5B307D00101626B616B050152810301A3
:10166000E5830301E591050152A303D00301E58160
:10167000050103019E92000197EF00F09EAAFED79C
:10168000ABCF34F0AECF01F034A202D0AB98AB8830
:101690004DEF0BF0D06BCF6BF1D701C04FF5CE53B0
:1016A0000EE1CD517F080BE34D0ECD25E96E000E06
:1016B000CE21EA6E4FC5EFFFCD2BD8B4CE2B9E9A2C
:1016C00044EF00F0A4AAFED76BCF34F06ECF01F048
:1016D00034A202D06B986B886FEF0BF0F3D701C088
:1016E0004FF5A49A44EF00F0232044617461666CC6
:1016F000617368207061676520726561642066723D
:101700006F6D20256C750D0A00000D0A00000D0A92
:101710002320446F6E650D0A00002320696E6974F2
:1017200069616C697A696E67206C6F6767696E675B
:101730000D0A0000526573657474696E67204C6F02
:1017400067210000446F6E6500003E20646F6E6587
:101750000D0A00002320706C6179696E67206C6F40
:10176000670D0A003E20646F6E650D0A000023209D
:1017700044756D70696E67206C6F670D0A003E20BE
:10178000646F6E650D0A00005061676520526571D7
:101790003A202530356C7500204E20506167657306
:1017A0003A202530356C7500556E6974205570747B
:1017B000696D653A0000256C75206D696E757465FC
:1017C0007300576972656C657373206F6E3A000021
:1017D0002575207365636F6E647300005344204366
:1017E000617264205374617475733A004C6F67675B
:1017F000696E6720283130207365632900004C6FC3
:101800006767696E6720283630207365632900009A
:101810004E6F74207265616479212028313029006F
:101820004E6F74207265616479212028363029005A
:10183000496E7465726E616C204D656D6F72793A98
:101840000000256C752F256C752066756C6C00008A
:10185000496E7075743A2025302E316C6620766F93
:101860006C747300426174746572793A2025642542
:10187000250057696E6420446972656374696F6EF0
:101880003A00536563746F72202575202800343543
:101890000000393000003133350031383000323249
:1018A000350032373000333135004628487A292058
:1018B000464D61782020436E740054202020202063
:1018C000546D696E20436F756E74000044617465D9
:1018D0003A203230253032752D253032752D2530A5
:1018E000327500004E6F7720253032753A25303240
:1018F000753A253032752055544300004669726DA3
:10190000776172652056657273696F6E3A00313087
:101910003A35373A3530000053706565643A202512
:1019200030322E3166206D2F7300477573743A2064
:10193000202530322E3166206D2F7300537065657F
:10194000643A202530342E3177206D2F730047758F
:1019500073743A20202530342E3177206D2F730098
:101960005072657620205365742020204E6578746F
:1019700000002D20202020205365742020202020CE
:10198000202B00002D20202020204E657874202060
:101990002020202B00004E4F2020202059455300AE
:1019A0005072657620456E74657220204E6578749D
:1019B000000057726F74652044656661756C742011
:1019C000534E000053657269616C3A202563256CA3
:1019D00075202020202000002D2020202020444F92
:1019E0004E4520202020202B000057726F74652068
:1019F000534E0000202D2048572054595045202D8B
:101A0000200052444C20202020202020202052441E
:101A10004C55000057726F746520485720547970F8
:101A20006500202D20414E454D4F205459504520F2
:101A30002D20000023343048432020202020205433
:101A400048494553000057726F746520416E656DBB
:101A50006F20547970650000202D205344204C4F96
:101A6000472052415445202D2000363020736563B5
:101A700020202020313020736563000057726F747E
:101A800065205344207261746500446174653A2096
:101A90003230253032642D253032642D25303264C9
:101AA000000054696D653A20253032643A253032A1
:101AB000643A25303264000072646C2855290000B5
:101AC00072646C556E690000756E6B6E6F776E2177
:101AD0000000202334304843000020544849455337
:101AE000000020554E4B4E4F574E00005570206958
:101AF0006E2025752049443D2563256C7520000026
:101B00002320555020494E202575205345434F4EE4
:101B100044530D0A0000232072644C6F676765729E
:101B2000556E6976657273616C202573202832309A
:101B3000253032752D253032752D2530327529200E
:101B40002873657269616C202563256C75292028CE
:101B50006861726477617265202575292028616E3D
:101B6000656D6F6D65746572202575290D0A00001D
:101B700032302D4D61722D313800507265737320F3
:101B80006D6964646C650000627574746F6E2074B6
:101B90006F20636C65617200639A9598958A959C35
:101BA000300E636EC00E646E95968C8695948C8410
:101BB000000069EF10F0948694886AEF10F0050E2B
:101BC000EA6E450EE96EEF500DE0020E016E006AFE
:101BD000002EFED7012EFBD7970E006E002EFED7EB
:101BE000EF2EF3D7120097968E8697968E96120058
:101BF000040148BF02D08E9E01D08E8E979E48BDB4
:101C000002D08E9C01D08E8C979C48BB02D08E9ABD
:101C100001D08E8A979A48B902D08E9801D08E88CA
:101C200097980001E0DF040148B702D08E9E01D0F2
:101C30008E8E979E48B502D08E9C01D08E8C979C3C
:101C400048B302D08E9A01D08E8A979A48B102D0BA
:101C50008E9801D08E8897980001C5DF1A0E006E0D
:101C6000002EFED7000012000F0E0501456F000187
:101C7000A6DF97928E9297948E94979E8E9E979CB5
:101C80008E9C979A8E8A97988E88ADDF050E0501F7
:101C9000456F000194DFA7DF420E006E002EFED7D5
:101CA0000000A1DF050E0501456F000188DF979850
:101CB0008E9899DF1A0E006E002EFED70000280EB7
:101CC0000401486F000194DF0C0E0401486F00010D
:101CD0008FDF060E0401486F00018ADF010E040148
:101CE000486F000185DF6BEF10F0080E016E0000F9
:101CF0008B969496000005014E378B98D8B0948847
:101D0000D8A09498948682A6FED7012E01D002D046
:101D10000001EDD700008B96949600009488000097
:101D20000000948682A6FED7016A000082B8018076
:101D30008B9694968B9894980001120094880000DA
:101D4000948600008B98949800008B969496D00E01
:101D500005014E6F0001C9DF015004014A9101B035
:101D60004A814AA102D00001E9D748C44EF50001DA
:101D7000BCDF49C44EF5B9DF94980000948682A672
:101D8000FED7000000D00000948800001200070E6B
:101D90000401486F100E496F0001D0DF6CEF10F0A6
:101DA000080E05014C6F00C04DF594880000948624
:101DB00082A6FED782B8D88082A8D89001360000CB
:101DC00094968B964C2FF1D7948800008B984D51A8
:101DD000D8A494980000948682A6FED700008B9623
:101DE000949600008B98949800011200948800004B
:101DF000948600008B98949800008B969496D00E51
:101E000005014E6F000171DF01500108EFE048C489
:101E10004EF56BDF948800009486000082A6FED702
:101E20008B98949800008B969496D10E05014E6F76
:101E300000015BDF01500108EDE0006AB1DF01C085
:101E400049F494980000948682A6FED7000000D042
:101E5000000094880000040149C401F00001120050
:101E6000040149394A6F0F0E4A1749510F0B4B6F46
:101E70004A510A0DF3504B25016E00011200040176
:101E8000486B496B00015ADF060E0401486F0A0EC9
:101E9000496F000153DF050E0401486F010E496FC1
:101EA00000014CDF040E0401486F010E496F000170
:101EB00045DF020E0401486F496B00013FDF010E50
:101EC0000401486F496B000139DF7AEF10F0720EA0
:101ED000D36ED350C150C00B0B09C16EC050C00BA4
:101EE0000709C06EC08EC280010155935595559764
:101EF00055815599559B5681559D559F5695569799
:101F0000569981CF57F11E0E5E6F366A356A386872
:101F100037683C6A3B6A3A6A396A646B636B040EE1
:101F2000EA6E280EE96E000E00012EEC0AF00A009F
:101F30000900F550EE6E0009FBE1300E0401285D4A
:101F40000A0DF3CF46F0300E295D46262B514A0884
:101F50000FE12C51410803E1010E456E08D02D51CF
:101F60004E0803E1060E456E02D0070E456E37D0CF
:101F70002B51410809E12C51500803E1040E456E34
:101F800002D0080E456E2BD02B514D0809E12D5182
:101F9000520803E1030E456E02D0050E456E1FD0B8
:101FA0002B51460803E1020E456E19D02B51530800
:101FB00003E1090E456E13D02B514F0803E10A0EC1
:101FC000456E0DD02B514E0803E10B0E456E07D028
:101FD0002B51440803E10C0E456E01D04568300ECC
:101FE0002F5D0A0DF3CF44F0300E305D4426486A71
:101FF000476A4C900001CE6BCD6BD069CF69D26936
:10200000D16901015491F2CF48F4F29CF29EAA6A80
:10201000100EA96EA69CA69EA680A850040148BDDD
:10202000F28C48BFF28E416EF2CF48F4F29CF29EE1
:10203000AA6A110EA96EA69CA69EA680A85048BDAD
:10204000F28C48BFF28E426EF2CF48F4F29CF29EC0
:10205000AA6A120EA96EA69CA69EA680A85048BD8C
:10206000F28C48BFF28E436EF2CF48F4F29CF29E9F
:10207000AA6A130EA96EA69CA69EA680A85048BD6B
:10208000F28C48BFF28E496EF2CF48F4F29CF29E79
:10209000AA6A140EA96EA69CA69EA680A85048BD4A
:1020A000F28C48BFF28E4A6EF2CF48F4F29CF29E58
:1020B000AA6A150EA96EA69CA69EA680A85048BD29
:1020C000F28C48BFF28E4B6E0301D969D8690001CA
:1020D00063D571D5C9D55BD6060E0401486F0001E2
:1020E00085DE01C048F401C049F4BADE015004089D
:1020F00001E3C5D6000E0509CA6E310ECB6E850E02
:10210000B16E9D8AA38AF19EC00EF21218EF2EF0D6
:1021100004012B5101015F5D02E22BC45FF1969A2D
:102120008D9A0001120097928E92010E0401486F61
:1021300000015EDD020E0501456F000140DD120069
:1021400097928E823CC448F453DD12000900F55288
:102150000CE0F6CF2FF4F7CF30F4F5CF3CF4F0DFFE
:102160002FC4F6FF30C4F7FFF1D7120097928E927A
:10217000800E04012F25306F486F000139DD1200F9
:102180000900F6CF30F4F7CF31F4F5CF3CF4D8DFC7
:1021900030C4F6FF31C4F7FF04012F2F01D002D065
:1021A0000001EED700011200EACF37F4E9CF36F490
:1021B00004013039F009326F3227E20F336F320FEA
:1021C000356F30510F0B332733273527E90F346F25
:1021D000342734272F390F0B342735273437353739
:1021E000351F35372F510F0B35273237070E316F1B
:1021F0000A0E34073527FDE333073427FDE33207A2
:102200003327FDE331073227FDE3040EEA6E310E7A
:10221000E96E070E3615369DE926350EE95CD8B411
:10222000368DEF50006E08E136BD06D036B915D0B8
:1022300036B702D0200E03D036873699300E0026EE
:10224000EACF30F4E9CF2FF400C03CF4000178DF8E
:1022500030C4EAFF2FC4E9FF0401EE5036ADDDD7EC
:102260000001120004012853D8B496D0AA6A100EB7
:10227000A96E520EA86EA69CA69EA684F250006E71
:10228000F29CF29E0F01550EA76EAA0EA76EA682B3
:10229000A6B2FED7A6940050F212AA6A110EA96E39
:1022A000A86AA69CA69EA684F2CF00F0F29CF29E9D
:1022B000550EA76EAA0EA76EA682A6B2FED7A6944A
:1022C0000050F212AA6A120EA96EA86AA69CA69ED7
:1022D000A684F2CF00F0F29CF29E550EA76EAA0ED5
:1022E000A76EA682A6B2FED7A6940050F212AA6AE2
:1022F000130EA96E020EA86EA69CA69EA684F2CF0F
:1023000000F0F29CF29E550EA76EAA0EA76EA68252
:10231000A6B2FED7A6940050F212AA6A140EA96EB5
:10232000A86AA69CA69EA684F2CF00F0F29CF29E1C
:10233000550EA76EAA0EA76EA682A6B2FED7A694C9
:102340000050F212AA6A150EA96EA86AA69CA69E53
:10235000A684F2CF00F0F29CF29E550EA76EAA0E54
:10236000A76EA682A6B2FED7A6940050F212000174
:10237000DADEB20EF66E190EF76EE8DE040E040118
:102380002F6FFA0E0501456F000119DC04012F2F94
:10239000F8D70001C8DE0401F2CF2FF4F29CF29EC0
:1023A000AA6A100EA96EA69CA69EA680A8502FBD54
:1023B000F28C2FBFF28E296FF2CF2FF4F29CF29E97
:1023C000AA6A110EA96EA69CA69EA680A8502FBD33
:1023D000F28C2FBFF28E306FF2CF31F4F29CF29E6E
:1023E000AA6A120EA96EA69CA69EA680A85031BD10
:1023F000F28C31BFF28E326F30C42BF432C42AF427
:10240000010156975695569904012F6B0001AEDED7
:10241000C40EF66E190EF76E080E04012F6F000140
:10242000AFDE29C43CF48CDE100EE96E2BC430F410
:102430002AC42FF4B9DED10EF66E190EF76E050E12
:1024400004012F6F00019CDE400E04012F6F00017C
:102450008DDED80EF66E190EF76E78DE010156A9E4
:1024600002D0569919D056A506D0569504012A2BAC
:10247000D8B42B2B010156A706D0569704012A5138
:10248000D8B42B072A07140E0501456F0001DFECB5
:102490000DF004000101B8D7AA6A100EA96E520E01
:1024A000A86EA69CA69EA684F250006EF29CF29E98
:1024B0000F01550EA76EAA0EA76EA682A6B2FED772
:1024C000A6940050F2122BC42FF4AA6A110EA96E22
:1024D0002BC4A8FFA69CA69EA684F2CF00F0F29C77
:1024E000F29E550EA76EAA0EA76EA682A6B2FED7C2
:1024F000A6940050F2122AC42FF4AA6A120EA96EF2
:102500002AC4A8FFA69CA69EA684F2CF00F0F29C47
:10251000F29E550EA76EAA0EA76EA682A6B2FED791
:10252000A6940050F212AA6A130EA96E2CC4A8FF3A
:10253000A69CA69EA684F2CF00F0F29CF29E550EB9
:10254000A76EAA0EA76EA682A6B2FED7A6940050CA
:10255000F212AA6A140EA96E2DC4A8FFA69CA69E0C
:10256000A684F2CF00F0F29CF29E550EA76EAA0E42
:10257000A76EA682A6B2FED7A6940050F212F2CFA2
:102580002FF4F29CF29EAA6A100EA96EA69CA69E3B
:10259000A680A85004012FBDF28C2FBFF28E416E91
:1025A000F2CF2FF4F29CF29EAA6A110EA96EA69C9D
:1025B000A69EA680A8502FBDF28C2FBFF28E426E31
:1025C000F2CF2FF4F29CF29EAA6A120EA96EA69C7C
:1025D000A69EA680A8502FBDF28C2FBFF28E436E10
:1025E000F2CF2FF4F29CF29EAA6A130EA96EA69C5B
:1025F000A69EA680A8502FBDF28C2FBFF28E496EEA
:10260000F2CF2FF4F29CF29EAA6A140EA96EA69C39
:10261000A69EA680A8502FBDF28C2FBFF28E4A6EC8
:10262000000181DDEA0EF66E190EF76E8FDD040EE5
:1026300004012F6FFA0E0501456F0001DFEC0DF06C
:1026400004012F2FF7D700016EDD04012F6B00016D
:102650008DDDF40EF66E190EF76E78DD400E040176
:102660002F6F000183DD020EF66E1A0EF76E6EDD1F
:10267000010156A901D0569956A506D05695020ECD
:1026800004012C6F10D0010156A704D05697040105
:102690002C6B09D0140E0501456F0001DFEC0DF025
:1026A0000400D3D70401AA6A130EA96E2CC4A8FF94
:1026B000A69CA69EA684F250006EF29CF29E0F018C
:1026C000550EA76EAA0EA76EA682A6B2FED7A69436
:1026D0000050F212F2CF2FF4F29CF29EAA6A130E6F
:1026E000A96EA69CA69EA680A85004012FBDF28CC0
:1026F0002FBFF28E496E000116DD140EF66E1A0E13
:10270000F76E24DD040E04012F6FFA0E0501456FEC
:102710000001DFEC0DF004012F2FF7D7000103DDDE
:1027200004012F6B000122DD220EF66E1A0EF76EE9
:102730000DDD400E04012F6F000118DD340EF66E22
:102740001A0EF76E03DD010156A901D0569956A560
:1027500006D05695010E04012D6F10D0010156A729
:1027600004D0569704012D6B09D0140E0501456F56
:102770000001DFEC0DF00400D3D70401AA6A140EA7
:10278000A96E2DC4A8FFA69CA69EA684F250006E3A
:10279000F29CF29E0F01550EA76EAA0EA76EA6829E
:1027A000A6B2FED7A6940050F212F2CF2FF4F29CFC
:1027B000F29EAA6A140EA96EA69CA69EA680A85098
:1027C00004012FBDF28C2FBFF28E4A6E0001ABDCEC
:1027D000460EF66E1A0EF76EB9DC040E04012F6F6A
:1027E000FA0E0501456F0001DFEC0DF004012F2FFB
:1027F000F7D7000198DC04012F6B0001B7DC580EFD
:10280000F66E1A0EF76EA2DC400E04012F6F000167
:10281000ADDC6A0EF66E1A0EF76E98DC010156A951
:1028200001D0569956A506D05695010E04012E6F7B
:1028300010D0010156A704D0569704012E6B09D081
:10284000140E0501456F0001DFEC0DF00400D3D735
:102850000401AA6A150EA96E2EC4A8FFA69CA69E06
:10286000A684F250006EF29CF29E0F01550EA76EE8
:10287000AA0EA76EA682A6B2FED7A6940050F212A8
:10288000F2CF2FF4F29CF29EAA6A150EA96EA69CB6
:10289000A69EA680A85004012FBDF28C2FBFF28EF9
:1028A0004B6E000140DC7C0EF66E1A0EF76E4EDCAD
:1028B000040E04012F6FFA0E0501456F0001DFECD5
:1028C0000DF004012F2FF7D700012DDC1200F2CFFD
:1028D00028F4F29CF29EAA6A100EA96EA69CA69EEF
:1028E000A680A850040128BDF28C28BFF28E5208A1
:1028F00022E1F2CF29F4F29CF29EAA6A130EA96E8D
:10290000A69CA69EA680A85029BDF28C29BFF28E57
:10291000020811E3F2CF2AF4F29CF29EAA6A140E86
:10292000A96EA69CA69EA680A8502ABDF28C2ABF9E
:10293000F28E010805E2010E286F000193DC0CD035
:10294000010156B50AD056A908D056B706D05699F7
:102950000401286B000186DC0101000132EF2EF03A
:1029600005014251016A415D03E241C500F00CD00E
:10297000006A080E436F413700364251005CD8B000
:10298000006E0136432FF7D70001120001502DC40D
:1029900041F5640E0501426F0001E2DF00C02DF435
:1029A0000150300E08E104012EA30FD02EB70DD038
:1029B0002EB9200E04D004012E972E992E810126C7
:1029C00001C03CF40001A0EC10F02DC441F50A0E4A
:1029D0000501426F0001C4DF00C02DF40150300E2C
:1029E00008E104012EB70BD02EA109D02EB9200E7C
:1029F0000001012601C03CF4A0EC10F00401300EEF
:102A00002D272DC43CF40001A0EC10F012000900A9
:102A1000F6CF2EF4F7CF2FF4F5509EA8FED7AD6E6B
:102A20002EC4F6FF2FC4F7FF04012D2F01D002D0D2
:102A30000001EDD70001120001502DC441F5640ED4
:102A40000501426F00018CDF00C02DF40150300EF3
:102A500008E104012EA30ED02EB70CD02EB9200E03
:102A600004D004012E972E992E81012601509EA894
:102A7000FED7AD6E2DC441F50A0E0501426F00016F
:102A80006FDF00C02DF40150300E08E104012EB7B5
:102A90000BD02EA109D02EB9200E00010126015025
:102AA0009EA8FED7AD6E0401300E2D272D519EA895
:102AB000FED7AD6E000112000900F5520DE0F6CF11
:102AC0002DF4F7CF2EF4F5509EA8FED7AD6E2DC491
:102AD000F6FF2EC4F7FFF0D71200EACF35F4E9CFA6
:102AE00034F404012E39F009306F3027E20F316FD2
:102AF000320F336F2E510F0B312731273327E90F58
:102B0000326F322732272D390F0B322733273237D6
:102B10003337331F33372D510F0B33273037070E21
:102B20002F6F0A0E32073327FDE331073227FDE30B
:102B300030073127FDE32F073027FDE3040EEA6E4F
:102B40002F0EE96E070E3415349DE926330EE95C2D
:102B5000D8B4348DEF50006E08E134BD06D034B9DE
:102B60000CD034B702D0200E03D034873499300E05
:102B7000002600509EA8FED7AD6EEE5034ADE6D7CD
:102B80000001EDEF16F00401286B93948A8493966C
:102B90008A86959E8C8E140E2B6F000188EC10F0A7
:102BA000495207E1B80EF66E1A0EF76EA6EC10F059
:102BB00010D04950020807E1C00EF66E1A0EF76EEB
:102BC000A6EC10F006D0C80EF66E1A0EF76EA6EC44
:102BD00010F04A5207E1D20EF66E1A0EF76EA6EC0E
:102BE00010F00FD04A2C07D0DA0EF66E1A0EF76EE0
:102BF000A6EC10F006D0E20EF66E1A0EF76EA6ECFA
:102C000010F0F2CF2BF4F29CF29EAA6A110EA96E7C
:102C1000A69CA69EA680A85004012BBDF28C2BBFBB
:102C2000F28E2C6FF2CF2DF4F29CF29EAA6A120E55
:102C3000A96EA69CA69EA680A8502DBDF28C2DBF85
:102C4000F28E2E6F2CC42AF42EC429F40A0E286F9B
:102C500028536AE0400E2F6F0001B6EC10F0F2CF5F
:102C60002BF4F29CF29EAA6A100EA96EA69CA69E58
:102C7000A680A85004012BBDF28C2BBFF28E2C6FC6
:102C8000EC0EF66E1A0EF76E060E2F6F0001C0ECFA
:102C900010F028C42DF41B0E04012E6F000176DE07
:102CA000F40EF66E1A0EF76E040E04012F6F00017B
:102CB000C0EC10F02CC43CF4A0EC10F0100EE96E47
:102CC0002AC430F429C42FF4D4EC10F0200E0401EF
:102CD0003C6F0001A0EC10F0000EF66E1B0EF76EBC
:102CE000080E04012D6F000192DE28C42DF41B0E86
:102CF00004012E6F0001A0DE0A0EF66E1B0EF76EA9
:102D00000A0E04012D6F000182DE040E04012B6FF8
:102D1000FA0E0501456F0001DFEC0DF004012B2FC9
:102D2000F7D70400280794D7F2CF2BF4F29CF29E39
:102D3000AA6A100EA96EA69CA69EA680A8502BBDBE
:102D4000F28C2BBFF28E2C6F160EF66E1B0EF76EEA
:102D5000140E2D6F00015BDE700EF66E1B0EF76E0B
:102D6000ABDE2C0EF66E1B0EF76E040E04012D6FFB
:102D700000014DDE44C02DF4010E04012E6F000150
:102D80005BDE2D0E9EA8FED7AD6E45C02DF4010E64
:102D900004012E6F000150DE2D0E9EA8FED7AD6EF1
:102DA00046C02DF4010E04012E6F000145DE3E0EDB
:102DB000F66E1B0EF76E0A0E04012D6F000127DE62
:102DC00004012C519EA8FED7AD6E100EE96E2AC4E8
:102DD0002EF429C42DF4000180D64D0EF66E1B0E84
:102DE000F76E0C0E04012D6F000111DE49C02DF4A9
:102DF0001B0E04012E6F00011FDE5B0EF66E1B0E14
:102E0000F76E0E0E04012D6F000101DE4AC02DF495
:102E10001B0E04012E6F00010FDE290E9EA8FED7A7
:102E2000AD6E0D0E9EA8FED7AD6E0A0E9EA8FED703
:102E3000AD6E34EF2EF0A00E05014B6F49517F08A7
:102E400002E24B83499F94880000948600008B988F
:102E5000949800008B9694964BC54EF5000175EC46
:102E60000EF049C54CF505014D6B49C54EF5000105
:102E700075EC0EF048C54EF575EC0EF04AC54EF5F2
:102E800075EC0EF094980000948682A6FED70000A0
:102E900000D000009488000012001A0EF66E170E83
:102EA000F76E0ADE93EC10F0340EF66E170EF76E26
:102EB000A6EC10F0050E0401286FF00E0501456F19
:102EC0000001DFEC0DF00401282FF7D70501496B55
:102ED000486B4A6B0001AFDF0501496B020E486F7A
:102EE0004A6B0001A8DF0501496B030E486F4A6B6E
:102EF0000001A1DF95948C9400006650500E666E20
:102F00006430FEE36650666A6430FEE36650666ACB
:102F10006430FEE36650666A6430FEE395948C8408
:102F200000000A0E0501456F0001DFEC0DF09594DD
:102F30008C9400006650D70E666E6430FEE36650D7
:102F4000666A6430FEE366CF58F495948C84000082
:102F5000040158C401F001C028F401BE04D00400EB
:102F60000001E5D70401400E2F6F0001B6EC10F010
:102F7000440EF66E170EF76EA6EC10F04A0EF66EC3
:102F8000170EF76E99DD050E0401286FF00E05018E
:102F9000456F0001DFEC0DF00401282FF7D7000189
:102FA000120081CF28F4040128B907D0010157B9D4
:102FB00002D0040102D0558F040128A907D00101D5
:102FC00057A902D0040102D05581040128C457F149
:102FD0000001CF3D03D0D03D01D003D0CF2BD8B4DA
:102FE000D02BD13D03D0D23D01D003D0D12BD8B4CA
:102FF000D22BCD51CE110BE0D05303E1CF510508B8
:1030000006E2CF3D03D0D03D01D001D04C80D89016
:1030100004012235296F23352A6F000E010157ABB9
:10302000010E0401291329C422F42A51E009236F57
:10303000225309E12351F00806E101015687558129
:103040001E0E5E6F0401D8902435296F25352A6F36
:10305000000E010157AD010E0401291329C424F407
:103060002A51E009256F245309E12551F00806E1B2
:103070000101568955811E0E5E6F0401D8902635D8
:10308000296F27352A6F000E010157AF010E040189
:10309000291329C426F42A51E009276F265308E191
:1030A0002751F00805E10101568555811E0E5E6F1E
:1030B00001015F5303E093968A8602D093968A9625
:1030C000000182EF2EF0020E0401486F0001F6ECC1
:1030D0000EF001503F0B0401286F496F000130ECE6
:1030E0000FF001C058F1010E0401486F0001F6EC29
:1030F0000EF001C028F401C049F430EC0FF001C01B
:1031000059F10401486B0001F6EC0EF001507F0B01
:103110000401286F496F000130EC0FF001C05AF133
:10312000040E0401486F0001F6EC0EF001C028F413
:1031300001C049F430EC0FF001C05BF1050E040151
:10314000486F0001F6EC0EF001C028F401C049F40C
:1031500030EC0FF001C05CF1060E0401486F000175
:10316000F6EC0EF001C028F401C049F430EC0FF089
:1031700001C05DF1C1EF18F0969A8D8ACEEF18F07C
:10318000A2D701015E5303E197908E8003D0979000
:103190008E905E075F5304E10001EED708D0010175
:1031A00004012B6B000188EC10F001015F070101A5
:1031B000605304E15589090E606F01D06007040176
:1031C00021510101595D21E0558359C121F4473C4A
:1031D00003D0483C01D003D0472AD8B4482A5951DB
:1031E0001E0802E1568104D059512D0801E1569183
:1031F0005951050809E05951140806E059512308AE
:1032000003E05951320801E1558B968284B203D014
:1032100093948A8402D093948A943B5202E13C5264
:1032200003E0959E8C8E02D0959E8C9E000189EFC6
:103230002EF09D9A010154B12DD0EA6AD30EE96EA9
:10324000E26A4D0EE16ECEC002F0CDC001F0015237
:1032500002E0022A02D0025206E0E6CFEEFF012E83
:10326000FCD7022EFAD7010E0001CD250401286FEC
:10327000000E0001CE210401296FD30E2825E96E2E
:10328000000E2921EA6EEF6A010154810001CE6B24
:10329000CD6B01019D8A00018FEF2EF00401726950
:1032A00071696F516F07000A26E06EC403F06D511B
:1032B0006D2BD8B46E2BE96E03C0EAFFEF50711B83
:1032C000706B7051070816E37151010B006E036AB1
:1032D000005003100AE0D8907231746F7131010A06
:1032E000716F7451A00A726F03D0D890723371332A
:1032F000702BE7D7D6D771C401F072C402F0000179
:103300001200010154A148D054910001D351230867
:1033100042E1D451415C3FE1D551425C3CE1D651A0
:10332000435C39E1D7510D0836E1D851160833E135
:1033300004016E6BD40E6D6F0A0E6F6F0001AEDF6D
:1033400002C029F401C028F4DEC003F0DF510401FB
:10335000285D03E10350295D01E01FD0FA0E2B6FB9
:10336000000188EC10F0D95105E0010A07E0030ADA
:1033700009E011D00101558B00010DD001015585E7
:10338000000109D0DAC0D9F3DBC0D8F3DCC0DBF32D
:10339000DDC0DAF300D001010401000193EF2EF04B
:1033A000D8B204D0040EEA6E450EE96E006A016AD6
:1033B000026A036A0401456B466B476B486B4451D4
:1033C0004311421141112CE0200E496FD8903D3736
:1033D0003E373F3740374537463747374837445100
:1033E000485D08E14351475D05E14251465D02E118
:1033F0004151455D0FE34151455F4251D8A0423DE7
:10340000465F4351D8A0433D475F4451D8A0443D57
:10341000485FD8800036013602360336492FD6D7AA
:1034200045C4EFFF46C4ECFF47C4ECFF48C4ECFFC3
:1034300000011200D89004011935036AF90FE96EF2
:10344000030E0320EA6E2EC4ECFFED522DC4EFFFF5
:10345000192B19510F0801E2196B1A510F0801E3DA
:103460001A2B366B356B346B336B376B1A51375DF8
:1034700014E2D8903735036AF90FE96E030E032082
:10348000EA6EECCF03F0ED52EF50332703503423B4
:10349000000E35233623372BE9D7D8901A31006E2A
:1034A000016A026A036A00503325396F01503421E2
:1034B0003A6F025035213B6F035036213C6FD89252
:1034C000406F3BC43FF43AC43EF439C43DF4446B0E
:1034D000436B426B1AC441F4000162DF03C032F453
:1034E00002C031F401C030F400C02FF404012FC435
:1034F00001F030C402F000018EEF1BF004012C51EA
:10350000000808E2FF0A03E12B51440803E20A0E17
:10351000016E65D02C51000808E2FF0A03E12B512F
:103520003F0803E2090E016E5AD02C51000808E250
:10353000FF0A03E12B513D0803E2080E016E4FD054
:103540002C51000808E2FF0A03E12B513A0803E27C
:10355000070E016E44D02C51000808E2FF0A03E177
:103560002B51370803E2060E016E39D02C510008AA
:1035700008E2FF0A03E12B51330803E2050E016E56
:103580002ED02C51000808E2FF0A03E12B512F082E
:1035900003E2040E016E23D02C51000808E2FF0A5A
:1035A00003E12B512C0803E2030E016E18D02C51BD
:1035B000000808E2FF0A03E12B51270803E2020E8C
:1035C000016E0DD02C51000808E2FF0A03E12B51D7
:1035D000200803E2010E016E02D0000E016E000110
:1035E0009FEF1BF004012E5303E12D513F0808E229
:1035F0002E5306E12D51BF0803E3010E016E6BD07F
:103600002E5303E12D51BF080AE22E51010807E3B2
:1036100003E12D513F0803E3020E016E5CD02E51F1
:1036200000080FE2FF0A03E12D513F080AE22E5184
:10363000010807E303E12D51BF0803E3030E016E08
:103640004AD02E5100080FE2FF0A03E12D51BF08B6
:103650000AE22E51020807E303E12D513F0803E37C
:10366000040E016E38D02E5101080FE2FF0A03E16B
:103670002D513F080AE22E51020807E303E12D51C4
:10368000BF0803E3050E016E26D02E5101080FE29C
:10369000FF0A03E12D51BF080AE22E51030807E398
:1036A00003E12D513F0803E3060E016E14D02E51A5
:1036B00002080FE2FF0A03E12D513F080AE22E51F2
:1036C000030807E303E12D51BF0803E3070E016E72
:1036D00002D0000E016E0001C4EF1BF0000E016E5F
:1036E000C250C30B0110C26E010E0501456F0001EF
:1036F000DFEC0DF00401286B28510F0816E3C2829D
:10370000C2B2FED7C4CF03F0C3CF2BF4C4CF2CF486
:10371000C4CF2EF4C3CF2DF400018CD602C02AF4FE
:1037200001C029F40401282BE7D72AC43EF029C49C
:103730003DF02AC42CF429C42BF40001DFD601C0CB
:1037400040F04950020807E1040E016EC250C30B5D
:103750000110C26E06D00C0E016EC250C30B0110D8
:10376000C26E010E0501456F0001DFEC0DF0C28253
:10377000C2B2FED7C4CF2CF4C3CF2BF4C4CF2EF4E7
:10378000C3CF2DF400012ED701C03FF07EEF1CF017
:1037900005013E51030809E2FF0A03E13D51B0086B
:1037A00004E2FF0E016E026E12D0D8903D35026E1B
:1037B0003E35036E025003C0F7FF0001BEEC00F07F
:1037C0000900F5CF03F0016E03C002F0050100010E
:1037D00012009EA8FED7AD6E12009D9236C03DF439
:1037E00035C03CF438C03FF437C03EF43CC041F42F
:1037F0003BC040F43C6A3B6A9D82230E0401286F63
:1038000041C029F442C02AF443C02BF40F0E2C6FA0
:10381000070E2D6F4A2C1FD03DC43EF53CC43DF52C
:103820000001B6DF02C03BF401C03AF404013BC41E
:103830002EF43AC42FF43FC43EF53EC43DF50001DA
:10384000A7DF02C03BF401C03AF404013BC430F4EA
:103850003AC431F408D03DC42EF43CC42FF43FC424
:1038600030F43EC431F44038426FF00E42173F50FE
:103870000F0B4225326F41C433F440C434F4040EBC
:103880006E6F290E6D6F0C0E6F6F000107DD02C0A9
:1038900038F401C037F4040138C435F437C436F4C1
:1038A000396B39510E080FE3036A3951280FE96E5D
:1038B000040E0320EA6EEFCF42F44251000189DF8B
:1038C0000401392BEED700017FEF1CF00301E5BBAB
:1038D0000BD0010E04012B6F000188EC10F0D26BAD
:1038E000D16B0301E58B0DD00001D25303E1D1511F
:1038F0000D0807E2010155990001F0D66ED70301CA
:10390000E59B000199EF2EF0A00E05014A6F48518A
:103910007F0802E24A83489F948800009486000052
:103920008B98949800008B9694964AC54EF50001AA
:1039300075EC0EF048C54BF505014C6B48C54EF5CE
:10394000000175EC0EF047C54EF575EC0EF094884D
:1039500000009486000082A6FED78B989498000001
:103960008B96949605014A5101094B6F4E6F0001E9
:1039700075EC0EF0006AD0EC0EF001C049F5949899
:103980000000948682A6FED7000000D00000948834
:103990000000050149C501F000011200230E0401D9
:1039A000286F41C029F442C02AF443C02BF42B0EE7
:1039B0002C6F080E2D6F36C02EF435C02FF438C092
:1039C00030F437C031F43CC032F43BC033F45DC155
:1039D00034F45CC135F45BC136F458C137F459C1D5
:1039E00038F45AC139F495948C9400006650D70E7F
:1039F000666E6430FEE36650666A6430FEE366CF4E
:103A000058F495948C84000058C401F001C03AF435
:103A10000501486B020E476F000176DF01C03BF4E1
:103A20000501486B030E476F00016EDF01C03CF4D7
:103A30003EC03DF404013DC03EF496823F6B84B22B
:103A40003F2B010E596F650E59C457F4566F56C47B
:103A5000E9FF57C4EAFFEFCF40F4010E5625E96EA7
:103A6000000E5721EA6EEFCF41F4020E5625E96EA3
:103A7000000E5721EA6EEFCF42F4030E5625E96E91
:103A8000000E5721EA6EEFCF43F4010E596F690E15
:103A900059C457F4566F56C4E9FF57C4EAFFEFCF35
:103AA00044F4010E5625E96E000E5721EA6EEFCF61
:103AB00045F4020E5625E96E000E5721EA6EEFCF4F
:103AC00046F4030E5625E96E000E5721EA6EEFCF3D
:103AD00047F43FC048F4496B4A6B4B6B44C04CF40D
:103AE00045500F0B586F01015F51F00B0401582531
:103AF0004D6F46C04EF448C04FF447C050F4040E1A
:103B00006E6F290E6D6F280E6F6F00014EEC19F06D
:103B100002C054F401C053F4040154C451F453C41A
:103B200052F4556B55512A080FE3036A5551280F7B
:103B3000E96E040E0320EA6EEFCF58F458510001ED
:103B400048DE0401552BEED70001C0EF1DF0030144
:103B5000E5BD0CD00001D26BD16B010E04012B6FBF
:103B6000000188EC10F00301E58D0CD00001D25368
:103B700003E1D1510D0806E20101559B00010ED76A
:103B80000301E59D00019FEF2EF095948C940000B9
:103B90006650D20E666E6430FEE304012837293782
:103BA00028372937FC0E281729C42CF4665029C45D
:103BB00066FF6430FEE328C42CF4665028C466FF18
:103BC0006430FEE36650666A6430FEE36650666AFF
:103BD0006430FEE36650666A6430FEE36650666AEF
:103BE0006430FEE36650666A6430FEE32B6B2A6B3A
:103BF0002B51020814E303E12A510F0810E3C80E09
:103C00002A25E96E010E2B21EA6E6650666A643041
:103C1000FEE366CFEFFF2A2BD8B42B2BE9D7959480
:103C20008C8400000001F5EF1EF0050147514903A7
:103C3000F3CF01F0F4CF00F04A03F35000264851CF
:103C40004903F3500020026E000112000501486B89
:103C5000476B000159DE036A01C02CF403C02DF448
:103C60000501486B0C0E476F03C04AF501C049F5CA
:103C70000001DBDF02C02BF401C02AF40401296B30
:103C8000286B29512B5D23E303E12A51285D1FE2B4
:103C9000C80E2825016E010E2921036E01C02CF4E7
:103CA0002D6F28C42EF4020E29252F6FE8CF48F57A
:103CB00028C447F5000128DE2DC4EAFF2CC4E9FF23
:103CC00001C0EFFF0401282BD8B4292BDAD72951E2
:103CD00002080FE303E128510F080BE3C80E282563
:103CE000E96E010E2921EA6EEF68282BD8B4292B42
:103CF000EED70001F9EF1EF0230E0401306F41C032
:103D000031F442C032F443C033F43A0E346F150E2E
:103D1000356F2DC436F42CC437F46C6B6C512F08FE
:103D20001DE3080E6C25036A300F016E040E03229A
:103D30006C512E256F6F000E2F21706FC80E6F25EE
:103D4000E96E010E7021EA6EEFCF71F403C0EAFF55
:103D500001C0E9FF71C4EFFF6C2BE0D7040E6E6F5A
:103D6000310E6D6F370E6F6F00014EEC19F002C00F
:103D70006BF401C06AF404016BC468F46AC469F4AA
:103D80006C6B6C5139080FE3036A6C51300FE96EAC
:103D9000040E0320EA6EEFCF6DF46D51000119DDC2
:103DA00004016C2BEED700012DEF1FF00301D95158
:103DB0000F0805E2FF0A07E1D851010804E3DA53CE
:103DC00005E1DB5303E1DB6BDA6B5BD0968884A8FB
:103DD00001D057D0E8530DE1D9510F0808E3D9C3FA
:103DE00029F4D8C328F40001D0D603D00301000180
:103DF0002DD7010E04012B6F000188EC10F0D9C300
:103E000048F5D8C347F505014A6B0B0E496F000111
:103E10000CDF02C029F401C028F40301E8510401B9
:103E20002827000E29232B6BE8C32AF42BC448F55E
:103E3000E8C347F505014A6B300E496F0001F5DE16
:103E400002C02BF401C02AF429C42DF428C42CF498
:103E500002C02FF401C02EF44FD70301E82BE85124
:103E60000B080FE1E86BDA5302E1DB5308E0D82BD3
:103E7000D8B4D92BDA51D8B4DB07DA0702D0D96924
:103E8000D8690001A2EF2EF08E0E006E2EC401F054
:103E90002DC402F0036A015209E102C001F0026A76
:103EA000080E005E015202E1006A08D0D89001BEFF
:103EB00004D0023601360006F9D7019E1200040133
:103EC0002D51D8B4A5D0396F3151D8B4A1D0395FB4
:103ED00005E37F0E3927D8B09BD006D0810E395F1D
:103EE000D8A096D0D8B494D039C400F0016A026A40
:103EF000036A386B2EC437F4378F2FC436F430C4BE
:103F000035F4190E396F3451355F0DE2010E365F0D
:103F10000AE2375F08E2385F06E2382B372B362B90
:103F20003451352728D03351365F12E2010E375F06
:103F30000FE2385F0DE2382B372B335136273451DF
:103F4000352719E3362B17E1372B15E1382B13D022
:103F500032518009375F0EE2010E385F0BE2382BD9
:103F600032518009372733513627E9E3372BE7E110
:103F7000382BE5D70380392F01D00BD0D8903537B7
:103F8000363737373837D8900336023601363A3766
:103F9000BAD73AA106D0D8900132023203323A336E
:103FA00002D0000635E03ABF1ED0D89035373637FC
:103FB000373738373451355F07E2010E365F04E298
:103FC000375F02E2385F1AE33351365F05E2010ED4
:103FD000375F02E2385F12E332518009375F03E254
:103FE000010E385F0BE3032A09E1022A07E1012AE7
:103FF00005E1002A0DE00132023203322EC439F409
:104000003251391B39AF02D0018E06D0019E04D047
:10401000006A016A026A036A00011200800ED8A2D7
:1040200002D00401361B04013B6B3C6B32C43AF4F2
:1040300036513A1B3151D8B4DFD0396F006E35514B
:10404000D8B4E3D0395FD8B483D03EE336C43FF46C
:104050003F8F37C43EF438C43DF43C6BD8903F33B7
:104060003E333D333C33392FF8D73AAF03D03B8151
:10407000E0D03B9139913B89040EEA6E340EE96E33
:10408000EBD03B993ABF0AD039A113D03F333E332E
:104090003D333C33002AD8B4C7D00BD03FBF0CD03F
:1040A000D8903C373D373E373F370006D8B4BCD0B8
:1040B000F5D73B8D6DD03B9D32C43AF432AF02D080
:1040C0003F8FABD03F9FA9D035C439F435C400F041
:1040D0003151395F32C43FF43F8F33C43EF434C4AE
:1040E0003DF43C6BD8903F333E333D333C33392F66
:1040F000F8D73AAF03D03B839CD03B9339913B8BAD
:10410000040EEA6E380EE96EA7D03B9B3ABF0AD088
:1041100039A113D03F333E333D333C33002AD8B46A
:1041200083D00BD03FBF0CD0D8903C373D373E37C3
:104130003F370006D8B478D0F5D73B8F29D03B9FC6
:1041400036C43AF436AF02D03F8F67D03F9F65D078
:1041500036C43FF43F8F37C43EF438C43DF43AAF21
:1041600004D03F9F3B8565D03B953C6B3991040E55
:10417000EA6E340EE96E70D03ABF1CD032C43AF405
:1041800039A106D03F333E333D333C33002A4CE067
:104190003CAF0BD03D2B09E13E2B07E13F2B05E166
:1041A0003F333E333D33002A3FE03BBD84D73BBF26
:1041B000C6D71CD0800E3F1B3FAF04D03AD036C4C8
:1041C0003AF40AD032C43AF43F5306E13E5304E1D4
:1041D0003D5302E1006A21D03FBF08D0D8903C3760
:1041E0003D373E373F37002EF7D71ED03AAF02D0CB
:1041F0003F8F13D03F9F11D035C400F036C43FF439
:1042000037C43EF438C43DF408D031C400F032C4A1
:104210003FF433C43EF434C43DF43FC401F03EC423
:1042200002F03DC403F034D0006A016A026A036AF6
:104230002FD03C6B3D1F3E1F3F1F3C1F3C2B05E119
:104240003D2B03E13E2B01E13F2B3BB112D73BB3AA
:1042500054D73BB589D7B3D7EF503D2705E33E2B65
:1042600003E13F2BD8B43981ED52EF503E2703E3F1
:104270003F2BD8B43981ED52EF50EFBE01D0800A08
:104280003F27D8B039813BB9FCD63BBB3ED774D76A
:104290000001120004013A51D8B471D0006E3E51B1
:1042A000D8B46DD0002604E3810E002668E204D065
:1042B0007F0E005E64E363E03BC442F43F51421B67
:1042C0003B8F3F8F3D514103F4CF44F43C514003B9
:1042D000F4CF03F0F3CF43F44103F3504427F450F9
:1042E0004323000E03223D514003F3504427F45072
:1042F0004323000E026A032202223B514103F35082
:104300004327F4500322000E02223B514003F35096
:104310000326F4500222000E016A01223D513F03A0
:10432000F3504327F4500322000E022201223C5195
:104330003F03F3500326F4500222000E01223B51AA
:104340003F03F3500226F4500122002A01BE05D09B
:1043500043370336023601360006000E43AF0AD05B
:10436000032A02220122015005E1025003E1035019
:1043700001E1002A42BF018E42AF019E04D0006AD3
:10438000016A026A036A0001120004013A51B60888
:104390003A6F036A3BC43EF43B8FD8903B333C33C7
:1043A0003D3303320232013200323A2FF6D73EAFAC
:1043B0000BD0001E011E021E031E002AD8B4012AC3
:1043C000D8B4022AD8B4032A000112EF22F0E9502F
:1043D0000401326F3151346F1BE030C43DF42FC4FF
:1043E0003CF42EC43BF42DC43AF4416B406B200ED8
:1043F0003F6F820E3E6F00014DDF03C030F402C0FC
:104400002FF401C02EF400C02DF40401342FE5D7A1
:1044100030C43DF42FC43CF42EC43BF42DC43AF414
:104420000001B3D703C030F402C02FF401C02EF452
:1044300000C02DF4040130AF0DD03207328B2D1F98
:104440002E1F2F1F301F2D2BD8B42E2BD8B42F2B5F
:10445000D8B4302B3B0E396F9A0E386FCA0E376FB7
:10446000366B0A0E346F3151D8B4322BD882040E19
:10447000EA6E2D0EE96E30C440F42FC43FF42EC412
:104480003EF42DC43DF439C444F438C443F437C475
:1044900042F436C441F40001D0EC19F0015000524E
:1044A00013E104013129345DD8A402D000010CD0FD
:1044B00032510DE00F0B345D01E044E232BF42D0D7
:1044C00032BD05D0200E37D0200E0401321732AB9A
:1044D0000FD0329B3151D8A432070050326F2D0ECD
:1044E0003C6F0001A0EC10F004013251006E326B01
:1044F0003151345D0DE10050326F2E0E3C6F0001E2
:10450000A0EC10F004013251006E200E3217000EA4
:10451000300E32AB10D0329B3151D8A4320700504C
:10452000326F2D0E3C6F0001A0EC10F004013251EF
:10453000006E326B300E002600C03CF40001A0EC8F
:1045400010F00401D89239C440F438C43FF437C4A1
:104550003EF436C43DF4446B436B426B0A0E416F2C
:104560000001D0EC19F003C039F402C038F401C0E6
:1045700037F400C036F40401342F78D7000112005C
:1045800004012E51030809E2FF0A03E12D51B0088E
:1045900004E2000E016E026E12D0D8902D35026E2C
:1045A0002E35036E025003C0F7FF000176EC05F0D4
:1045B0000900F5CF03F0016E03C002F00401000111
:1045C0001200E9500401346F3B0E3B6F9A0E3A6FB4
:1045D000CA0E396F386B0A0E366F3351D8A43407C0
:1045E000D882040EEA6E2F0EE96E32C440F431C454
:1045F0003FF430C43EF42FC43DF43BC444F43AC409
:1046000043F439C442F438C441F40001D0EC19F049
:104610000150005213E104013329365DD8A402D0C1
:1046200000010CD034510CE00F0B365D01E020E2AC
:1046300034BF1ED034BD04D0200E13D00401346B1F
:104640003351365D0DE100C034F42E0E3C6F000195
:10465000A0EC10F0040134C400F0200E3417000E5A
:10466000300E002600C03CF40001A0EC10F0040164
:10467000D8923BC440F43AC43FF439C43EF438C441
:104680003DF4446B436B426B0A0E416F0001D0EC6A
:1046900019F003C03BF402C03AF401C039F400C081
:1046A00038F40401362F9CD7000112004A52D8A4D6
:1046B000E2D0355202E1365241E0353C03D0363C7F
:1046C00001D03CD036C02EF435C02DF444EC1FF0A0
:1046D0000401306B100E2F6F6F0E2E6F8B0E2D6F2F
:1046E00003C034F402C033F401C032F400C031F42A
:1046F00000015FEC1FF000C02DF401C02EF402C0D9
:104700002FF403C030F4D89203C034F402C033F461
:1047100001C032F400C031F4330E0401386F376F3A
:10472000366F7D0E356F000179DC03C02CF402C0BA
:104730002BF401C02AF400C029F406D004012C6B2C
:104740002B6B2A6B296B0001180EF66E190EF76E93
:10475000070E04012F6F0001C0EC10F0410EE96E4E
:104760002CC430F42BC42FF42AC42EF429C42DF405
:10477000010E0401316F00012ADE250EF66E190EBE
:10478000F76E040E04012F6F0001C0EC10F03752D9
:1047900002E1385241E0373C03D0383C01D03CD0F4
:1047A00038C02EF437C02DF444EC1FF00401306BF8
:1047B000100E2F6F6F0E2E6F8B0E2D6F03C034F403
:1047C00002C033F401C032F400C031F400015FECE8
:1047D0001FF000C02DF401C02EF402C02FF403C05E
:1047E00030F4D89203C034F402C033F401C032F480
:1047F00000C031F4330E0401386F376F366F7D0E11
:10480000356F00010BDC03C02CF402C02BF401C097
:104810002AF400C029F405D004012C6B2B6B2A6B01
:10482000296B400E04012F6F0001B6EC10F02A0E28
:10483000F66E190EF76E070E04012F6F0001C0EC23
:1048400010F0410EE96E2CC430F42BC42FF42AC4AE
:104850002EF429C42DF4010E0401316F0001B7DDDF
:10486000370EF66E190EF76E040E04012F6F00015D
:10487000C0EC10F05CD04A2C5AD036C02EF435C0B3
:104880002DF47EDE02C02EF401C02DF43C0EF66E37
:10489000190EF76E070E04012F6F0001C0EC10F027
:1048A000440EE96E0401326B316B2EC430F42DC41A
:1048B0002FF4010E336F000184DE490EF66E190EDF
:1048C000F76E040E04012F6F0001C0EC10F0400ED3
:1048D00004012F6F0001B6EC10F038C02EF437C081
:1048E0002DF44EDE02C02EF401C02DF44E0EF66EF5
:1048F000190EF76E070E04012F6F0001C0EC10F0C7
:10490000440EE96E0401326B316B2EC430F42DC4B9
:104910002FF4010E336F000154DE5B0EF66E190E9C
:10492000F76E040E04012F6F0001C0EC10F053EF7E
:104930002AF0720EF66E180EF76EA6EC10F0400E0E
:1049400004012F6F0001B6EC10F0820EF66E180E07
:10495000F76E070E04012F6F0001C0EC10F03FC08E
:104960002DF41B0E04012E6F0001C6EC14F0200E76
:1049700004013C6F0001A0EC10F0280E04013C6F14
:104980000001A0EC10F03F50F80F3BE2080F0FEFD2
:1049900025F0300E04013C6F0001A0EC10F031D086
:1049A0008E0EF66E180EF76EA6EC10F02AD0920E50
:1049B000F66E180EF76EA6EC10F023D0960EF66E7B
:1049C000180EF76EA6EC10F01CD09A0EF66E180EAC
:1049D000F76EA6EC10F015D09E0EF66E180EF76E60
:1049E000A6EC10F00ED0A20EF66E180EF76EA6EC26
:1049F00010F007D0A60EF66E180EF76EA6EC10F0AB
:104A000000D0DF0E04013C6F0001A0EC10F0290E75
:104A100004013C6F0001A0EC10F059EF2AF0E824EB
:104A2000F76AF736390FF66E4A0EF7220A00F5508C
:104A3000FA6E0800F550F96E9249A049AE49BC499A
:104A4000CA49D849E649F449CC0EF66E180EF76EFD
:104A5000080E04012F6F0001C0EC10F05DC12DF4B1
:104A6000010E04012E6F0001C6EC14F02D0E04019E
:104A70003C6F0001A0EC10F05CC12DF4010E0401AC
:104A80002E6F0001C6EC14F02D0E04013C6F0001E6
:104A9000A0EC10F05BC12DF4010E04012E6F00019B
:104AA000C6EC14F0400E04012F6F0001B6EC10F0BC
:104AB000E40EF66E180EF76E040E04012F6F00015F
:104AC000C0EC10F058C12DF4010E04012E6F00014E
:104AD000C6EC14F03A0E04013C6F0001A0EC10F09B
:104AE00059C12DF4010E04012E6F0001C6EC14F023
:104AF0003A0E04013C6F0001A0EC10F05AC12DF4F5
:104B0000010E04012E6F0001C6EC14F0F60EF66ED5
:104B1000180EF76E040E04012F6F0001C0EC10F0A8
:104B20005FEF2AF0300EF66E180EF76EA6EC10F05E
:104B3000400E04012F6F0001B6EC10F00501486B28
:104B4000020E476F000184EC1CF001C029F405013E
:104B5000486B030E476F000184EC1CF001C02AF47F
:104B600029C42CF401C02BF4100EE96E29C430F4D2
:104B700001C02FF4D4EC10F02F0E04013C6F0001A3
:104B8000A0EC10F0100EE96E0401306F2F6B0001E5
:104B9000D4EC10F0490EF66E180EF76E050E0401F7
:104BA0002F6F0001C0EC10F065EF2AF0DC0EF66EFE
:104BB000170EF76EA6EC10F0400E04012F6F0001E7
:104BC000B6EC10F0968284B210D04B2C07D0EC0ECD
:104BD000F66E170EF76EA6EC10F006D0FE0EF66E0F
:104BE000170EF76EA6EC10F00FD04B2C07D0100E5E
:104BF000F66E180EF76EA6EC10F006D0200EF66ECC
:104C0000180EF76EA6EC10F0010156A902D05699C5
:104C1000558B00016BEF2AF04A2C31D0100EE96E53
:104C200036C030F435C02FF4D4EC10F0060E040179
:104C30002F6F0001B6EC10F0100EE96E38C030F4A2
:104C400037C02FF4D4EC10F00C0E04012F6F0001CC
:104C5000B6EC10F0100EE96E3CC030F43BC02FF4FF
:104C6000D4EC10F0400E04012F6F0001B6EC10F0F0
:104C7000AA0EF66E180EF76EA6EC10F030D0080EE5
:104C8000E96E36C030F435C02FF4D4EC10F0060EC7
:104C900004012F6F0001B6EC10F0080EE96E38C069
:104CA00030F437C02FF4D4EC10F00C0E04012F6F49
:104CB0000001B6EC10F0090EE96E3CC030F43BC0C8
:104CC0002FF4D4EC10F0400E04012F6F0001B6EC6D
:104CD00010F0BA0EF66E180EF76EA6EC10F071EF2B
:104CE0002AF0200E04012FA9300E306F2EC400F0E0
:104CF0002EAF08D0001E002A00C02EF42D0E306FFB
:104D00002F8F2F8101502EC441F5640E0501426F93
:104D10000001B0EC14F000C02EF4300E01240401A8
:104D2000316F2EC441F50A0E0501426F0001B0EC4F
:104D300014F0300E00240401336F300E0124326F62
:104D400030C400F0300E315D04E02F832FBF2F857B
:104D500012D030C431F4200E306F300E325D04E0DA
:104D60002F812FBF2F8307D0D8A42F8104E131C416
:104D700032F4200E316F2FB505D02FB308D02FB1EC
:104D80000BD00FD030C43CF40001A0EC10F031C4C3
:104D90003CF40001A0EC10F032C43CF40001A0ECA3
:104DA00010F033C43CF40001A0EC10F037EF27F012
:104DB0003EC02EF43DC02DF444EC1FF004013D6BC9
:104DC0003C6B200E3B6F7A0E3A6F03C041F402C079
:104DD00040F401C03FF400C03EF400014AEC21F071
:104DE00003C02CF402C02BF401C02AF400C029F443
:104DF000500EF66E180EF76E070E04012F6F0001AD
:104E0000C0EC10F0C90EE96E2CC430F42BC42FF4A2
:104E10002AC42EF429C42DF4010E0401316F0001BF
:104E2000E7EC21F05D0EF66E180EF76E060E04012B
:104E30002F6F0001C0EC10F0400E04012F6F000135
:104E4000B6EC10F040500A0DF3CF2DF40401640EBF
:104E5000F66E180EF76E090E2F6F0001C0EC10F001
:104E60002DC42EF4180E04012F6F00013AD7250E21
:104E700004013C6F0001A0EC10F076EF2AF0C20EA6
:104E8000F66E170EF76EA6EC10F0400E04012F6FB1
:104E90000001B6EC10F05FC12DF41B0E04012E6F63
:104EA0000001C6EC14F0D20EF66E170EF76E080E67
:104EB00004012F6F0001C0EC10F07BEF2AF0200EF0
:104EC00004012FA9300E306F2EC400F02EAF08D091
:104ED000001E002A00C02EF42D0E306F2F8F2F8160
:104EE00001502EC441F5640E0501426F0001B0EC83
:104EF00014F000C02EF4300E01240401316F2EC4D2
:104F000041F50A0E0501426F0001B0EC14F0300EBD
:104F100000240401336F300E0124326F30C400F0DE
:104F2000300E315D04E02F832FBF2F8512D02FB5B7
:104F300010D030C431F42FB304D0300E325D04E011
:104F40002F812FBF2F8305D0D8A42F81D8B431C48F
:104F500032F42FB505D02FB308D02FB10BD00FD01E
:104F600030C43CF40001A0EC10F031C43CF400016A
:104F7000A0EC10F032C43CF40001A0EC10F033C4FB
:104F80003CF40001A0EC10F01200400E04012F6F61
:104F90000001B6EC10F0600EF66E190EF76EA6EC7E
:104FA00010F01200400E04012F6F0001B6EC10F05B
:104FB000720EF66E190EF76EA6EC10F012009792B4
:104FC0008E922EC448F4F8EC0DF01A0E006E002EEE
:104FD000FED7000012002EC42FF40401306B2F51B5
:104FE000090805E20A0E2F5F100E302703D02F515B
:104FF000302701D0F4D730C401F0000112000401C1
:105000002D911B51000A000105E0010A0DE0030A81
:1050100015E01FD004012A6B630E2B6F090E296F58
:105020005DC12CF4000115D0010E04012A6F0C0E95
:105030002B6F296F5CC12CF400010BD0010E040111
:105040002A6F1F0E2B6F0F0E296F5BC12CF400010E
:1050500000D08A0EF66E1A0EF76E080E04012F6F3E
:105060000001C0EC10F05DC12EF4010E04012F6FA1
:10507000000125DF2D0E04013C6F0001A0EC10F0B3
:105080005CC12EF4010E04012F6F000118DF2D0EFC
:1050900004013C6F0001A0EC10F05BC12EF4010E86
:1050A00004012F6F00010BDF0301E5B50CD00101F6
:1050B00056A905D00301E5850101569903D00001E9
:1050C00064DF01010301E5A52ED000016BDF29C4D7
:1050D0002FF4B6EC10F00E0E04012E6F00016FDFFE
:1050E000010156A50CD0569504012C2B2CBF05D0E0
:1050F0002C512B5D02E22AC42CF42D81010156A70C
:105100000CD0569704012C072CBF03D02A512C5DDC
:1051100002E22BC42CF42D81010156A904D056992A
:1051200004011B2B010104012DA13DD0010155817A
:1051300004011B51000A000105E0010A13E0030A03
:1051400021E030D02CC45DF15DC12EF444DF01C0FC
:105150002EF4060E0401486F01C049F400019EECD4
:105160000EF020D02CC45CF15CC12EF434DF01C001
:105170002EF4050E0401486F01C049F400019EECB5
:105180000EF010D02CC45BF15BC12EF424DF01C003
:105190002EF4040E0401486F01C049F400019EEC96
:1051A0000EF000D004011B51030808E10301E5954E
:1051B00004011B6B0C0E2E6F000101DF000E0301BA
:1051C000E5B5010E016E000180EF2AF004012D917A
:1051D0001C51000A000105E0010A0DE0030A15E078
:1051E0001ED004012A6B170E2B6F070E296F58C1B2
:1051F0002CF4000114D004012A6B3B0E2B6F0A0E15
:10520000296F59C12CF400010AD004012A6B3B0E0E
:105210002B6F0D0E296F5AC12CF4000100D0A20E85
:10522000F66E1A0EF76E060E04012F6F0001C0EC29
:1052300010F058C12EF4010E04012F6F00013FDE63
:105240003A0E04013C6F0001A0EC10F059C12EF49D
:10525000010E04012F6F000132DE3A0E04013C6F93
:105260000001A0EC10F05AC12EF4010E04012F6FC2
:10527000000125DE0301E5B70DD0010156A906D0D6
:105280000301E58701015699558103D000017DDEB8
:1052900001010301E5A731D0000184DE29C42FF408
:1052A000B6EC10F00E0E04012E6F000188DE010135
:1052B00056A50DD0569504012C2B2CBF05D02C5192
:1052C0002B5D02E22AC42CF42D810101558156A7E1
:1052D0000DD0569704012C072CBF03D02A512C5D0A
:1052E00002E22BC42CF42D810101558156A905D071
:1052F000569904011C2B0101558104012DA13CD0BC
:105300000101558104011C51000A000105E0010A58
:1053100013E0030A21E02FD02CC458F158C12EF419
:105320005ADE01C02EF4020E0401486F01C049F498
:1053300000019EEC0EF01FD02CC459F159C12EF47F
:105340004ADE01C02EF4010E0401486F01C049F489
:1053500000019EEC0EF00FD02CC45AF15AC12EF46D
:105360003ADE01507F0B04012E6F486B496F00013C
:105370009EEC0EF000D004011C5103080AE1030169
:10538000E59704011C6B0C0E2E6F000118DE010165
:105390005581000E0301E5B7010E016E000187EF94
:1053A0002AF0880EF66E170EF76E0A0E04012F6FA4
:1053B0000001C0EC10F0080EE96ED9C330F4D8C378
:1053C0002FF4D4EC10F0400E04012F6F0001B6EC66
:1053D00010F0980EF66E170EF76E0A0E04012F6F7E
:1053E0000001C0EC10F0080EE96EDBC330F4DAC344
:1053F0002FF4D4EC10F08EEF2AF0FC0EF66E180E9F
:10540000F76EA6EC10F0400E04012F6F0001B6EC11
:1054100010F06C0EF66E140EF76EA6EC10F0200E67
:1054200004013C6F0001A0EC10F0200E04013C6F61
:105430000001A0EC10F00E0EF66E190EF76EA6EC41
:1054400010F093EF2AF00B0E0401286F0301E5B969
:105450000ED0010156B502D0030109D056950401C2
:1054600028511D5D02E21D2B01D01D6B0301E5B922
:105470000DD0010156B702D0030108D056970401A0
:105480001D5302E01D0702D028C41DF4000193EC57
:1054900010F004011D51F40F4BE20C0F00019BEFC3
:1054A0002AF056EF23F00301E599040141D099EF6A
:1054B00024F00301E59904013BD024EF25F003011A
:1054C000E599040135D092EF25F00301E599040137
:1054D0002FD0D6EF25F00301E599040129D00CEF78
:1054E00026F00301E599040123D062D40301E59974
:1054F00004011ED0C4D40301E599040119D07FD55D
:105500000301E59901B0E589040112D05FD60301DA
:10551000E59901B0E58904010BD043D70301E59972
:10552000040106D06AD70301E599040101D0040102
:105530000001A9EF2EF0E824F76AF736510FF66E56
:10554000550EF7220A00F550FA6E0800F550F96E74
:10555000A254AE54BA54C654D254DE54EA54F4544D
:10556000FE540C551A552455E7C3EAFFE6C3E9FF7C
:10557000050148C5EFFFE92AD8B4EA2AEF6A03011A
:10558000E62BD8B4E72B0001120001503FC541F5CE
:10559000640E0501426F0001B0EC14F000C03FF54D
:1055A0000150300E08E1050140A30FD040B70DD0E7
:1055B00040B9200E04D00501409740994081012652
:1055C00001C048F50001D0DF05013FC541F50A0ED5
:1055D000426F0001B0EC14F000C03FF50150300EF6
:1055E00008E1050140B70AD040A108D040B9200E1B
:1055F0000001012601C048F5B7DF0501300E3F2745
:105600003FC548F50001B0DF1200EACF47F5E9CF0A
:1056100046F505014039F009426F4227E20F436F1A
:10562000320F456F40510F0B432743274527E90FA2
:10563000446F442744273F390F0B442745274437FD
:105640004537451F45373F510F0B45274237070E5A
:10565000416F0A0E44074527FDE343074427FDE356
:1056600042074327FDE341074227FDE3050EEA6EAB
:10567000410EE96E070E4615469DE926450EE95C8A
:10568000D8B4468DEF50006E08E146BD06D046B94D
:1056900015D046B702D0200E03D046874699300E6B
:1056A0000026EACF40F5E9CF3FF500C048F50001FC
:1056B0005BDF40C5EAFF3FC5E9FF0501EE5046AD9F
:1056C000DDD70001120095948C9400006650AB0E5B
:1056D000666E6430FEE395948C840000010E050133
:1056E000456F0001DFEC0DF0D4EF2BF00501486BA6
:1056F000476B000184EC1CF001C041F5036A050111
:1057000041C545F503C046F5486B0C0E476F03C015
:105710004AF541C549F5000115EC1EF001C03FF501
:105720000501020E0224406F446B44510B081BE339
:1057300044513F25456F000E4021466F036A445196
:105740003D25E96E3E510320EA6EEFCF47F546C591
:1057500049F545C548F547C54AF500011BEC17F06A
:105760000501442BE2D7412B496B486B41C54AF5F3
:1057700000011BEC17F0050141512C08D8A47BD087
:10578000486B020E476F000184EC1CF001C045F528
:105790000501486B030E476F000184EC1CF045C502
:1057A00043F501C042F58FD795948C940000665064
:1057B000820E666E6430FEE3050142353F6F43356D
:1057C000406F3F374037FC0E3F1740C545F56650E8
:1057D00040C566FF6430FEE33FC545F566503FC5F2
:1057E00066FF6430FEE36650666A6430FEE3406B39
:1057F0003F6B405102081CE303E13F510F0818E3DF
:1058000004003FC545F5020E4025466F486F3FC571
:1058100047F5000184EC1CF001C044F5665044C516
:1058200066FF6430FEE305013F2BD8B4402BE1D77F
:1058300095948C840000496B486B4A6B00011BEC0B
:1058400017F00501422BD8B4432B43C545F5496BEE
:10585000020E486F43C54AF500011BEC17F042C524
:1058600045F50501496B030E486F42C54AF5000135
:105870001BEC17F0050100016DEF2DF03EC540F562
:105880003DC53FF540C503F005013FC5E9FF40C5F3
:10589000EAFFEF5206E03F2BD8B4402B0001F2D7CD
:1058A00005013D513F5D006E3E514059036E00C001
:1058B00001F0000175EF2DF0A4A8FED76D6E85EF05
:1058C0002DF09D9236C035F535C034F538C037F52A
:1058D00037C036F53AC039F539C038F5366A356A19
:1058E000386837683A6A396A9D825DC128F45CC1BC
:1058F00029F45BC12AF458C12BF459C12CF44A2C69
:1059000023D035C53EF534C53DF5C8EC1BF002C0CB
:105910003CF501C03BF53CC52DF404013BC52EF41C
:10592000040137C53EF536C53DF50001C8EC1BF056
:1059300002C03CF501C03BF53CC52FF404013BC55A
:1059400030F404010DD0000135C52DF4040134C537
:105950002EF4040137C52FF4040136C530F40401D8
:1059600039C531F4040138C532F404014038050169
:105970003D6FF00E3D173F500F0B3D250401336F77
:1059800042C03EF543C03DF5040E0301E76F340EFF
:10599000E66F320E0501486F0001E6DD300E0501AD
:1059A000486F0001E1DD5DC13FF5010E0501406F6B
:1059B0000001EBDD2D0E0501486F0001D5DD5CC156
:1059C0003FF5010E0501406F0001DFDD2D0E0501E1
:1059D000486F0001C9DD5BC13FF5010E0501406F55
:1059E0000001D3DD200E0501486F0001BDDD58C167
:1059F0003FF5010E0501406F0001C7DD3A0E0501BC
:105A0000486F0001B1DD59C13FF5010E0501406F3E
:105A10000001BBDD2C0E0501486F0001A5DD100E55
:105A2000E96E35C540F534C53FF5EFDD2C0E0501B7
:105A3000486F000199DD100EE96E37C540F536C597
:105A40003FF5E3DD2C0E0501486F00018DDD100EE2
:105A5000E96E39C540F538C53FF5D7DD2C0E050197
:105A6000486F000181DD100EE96E3EC040F53DC07B
:105A70003FF5CBDD2C0E0501486F000175DD3FC001
:105A80003FF51B0E0501406F00017FDD2C0E050167
:105A9000486F000169DD100EE96E48C040F547C04F
:105AA0003FF5B3DD2C0E0501486F00015DDD41C0FF
:105AB00048F55ADD100EE96E3EC540F53DC53FF58F
:105AC000A4DD0A0E0501486F00014EDD040E05013C
:105AD0003E6F280E3D6F000109D605013A6B040E9A
