:04000000ABEF34F03E
:080008006BEF00F000000000A6
:100010000000000000000000046ED8CF05F0E0CF23
:1000200006F00001E9CF0CF0EACF07F0E1CF08F0CD
:10003000E2CF09F0D9CF0AF0DACF0BF0F3CF12F00C
:10004000F4CF13F0FACF14F0F5CF15F0F6CF16F089
:10005000F7CF17F000C00EF001C00FF002C010F093
:1000600003C011F0A0A238EF00F0A1B248EF0AF0EF
:100070009DAA3EEF00F09EBA57EF0BF0A3AA44EF03
:1000800000F0A4BA7BEF0BF00EC000F00FC001F03F
:1000900010C002F011C003F00CC0E9FF07C0EAFF76
:1000A000078E08C0E1FF09C0E2FF0AC0D9FF0BC0FC
:1000B000DAFF12C0F3FF13C0F4FF14C0FAFF15C03B
:1000C000F5FF16C0F6FF17C0F7FF045006C0E0FFAB
:1000D00005C0D8FF1000196ED8CF1AF0E0CF1BF082
:1000E0000001E9CF21F0EACF1CF0E1CF1DF0E2CF13
:1000F0001EF0D9CF1FF0DACF20F0F3CF27F0F4CFE6
:1001000028F0FACF29F0F5CF2AF0F6CF2BF0F7CF71
:100110002CF000C023F001C024F002C025F003C081
:1001200026F09DA297EF00F09EB2B3EF0AF023C035
:1001300000F024C001F025C002F026C003F021C069
:10014000E9FF1CC0EAFF1C8E1DC0E1FF1EC0E2FFDC
:100150001FC0D9FF20C0DAFF27C0F3FF28C0F4FF7B
:1001600029C0FAFF2AC0F5FF2BC0F6FF2CC0F7FF0D
:1001700019501BC0E0FF1AC0D8FF1000F76A8C0F9F
:10018000F66E010EF7220900F55012001027E80361
:1001900064000A000100A40FF66E010EF7220900A8
:1001A000F550120000000000000000000000E6E929
:1001B000FFAB01887870E05F8D53094A76424C3C72
:1001C0002D37DC322B2FFA2B3029BC268E249C2293
:1001D000DC20471FD71D881C551B3B1A36194518B4
:1001E00065179516D3151E157314D4133E13B0124C
:1001F0002A12AC113411C2105710F00F8E0F310FAC
:10020000D80E840E320EE50D9A0D530D0E0DCD0C49
:100210008D0C500C160CDD0BA70B720B400B0F0B4B
:10022000DF0AB10A850A5A0A310A080AE109BB093C
:100230009709730950092F090E09EE08CF08B10874
:10024000940877085B08400825080C08F207DA07CD
:10025000C207AA0794077D07670752073D072907CA
:1002600015070107EE06DB06C906B706A6069406C3
:1002700083067306630653064306340625061606F0
:100280000806F905EC05DE05D005C305B605AA0587
:100290009D059105850579056D05620556054B059A
:1002A000400535052B05200516050C050205F8044B
:1002B000EF04E504DC04D204C904C004B804AF04AC
:1002C000A6049E0495048D0485047D0475046E04C3
:1002D00066045E0457044F04480441043A0433049E
:1002E0002C0425041E04180411040B040404FE034A
:1002F000F803F203EC03E603E003DA03D403CE03CE
:10030000C903C303BD03B803B303AD03A803A30329
:100310009D03980393038E038903840380037B0367
:10032000760371036D03680364035F035B03560385
:1003300052034E034903450341033D03390334038C
:1003400030032C032903250321031D03190315037F
:1003500012030E030A0307030303FF02FC02F80261
:10036000F502F202EE02EB02E702E402E102DE0233
:10037000DA02D702D402D102CE02CB02C802C502F1
:10038000C202BF02BC02B902B602B302B002AD02A1
:10039000AA02A802A502A2029F029D029A02970247
:1003A0009502920290028D028A02880285028302DF
:1003B00080027E027C02790277027402720270026D
:1003C0006D026B02690266026402620260025D02F3
:1003D0005B02590257025502530251024E024C026F
:1003E0004A02480246024402420240023E023C02E5
:1003F0003A02380236023402330231022F022D0251
:100400002B022902270225022402220220021E02B8
:100410001D021B0219021702160214021202110217
:100420000F020D020C020A02080207020502030273
:1004300002020002FF01FD01FC01FA01F901F701CE
:10044000F501F401F201F101EF01EE01ED01EB0123
:10045000EA01E801E701E501E401E301E101E0016E
:10046000DE01DD01DC01DA01D901D801D601D501B7
:10047000D401D201D101D001CE01CD01CC01CB01FB
:10048000C901C801C701C601C401C301C201C1013C
:10049000C001BE01BD01BC01BB01BA01B801B70179
:1004A000B601B501B401B301B201B001AF01AE01B3
:1004B000AD01AC01AB01AA01A901A801A701A501E9
:1004C000A401A301A201A101A0019F019E019D0120
:1004D0009C019B019A019901980197019601950150
:1004E000940193019201910190018F018E018D0180
:1004F0008C018B018A018A018901880187018601AB
:1005000085018401830182018101800180017F01D5
:100510007E017D017C017B017A01790179017801FD
:100520007701760175017401740173017201710123
:1005300070016F016F016E016D016C016B016B0148
:100540006A0169016801680167016601650164016A
:100550006401630162016101610160015F015E018B
:100560005E015D015C015C015B015A0159015901A9
:1005700058015701560156015501540154015301C8
:10058000520152015101500150014F014E014E01E3
:100590004D014C014C014B014A014A0149014801FE
:1005A0004801470146014601450144014401430118
:1005B000430142014101410140013F013F013E0130
:1005C0003E013D013C013C013B013B013A01390147
:1005D000390138013801370137013601350135015C
:1005E0003401340133013301320131013101300171
:1005F00030012F012F012E012E012D012C012C0184
:100600002B012B012A012A01290129012801280196
:1006100027012701260126012501250124012301A7
:1006200023012201220121012101200120011F01BA
:100630001F011E011E011D011D011D011C011C01C8
:100640001B011B011A011A011901190118011801D6
:1006500017011701160116011501150114011401E6
:1006600014011301130112011201110111011001F2
:10067000100110010F010F010E010E010D010D01FE
:100680000C010C010C010B010B010A010A0109010B
:100690000901090108010801070107010701060115
:1006A0000601050105010401040104010301030120
:1006B000020102010201010101010001000100012A
:1006C000FF00FF00FE00FE00FE00FD00FD00FD003B
:1006D000FC00FC00FB00FB00FB00FA00FA00FA0043
:1006E000F900F900F800F800F800F700F700F7004B
:1006F000F600F600F500F500F500F400F400F40053
:10070000F300F300F300F200F200F200F100F10058
:10071000F100F000F000EF00EF00EF00EE00EE005F
:10072000EE00ED00ED00ED00EC00EC00EC00EB0065
:10073000EB00EB00EA00EA00EA00E900E900E9006A
:10074000E800E800E800E700E700E700E700E6006F
:10075000E600E600E500E500E500E400E400E40072
:10076000E300E300E300E200E200E200E200E10077
:10077000E100E100E000E000E000DF00DF00DF007A
:10078000DE00DE00DE00DE00DD00DD00DD00DC007E
:10079000DC00DC00DC00DB00DB00DB00DA00DA0080
:1007A000DA00DA00D900D900D900D800D800D80082
:1007B000D800D700D700D700D600D600D600D60084
:1007C000D500D500D500D500D400D400D400D30086
:1007D000D300D300D300D200D200D200D200D10087
:1007E000D100D100D100D000D000D000D000CF0087
:1007F000CF00CF00CE00CE00CE00CE00CD00CD0089
:10080000CD00CD00CC00CC00CC00CC00CB00CB0088
:10081000CB00CB00CA00CA00CA00CA00C900C90088
:10082000C900C900C900C800C800C800C800C70086
:10083000C700C700C700C600C600C600C600C50086
:10084000C500C500C500C400C400C400C400C40085
:10085000C300C300C300C300C200C200C200C20084
:10086000C200C100C100C100C100C000C000C00082
:10087000C000C000BF00BF00BF00BF00BE00BE0080
:10088000BE00BE00BE00BD00BD00BD00BD00BC007E
:10089000BC00BC00BC00BC00BB00BB00BB00BB007C
:1008A000BB00BA00BA00BA00BA00BA00B900B90079
:1008B000B900B900B800B800B800B800B800B70077
:1008C000B700B700B700B700B600B600B600B60074
:1008D000B600B500B500B500B500B500B400B40071
:1008E000B400B400B400B400B300B300B300B3006C
:1008F000B300B200B200B200B200B200B100B10069
:10090000B100B100B100B000B000B000B000B00064
:10091000B000AF00AF00AF00AF00AF00AE00AE0060
:10092000AE00AE00AE00AE00AD00AD00AD00AD005B
:10093000AD00AC00AC00AC00AC00AC00AC00AB0057
:10094000AB00AB00AB00AB00AB00AA00AA00AA0052
:10095000AA00AA00A900A900A900A900A900A9004D
:10096000A800A800A800A800A800A800A700A70049
:10097000A700A700A700A700A600A600A600A60043
:10098000A600A600A500A500A500A500A500A5003D
:10099000A400A400A400A400A400A400A300A30039
:1009A000A300A300A300A300A300A200A200A20032
:1009B000A200A200A200A100A100A100A100A1002C
:1009C000A100A000A000A000A000A000A000A00026
:1009D0009F009F009F009F009F009F009E009E0021
:1009E0009E009E009E009E009E009D009D009D001A
:1009F0009D009D009D009D009C009C009C009C0013
:100A00009C009C009C009B009B009B009B009B000B
:100A10009B009B009A009A009A009A009A009A0004
:100A20009A009900990099009900990099009900FD
:100A300098009800980098009800980098009700F7
:100A400097009700970097009700970096009600F0
:100A500096009600960096009600960095009500E8
:100A600095009500950095009500940094009400E1
:100A700094009400940094009400930093009300D9
:100A800093009300930093009200920092009200D2
:100A900092009200920092009100910091009100CA
:100AA00091009100910091009000900090009000C2
:100AB00090009000900090008F008F008F008F00BA
:100AC0008F008F008F008F008E008E008E008E00B2
:100AD0008E008E008E008E008E008D008D008D00A9
:100AE0008D008D008D008D008D008C008C008C00A1
:100AF0008C008C008C008C008C008B008B008B0099
:100B00008B008B008B00140FF66E0B0EF722090082
:100B1000F55012000000030003000400040005006B
:100B2000050006000600070007000800080008008E
:100B3000090009000A000A000B000B000C000C0061
:100B40000D000D000E000E000E000F000F00100033
:100B50001000110011001200120013001300130006
:100B600014001400150015001600160017001700D9
:100B7000180018001900190019001A001A001B00AB
:100B80001B001C001C001D001D001E001E001F007D
:100B90001F001F0020002000210021002200220051
:100BA0002300230024002400250025002500260022
:100BB00026002700270028002800290029002A00F5
:100BC0002A002A002B002B002C002C002D002D00C9
:100BD0002E002E002F002F0030003000300031009A
:100BE000310032003200330033003400340035006D
:100BF0003500360036003600370037003800380040
:100C0000390039003A003A003B003B003B003C0011
:100C10003C003D003D003E003E003F003F004000E4
:100C200040004100410041004200420043004300B7
:100C30004400440045004500460046004700470088
:100C4000470048004800490049004A004A004B005C
:100C50004B004C004C004D004D004D004E004E002E
:100C60004F004F0050005000510051005200520000
:100C700052005300530054005400550055005600D4
:100C800056005700570058005800580059005900A6
:100C90005A005A005B005B005C005C005D005D0078
:100CA0005E005E005E005F005F006000600061004B
:100CB000610062006200630063006300640064001E
:100CC00065006500660066006700670068006800F0
:100CD0006900690069006A006A006B006B006C00C3
:100CE0006C006D006D006E006E006F006F006F0095
:100CF0007000700071007100720072007300730068
:100D00007400740075007500750076007600770039
:100D1000770078007800790079007A007A007A000C
:100D20007B007B007C007C007D007D007E007E00DF
:100D30007F007F00800080008000810081008200B1
:100D40008200830083008400840085008500860083
:100D50008600860087008700880088008900890057
:100D60008A008A008B008B008B008C008C008D0029
:100D70008D008E008E008F008F00900090009100FB
:100D800091009100920092009300930094009400CF
:100D900095009500960096009700970097009800A0
:100DA0009800990099009A009A009B009B009C0073
:100DB0009C009D009D009D009E009E009F009F0046
:100DC000A000A000A100A100A200A200A200A30018
:100DD000A300A400A400A500A500A600A600A700EB
:100DE000A700A800A800A800A900A900AA00AA00BE
:100DF000AB00AB00AC00AC00AD00AD00AE00AE008F
:100E0000AE00AF00AF00B000B000B100B100B20062
:100E1000B200B300B300B400B400B400B500B50034
:100E2000B600B600B700B700B800B800B900B90006
:100E3000B900BA00BA00BB00BB00BC00BC00BD00DA
:100E4000BD00BE00BE00BF00BF00BF00C000C000AC
:100E5000C100C100C200C200C300C300C400C4007E
:100E6000C500C500C500C600C600C700C700C80051
:100E7000C800C900C900CA00CA00CA00CB00CB0024
:100E8000CC00CC00CD00CD00CE00CE00CF00CF00F6
:100E9000D000D000D000D100D100D200D200D300C9
:100EA000D300D400D400D500D500D600D600D6009B
:100EB000D700D700D800D800D900D900DA00DA006E
:100EC000DB00DB00DC00DC00DC00DD00DD00DE0040
:100ED000DE00DF00DF00E000E000E100E100E10013
:100EE000E200E200E300E300E400E400E500E500E6
:100EF000E600E600E700E700E700E800E800E900B8
:100F0000E900EA00EA00EB00EB00EC00EC00ED0089
:100F1000ED00ED00EE00EE00EF00EF00F000F0005D
:100F2000F100F100F200F200F200F300F300F4002F
:100F3000F400F500F500F600F600F700F700F80001
:100F4000F800F800F900F900FA00FA00FB00FB00D5
:100F5000FC00FC00FD00FD00FE00FE00FE00FF00A6
:100F6000FF00000100010101010102010201030172
:100F70000301040104010401050105010601060144
:100F800007010701080108010901090109010A0116
:100F90000A010B010B010C010C010D010D010E01E9
:100FA0000E010F010F010F011001100111011101BC
:100FB000120112011301130114011401150115018D
:100FC0001501160116011701170118011801190161
:100FD00019011A011A011A011B011B011C011C0134
:100FE0001D011D011E011E011F011F012001200105
:100FF00020012101210122012201230123012401D9
:1010000024012501250126012601260127012701AA
:1010100028012801290129012A012A012B012B017C
:101020002C012C012C012D012D012E012E012F014F
:101030002F01300130013101310131013201320122
:1010400033013301340134013501350136013601F4
:1010500037013701370138013801390139013A01C7
:101060003A013B013B013C013C013D013D013D0199
:101070003E013E013F013F0140014001410141016C
:10108000420142014201430143014401440145013F
:101090004501460146014701470148014801480111
:1010A000490149014A014A014B014B014C014C01E4
:1010B0004D014D014E014E014E014F014F015001B6
:1010C0005001510151015201520153015301540188
:1010D000540154015501550156015601570157015C
:1010E000580158015901590159015A015A015B012E
:1010F0005B015C015C015D015D015E015E015F0100
:101100005F015F01600160016101610162016201D3
:1011100063016301640164016501650165016601A4
:1011200066016701670168016801690169016A0177
:101130006A016B016B016B016C016C016D016D014A
:101140006E016E016F016F0170017001700171011C
:1011500071017201720173017301740174017501EF
:1011600075017601760176017701770178017801C2
:10117000790179017A017A017B017B017C017C0193
:101180007C017D017D017E017E017F017F01800167
:10119000800181018101810182018201830183013A
:1011A000840184018501850186018601870187010B
:1011B000870188018801890189018A018A018B01DF
:1011C0008B018C018C018D018D018D018E018E01B1
:1011D0008F018F0190019001910191019201920183
:1011E0009301930193019401940195019501960156
:1011F0009601970197019801980198019901990129
:101200009A019A019B019B019C019C019D019D01FA
:101210009E019E019E019F019F01A001A001A101CD
:10122000A101A201A201A301A301A401A401A4019F
:10123000A501A501A601A601A701A701A801A80172
:10124000A901A901A901AA01AA01AB01AB01AC0145
:10125000AC01AD01AD01AE01AE01AF01AF01AF0117
:10126000B001B001B101B101B201B201B301B301EA
:10127000B401B401B501B501B501B601B601B701BC
:10128000B701B801B801B901B901BA01BA01BB018E
:10129000BB01BB01BC01BC01BD01BD01BE01BE0162
:1012A000BF01BF01C001C001C001C101C101C20134
:1012B000C201C301C301C401C401C501C501C60106
:1012C000C601C601C701C701C801C801C901C901DA
:1012D000CA01CA01CB01CB01CC01CC01CC01CD01AB
:1012E000CD01CE01CE01CF01CF01D001D001D1017E
:1012F000D101D101D201D201D301D301D401D40152
:10130000D501D501D601D601D701D701D701D80122
:10131000D801D901D901DA01DA01DB01DB01DC01F5
:10132000DC01DD01DD01DD01DE01DE01DF01DF01C8
:10133000E001E001E101E101E201E201E301E30199
:10134000E301E401E401E501E501E601E601E7016D
:10135000E701E801E801E801E901E901EA01EA0140
:10136000EB01EB01EC01EC01ED01ED01EE01EE0111
:10137000EE01EF01EF01F001F001F101F101F201E5
:10138000F201F301F301F401F401F401F501F501B7
:10139000F601F601F701F701F801F801F901F90189
:1013A000F901FA01FA01FB01FB01FC01FC01FD015D
:1013B000FD01FE01FE01FF01FF01FF01000200022D
:1013C00001020102020202020302030204020402F9
:1013D00005020502050206020602070207020802CC
:1013E0000802090209020A020A020B020B020B029E
:1013F0000C020C020D020D020E020E020F020F0271
:101400001002100210021102110212021202130243
:101410001302140214021502150216021602160215
:101420001702170218021802190219021A021A02E8
:101430001B021B021C021C021C021D021D021E02BA
:101440001E021F021F02200220022102210222028C
:101450002202220223022302240224022502250260
:101460002602260227022702270228022802290232
:1014700029022A022A02F76A860FF66E140EF72254
:101480000900F550120031382D5365702D313800A8
:10149000B10EB36EE00EB26E81CF7FF1D890040131
:1014A0000C3505018F6F04010D350501906F000E9D
:1014B00001017FAB010E05018F138FC50CF40501EF
:1014C0009051E00904010D6F0C5309E10D51F00832
:1014D00006E101017E877D811E0E866F0401D89092
:1014E0000E3505018F6F04010F350501906F000E59
:1014F00001017FAD010E05018F138FC50EF40501AB
:101500009051E00904010F6F0E5309E10F51F008EB
:1015100006E101017E897D811E0E866F0401D8904F
:10152000103505018F6F040111350501906F000E14
:1015300001017FAF010E05018F138FC510F4050166
:101540009051E0090401116F105309E11151F008A5
:1015500006E101017E857D811E0E866F0401A19248
:10156000000144EF00F00401122B1251640804E161
:10157000126B01017D8D04014E2C42D09380050138
:10158000929381B0928392B30FD0040115B102D02F
:1015900005010AD001018B2BD8B48C2B3B2AD8B47F
:1015A0003C2A392AD8B43A2A04011591050192A39C
:1015B00003D00401158105010401132BD8B4142BA9
:1015C000135110081CE11451270819E1146B136B17
:1015D0008CC136F08BC135F001018C6B8B6B3850B0
:1015E000365C04E307E13550375C04E3373C06D052
:1015F000383C04D036C038F035C037F0040147D04D
:10160000050192A10CD00101893D05D08A3D03D08E
:10161000050105D00101892BD8B48A2B05019380DF
:10162000929381B0928392B329D0040115B102D074
:10163000050124D03B2AD8B43C2A392AD8B43A2A06
:1016400015A313D0050192918AC136F089C135F0F6
:101650003650385C08E303E13750355C04E236C0AD
:1016600038F035C037F00401159315B307D00101E8
:101670008A6B896B05019281040115830401159120
:10168000050192A303D004011581050104019E9276
:10169000000197EF00F09EAAFED7ABCF34F0AECF9B
:1016A00001F034A202D0AB98AB885AEF0BF0F86B84
:1016B000F76BF1D701C08FF5F6530EE1F5517F08B6
:1016C0000BE3750EF525E96E000EF621EA6E8FC567
:1016D000EFFFF52BD8B4F62B9E9A44EF00F0A4AAA6
:1016E000FED76BCF34F06ECF01F034A202D06B98EE
:1016F0006B887CEF0BF0F3D701C08FF5A49A44EF11
:1017000000F0232044617461666C6173682070612D
:10171000676520726561642066726F6D20256C7547
:101720000D0A00000D0A00000D0A2320446F6E65AB
:101730000D0A00002320696E697469616C697A6919
:101740006E67206C6F6767696E670D0A00005265EF
:1017500073657474696E67204C6F67210000446F75
:101760006E6500003E20646F6E650D0A0000232048
:10177000706C6179696E67206C6F670D0A003E209E
:10178000646F6E650D0A0000232044756D70696EEC
:1017900067206C6F670D0A003E20646F6E650D0A4E
:1017A000000050616765205265713A202530356C24
:1017B0007500204E2050616765733A202530356CE6
:1017C0007500556E697420557074696D653A000036
:1017D000256C75206D696E75746573005769726547
:1017E0006C657373206F6E3A000025752073656316
:1017F0006F6E64730000534420436172642053741D
:10180000617475733A004C6F6767696E67202831A1
:1018100030207365632900004C6F6767696E67202D
:10182000283630207365632900004E6F742072657E
:10183000616479212028313029004E6F742072654F
:1018400061647921202836302900496E7465726EF2
:10185000616C204D656D6F72793A0000256C752FB3
:10186000256C752066756C6C0000416E616C6F674D
:1018700020303A20256C7500416E616C6F67203115
:101880003A20256C7500496E7075743A2025302E0B
:10189000316C6620766F6C7473004261747465728B
:1018A000793A20256425250057696E6420446972C1
:1018B000656374696F6E3A00536563746F722025B7
:1018C00075202800343500003930000031333500F0
:1018D00031383000323235003237300033313500A4
:1018E0004628487A2920464D61782020436E7400AE
:1018F000542020202020546D696E20436F756E7433
:101900000000446174653A203230253032752D254F
:101910003032752D2530327500004E6F772025301E
:1019200032753A253032753A253032752055544398
:1019300000004669726D7761726520566572736941
:101940006F6E3A0030383A33393A34300000537011
:101950006565643A202530322E3166206D2F730084
:10196000477573743A20202530322E3166206D2F52
:10197000730053706565643A202530342E3177202A
:101980006D2F7300477573743A20202530342E3143
:1019900077206D2F73005072657620205365742078
:1019A00020204E65787400002D20202020205365D3
:1019B000742020202020202B00002D2020202020FB
:1019C0004E65787420202020202B00004E4F2020D0
:1019D0002020594553005072657620456E7465721B
:1019E00020204E657874000057726F74652044653E
:1019F0006661756C7420534E000053657474696E93
:101A00006720534E2E2E2E0053657269616C3A206A
:101A10002563000057726F746520534E0000202D1F
:101A20002048572054595045202D200052444C2026
:101A3000202020202020202052444C5500005772A6
:101A40006F7465204857205479706500202D20411F
:101A50004E454D4F2054595045202D200000233431
:101A6000304843202020202020544849455300007E
:101A700057726F746520416E656D6F205479706583
:101A80000000202D205344204C4F47205241544504
:101A9000202D200036302073656320202020313037
:101AA00020736563000057726F7465205344207281
:101AB00061746500202D204C49564520464F524DFB
:101AC0004154202D200053484F52542020202020E4
:101AD000202046554C4C000057726F7465206C698D
:101AE0007665202564002D2057494E4420444952F4
:101AF00020535243202D0000414443202020202029
:101B00002020434D50533132000057726F746520CE
:101B100077647372632025640000446174653A2021
:101B20003230253032642D253032642D2530326438
:101B3000000054696D653A20253032643A25303210
:101B4000643A253032640000434D5053205665728C
:101B5000733A2030782530325800434D505320548A
:101B6000656D703A2025752563430000434D505341
:101B7000205359204759204143204D410000424500
:101B8000415220504954434820524F4C4C00434D41
:101B9000505331322043616C000053544F52452062
:101BA00045584954204552415345000072646C2801
:101BB0005529000072646C556E690000756E6B6E7D
:101BC0006F776E21000020233430484300002054FA
:101BD00048494553000020554E4B4E4F574E00008C
:101BE000557020696E2025752049443D2563256C7C
:101BF000752000002320555020494E202575205384
:101C000045434F4E44530D0A0000232072644C6F2D
:101C100067676572556E6976657273616C202573AE
:101C200020283230253032752D253032752D253063
:101C3000327529202873657269616C202563256CD3
:101C4000752920286861726477617265202575297D
:101C50002028616E656D6F6D65746572202575292C
:101C60000D0A000031382D5365702D313800507247
:101C7000657373206D6964646C65000062757474CB
:101C80006F6E20746F20636C65617200639A959823
:101C9000958A959C300E636EC00E646E95968C8608
:101CA00095948C840000F2EF10F094869488F3EF02
:101CB00010F0050EEA6E830EE96EEF500DE0020E95
:101CC000016E006A002EFED7012EFBD7970E006E24
:101CD000002EFED7EF2EF3D7120097968E8697969A
:101CE0008E961200040178BF02D08E9E01D08E8E97
:101CF000979E78BD02D08E9C01D08E8C979C78BB2D
:101D000002D08E9A01D08E8A979A78B902D08E9896
:101D100001D08E8897980001E0DF040178B702D0E7
:101D20008E9E01D08E8E979E78B502D08E9C01D06B
:101D30008E8C979C78B302D08E9A01D08E8A979A17
:101D400078B102D08E9801D08E8897980001C5DFB7
:101D50001A0E006E002EFED7000012000F0E0501B5
:101D6000836F0001A6DF97928E9297948E94979E30
:101D70008E9E979C8E9C979A8E8A97988E88ADDFC0
:101D8000050E0501836F000194DFA7DF420E006E90
:101D9000002EFED70000A1DF050E0501836F0001B4
:101DA00088DF97988E9899DF1A0E006E002EFED766
:101DB0000000280E0401786F000194DF0C0E04016E
:101DC000786F00018FDF060E0401786F00018ADF53
:101DD000010E0401786F000185DFF4EF10F0080EAA
:101DE000016E00008B969496000005017E378B985B
:101DF000D8B09488D8A09498948682A6FED7012E55
:101E000001D002D00001EDD700008B96949600001F
:101E1000948800000000948682A6FED7016A000024
:101E200082B801808B9694968B989498000112004A
:101E300094880000948600008B98949800008B96FC
:101E40009496D00E05017E6F0001C9DF0150040198
:101E50007A9101B07A817AA102D00001E9D778C4E1
:101E60007EF50001BCDF79C47EF5B9DF94980000EF
:101E7000948682A6FED7000000D00000948800005F
:101E80001200070E0401786F100E796F0001D0DF89
:101E9000F5EF10F0080E05017C6F00C07DF5948809
:101EA0000000948682A6FED782B8D88082A8D890F7
:101EB0000136000094968B967C2FF1D79488000011
:101EC0008B987D51D8A494980000948682A6FED762
:101ED00000008B96949600008B9894980001120055
:101EE00094880000948600008B98949800008B964C
:101EF0009496D00E05017E6F000171DF015001083C
:101F0000EFE078C47EF56BDF9488000094860000D3
:101F100082A6FED78B98949800008B969496D10E4B
:101F200005017E6F00015BDF01500108EDE0006AF2
:101F3000B1DF01C079F494980000948682A6FED7A0
:101F4000000000D0000094880000040179C401F072
:101F500000011200040179397A6F0F0E7A17795156
:101F60000F0B7B6F7A510A0DF3507B25016E000138
:101F700012000401786B796B00015ADF060E040130
:101F8000786F0A0E796F000153DF050E0401786F38
:101F9000010E796F00014CDF040E0401786F010E11
:101FA000796F000145DF020E0401786F796B000143
:101FB0003FDF010E0401786F796B000139DF03EF19
:101FC00011F0720ED36ED350C150C00B0B09C16E0D
:101FD000C050C00B0709C06EC08EC28001017D9346
:101FE0007D957D977D817D997D9B7E817D9D7D9F6A
:101FF0007E957E977E9981CF7FF11E0E866F366A21
:10200000356A386837683C6A3B6A3A6A396A8C6B69
:102010008B6B040EEA6E580EE96E000E00013BEC6D
:102020000AF00A000900F550EE6E0009FBE1300EDF
:102030000401585D0A0DF3CF4AF0300E595D4A266F
:102040005B514A080FE15C51410803E1010E496E02
:1020500008D05D514E0803E1060E496E02D0070E0E
:10206000496E37D05B51410809E15C51500803E1EA
:10207000040E496E02D0080E496E2BD05B514D08FC
:1020800009E15D51520803E1030E496E02D0050ECD
:10209000496E1FD05B51460803E1020E496E19D00C
:1020A0005B51530803E1090E496E13D05B514F0891
:1020B00003E10A0E496E0DD05B514E0803E10B0E91
:1020C000496E07D05B51440803E10C0E496E01D004
:1020D0004968300E5F5D0A0DF3CF48F0300E605D49
:1020E00048264C6A4B6A00017491F66BF56BF869EF
:1020F000F769FA69F96901017C91F2CF78F4F29CF1
:10210000F29EAA6A100EA96EA69CA69EA680A85052
:10211000040178BDF28C78BFF28E456EF2CF78F470
:10212000F29CF29EAA6A110EA96EA69CA69EA6809B
:10213000A85078BDF28C78BFF28E466EF2CF78F45C
:10214000F29CF29EAA6A120EA96EA69CA69EA6807A
:10215000A85078BDF28C78BFF28E476EF2CF78F43B
:10216000F29CF29EAA6A130EA96EA69CA69EA68059
:10217000A85078BDF28C78BFF28E4D6EF2CF78F415
:10218000F29CF29EAA6A140EA96EA69CA69EA68038
:10219000A85078BDF28C78BFF28E4E6EF2CF78F4F4
:1021A000F29CF29EAA6A150EA96EA69CA69EA68017
:1021B000A85078BDF28C78BFF28E506EF2CF78F4D2
:1021C000F29CF29EAA6A160EA96EA69CA69EA680F6
:1021D000A85078BDF28C78BFF28E4F6E016900690D
:1021E000000154D562D5BAD54CD6060E0401786FDD
:1021F000000176DE01C078F401C079F4ABDE015055
:10220000040801E3B6D6000E0509CA6E310ECB6E86
:10221000850EB16E9D8AA38AF19EC00EF21228EF40
:1022200035F004015B510101875D02E25BC487F177
:10223000969A8D9A0001120097928E92010E0401D7
:10224000786F00014FDD020E0501836F000131DD63
:10225000120097928E826CC478F444DD120009005B
:10226000F5520CE0F6CF69F4F7CF6AF4F5CF6CF4D1
:10227000F0DF69C4F6FF6AC4F7FFF1D71200090066
:10228000F6CF64F4F7CF65F4F5CF6CF4E2DF64C405
:10229000F6FF65C4F7FF0401632F01D002D00001EF
:1022A000EED70001120017C4EAFF16C4E9FF0501CA
:1022B0008EC5EFFFE92AD8B4EA2AEF6A0401162B8B
:1022C000D8B4172B00011200EACF8DF5E9CF8CF5B9
:1022D00005018639F009886F8827E20F896F320F70
:1022E0008B6F86510F0B892789278B27E90F8A6F00
:1022F0008A278A2785390F0B8A278B278A378B37BE
:102300008B1F8B3785510F0B8B278837070E876FF5
:102310000A0E8A078B27FDE389078A27FDE38807D2
:102320008927FDE387078827FDE3050EEA6E870E00
:10233000E96E070E8C158C9DE9268B0EE95CD8B4EE
:102340008C8DEF50006E08E18CBD06D08CB915D095
:102350008CB702D0200E03D08C878C99300E0026CB
:10236000EACF86F5E9CF85F500C08EF500019BDF49
:1023700086C5EAFF85C5E9FF0501EE508CADDDD7C6
:102380000001120097928E92800E04016A256B6FF5
:10239000786F0001A7DC1200400E04016A6F000193
:1023A000F1DFA80EF66E190EF76E59DF1200EF522C
:1023B0000FE0EACF6AF4E9CF69F4EFCF6CF449DFBC
:1023C0006AC4EAFF69C4E9FFE92AD8B4EA2AEFD768
:1023D0001CEF12F097928E9269C478F483DC1A0E87
:1023E000006E002EFED70000120005017751790320
:1023F000F3CF01F0F4CF00F07A03F35000267851C8
:102400007903F3500020026E00011200040E040153
:10241000176F630E166F080EE96E05C486F504C4C7
:1024200085F5000151DFB8DF0AC46AF4ABDF040EA2
:10243000EA6E630EE96EBBD704010A510B25696F82
:102440006A6F00019FDF0E0E0401696F0001C2DF99
:1024500001017EA549D07E95036A04010B51630FEB
:10246000E96E040E0320EA6EEF50350807E10B53C6
:1024700005E1500E045FC30E055B34D0036A0B51B7
:10248000630FE96E040E0320EA6EEF5039081DE178
:10249000D8900B35036A0001BEEC00F00900F5CFBF
:1024A00003F00401696F03C06AF403C078F5E8CF54
:1024B00077F505017A6B090E796F000196DF0150FF
:1024C0000401045F0250055B0DD0D8900B35036A00
:1024D0000001BEEC00F00900F5CF03F00401042771
:1024E0000350052301017D817EA749D07E97036AB1
:1024F00004010B51630FE96E040E0320EA6EEF50E6
:10250000300807E10B5305E1500E0427C30E0523E5
:1025100034D0036A0B51630FE96E040E0320EA6E98
:10252000EF5030081DE1D8900B35036A0001BEEC76
:1025300000F00900F5CF03F00401696F03C06AF4ED
:1025400003C078F5E8CF77F505017A6B090E796F4E
:1025500000014BDF015004010427025005230DD078
:10256000D8900B35036A0001BEEC00F00900F5CFEE
:1025700003F00401045F0350055B01017D817EA926
:1025800005D07E9904010B2B01017D8104010B51C3
:10259000050808E10C0E696F00011CDF010E016ED9
:1025A00003D00401000E016E00016CEF14F0050170
:1025B0008851016A875D03E287C500F00CD0006A8C
:1025C000080E896F873700368851005CD8B0006EDE
:1025D0000136892FF7D700011200200E040164A9EB
:1025E000300E656F63C400F063AF08D0001E002A90
:1025F00000C063F42D0E656F648F6481015063C465
:1026000087F5640E0501886F0001D1DF00C063F417
:10261000300E01240401666F63C487F50A0E0501BC
:10262000886F0001C4DF300E00240401686F300E93
:102630000124676F65C400F0300E665D04E06483BA
:1026400064BF648512D065C466F4200E656F300ED9
:10265000675D04E0648164BF648307D0D8A46481AB
:1026600004E166C467F4200E666F64B505D064B3F8
:1026700007D064B109D00CD065C46CF40001E9DD69
:1026800066C46CF40001E5DD67C46CF40001E1DDB3
:1026900068C46CF40001DDDD120004015853D8B4A5
:1026A000ACD0AA6A100EA96E520EA86EA69CA69E69
:1026B000A684F250006EF29CF29E0F01550EA76E9A
:1026C000AA0EA76EA682A6B2FED7A6940050F2125A
:1026D000AA6A110EA96EA86AA69CA69EA684F2CF2D
:1026E00000F0F29CF29E550EA76EAA0EA76EA6826F
:1026F000A6B2FED7A6940050F212AA6A120EA96ED4
:10270000A86AA69CA69EA684F2CF00F0F29CF29E38
:10271000550EA76EAA0EA76EA682A6B2FED7A694E5
:102720000050F212AA6A130EA96E020EA86EA69CA1
:10273000A69EA684F2CF00F0F29CF29E550EA76EE4
:10274000AA0EA76EA682A6B2FED7A6940050F212D9
:10275000AA6A140EA96EA86AA69CA69EA684F2CFA9
:1027600000F0F29CF29E550EA76EAA0EA76EA682EE
:10277000A6B2FED7A6940050F212AA6A150EA96E50
:10278000A86AA69CA69EA684F2CF00F0F29CF29EB8
:10279000550EA76EAA0EA76EA682A6B2FED7A69465
:1027A0000050F212AA6A170EA96EA86AA69CA69EED
:1027B000A684F2CF00F0F29CF29E550EA76EAA0EF0
:1027C000A76EA682A6B2FED7A6940050F212000110
:1027D00033DDE80EF66E190EF76E41DD040E0401CE
:1027E000636FFA0E0501836F000159EC0EF00401CE
:1027F000632FF7D7000120DD0401F2CF63F4F29CD0
:10280000F29EAA6A100EA96EA69CA69EA680A8504B
:1028100063BDF28C63BFF28E596FF2CF63F4F29C0A
:10282000F29EAA6A110EA96EA69CA69EA680A8502A
:1028300063BDF28C63BFF28E646FF2CF65F4F29CDD
:10284000F29EAA6A120EA96EA69CA69EA680A85009
:1028500065BDF28C65BFF28E666F64C45BF466C4BE
:102860005AF401017E977E957E990001E5DCFA0E0F
:10287000F66E190EF76EF3DC0A0E0401636FFA0EA2
:102880000501836F000159EC0EF00401632FF7D7A7
:102890005BC405F45AC404F40B6B090E0A6F626939
:1028A000616904000451615D03E10551625D12E05C
:1028B0000001C2DC080EF66E1A0EF76E080E040157
:1028C000636F0001DCDC59C46CF4C3DC05C462F442
:1028D00004C461F400019AD5015205E005C45BF41B
:1028E00004C45AF403D00401DCD70001AA6A100E14
:1028F000A96E520EA86EA69CA69EA684F250006EEB
:10290000F29CF29E0F01550EA76EAA0EA76EA6822C
:10291000A6B2FED7A6940050F2125BC463F4AA6A72
:10292000110EA96E5BC4A8FFA69CA69EA684F2CF3A
:1029300000F0F29CF29E550EA76EAA0EA76EA6821C
:10294000A6B2FED7A6940050F2125AC463F4AA6A43
:10295000120EA96E5AC4A8FFA69CA69EA684F2CF0A
:1029600000F0F29CF29E550EA76EAA0EA76EA682EC
:10297000A6B2FED7A6940050F212AA6A130EA96E50
:102980005CC4A8FFA69CA69EA684F2CF00F0F29C91
:10299000F29E550EA76EAA0EA76EA682A6B2FED70D
:1029A000A6940050F212AA6A140EA96E5DC4A8FF84
:1029B000A69CA69EA684F2CF00F0F29CF29E550E35
:1029C000A76EAA0EA76EA682A6B2FED7A694005046
:1029D000F212F2CF63F4F29CF29EAA6A100EA96E74
:1029E000A69CA69EA680A850040163BDF28C63BF7E
:1029F000F28E456EF2CF63F4F29CF29EAA6A110E3B
:102A0000A96EA69CA69EA680A85063BDF28C63BF4B
:102A1000F28E466EF2CF63F4F29CF29EAA6A120E18
:102A2000A96EA69CA69EA680A85063BDF28C63BF2B
:102A3000F28E476EF2CF63F4F29CF29EAA6A130EF6
:102A4000A96EA69CA69EA680A85063BDF28C63BF0B
:102A5000F28E4D6EF2CF63F4F29CF29EAA6A140ECF
:102A6000A96EA69CA69EA680A85063BDF28C63BFEB
:102A7000F28E4E6E00011CEC11F0140EF66E1A0E62
:102A8000F76E2FEC11F0040E0401636FFA0E0501CE
:102A9000836F000159EC0EF00401632FF7D700019A
:102AA0001CEC11F004016A6B00016CDC1E0EF66E6A
:102AB0001A0EF76E2FEC11F0400E04016A6F000140
:102AC00061DC2C0EF66E1A0EF76E2FEC11F0010180
:102AD0007EA901D07E997EA506D07E95020E0401C6
:102AE0005C6F10D001017EA704D07E9704015C6B5F
:102AF00009D0140E0501836F000159EC0EF004009B
:102B0000D1D70401AA6A130EA96E5CC4A8FFA69CC3
:102B1000A69EA684F250006EF29CF29E0F01550E06
:102B2000A76EAA0EA76EA682A6B2FED7A6940050E4
:102B3000F212F2CF63F4F29CF29EAA6A130EA96E0F
:102B4000A69CA69EA680A850040163BDF28C63BF1C
:102B5000F28E4D6E00011CEC11F03E0EF66E1A0E58
:102B6000F76E2FEC11F0040E0401636FFA0E0501ED
:102B7000836F000159EC0EF00401632FF7D70001B9
:102B80001CEC11F004016A6B0001C2EC11F04C0E58
:102B9000F66E1A0EF76E2FEC11F0400E04016A6FFC
:102BA0000001C2EC11F05E0EF66E1A0EF76E2FECFD
:102BB00011F001017EA901D07E997EA506D07E95F7
:102BC000010E04015D6F10D001017EA704D07E9735
:102BD00004015D6B09D0140E0501836F000159ECEF
:102BE0000EF00400CFD70401AA6A140EA96E5DC4CA
:102BF000A8FFA69CA69EA684F250006EF29CF29EB0
:102C00000F01550EA76EAA0EA76EA682A6B2FED71A
:102C1000A6940050F212F2CF63F4F29CF29EAA6ADC
:102C2000140EA96EA69CA69EA680A850040163BDA2
:102C3000F28C63BFF28E4E6E00011CEC11F0700E30
:102C4000F66E1A0EF76E2FEC11F0040E0401636F8E
:102C5000FA0E0501836F000159EC0EF00401632F99
:102C6000F7D700011CEC11F004016A6B0001C2EC03
:102C700011F0820EF66E1A0EF76E2FEC11F0400E68
:102C800004016A6F0001C2EC11F0940EF66E1A0E88
:102C9000F76E2FEC11F001017EA901D07E997EA57F
:102CA00006D07E95010E04015E6F10D001017EA753
:102CB00004D07E9704015E6B09D0140E0501836F6A
:102CC000000159EC0EF00400CFD70401AA6A150EDA
:102CD000A96E5EC4A8FFA69CA69EA684F250006EB4
:102CE000F29CF29E0F01550EA76EAA0EA76EA68249
:102CF000A6B2FED7A6940050F212F2CF63F4F29C73
:102D0000F29EAA6A150EA96EA69CA69EA680A85041
:102D1000040163BDF28C63BFF28E506E00011CECA7
:102D200011F0A60EF66E1A0EF76E2FEC11F0040ECF
:102D30000401636FFA0E0501836F000159EC0EF078
:102D40000401632FF7D700011CEC11F004016A6B3A
:102D50000001C2EC11F0B40EF66E1A0EF76E2FECF5
:102D600011F0400E04016A6F0001C2EC11F0C60EB2
:102D7000F66E1A0EF76E2FEC11F001017EA901D04C
:102D80007E997EA506D07E95010E04015F6F10D05E
:102D900001017EA704D07E9704015F6B09D0140E59
:102DA0000501836F000159EC0EF00400CFD7040138
:102DB000AA6A160EA96E5FC4A8FFA69CA69EA6844A
:102DC000F250006EF29CF29E0F01550EA76EAA0EF5
:102DD000A76EA682A6B2FED7A6940050F212F2CF3A
:102DE00063F4F29CF29EAA6A160EA96EA69CA69E99
:102DF000A680A850040163BDF28C63BFF28E4F6EB3
:102E000000011CEC11F0D80EF66E1A0EF76E0B0EC8
:102E10000401636F00013FEC11F05FC463F4180E0E
:102E20000401646F0001EDEC12F0080E0401636F01
:102E3000FA0E0501836F000159EC0EF00401632FB7
:102E4000F7D700011CEC11F004016A6B0001C2EC21
:102E500011F0E60EF66E1A0EF76E2FEC11F0400E22
:102E600004016A6F0001C2EC11F0F80EF66E1A0E42
:102E7000F76E2FEC11F001017EA901D07E997EA59D
:102E800006D07E95010E0401606F10D001017EA76F
:102E900004D07E970401606B09D0140E0501836F86
:102EA000000159EC0EF00400CFD70401AA6A170EF6
:102EB000A96E60C4A8FFA69CA69EA684F250006ED0
:102EC000F29CF29E0F01550EA76EAA0EA76EA68267
:102ED000A6B2FED7A6940050F212F2CF63F4F29C91
:102EE000F29EAA6A170EA96EA69CA69EA680A8505E
:102EF000040163BDF28C63BFF28E516E00011CECC5
:102F000011F00A0EF66E1B0EF76E0C0E0401636FC5
:102F100000013FEC11F05FC463F4180E0401646F0C
:102F20000001EDEC12F0080E0401636FFA0E0501CA
:102F3000836F000159EC0EF00401632FF7D70001F5
:102F40001CEC11F01200F2CF58F4F29CF29EAA6A27
:102F5000100EA96EA69CA69EA680A850040158BD7E
:102F6000F28C58BFF28E520833E1F2CF59F4F29C42
:102F7000F29EAA6A130EA96EA69CA69EA680A850D1
:102F800059BDF28C59BFF28E020822E3F2CF5AF4F7
:102F9000F29CF29EAA6A140EA96EA69CA69EA6801A
:102FA000A8505ABDF28C5ABFF28E010811E3F2CF3D
:102FB0005BF4F29CF29EAA6A160EA96EA69CA69ECF
:102FC000A680A8505BBDF28C5BBFF28E010806E2C2
:102FD000010E586F00014DEC13F00DD001017EB5CC
:102FE0000BD07EA909D07EB707D07E990401586B1B
:102FF00000014DEC13F00101000142EF35F00150EA
:103000005EC487F5640E0501886F0001D7EC12F0ED
:1030100000C05EF40150300E08E104015FA30FD040
:103020005FB70DD05FB9200E04D004015F975F99A0
:103030005F81012601C06CF4000129EC11F05EC42F
:1030400087F50A0E0501886F0001D7EC12F000C069
:103050005EF40150300E08E104015FB70BD05FA1B0
:1030600009D05FB9200E0001012601C06CF429ECE3
:1030700011F00401300E5E275EC46CF4000129ECEF
:1030800011F01200EACF65F4E9CF64F404015E396F
:10309000F009606F6027E20F616F320F636F5E515E
:1030A0000F0B612761276327E90F626F6227622791
:1030B0005D390F0B6227632762376337631F6337FE
:1030C0005D510F0B63276037070E5F6F0A0E6207B3
:1030D0006327FDE361076227FDE360076127FDE3E6
:1030E0005F076027FDE3040EEA6E5F0EE96E070ED0
:1030F0006415649DE926630EE95CD8B4648DEF50D5
:10310000006E08E164BD06D064B916D064B702D081
:10311000200E03D064876499300E0026EACF5EF457
:10312000E9CF5DF400C06CF4000129EC11F05EC43D
:10313000EAFF5DC4E9FF0401EE5064ADDCD7000195
:1031400012000900F6CF5EF4F7CF5FF4F5509EA8A9
:10315000FED7AD6E5EC4F6FF5FC4F7FF04015D2FBE
:1031600001D002D00001EDD70001120001505DC472
:1031700087F5640E0501886F0001D7EC12F000C0DE
:103180005DF40150300E08E104015EA30ED05EB77D
:103190000CD05EB9200E04D004015E975E995E816A
:1031A000012601509EA8FED7AD6E5DC487F50A0EBC
:1031B0000501886F0001D7EC12F000C05DF40150EA
:1031C000300E08E104015EB70BD05EA109D05EB9F4
:1031D000200E0001012601509EA8FED7AD6E04010D
:1031E000300E5D275D519EA8FED7AD6E0001120026
:1031F0000900F5520DE0F6CF5DF4F7CF5EF4F5501F
:103200009EA8FED7AD6E5DC4F6FF5EC4F7FFF0D793
:103210001200EACF65F4E9CF64F404015E39F009E5
:10322000606F6027E20F616F320F636F5E510F0BAB
:10323000612761276327E90F626F622762275D3983
:103240000F0B6227632762376337631F63375D5154
:103250000F0B63276037070E5F6F0A0E6207632745
:10326000FDE361076227FDE360076127FDE35F0778
:103270006027FDE3040EEA6E5F0EE96E070E64152B
:10328000649DE926630EE95CD8B4648DEF50006E4E
:1032900008E164BD06D064B90CD064B702D0200E3A
:1032A00003D064876499300E002600509EA8FED794
:1032B000AD6EEE5064ADE6D7000188EF1AF0040160
:1032C000586B93948A8493968A86959E8C8E140E5E
:1032D0005B6F000111EC11F04D5207E1AC0EF66E80
:1032E0001B0EF76E2FEC11F010D04D50020807E1C5
:1032F000B40EF66E1B0EF76E2FEC11F006D0BC0E5E
:10330000F66E1B0EF76E2FEC11F04E5207E1C60E53
:10331000F66E1B0EF76E2FEC11F00FD04E2C07D06F
:10332000CE0EF66E1B0EF76E2FEC11F006D0D60EF9
:10333000F66E1B0EF76E2FEC11F0F2CF5BF4F29CE1
:10334000F29EAA6A110EA96EA69CA69EA680A850FF
:1033500004015BBDF28C5BBFF28E5C6FF2CF5DF45B
:10336000F29CF29EAA6A120EA96EA69CA69EA68048
:10337000A8505DBDF28C5DBFF28E5E6F5CC45AF4E6
:103380005EC459F40A0E586F585369E0400E6A6FD4
:103390000001C2EC11F0F2CF5BF4F29CF29EAA6A3B
:1033A000100EA96EA69CA69EA680A85004015BBD27
:1033B000F28C5BBFF28E5C6FE00EF66E1B0EF76E4A
:1033C000060E636F00013FEC11F058C45EF41B0E53
:1033D00004015F6F000113DEE80EF66E1B0EF76E40
:1033E000040E0401636F00013FEC11F05CC46CF447
:1033F00029EC11F0100EE96E5AC45EF459C45DF464
:1034000041DE200E04016C6F000129EC11F0F40E76
:10341000F66E1B0EF76E080E04015D6F000191DE63
:1034200058C45DF41B0E04015E6F00019FDEFE0EAA
:10343000F66E1B0EF76E0A0E04015D6F000181DE51
:10344000040E04015B6FFA0E0501836F000159EC55
:103450000EF004015B2FF7D70400580795D7F2CF81
:103460005BF4F29CF29EAA6A100EA96EA69CA69E20
:10347000A680A8505BBDF28C5BBFF28E5C6F0A0E1B
:10348000F66E1C0EF76E140E5D6F00015ADE640EB0
:10349000F66E1C0EF76EACDE200EF66E1C0EF76E8E
:1034A000040E04015D6F00014CDE48C05DF4010EA6
:1034B00004015E6F00015ADE2D0E9EA8FED7AD6E90
:1034C00049C05DF4010E04015E6F00014FDE2D0E58
:1034D0009EA8FED7AD6E4AC05DF4010E04015E6F7A
:1034E000000144DE320EF66E1C0EF76E0A0E040169
:1034F0005D6F000126DE04015C519EA8FED7AD6E13
:10350000100EE96E5AC45EF459C45DF4000181D610
:10351000410EF66E1C0EF76E0C0E04015D6F00017D
:1035200010DE4DC05DF41B0E04015E6F00011EDE57
:103530004F0EF66E1C0EF76E0E0E04015D6F00014D
:1035400000DE4EC05DF41B0E04015E6F00010EDE56
:10355000290E9EA8FED7AD6E0D0E9EA8FED7AD6EAD
:103560000A0E9EA8FED7AD6E44EF35F0A00E050101
:103570007B6F79517F0802E27B83799F94880000FA
:10358000948600008B98949800008B9694967BC547
:103590007EF50001EFEC0EF079C57CF505017D6B41
:1035A00079C57EF50001EFEC0EF078C57EF5EFEC05
:1035B0000EF07AC57EF5EFEC0EF09498000094863C
:1035C00082A6FED7000000D0000094880000120000
:1035D000340EF66E170EF76E0BDE1CEC11F04E0E6D
:1035E000F66E170EF76E2FEC11F0050E0401586FF2
:1035F000F00E0501836F000159EC0EF00401582F05
:10360000F7D70501796B786B7A6B0001AFDF0501A5
:10361000796B020E786F7A6B0001A8DF0501796B78
:10362000030E786F7A6B0001A1DF95948C940000F3
:103630006650500E666E6430FEE36650666A643013
:10364000FEE36650666A6430FEE36650666A643084
:10365000FEE395948C8400000A0E0501836F00013F
:1036600059EC0EF095948C9400006650D70E666E5F
:103670006430FEE36650666A6430FEE366CF88F429
:1036800095948C840000040188C401F001C058F4B2
:1036900001BE04D004000001E5D70401400E6A6FAA
:1036A0000001C2EC11F05E0EF66E170EF76E2FECF5
:1036B00011F0640EF66E170EF76E9ADD050E04011A
:1036C000586FF00E0501836F000159EC0EF00401F4
:1036D000582FF7D70001120081CF58F4040158B9D0
:1036E00007D001017FB902D0040102D07D8F04010F
:1036F00058A907D001017FA902D0040102D07D8121
:10370000040158C47FF10001F73D03D0F83D01D01A
:1037100003D0F72BD8B4F82BF93D03D0FA3D01D0F4
:1037200003D0F92BD8B4FA2BF551F6110BE0F8536E
:1037300003E1F751050806E2F73D03D0F83D01D05B
:1037400001D07481D89004015235596F53355A6FA6
:10375000000E01017FAB010E0401591359C452F44C
:103760005A51E009536F525309E15351F00806E1F1
:1037700001017E877D811E0E866F0401D89054352D
:10378000596F55355A6F000E01017FAD010E0401CE
:10379000591359C454F45A51E009556F545309E16F
:1037A0005551F00806E101017E897D811E0E866F6C
:1037B0000401D8905635596F57355A6F000E0101E4
:1037C0007FAF010E0401591359C456F45A51E00950
:1037D000576F565308E15751F00805E101017E8506
:1037E0007D811E0E866F0101875303E093968A86C2
:1037F00002D093968A96000192EF35F0020E0401F2
:10380000786F000170EC0FF001503F0B0401586F0E
:10381000796F0001AAEC0FF001C080F1010E0401E4
:10382000786F000170EC0FF001C058F401C079F41A
:10383000AAEC0FF001C081F10401786B000170EC7B
:103840000FF001507F0B0401586F796F0001AAEC53
:103850000FF001C082F1040E0401786F000170ECDA
:103860000FF001C058F401C079F4AAEC0FF001C0C8
:1038700083F1050E0401786F000170EC0FF001C0B8
:1038800058F401C079F4AAEC0FF001C084F1060EDF
:103890000401786F000170EC0FF001C058F401C012
:1038A00079F4AAEC0FF001C085F1B9EF1CF0969AFB
:1038B0008D8AC6EF1CF094880000948600008B98D7
:1038C000949800008B969496C00E05017E6F0001BF
:1038D000EFEC0EF001500108EEE05EC47EF5EFEC77
:1038E0000EF0948800009486000082A6FED78B9884
:1038F000949800008B969496C10E05017E6F00018E
:10390000EFEC0EF001500108ECE0006A4AEC0FF019
:1039100001C05FF494980000948682A6FED7000050
:1039200000D000009488000004015FC401F0000191
:1039300012000401586B58511E0817E3036A5851CE
:10394000540F016E000E032201C059F403C05AF453
:1039500058C45EF40001AFDF5AC4EAFF59C4E9FF5E
:1039600001C0EFFF0401582BE6D7000112EF1DF054
:1039700045D70101865303E197908E8003D097903D
:103980008E908607875304E1000191D708D001018A
:1039900004015B6B000111EC11F0010187070101CB
:1039A000885304E17D89090E886F01D088070401DE
:1039B00051510101815D21E07D8381C151F44B3C76
:1039C00003D04C3C01D003D04B2AD8B44C2A8151AF
:1039D0001E0802E17E8104D081512D0801E17E9113
:1039E0008151050809E08151140806E0815123083E
:1039F00003E08151320801E17D8B968284B203D0CD
:103A000093948A8402D093948A943B5202E13C526C
:103A100003E0959E8C8E02D0959E8C9E512C03D0F7
:103A2000000187D70101000199EF35F09D9A01014E
:103A30007CB12DD0EA6AFB0EE96EE26A750EE16E8A
:103A4000F6C002F0F5C001F0015202E0022A02D0F5
:103A5000025206E0E6CFEEFF012EFCD7022EFAD787
:103A6000010E0001F5250401586F000E0001F6213A
:103A70000401596FFB0E5825E96E000E5921EA6EBC
:103A8000EF6A01017C810001F66BF56B01019D8AF3
:103A900000019EEF35F0050188698769855185072A
:103AA000000A26E084C503F08351832BD8B4842B0D
:103AB000E96E03C0EAFFEF50871B866B865107084B
:103AC00016E38751010B006E036A005003100AE0F1
:103AD000D89088318A6F8731010A876F8A51A00A8E
:103AE000886F03D0D89088338733862BE7D7D6D713
:103AF00087C501F088C502F00001120001017CA118
:103B000050D07C910001FB5123084AE1FC51455CF7
:103B100047E1FD51465C44E1FE51475C41E1FF5104
:103B20000D083EE1010100511608D8B402D0000191
:103B300037D00501846BFC0E836F0A0E856F000180
:103B4000AADF02C059F401C058F406C103F0010114
:103B500007510401585D03E10350595D01E022D093
:103B6000FA0E5B6F000111EC11F001010151000A26
:103B7000000105E0010A07E0030A09E011D0010194
:103B80007D8B00010DD001017D85000109D002C1AE
:103B900001F403C100F404C103F405C102F400D030
:103BA000010104010001A1EF35F0D8B204D0040EE8
:103BB000EA6E750EE96E006A016A026A036A040120
:103BC000756B766B776B786B745173117211711121
:103BD0002CE0200E796FD8906D376E376F377037C5
:103BE00075377637773778377451785D08E17351D8
:103BF000775D05E17251765D02E17151755D0FE30C
:103C00007151755F7251D8A0723D765F7351D8A023
:103C1000733D775F7451D8A0743D785FD8800036CB
:103C2000013602360336792FD6D775C4EFFF76C436
:103C3000ECFF77C4ECFF78C4ECFF00011200D890D1
:103C400004014935036A290FE96E040E0320EA6E68
:103C50005EC4ECFFED525DC4EFFF492B49510F08E4
:103C600001E2496B4A510F0801E34A2B666B656B11
:103C7000646B636B676B4A51675D14E2D89067357C
:103C8000036A290FE96E040E0320EA6EECCF03F0FD
:103C9000ED52EF50632703506423000E6523662323
:103CA000672BE9D7D8904A31006E016A026A036A2D
:103CB00000506325696F015064216A6F02506521CD
:103CC0006B6F035066216C6FD892706F6BC46FF48A
:103CD0006AC46EF469C46DF4746B736B726B4AC41E
:103CE00071F4000162DF03C062F402C061F401C03C
:103CF00060F400C05FF404015FC401F060C402F02E
:103D0000000193EF1FF004015C51000808E2FF0A74
:103D100003E15B51440803E20A0E016E65D05C5179
:103D2000000808E2FF0A03E15B513F0803E2090EC5
:103D3000016E5AD05C51000808E2FF0A03E15B51B2
:103D40003D0803E2080E016E4FD05C51000808E206
:103D5000FF0A03E15B513A0803E2070E016E44D00B
:103D60005C51000808E2FF0A03E15B51370803E2F7
:103D7000060E016E39D05C51000808E2FF0A03E12B
:103D80005B51330803E2050E016E2ED05C51000832
:103D900008E2FF0A03E15B512F0803E2040E016E03
:103DA00023D05C51000808E2FF0A03E15B512C08B4
:103DB00003E2030E016E18D05C51000808E2FF0A0E
:103DC00003E15B51270803E2020E016E0DD05C5146
:103DD000000808E2FF0A03E15B51200803E2010E3C
:103DE000016E02D0000E016E0001A4EF1FF004016D
:103DF0005C5303E15B513F0808E25C5306E15B5111
:103E0000BF0803E3010E016E6BD05C5303E15B510D
:103E1000BF080AE25C51010807E303E15B513F0878
:103E200003E3020E016E5CD05C5100080FE2FF0A52
:103E300003E15B513F080AE25C51010807E303E13B
:103E40005B51BF0803E3030E016E4AD05C510008CA
:103E50000FE2FF0A03E15B51BF080AE25C5102086E
:103E600007E303E15B513F0803E3040E016E38D022
:103E70005C5101080FE2FF0A03E15B513F080AE2CF
:103E80005C51020807E303E15B51BF0803E3050E41
:103E9000016E26D05C5101080FE2FF0A03E15B517D
:103EA000BF080AE25C51030807E303E15B513F08E6
:103EB00003E3060E016E14D05C5102080FE2FF0A04
:103EC00003E15B513F080AE25C51030807E303E1A9
:103ED0005B51BF0803E3070E016E02D0000E016EB6
:103EE0000001C8EF1FF0000E016EC250C30B01109D
:103EF000C26E010E0501836F000159EC0EF0040142
:103F0000586B58510F0816E3C282C2B2FED7C4CF15
:103F100003F0C3CF5BF4C4CF5CF4C4CF5EF4C3CF73
:103F20005DF400018CD602C05AF401C059F40401BA
:103F3000582BE7D75AC43EF059C43DF05AC45CF43C
:103F400059C45BF40001DFD601C040F04D500208B7
:103F500007E1040E016EC250C30B0110C26E06D001
:103F60000C0E016EC250C30B0110C26E010E050192
:103F7000836F000159EC0EF0C282C2B2FED7C3CFEC
:103F800041F0C4CF42F042C05CF441C05BF42FD793
:103F900001C03FF0080E016EC250C30B0110C26E8B
:103FA000010E0501836F000159EC0EF0C282C2B20E
:103FB000FED7C3CF43F0C4CF44F063EF22F0050136
:103FC0008451030809E2FF0A03E18351B00804E2C7
:103FD000FF0E016E026E12D0D8908335026E8435CA
:103FE000036E025003C0F7FF0001CBEC00F00900A4
:103FF000F5CF03F0016E03C002F0050100011200CD
:104000009EA8FED7AD6E1200015085C587F5640EDF
:104010000501886F0001D7EC12F000C085F5015052
:10402000300E08E1050186A310D086B70ED086B900
:10403000200E04D00501869786998681012601C04D
:104040008EF5000153EC11F0050185C587F50A0EC8
:10405000886F0001D7EC12F000C085F50150300EDA
:1040600008E1050186B70BD086A109D086B9200EDC
:104070000001012601C08EF553EC11F00501300E50
:10408000852785C58EF5000153EC11F0120084C51B
:1040900086F583C585F586C503F0050185C5E9FF6D
:1040A00086C5EAFFEF5206E0852BD8B4862B0001C7
:1040B000F2D705018351855D006E84518659036EE8
:1040C00000C001F000011200A4A8FED76D6E12001E
:1040D0009D9236C07EF535C07DF538C080F537C07D
:1040E0007FF53CC082F53BC081F53C6A3B6A9D820E
:1040F0004F2C6ED0230E0401586F45C059F446C0B2
:104100005AF447C05BF41A0E5C6F240E5D6F4E2CA0
:1041100021D07EC584F57DC583F5000150DF02C046
:104120007CF501C07BF57CC55EF404017BC55FF4C2
:10413000040180C584F57FC583F5000140DF02C01E
:104140007CF501C07BF57CC560F404017BC561F49E
:1041500004010CD07EC55EF404017DC55FF404014A
:1041600080C560F404017FC561F4040182C562F476
:10417000040181C563F40401696B69C468F468C40F
:1041800067F467C466F466C465F465C464F442C049
:104190006AF441C06BF444C06CF443C06DF43EC09B
:1041A0006EF43DC06FF4040E0501846F590E836FE9
:1041B000170E856F00016FDC02C079F501C078F53C
:1041C00079C570F4040178C571F4040160D0000170
:1041D000230E0401586F45C059F446C05AF447C035
:1041E0005BF40F0E5C6F070E5D6F4E2C21D07EC509
:1041F00084F57DC583F50001E2DE02C07CF501C0D7
:104200007BF57CC55EF404017BC55FF4040180C5C9
:1042100084F57FC583F50001D2DE02C07CF501C0C4
:104220007BF57CC560F404017BC561F404010CD00E
:104230007EC55EF404017DC55FF4040180C560F4B1
:1042400004017FC561F4040140380501836FF00E5D
:1042500083173F500F0B83250401626F82C563F4FF
:10426000040181C564F40401040E0501846F590E34
:10427000836F0C0E856F00010EDC02C079F501C062
:1042800078F579C565F4040178C566F40401050183
:104290007A6B04015C5105017A5D0FE2036A7A5181
:1042A000580FE96E040E0320EA6EEFCF83F58351B9
:1042B0000001A6DE05017A2BECD7502CEAD046C0CF
:1042C00084F547C083F5040E0401176F780E166F4E
:1042D000320E05018E6F000153EC11F0300E050116
:1042E0008E6F000153EC11F085C185F5010E0501BB
:1042F000866F000189DE2D0E05018E6F000153ECE3
:1043000011F084C185F5010E0501866F00017CDE88
:104310002D0E05018E6F000153EC11F083C185F560
:10432000010E0501866F00016FDE200E05018E6F04
:10433000000153EC11F080C185F5010E0501866F77
:10434000000162DE3A0E05018E6F000153EC11F0A0
:1043500081C185F5010E0501866F000155DE3A0E1B
:1043600005018E6F000153EC11F082C185F5010E3D
:104370000501866F000148DE2C0E05018E6F0001DD
:1043800053EC11F0100EE96E7EC586F57DC585F5FE
:1043900064EC11F02C0E05018E6F000153EC11F04E
:1043A000100EE96E80C586F57FC585F564EC11F0C9
:1043B0002C0E05018E6F000153EC11F0100EE96E0A
:1043C00082C586F581C585F564EC11F02C0E0501DA
:1043D0008E6F000153EC11F0100EE96E3EC086F5B1
:1043E0003DC085F564EC11F02C0E05018E6F0001C7
:1043F00053EC11F0100EE96E42C086F541C085F510
:1044000064EC11F02C0E05018E6F000153EC11F0DD
:10441000100EE96E4CC086F54BC085F564EC11F0CA
:104420002C0E05018E6F000153EC11F045C08EF586
:1044300053EC11F0100EE96E84C586F583C585F541
:1044400064EC11F00A0E05018E6F000153EC11F0BF
:1044500005017A6B040E846F780E836F000117DEFE
:10446000015005017A5D15E2036A7A51780FE96E11
:10447000040E0320EA6EEFCF83F58351000124DEA2
:10448000010E0501836F000159EC0EF005017A2B36
:10449000E1D7000164EF22F0040115BD0AD0010E3E
:1044A0005B6F000111EC11F0FA6BF96B0401158DD3
:1044B0000DD00001FA5303E1F9510D0807E20101A3
:1044C0007D99000110D504D60401159D0001A7EFC8
:1044D00035F0A00E05017A6F78517F0802E27A83E9
:1044E000789F94880000948600008B989498000030
:1044F0008B9694967AC57EF50001EFEC0EF078C5A8
:104500007BF505017C6B78C57EF50001EFEC0EF0C4
:1045100077C57EF5EFEC0EF09488000094860000DD
:1045200082A6FED78B98949800008B9694960501EE
:104530007A5101097B6F7E6F0001EFEC0EF0006A8B
:104540004AEC0FF001C079F594980000948682A699
:10455000FED7000000D0000094880000050179C556
:1045600001F000011200230E0401586F45C059F4F8
:1045700046C05AF447C05BF42B0E5C6F080E5D6FAB
:1045800036C05EF435C05FF438C060F437C061F403
:104590003CC062F43BC063F485C164F484C165F43B
:1045A00083C166F480C167F481C168F482C169F493
:1045B00095948C9400006650D70E666E6430FEE3CE
:1045C0006650666A6430FEE366CF88F495948C8406
:1045D000000088C401F001C06AF40501786B020E86
:1045E000776F000176DF01C06BF40501786B030E75
:1045F000776F00016EDF01C06CF43EC06DF4040102
:104600003DC06EF496826F6B84B26F2B010E896F82
:104610008D0E89C487F4866F86C4E9FF87C4EAFFDC
:10462000EFCF70F4010E8625E96E000E8721EA6E49
:10463000EFCF71F4020E8625E96E000E8721EA6E37
:10464000EFCF72F4030E8625E96E000E8721EA6E25
:10465000EFCF73F4010E896F910E89C487F4866FD2
:1046600086C4E9FF87C4EAFFEFCF74F4010E862504
:10467000E96E000E8721EA6EEFCF75F4020E8625F3
:10468000E96E000E8721EA6EEFCF76F4030E8625E1
:10469000E96E000E8721EA6EEFCF77F43FC078F421
:1046A000796B7A6B7B6B48C07CF449500F0B886F39
:1046B00001018751F00B040188257D6F4AC07EF40B
:1046C0004CC07FF44BC080F4040E0501846F590E7A
:1046D000836F280E856F00014BEC1DF002C084F43F
:1046E00001C083F4040184C481F483C482F4856B23
:1046F00085512A080FE3036A8551580FE96E040EAD
:104700000320EA6EEFCF88F48851000179DC0401C0
:10471000852BEED70001A6EF23F0040115BF0CD0C6
:104720000001FA6BF96B010E04015B6F000111ECE3
:1047300011F00401158F0CD00001FA5303E1F95177
:104740000D0806E201017D9B00010DD70401159FB4
:104750000001ADEF35F095948C9400006650D20EB8
:10476000666E6430FEE304015837593758375937BD
:10477000FC0E581759C45CF4665059C466FF643087
:10478000FEE358C45CF4665058C466FF6430FEE330
:104790006650666A6430FEE36650666A6430FEE323
:1047A0006650666A6430FEE36650666A6430FEE313
:1047B0006650666A6430FEE35B6B5A6B5B510208BD
:1047C00014E303E15A510F0810E3F00E5A25E96E85
:1047D000010E5B21EA6E6650666A6430FEE366CFC6
:1047E000EFFF5A2BD8B45B2BE9D795948C8400004B
:1047F0000001CDEF24F00501786B776B000169DED5
:10480000036A01C05CF403C05DF40501786B0C0E13
:10481000776F03C07AF501C079F50001F5EC11F06E
:1048200002C05BF401C05AF40401596B586B595132
:104830005B5D23E303E15A51585D1FE2F00E5825FA
:10484000016E010E5921036E01C05CF45D6F58C406
:104850005EF4020E59255F6FE8CF78F558C477F5FE
:10486000000137DE5DC4EAFF5CC4E9FF01C0EFFF71
:104870000401582BD8B4592BDAD7595102080FE349
:1048800003E158510F080BE3F00E5825E96E010EB5
:104890005921EA6EEF68582BD8B4592BEED7000196
:1048A000D1EF24F0230E0401606F45C061F446C0CF
:1048B00062F447C063F43A0E646F150E656F5DC411
:1048C00066F45CC467F49C6B9C512F081DE3080ED2
:1048D0009C25036A600F016E040E03229C515E2525
:1048E0009F6F000E5F21A06FF00E9F25E96E010EF5
:1048F000A021EA6EEFCFA1F403C0EAFF01C0E9FFF7
:10490000A1C4EFFF9C2BE0D7040E0501846F610E5C
:10491000836F370E856F00014BEC1DF002C09BF4D6
:1049200001C09AF404019BC498F49AC499F49C6B56
:104930009C51390810E3036A9C51600FE96E040E24
:104940000320EA6EEFCF9DF49D51000100EC20F0B2
:1049500004019C2BEDD7000106EF25F00401015165
:104960000F0805E2FF0A07E10051010804E30253C2
:1049700005E1035303E1036B026B5CD0968884A8C6
:1049800001D058D018530EE101510F0808E301C4BB
:1049900059F400C458F40001DED603D0040100012C
:1049A0002AD70401010E5B6F000111EC11F001C464
:1049B00078F500C477F505017A6B0B0E796F00016D
:1049C000F5EC11F002C059F401C058F4040118517B
:1049D0005827000E59235B6B18C45AF45BC478F552
:1049E00018C477F505017A6B300E796F0001F5EC8C
:1049F00011F002C05BF401C05AF459C45DF458C40C
:104A00005CF402C05FF401C05EF44CD70401182BC3
:104A100018510B080FE1186B025302E1035308E031
:104A2000002BD8B4012B0251D8B40307020702D0DF
:104A3000016900690001B0EF35F08E0E006E5EC4B2
:104A400001F05DC402F0036A015209E102C001F005
:104A5000026A080E005E015202E1006A08D0D89096
:104A600001BE04D0023601360006F9D7019E1200BD
:104A700004015D51D8B4A5D0696F6151D8B4A1D0FB
:104A8000695F05E37F0E6927D8B09BD006D0810E01
:104A9000695FD8A096D0D8B494D069C400F0016AF8
:104AA000026A036A686B5EC467F4678F5FC466F46A
:104AB00060C465F4190E696F6451655F0DE2010E03
:104AC000665F0AE2675F08E2685F06E2682B672BB1
:104AD000662B6451652728D06351665F12E2010E90
:104AE000675F0FE2685F0DE2682B672B63516627F3
:104AF0006451652719E3662B17E1672B15E1682BD5
:104B000013D062518009675F0EE2010E685F0BE20D
:104B1000682B62518009672763516627E9E3672B99
:104B2000E7E1682BE5D70380692F01D00BD0D8903F
:104B30006537663767376837D890033602360136EF
:104B40006A37BAD76AA106D0D8900132023203324E
:104B50006A3302D0000635E06ABF1ED0D8906537B0
:104B60006637673768376451655F07E2010E665F35
:104B700004E2675F02E2685F1AE36351665F05E281
:104B8000010E675F02E2685F12E362518009675FAE
:104B900003E2010E685F0BE3032A09E1022A07E141
:104BA000012A05E1002A0DE00132023203325EC41F
:104BB00069F46251691B69AF02D0018E06D0019E73
:104BC00004D0006A016A026A036A00011200800EC2
:104BD000D8A202D00401661B04016B6B6C6B62C42B
:104BE0006AF466516A1B6151D8B4DFD0696F006EF8
:104BF0006551D8B4E3D0695FD8B483D03EE366C4CE
:104C00006FF46F8F67C46EF468C46DF46C6BD890EA
:104C10006F336E336D336C33692FF8D76AAF03D0BF
:104C20006B81E0D06B9169916B89040EEA6E640E22
:104C3000E96EEBD06B996ABF0AD069A113D06F33CC
:104C40006E336D336C33002AD8B4C7D00BD06FBF2E
:104C50000CD0D8906C376D376E376F370006D8B4EC
:104C6000BCD0F5D76B8D6DD06B9D62C46AF462AF1A
:104C700002D06F8FABD06F9FA9D065C469F465C4B3
:104C800000F06151695F62C46FF46F8F63C46EF4AA
:104C900064C46DF46C6BD8906F336E336D336C33CA
:104CA000692FF8D76AAF03D06B839CD06B9369915F
:104CB0006B8B040EEA6E680EE96EA7D06B9B6ABF21
:104CC0000AD069A113D06F336E336D336C33002A71
:104CD000D8B483D00BD06FBF0CD0D8906C376D3761
:104CE0006E376F370006D8B478D0F5D76B8F29D0E0
:104CF0006B9F66C46AF466AF02D06F8F67D06F9FF8
:104D000065D066C46FF46F8F67C46EF468C46DF4C9
:104D10006AAF04D06F9F6B8565D06B956C6B6991A2
:104D2000040EEA6E640EE96E70D06ABF1CD062C4D5
:104D30006AF469A106D06F336E336D336C33002A89
:104D40004CE06CAF0BD06D2B09E16E2B07E16F2BA4
:104D500005E16F336E336D33002A3FE06BBD84D7BE
:104D60006BBFC6D71CD0800E6F1B6FAF04D03AD07C
:104D700066C46AF40AD062C46AF46F5306E16E53E3
:104D800004E16D5302E1006A21D06FBF08D0D890D2
:104D90006C376D376E376F37002EF7D71ED06AAF7E
:104DA00002D06F8F13D06F9F11D065C400F066C41E
:104DB0006FF467C46EF468C46DF408D061C400F089
:104DC00062C46FF463C46EF464C46DF46FC401F024
:104DD0006EC402F06DC403F034D0006A016A026A46
:104DE000036A2FD06C6B6D1F6E1F6F1F6C1F6C2BB7
:104DF00005E16D2B03E16E2B01E16F2B6BB112D737
:104E00006BB354D76BB589D7B3D7EF506D2705E394
:104E10006E2B03E16F2BD8B46981ED52EF506E27F2
:104E200003E36F2BD8B46981ED52EF50EFBE01D090
:104E3000800A6F27D8B069816BB9FCD66BBB3ED7AF
:104E400074D70001120004016A51D8B471D0006E09
:104E50006E51D8B46DD0002604E3810E002668E2BE
:104E600004D07F0E005E64E363E06BC472F46F51A4
:104E7000721B6B8F6F8F6D517103F4CF74F46C5193
:104E80007003F4CF03F0F3CF73F47103F35074277E
:104E9000F4507323000E03226D517003F3507427F6
:104EA000F4507323000E026A032202226B51710335
:104EB000F3507327F4500322000E02226B5170034B
:104EC000F3500326F4500222000E016A01226D51B4
:104ED0006F03F3507327F4500322000E02220122C5
:104EE0006C516F03F3500326F4500222000E01228E
:104EF0006B516F03F3500226F4500122002A01BEC9
:104F000005D073370336023601360006000E73AF44
:104F10000AD0032A02220122015005E1025003E1D6
:104F2000035001E1002A72BF018E72AF019E04D0CE
:104F3000006A016A026A036A0001120004016A51F0
:104F4000B6086A6F036A6BC46EF46B8FD8906B33CC
:104F50006C336D3303320232013200326A2FF6D7DE
:104F60006EAF0BD0001E011E021E031E002AD8B415
:104F7000012AD8B4022AD8B4032A0001EBEF27F0A3
:104F8000E9500401626F6151646F1BE060C46DF40D
:104F90005FC46CF45EC46BF45DC46AF4716B706BD7
:104FA000200E6F6F820E6E6F00014DDF03C060F444
:104FB00002C05FF401C05EF400C05DF40401642F20
:104FC000E5D760C46DF45FC46CF45EC46BF45DC47B
:104FD0006AF40001B3D703C060F402C05FF401C0FB
:104FE0005EF400C05DF4040160AF0DD06207628B17
:104FF0005D1F5E1F5F1F601F5D2BD8B45E2BD8B492
:105000005F2BD8B4602B3B0E696F9A0E686FCA0E87
:10501000676F666B0A0E646F6151D8B4622BD882D9
:10502000040EEA6E5D0EE96E60C470F45FC46FF446
:105030005EC46EF45DC46DF469C474F468C473F442
:1050400067C472F466C471F40001D5EC1DF0015020
:10505000005213E104016129645DD8A402D000016B
:105060000CD062510DE00F0B645D01E044E262BFC1
:1050700042D062BD05D0200E37D0200E0401621749
:1050800062AB0FD0629B6151D8A462070050626F7F
:105090002D0E6C6F000129EC11F004016251006EBD
:1050A000626B6151645D0DE10050626F2E0E6C6F9A
:1050B000000129EC11F004016251006E200E62170C
:1050C000000E300E62AB10D0629B6151D8A4620713
:1050D0000050626F2D0E6C6F000129EC11F004017D
:1050E0006251006E626B300E002600C06CF400014D
:1050F00029EC11F00401D89269C470F468C46FF40B
:1051000067C46EF466C46DF4746B736B726B0A0ED5
:10511000716F0001D5EC1DF003C069F402C068F4A2
:1051200001C067F400C066F40401642F78D7000161
:10513000120004015E51030809E2FF0A03E15D5118
:10514000B00804E2000E016E026E12D0D8905D35F8
:10515000026E5E35036E025003C0F7FF000183EC60
:1051600005F00900F5CF03F0016E03C002F0040161
:1051700000011200E9500401646F3B0E6B6F9A0E40
:105180006A6FCA0E696F686B0A0E666F6351D8A4A6
:105190006407D882040EEA6E5F0EE96E62C470F492
:1051A00061C46FF460C46EF45FC46DF46BC474F4D6
:1051B0006AC473F469C472F468C471F40001D5EC74
:1051C0001DF00150005213E104016329665DD8A46B
:1051D00002D000010CD064510CE00F0B665D01E0C1
:1051E00020E264BF1ED064BD04D0200E13D00401A1
:1051F000646B6351665D0DE100C064F42E0E6C6F4C
:10520000000129EC11F0040164C400F0200E6417C1
:10521000000E300E002600C06CF4000129EC11F0E5
:105220000401D8926BC470F46AC46FF469C46EF45C
:1052300068C46DF4746B736B726B0A0E716F00014E
:10524000D5EC1DF003C06BF402C06AF401C069F430
:1052500000C068F40401662F9CD7000112004E5272
:10526000D8A4E2D0355202E1365241E0353C03D0B9
:10527000363C01D03CD036C05EF435C05DF41DEC48
:1052800025F00401606B100E5F6F6F0E5E6F8B0E6A
:105290005D6F03C064F402C063F401C062F400C037
:1052A00061F4000138EC25F000C05DF401C05EF44B
:1052B00002C05FF403C060F4D89203C064F402C07B
:1052C00063F401C062F400C061F4330E0401686F3E
:1052D000676F666F7D0E656F000179DC03C05CF45B
:1052E00002C05BF401C05AF400C059F406D00401B6
:1052F0005C6B5B6B5A6B596B00014E0EF66E190EB0
:10530000F76E070E0401636F00013FEC11F0410ED0
:10531000E96E5CC460F45BC45FF45AC45EF459C4C3
:105320005DF4010E0401616F00012ADE5B0EF66E72
:10533000190EF76E040E0401636F00013FEC11F0CB
:10534000375202E1385241E0373C03D0383C01D0BB
:105350003CD038C05EF437C05DF41DEC25F004018C
:10536000606B100E5F6F6F0E5E6F8B0E5D6F03C014
:1053700064F402C063F401C062F400C061F400018F
:1053800038EC25F000C05DF401C05EF402C05FF4AB
:1053900003C060F4D89203C064F402C063F401C097
:1053A00062F400C061F4330E0401686F676F666FCA
:1053B0007D0E656F00010BDC03C05CF402C05BF482
:1053C00001C05AF400C059F405D004015C6B5B6B5A
:1053D0005A6B596B400E04016A6F0001C2EC11F068
:1053E000600EF66E190EF76E070E0401636F000172
:1053F0003FEC11F0410EE96E5CC460F45BC45FF4F5
:105400005AC45EF459C45DF4010E0401616F0001D9
:10541000B7DD6D0EF66E190EF76E040E0401636FA4
:1054200000013FEC11F05CD04E2C5AD036C05EF437
:1054300035C05DF47EDE02C05EF401C05DF4720E24
:10544000F66E190EF76E070E0401636F00013FEC54
:1054500011F0440EE96E0401626B616B5EC460F48E
:105460005DC45FF4010E636F000184DE7F0EF66E93
:10547000190EF76E040E0401636F00013FEC11F08A
:10548000400E04016A6F0001C2EC11F038C05EF4F6
:1054900037C05DF44EDE02C05EF401C05DF4840EE0
:1054A000F66E190EF76E070E0401636F00013FECF4
:1054B00011F0440EE96E0401626B616B5EC460F42E
:1054C0005DC45FF4010E636F000154DE910EF66E51
:1054D000190EF76E040E0401636F00013FEC11F02A
:1054E0000CEF32F0A80EF66E180EF76E2FEC11F0DE
:1054F000400E04016A6F0001C2EC11F0B80EF66EA6
:10550000180EF76E070E0401636F00013FEC11F0F7
:105510003FC05EF41B0E04015F6F0001FFEC17F04B
:10552000200E04016C6F000129EC11F0280E04011B
:105530006C6F000129EC11F03F50F80F3BE2080FAF
:10554000E8EF2AF0300E04016C6F000129EC11F035
:1055500031D0C40EF66E180EF76E2FEC11F02AD073
:10556000C80EF66E180EF76E2FEC11F023D0CC0E8D
:10557000F66E180EF76E2FEC11F01CD0D00EF66EF2
:10558000180EF76E2FEC11F015D0D40EF66E180E23
:10559000F76E2FEC11F00ED0D80EF66E180EF76ED7
:1055A0002FEC11F007D0DC0EF66E180EF76E2FEC14
:1055B00011F000D0DF0E04016C6F000129EC11F036
:1055C000290E04016C6F000129EC11F011EF32F08B
:1055D000E824F76AF736EB0FF66E550EF7220A004D
:1055E000F550FA6E0800F550F96E44555255605565
:1055F0006E557C558A559855A655020EF66E190EB5
:10560000F76E080E0401636F00013FEC11F085C1D5
:105610005EF4010E04015F6F0001FFEC17F02D0E28
:1056200004016C6F000129EC11F084C15EF4010EDD
:1056300004015F6F0001FFEC17F02D0E04016C6F89
:10564000000129EC11F083C15EF4010E04015F6FCB
:105650000001FFEC17F0400E04016A6F0001C2EC7C
:1056600011F01A0EF66E190EF76E040E0401636F38
:1056700000013FEC11F080C15EF4010E04015F6F88
:105680000001FFEC17F03A0E04016C6F000129ECE9
:1056900011F081C15EF4010E04015F6F0001FFECA7
:1056A00017F03A0E04016C6F000129EC11F082C171
:1056B0005EF4010E04015F6F0001FFEC17F02C0E89
:1056C000F66E190EF76E040E0401636F00013FECD5
:1056D00011F016EF32F04A0EF66E180EF76E2FEC40
:1056E00011F0400E04016A6F0001C2EC11F00501D7
:1056F000786B020E776F000169EC22F001C059F45B
:105700000501786B030E776F000169EC22F001C090
:105710005AF459C45CF401C05BF4100EE96E59C42C
:105720005EF401C05DF442EC18F02F0E04016C6FC2
:10573000000129EC11F0100EE96E04015E6F5D6B43
:10574000000142EC18F0630EF66E180EF76E050EAF
:105750000401636F00013FEC11F01BEF32F0F60E15
:10576000F66E170EF76E2FEC11F0400E04016A6F03
:105770000001C2EC11F0968284B210D0502C07D0F8
:10578000060EF66E180EF76E2FEC11F006D0180EFE
:10579000F66E180EF76E2FEC11F00FD0502C07D0CC
:1057A0002A0EF66E180EF76E2FEC11F006D03A0E98
:1057B000F66E180EF76E2FEC11F001017EA902D0E3
:1057C0007E997D8B000120EF32F04E2C31D0100EEF
:1057D000E96E36C05EF435C05DF442EC18F0060E9A
:1057E00004016A6F0001C2EC11F0100EE96E38C0BE
:1057F0005EF437C05DF442EC18F00C0E04016A6FE1
:105800000001C2EC11F0100EE96E3CC05EF43BC02A
:105810005DF442EC18F0400E04016A6F0001C2EC26
:1058200011F0E00EF66E180EF76E2FEC11F030D07E
:10583000080EE96E36C05EF435C05DF442EC18F037
:10584000060E04016A6F0001C2EC11F0080EE96E49
:1058500038C05EF437C05DF442EC18F00C0E040161
:105860006A6F0001C2EC11F0090EE96E3CC05EF4F3
:105870003BC05DF442EC18F0400E04016A6F000179
:10588000C2EC11F0F00EF66E180EF76E2FEC11F060
:1058900025EF32F06A0EF66E180EF76E0A0E04014E
:1058A000636F00013FEC11F0100EE96E42C05EF430
:1058B00041C05DF442EC18F0400E04016A6F000133
:1058C000C2EC11F0780EF66E180EF76E0A0E040197
:1058D000636F00013FEC11F0100EE96E44C05EF4FE
:1058E00043C05DF442EC18F02AEF32F03EC05EF4A3
:1058F0003DC05DF41DEC25F004016D6B6C6B200E5A
:105900006B6F7A0E6A6F03C071F402C070F401C04D
:105910006FF400C06EF4000123EC27F003C05CF4C8
:1059200002C05BF401C05AF400C059F4860EF66E52
:10593000180EF76E070E0401636F00013FEC11F0C3
:10594000C90EE96E5CC460F45BC45FF45AC45EF4D3
:1059500059C45DF4010E0401616F0001C0EC27F031
:10596000930EF66E180EF76E060E0401636F0001BB
:105970003FEC11F0400E04016A6F0001C2EC11F01F
:1059800040500A0DF3CF5DF404019A0EF66E180E26
:10599000F76E090E636F00013FEC11F05DC463F414
:1059A000180E0401646F0001EDEC12F0250E0401E5
:1059B0006C6F000129EC11F02FEF32F0DC0EF66E67
:1059C000170EF76E2FEC11F0400E04016A6F000104
:1059D000C2EC11F087C15EF41B0E04015F6F000181
:1059E000FFEC17F0EC0EF66E170EF76E080E0401C2
:1059F000636F00013FEC11F034EF32F0200E040130
:105A00005FA9300E606F5EC400F05EAF08D0001E6C
:105A1000002A00C05EF42D0E606F5F8F5F81015021
:105A20005EC487F5640E0501886F0001D7EC12F0A3
:105A300000C05EF4300E01240401616F5EC487F57E
:105A40000A0E0501886F0001D7EC12F0300E002419
:105A50000401636F300E0124626F60C400F0300EE9
:105A6000615D04E05F835FBF5F8512D05FB510D0DA
:105A700060C461F45FB304D0300E625D04E05F8106
:105A80005FBF5F8305D0D8A45F81D8B461C462F4DE
:105A90005FB505D05FB308D05FB10BD00FD060C445
:105AA0006CF4000129EC11F061C46CF4000129ECE4
:105AB00011F062C46CF4000129EC11F063C46CF4C1
:105AC000000129EC11F01200400E04016A6F000180
:105AD000C2EC11F0960EF66E190EF76E2FEC11F067
