:04000000ACEF2FF042
:080008006BEF00F000000000A6
:100010000000000000000000046ED8CF05F0E0CF23
:1000200006F00001E9CF0CF0EACF07F0E1CF08F0CD
:10003000E2CF09F0D9CF0AF0DACF0BF0F3CF12F00C
:10004000F4CF13F0FACF14F0F5CF15F0F6CF16F089
:10005000F7CF17F000C00EF001C00FF002C010F093
:1000600003C011F0A0A238EF00F0A1B248EF0AF0EF
:100070009DAA3EEF00F09EBA57EF0BF0A3AA44EF03
:1000800000F0A4BA7BEF0BF00EC000F00FC001F03F
:1000900010C002F011C003F00CC0E9FF07C0EAFF76
:1000A000078E08C0E1FF09C0E2FF0AC0D9FF0BC0FC
:1000B000DAFF12C0F3FF13C0F4FF14C0FAFF15C03B
:1000C000F5FF16C0F6FF17C0F7FF045006C0E0FFAB
:1000D00005C0D8FF1000196ED8CF1AF0E0CF1BF082
:1000E0000001E9CF21F0EACF1CF0E1CF1DF0E2CF13
:1000F0001EF0D9CF1FF0DACF20F0F3CF27F0F4CFE6
:1001000028F0FACF29F0F5CF2AF0F6CF2BF0F7CF71
:100110002CF000C023F001C024F002C025F003C081
:1001200026F09DA297EF00F09EB2B3EF0AF023C035
:1001300000F024C001F025C002F026C003F021C069
:10014000E9FF1CC0EAFF1C8E1DC0E1FF1EC0E2FFDC
:100150001FC0D9FF20C0DAFF27C0F3FF28C0F4FF7B
:1001600029C0FAFF2AC0F5FF2BC0F6FF2CC0F7FF0D
:1001700019501BC0E0FF1AC0D8FF1000F76A8C0F9F
:10018000F66E010EF7220900F55012001027E80361
:1001900064000A000100A40FF66E010EF7220900A8
:1001A000F550120000000000000000000000E6E929
:1001B000FFAB01887870E05F8D53094A76424C3C72
:1001C0002D37DC322B2FFA2B3029BC268E249C2293
:1001D000DC20471FD71D881C551B3B1A36194518B4
:1001E00065179516D3151E157314D4133E13B0124C
:1001F0002A12AC113411C2105710F00F8E0F310FAC
:10020000D80E840E320EE50D9A0D530D0E0DCD0C49
:100210008D0C500C160CDD0BA70B720B400B0F0B4B
:10022000DF0AB10A850A5A0A310A080AE109BB093C
:100230009709730950092F090E09EE08CF08B10874
:10024000940877085B08400825080C08F207DA07CD
:10025000C207AA0794077D07670752073D072907CA
:1002600015070107EE06DB06C906B706A6069406C3
:1002700083067306630653064306340625061606F0
:100280000806F905EC05DE05D005C305B605AA0587
:100290009D059105850579056D05620556054B059A
:1002A000400535052B05200516050C050205F8044B
:1002B000EF04E504DC04D204C904C004B804AF04AC
:1002C000A6049E0495048D0485047D0475046E04C3
:1002D00066045E0457044F04480441043A0433049E
:1002E0002C0425041E04180411040B040404FE034A
:1002F000F803F203EC03E603E003DA03D403CE03CE
:10030000C903C303BD03B803B303AD03A803A30329
:100310009D03980393038E038903840380037B0367
:10032000760371036D03680364035F035B03560385
:1003300052034E034903450341033D03390334038C
:1003400030032C032903250321031D03190315037F
:1003500012030E030A0307030303FF02FC02F80261
:10036000F502F202EE02EB02E702E402E102DE0233
:10037000DA02D702D402D102CE02CB02C802C502F1
:10038000C202BF02BC02B902B602B302B002AD02A1
:10039000AA02A802A502A2029F029D029A02970247
:1003A0009502920290028D028A02880285028302DF
:1003B00080027E027C02790277027402720270026D
:1003C0006D026B02690266026402620260025D02F3
:1003D0005B02590257025502530251024E024C026F
:1003E0004A02480246024402420240023E023C02E5
:1003F0003A02380236023402330231022F022D0251
:100400002B022902270225022402220220021E02B8
:100410001D021B0219021702160214021202110217
:100420000F020D020C020A02080207020502030273
:1004300002020002FF01FD01FC01FA01F901F701CE
:10044000F501F401F201F101EF01EE01ED01EB0123
:10045000EA01E801E701E501E401E301E101E0016E
:10046000DE01DD01DC01DA01D901D801D601D501B7
:10047000D401D201D101D001CE01CD01CC01CB01FB
:10048000C901C801C701C601C401C301C201C1013C
:10049000C001BE01BD01BC01BB01BA01B801B70179
:1004A000B601B501B401B301B201B001AF01AE01B3
:1004B000AD01AC01AB01AA01A901A801A701A501E9
:1004C000A401A301A201A101A0019F019E019D0120
:1004D0009C019B019A019901980197019601950150
:1004E000940193019201910190018F018E018D0180
:1004F0008C018B018A018A018901880187018601AB
:1005000085018401830182018101800180017F01D5
:100510007E017D017C017B017A01790179017801FD
:100520007701760175017401740173017201710123
:1005300070016F016F016E016D016C016B016B0148
:100540006A0169016801680167016601650164016A
:100550006401630162016101610160015F015E018B
:100560005E015D015C015C015B015A0159015901A9
:1005700058015701560156015501540154015301C8
:10058000520152015101500150014F014E014E01E3
:100590004D014C014C014B014A014A0149014801FE
:1005A0004801470146014601450144014401430118
:1005B000430142014101410140013F013F013E0130
:1005C0003E013D013C013C013B013B013A01390147
:1005D000390138013801370137013601350135015C
:1005E0003401340133013301320131013101300171
:1005F00030012F012F012E012E012D012C012C0184
:100600002B012B012A012A01290129012801280196
:1006100027012701260126012501250124012301A7
:1006200023012201220121012101200120011F01BA
:100630001F011E011E011D011D011D011C011C01C8
:100640001B011B011A011A011901190118011801D6
:1006500017011701160116011501150114011401E6
:1006600014011301130112011201110111011001F2
:10067000100110010F010F010E010E010D010D01FE
:100680000C010C010C010B010B010A010A0109010B
:100690000901090108010801070107010701060115
:1006A0000601050105010401040104010301030120
:1006B000020102010201010101010001000100012A
:1006C000FF00FF00FE00FE00FE00FD00FD00FD003B
:1006D000FC00FC00FB00FB00FB00FA00FA00FA0043
:1006E000F900F900F800F800F800F700F700F7004B
:1006F000F600F600F500F500F500F400F400F40053
:10070000F300F300F300F200F200F200F100F10058
:10071000F100F000F000EF00EF00EF00EE00EE005F
:10072000EE00ED00ED00ED00EC00EC00EC00EB0065
:10073000EB00EB00EA00EA00EA00E900E900E9006A
:10074000E800E800E800E700E700E700E700E6006F
:10075000E600E600E500E500E500E400E400E40072
:10076000E300E300E300E200E200E200E200E10077
:10077000E100E100E000E000E000DF00DF00DF007A
:10078000DE00DE00DE00DE00DD00DD00DD00DC007E
:10079000DC00DC00DC00DB00DB00DB00DA00DA0080
:1007A000DA00DA00D900D900D900D800D800D80082
:1007B000D800D700D700D700D600D600D600D60084
:1007C000D500D500D500D500D400D400D400D30086
:1007D000D300D300D300D200D200D200D200D10087
:1007E000D100D100D100D000D000D000D000CF0087
:1007F000CF00CF00CE00CE00CE00CE00CD00CD0089
:10080000CD00CD00CC00CC00CC00CC00CB00CB0088
:10081000CB00CB00CA00CA00CA00CA00C900C90088
:10082000C900C900C900C800C800C800C800C70086
:10083000C700C700C700C600C600C600C600C50086
:10084000C500C500C500C400C400C400C400C40085
:10085000C300C300C300C300C200C200C200C20084
:10086000C200C100C100C100C100C000C000C00082
:10087000C000C000BF00BF00BF00BF00BE00BE0080
:10088000BE00BE00BE00BD00BD00BD00BD00BC007E
:10089000BC00BC00BC00BC00BB00BB00BB00BB007C
:1008A000BB00BA00BA00BA00BA00BA00B900B90079
:1008B000B900B900B800B800B800B800B800B70077
:1008C000B700B700B700B700B600B600B600B60074
:1008D000B600B500B500B500B500B500B400B40071
:1008E000B400B400B400B400B300B300B300B3006C
:1008F000B300B200B200B200B200B200B100B10069
:10090000B100B100B100B000B000B000B000B00064
:10091000B000AF00AF00AF00AF00AF00AE00AE0060
:10092000AE00AE00AE00AE00AD00AD00AD00AD005B
:10093000AD00AC00AC00AC00AC00AC00AC00AB0057
:10094000AB00AB00AB00AB00AB00AA00AA00AA0052
:10095000AA00AA00A900A900A900A900A900A9004D
:10096000A800A800A800A800A800A800A700A70049
:10097000A700A700A700A700A600A600A600A60043
:10098000A600A600A500A500A500A500A500A5003D
:10099000A400A400A400A400A400A400A300A30039
:1009A000A300A300A300A300A300A200A200A20032
:1009B000A200A200A200A100A100A100A100A1002C
:1009C000A100A000A000A000A000A000A000A00026
:1009D0009F009F009F009F009F009F009E009E0021
:1009E0009E009E009E009E009E009D009D009D001A
:1009F0009D009D009D009D009C009C009C009C0013
:100A00009C009C009C009B009B009B009B009B000B
:100A10009B009B009A009A009A009A009A009A0004
:100A20009A009900990099009900990099009900FD
:100A300098009800980098009800980098009700F7
:100A400097009700970097009700970096009600F0
:100A500096009600960096009600960095009500E8
:100A600095009500950095009500940094009400E1
:100A700094009400940094009400930093009300D9
:100A800093009300930093009200920092009200D2
:100A900092009200920092009100910091009100CA
:100AA00091009100910091009000900090009000C2
:100AB00090009000900090008F008F008F008F00BA
:100AC0008F008F008F008F008E008E008E008E00B2
:100AD0008E008E008E008E008E008D008D008D00A9
:100AE0008D008D008D008D008D008C008C008C00A1
:100AF0008C008C008C008C008C008B008B008B0099
:100B00008B008B008B00140FF66E0B0EF722090082
:100B1000F55012000000030003000400040005006B
:100B2000050006000600070007000800080008008E
:100B3000090009000A000A000B000B000C000C0061
:100B40000D000D000E000E000E000F000F00100033
:100B50001000110011001200120013001300130006
:100B600014001400150015001600160017001700D9
:100B7000180018001900190019001A001A001B00AB
:100B80001B001C001C001D001D001E001E001F007D
:100B90001F001F0020002000210021002200220051
:100BA0002300230024002400250025002500260022
:100BB00026002700270028002800290029002A00F5
:100BC0002A002A002B002B002C002C002D002D00C9
:100BD0002E002E002F002F0030003000300031009A
:100BE000310032003200330033003400340035006D
:100BF0003500360036003600370037003800380040
:100C0000390039003A003A003B003B003B003C0011
:100C10003C003D003D003E003E003F003F004000E4
:100C200040004100410041004200420043004300B7
:100C30004400440045004500460046004700470088
:100C4000470048004800490049004A004A004B005C
:100C50004B004C004C004D004D004D004E004E002E
:100C60004F004F0050005000510051005200520000
:100C700052005300530054005400550055005600D4
:100C800056005700570058005800580059005900A6
:100C90005A005A005B005B005C005C005D005D0078
:100CA0005E005E005E005F005F006000600061004B
:100CB000610062006200630063006300640064001E
:100CC00065006500660066006700670068006800F0
:100CD0006900690069006A006A006B006B006C00C3
:100CE0006C006D006D006E006E006F006F006F0095
:100CF0007000700071007100720072007300730068
:100D00007400740075007500750076007600770039
:100D1000770078007800790079007A007A007A000C
:100D20007B007B007C007C007D007D007E007E00DF
:100D30007F007F00800080008000810081008200B1
:100D40008200830083008400840085008500860083
:100D50008600860087008700880088008900890057
:100D60008A008A008B008B008B008C008C008D0029
:100D70008D008E008E008F008F00900090009100FB
:100D800091009100920092009300930094009400CF
:100D900095009500960096009700970097009800A0
:100DA0009800990099009A009A009B009B009C0073
:100DB0009C009D009D009D009E009E009F009F0046
:100DC000A000A000A100A100A200A200A200A30018
:100DD000A300A400A400A500A500A600A600A700EB
:100DE000A700A800A800A800A900A900AA00AA00BE
:100DF000AB00AB00AC00AC00AD00AD00AE00AE008F
:100E0000AE00AF00AF00B000B000B100B100B20062
:100E1000B200B300B300B400B400B400B500B50034
:100E2000B600B600B700B700B800B800B900B90006
:100E3000B900BA00BA00BB00BB00BC00BC00BD00DA
:100E4000BD00BE00BE00BF00BF00BF00C000C000AC
:100E5000C100C100C200C200C300C300C400C4007E
:100E6000C500C500C500C600C600C700C700C80051
:100E7000C800C900C900CA00CA00CA00CB00CB0024
:100E8000CC00CC00CD00CD00CE00CE00CF00CF00F6
:100E9000D000D000D000D100D100D200D200D300C9
:100EA000D300D400D400D500D500D600D600D6009B
:100EB000D700D700D800D800D900D900DA00DA006E
:100EC000DB00DB00DC00DC00DC00DD00DD00DE0040
:100ED000DE00DF00DF00E000E000E100E100E10013
:100EE000E200E200E300E300E400E400E500E500E6
:100EF000E600E600E700E700E700E800E800E900B8
:100F0000E900EA00EA00EB00EB00EC00EC00ED0089
:100F1000ED00ED00EE00EE00EF00EF00F000F0005D
:100F2000F100F100F200F200F200F300F300F4002F
:100F3000F400F500F500F600F600F700F700F80001
:100F4000F800F800F900F900FA00FA00FB00FB00D5
:100F5000FC00FC00FD00FD00FE00FE00FE00FF00A6
:100F6000FF00000100010101010102010201030172
:100F70000301040104010401050105010601060144
:100F800007010701080108010901090109010A0116
:100F90000A010B010B010C010C010D010D010E01E9
:100FA0000E010F010F010F011001100111011101BC
:100FB000120112011301130114011401150115018D
:100FC0001501160116011701170118011801190161
:100FD00019011A011A011A011B011B011C011C0134
:100FE0001D011D011E011E011F011F012001200105
:100FF00020012101210122012201230123012401D9
:1010000024012501250126012601260127012701AA
:1010100028012801290129012A012A012B012B017C
:101020002C012C012C012D012D012E012E012F014F
:101030002F01300130013101310131013201320122
:1010400033013301340134013501350136013601F4
:1010500037013701370138013801390139013A01C7
:101060003A013B013B013C013C013D013D013D0199
:101070003E013E013F013F0140014001410141016C
:10108000420142014201430143014401440145013F
:101090004501460146014701470148014801480111
:1010A000490149014A014A014B014B014C014C01E4
:1010B0004D014D014E014E014E014F014F015001B6
:1010C0005001510151015201520153015301540188
:1010D000540154015501550156015601570157015C
:1010E000580158015901590159015A015A015B012E
:1010F0005B015C015C015D015D015E015E015F0100
:101100005F015F01600160016101610162016201D3
:1011100063016301640164016501650165016601A4
:1011200066016701670168016801690169016A0177
:101130006A016B016B016B016C016C016D016D014A
:101140006E016E016F016F0170017001700171011C
:1011500071017201720173017301740174017501EF
:1011600075017601760176017701770178017801C2
:10117000790179017A017A017B017B017C017C0193
:101180007C017D017D017E017E017F017F01800167
:10119000800181018101810182018201830183013A
:1011A000840184018501850186018601870187010B
:1011B000870188018801890189018A018A018B01DF
:1011C0008B018C018C018D018D018D018E018E01B1
:1011D0008F018F0190019001910191019201920183
:1011E0009301930193019401940195019501960156
:1011F0009601970197019801980198019901990129
:101200009A019A019B019B019C019C019D019D01FA
:101210009E019E019E019F019F01A001A001A101CD
:10122000A101A201A201A301A301A401A401A4019F
:10123000A501A501A601A601A701A701A801A80172
:10124000A901A901A901AA01AA01AB01AB01AC0145
:10125000AC01AD01AD01AE01AE01AF01AF01AF0117
:10126000B001B001B101B101B201B201B301B301EA
:10127000B401B401B501B501B501B601B601B701BC
:10128000B701B801B801B901B901BA01BA01BB018E
:10129000BB01BB01BC01BC01BD01BD01BE01BE0162
:1012A000BF01BF01C001C001C001C101C101C20134
:1012B000C201C301C301C401C401C501C501C60106
:1012C000C601C601C701C701C801C801C901C901DA
:1012D000CA01CA01CB01CB01CC01CC01CC01CD01AB
:1012E000CD01CE01CE01CF01CF01D001D001D1017E
:1012F000D101D101D201D201D301D301D401D40152
:10130000D501D501D601D601D701D701D701D80122
:10131000D801D901D901DA01DA01DB01DB01DC01F5
:10132000DC01DD01DD01DD01DE01DE01DF01DF01C8
:10133000E001E001E101E101E201E201E301E30199
:10134000E301E401E401E501E501E601E601E7016D
:10135000E701E801E801E801E901E901EA01EA0140
:10136000EB01EB01EC01EC01ED01ED01EE01EE0111
:10137000EE01EF01EF01F001F001F101F101F201E5
:10138000F201F301F301F401F401F401F501F501B7
:10139000F601F601F701F701F801F801F901F90189
:1013A000F901FA01FA01FB01FB01FC01FC01FD015D
:1013B000FD01FE01FE01FF01FF01FF01000200022D
:1013C00001020102020202020302030204020402F9
:1013D00005020502050206020602070207020802CC
:1013E0000802090209020A020A020B020B020B029E
:1013F0000C020C020D020D020E020E020F020F0271
:101400001002100210021102110212021202130243
:101410001302140214021502150216021602160215
:101420001702170218021802190219021A021A02E8
:101430001B021B021C021C021C021D021D021E02BA
:101440001E021F021F02200220022102210222028C
:101450002202220223022302240224022502250260
:101460002602260227022702270228022802290232
:1014700029022A022A02F76A860FF66E140EF72254
:101480000900F550120032322D4D61722D313800B5
:10149000B10EB36EE00EB26E81CF57F1D89003015A
:1014A000E4350501576F0301E5350501586F000E5E
:1014B000010157AB010E0501571357C5E4F30501B0
:1014C0005851E0090301E56FE45309E1E551F008E3
:1014D00006E10101568755811E0E5E6F0301D8900B
:1014E000E6350501576F0301E7350501586F000E1A
:1014F000010157AD010E0501571357C5E6F305016C
:101500005851E0090301E76FE65309E1E751F0089C
:1015100006E10101568955811E0E5E6F0301D890C8
:10152000E8350501576F0301E9350501586F000ED5
:10153000010157AF010E0501571357C5E8F3050127
:101540005851E0090301E96FE85309E1E951F00856
:1015500006E10101568555811E0E5E6F0301A192C1
:10156000000144EF00F00301EA2BEA51640804E1B2
:10157000EA6B0101558D03014A2C42D0938005018D
:101580005A9381B05A835AB30FD00301EDB102D000
:1015900005010AD00101632BD8B4642B3B2AD8B4CF
:1015A0003C2A392AD8B43A2A0301ED9105015AA3FD
:1015B00003D00301ED8105010301EB2BD8B4EC2B23
:1015C000EB5110081CE1EC51270819E1EC6BEB6BB7
:1015D00064C136F063C135F00101646B636B385050
:1015E000365C04E307E13550375C04E3373C06D052
:1015F000383C04D036C038F035C037F0030147D04E
:1016000005015AA10CD00101613D05D0623D03D016
:10161000050105D00101612BD8B4622B050193802F
:101620005A9381B05A835AB329D00301EDB102D045
:10163000050124D03B2AD8B43C2A392AD8B43A2A06
:10164000EDA313D005015A9162C136F061C135F0A6
:101650003650385C08E303E13750355C04E236C0AD
:1016600038F035C037F00301ED93EDB307D0010139
:10167000626B616B05015A810301ED830301ED91FA
:1016800005015AA303D00301ED81050103019E92D8
:10169000000197EF00F09EAAFED7ABCF34F0AECF9B
:1016A00001F034A202D0AB98AB885AEF0BF0D06BAC
:1016B000CF6BF1D701C057F5CE530EE1CD517F0866
:1016C0000BE34D0ECD25E96E000ECE21EA6E57C517
:1016D000EFFFCD2BD8B4CE2B9E9A44EF00F0A4AAF6
:1016E000FED76BCF34F06ECF01F034A202D06B98EE
:1016F0006B887CEF0BF0F3D701C057F5A49A44EF49
:1017000000F0232044617461666C6173682070612D
:10171000676520726561642066726F6D20256C7547
:101720000D0A00000D0A00000D0A2320446F6E65AB
:101730000D0A00002320696E697469616C697A6919
:101740006E67206C6F6767696E670D0A00005265EF
:1017500073657474696E67204C6F67210000446F75
:101760006E6500003E20646F6E650D0A0000232048
:10177000706C6179696E67206C6F670D0A003E209E
:10178000646F6E650D0A0000232044756D70696EEC
:1017900067206C6F670D0A003E20646F6E650D0A4E
:1017A000000050616765205265713A202530356C24
:1017B0007500204E2050616765733A202530356CE6
:1017C0007500556E697420557074696D653A000036
:1017D000256C75206D696E75746573005769726547
:1017E0006C657373206F6E3A000025752073656316
:1017F0006F6E64730000534420436172642053741D
:10180000617475733A004C6F6767696E67202831A1
:1018100030207365632900004C6F6767696E67202D
:10182000283630207365632900004E6F742072657E
:10183000616479212028313029004E6F742072654F
:1018400061647921202836302900496E7465726EF2
:10185000616C204D656D6F72793A0000256C752FB3
:10186000256C752066756C6C0000496E7075743A55
:101870002025302E316C6620766F6C7473004261C7
:1018800074746572793A20256425250057696E6461
:1018900020446972656374696F6E3A0053656374BE
:1018A0006F72202575202800343500003930000083
:1018B00031333500313830003232350032373000C4
:1018C000333135004628487A2920464D617820205A
:1018D000436E7400542020202020546D696E2043F4
:1018E0006F756E740000446174653A2032302530A3
:1018F00032752D253032752D2530327500004E6F32
:101900007720253032753A253032753A25303275D8
:101910002055544300004669726D77617265205608
:10192000657273696F6E3A0031323A31343A32304F
:10193000000053706565643A202530322E316620F0
:101940006D2F7300477573743A20202530322E3185
:1019500066206D2F730053706565643A202530341E
:101960002E3177206D2F7300477573743A20202530
:1019700030342E3177206D2F730050726576202021
:101980005365742020204E65787400002D2020209F
:1019900020205365742020202020202B00002D20A3
:1019A000202020204E65787420202020202B00004D
:1019B0004E4F202020205945530050726576204517
:1019C0006E74657220204E657874000057726F74D3
:1019D000652044656661756C7420534E0000536544
:1019E0007474696E6720534E2E2E2E0053657269F3
:1019F000616C3A202563000057726F746520534E66
:101A00000000202D2048572054595045202D2000FB
:101A100052444C20202020202020202052444C558D
:101A2000000057726F746520485720547970650024
:101A3000202D20414E454D4F2054595045202D20FA
:101A400000002334304843202020202020544849DF
:101A50004553000057726F746520416E656D6F20AD
:101A6000547970650000202D205344204C4F4720AE
:101A700052415445202D20003630207365632020CC
:101A80002020313020736563000057726F74652029
:101A90005344207261746500446174653A203230A9
:101AA000253032642D253032642D2530326400001B
:101AB00054696D653A20253032643A253032643AF3
:101AC00025303264000072646C285529000072646D
:101AD0006C556E690000756E6B6E6F776E2100003D
:101AE0002023343048430000205448494553000027
:101AF00020554E4B4E4F574E0000557020696E20BA
:101B000025752049443D2563256C75200000232060
:101B1000555020494E202575205345434F4E445380
:101B20000D0A0000232072644C6F67676572556E62
:101B30006976657273616C202573202832302530F8
:101B400032752D253032752D2530327529202873B8
:101B5000657269616C202563256C75292028686190
:101B6000726477617265202575292028616E656D24
:101B70006F6D65746572202575290D0A000032327B
:101B80002D4D61722D3138005072657373206D696F
:101B900064646C650000627574746F6E20746F20ED
:101BA000636C65617200639A9598958A959C300E76
:101BB000636EC00E646E95968C8695948C8400003E
:101BC00070EF10F09486948871EF10F0050EEA6EB5
:101BD0004D0EE96EEF500DE0020E016E006A002E10
:101BE000FED7012EFBD7970E006E002EFED7EF2EEC
:101BF000F3D7120097968E8697968E961200040160
:101C000050BF02D08E9E01D08E8E979E50BD02D0C6
:101C10008E9C01D08E8C979C50BB02D08E9A01D0A6
:101C20008E8A979A50B902D08E9801D08E88979854
:101C30000001E0DF040150B702D08E9E01D08E8EED
:101C4000979E50B502D08E9C01D08E8C979C50B33D
:101C500002D08E9A01D08E8A979A50B102D08E9877
:101C600001D08E8897980001C5DF1A0E006E002EF5
:101C7000FED7000012000F0E05014D6F0001A6DF18
:101C800097928E9297948E94979E8E9E979C8E9C00
:101C9000979A8E8A97988E88ADDF050E05014D6F55
:101CA000000194DFA7DF420E006E002EFED7000079
:101CB000A1DF050E05014D6F000188DF97988E9812
:101CC00099DF1A0E006E002EFED70000280E0401C8
:101CD000506F000194DF0C0E0401506F00018FDF84
:101CE000060E0401506F00018ADF010E0401506FDF
:101CF000000185DF72EF10F0080E016E00008B9678
:101D000094960000050156378B98D8B09488D8A0D7
:101D10009498948682A6FED7012E01D002D00001AD
:101D2000EDD700008B969496000094880000000088
:101D3000948682A6FED7016A000082B801808B9645
:101D400094968B98949800011200948800009486D1
:101D500000008B98949800008B969496D00E050105
:101D6000566F0001C9DF01500401529101B0528148
:101D700052A102D00001E9D750C456F50001BCDFE2
:101D800051C456F5B9DF94980000948682A6FED718
:101D9000000000D00000948800001200070E04012B
:101DA000506F100E516F0001D0DF73EF10F0080E6E
:101DB0000501546F00C055F594880000948682A6F2
:101DC000FED782B8D88082A8D890013600009496B9
:101DD0008B96542FF1D7948800008B985551D8A436
:101DE00094980000948682A6FED700008B96949665
:101DF00000008B989498000112009488000094864B
:101E000000008B98949800008B969496D00E050154
:101E1000566F000171DF01500108EFE050C456F524
:101E20006BDF948800009486000082A6FED78B9812
:101E3000949800008B969496D10E0501566F000180
:101E40005BDF01500108EDE0006AB1DF01C051F431
:101E500094980000948682A6FED7000000D000006F
:101E600094880000040151C401F000011200040133
:101E70005139526F0F0E521751510F0B536F525170
:101E80000A0DF3505325016E000112000401506B3E
:101E9000516B00015ADF060E0401506F0A0E516F9C
:101EA000000153DF050E0401506F010E516F000158
:101EB0004CDF040E0401506F010E516F000145DF2D
:101EC000020E0401506F516B00013FDF010E04014F
:101ED000506F516B000139DF81EF10F0720ED36E3D
:101EE000D350C150C00B0B09C16EC050C00B0709C5
:101EF000C06EC08EC280010155935595559755818E
:101F00005599559B5681559D559F5695569756996F
:101F100081CF57F11E0E5E6F366A356A38683768B2
:101F20003C6A3B6A3A6A396A646B636B040EEA6E18
:101F3000300EE96E000E00013BEC0AF00A000900C9
:101F4000F550EE6E0009FBE1300E0401305D0A0D24
:101F5000F3CF46F0300E315D462633514A080FE18B
:101F60003451410803E1010E456E08D035514E0849
:101F700003E1060E456E02D0070E456E37D0335191
:101F8000410809E13451500803E1040E456E02D0C6
:101F9000080E456E2BD033514D0809E135515208DA
:101FA00003E1030E456E02D0050E456E1FD033517E
:101FB000460803E1020E456E19D03351530803E180
:101FC000090E456E13D033514F0803E10A0E456EDA
:101FD0000DD033514E0803E10B0E456E07D033513F
:101FE000440803E10C0E456E01D04568300E375DA4
:101FF0000A0DF3CF44F0300E385D4426486A476A34
:102000004C900001CE6BCD6BD069CF69D269D1699C
:1020100001015491F2CF50F4F29CF29EAA6A100E84
:10202000A96EA69CA69EA680A850040150BDF28C65
:1020300050BFF28E416EF2CF50F4F29CF29EAA6A2B
:10204000110EA96EA69CA69EA680A85050BDF28C2B
:1020500050BFF28E426EF2CF50F4F29CF29EAA6A0A
:10206000120EA96EA69CA69EA680A85050BDF28C0A
:1020700050BFF28E436EF2CF50F4F29CF29EAA6AE9
:10208000130EA96EA69CA69EA680A85050BDF28CE9
:1020900050BFF28E496EF2CF50F4F29CF29EAA6AC3
:1020A000140EA96EA69CA69EA680A85050BDF28CC8
:1020B00050BFF28E4A6EF2CF50F4F29CF29EAA6AA2
:1020C000150EA96EA69CA69EA680A85050BDF28CA7
:1020D00050BFF28E4B6E0301D969D869000163D5F8
:1020E00071D5C9D55BD6060E0401506F000185DE9F
:1020F00001C050F401C051F4BADE0150040801E3FC
:10210000C5D6000E0509CA6E310ECB6E850EB16EB6
:102110009D8AA38AF19EC00EF21233EF30F00401C3
:10212000335101015F5D02E233C45FF1969A8D9AEB
:102130000001120097928E92010E0401506F00016F
:102140005EDD020E05014D6F000140DD1200979229
:102150008E8244C450F453DD12000900F5520CE0A5
:10216000F6CF3FF4F7CF40F4F5CF44F4F0DF3FC4AF
:10217000F6FF40C4F7FFF1D712000900F6CF3AF49A
:10218000F7CF3BF4F5CF44F4E2DF3AC4F6FF3BC4AB
:10219000F7FF0401392F01D002D00001EED7000172
:1021A0001200EFC3EAFFEEC3E9FF050155C5EFFFDB
:1021B000E92AD8B4EA2AEF6A0301EE2BD8B4EF2B50
:1021C00000011200EACF54F5E9CF53F505014D396E
:1021D000F0094F6F4F27E20F506F320F526F4D5182
:1021E0000F0B502750275227E90F516F51275127C6
:1021F0004C390F0B5127522751375237521F523744
:102200004C510F0B52274F37070E4E6F0A0E5107D6
:102210005227FDE350075127FDE34F075027FDE309
:102220004E074F27FDE3050EEA6E4E0EE96E070ED0
:102230005315539DE926520EE95CD8B4538DEF50E7
:10224000006E08E153BD06D053B915D053B702D084
:10225000200E03D053875399300E0026EACF4DF558
:10226000E9CF4CF500C055F500019BDF4DC5EAFFF5
:102270004CC5E9FF0501EE5053ADDDD7000112005A
:1022800097928E92800E04014025416F506F00019D
:10229000B6DC1200400E0401406F0001F1DF8C0E2D
:1022A000F66E190EF76E59DF1200EF520FE0EACF0B
:1022B00040F4E9CF3FF4EFCF44F449DF40C4EAFFF4
:1022C0003FC4E9FFE92AD8B4EA2AEFD79AEF11F020
:1022D00097928E923FC450F492DC1A0E006E002E3C
:1022E000FED70000120005014F515103F3CF01F05A
:1022F000F4CF00F05203F350002650515103F35035
:102300000020026E00011200040E0301EF6F390E6F
:10231000EE6F080EE96EDDC34DF5DCC34CF5000130
:1023200051DFB8DFE2C340F4ABDF040EEA6E390ED2
:10233000E96EBBD70301E251E32504013F6F406F13
:1023400000019EDF0E0E04013F6F0001C1DF01019D
:1023500056A549D05695036A0301E351390FE96E3A
:10236000040E0320EA6EEF50350807E1E35305E160
:10237000500EDC5FC30EDD5B34D0036AE351390FCE
:10238000E96E040E0320EA6EEF5039081DE1D89083
:10239000E335036A0001BEEC00F00900F5CF03F05D
:1023A00004013F6F03C040F403C050F5E8CF4FF580
:1023B0000501526B090E516F000195DF01500301B9
:1023C000DC5F0250DD5B0DD0D890E335036A00017D
:1023D000BEEC00F00900F5CF03F00301DC27035049
:1023E000DD230101558156A749D05697036A0301A1
:1023F000E351390FE96E040E0320EA6EEF50300806
:1024000007E1E35305E1500EDC27C30EDD2334D092
:10241000036AE351390FE96E040E0320EA6EEF50B0
:1024200030081DE1D890E335036A0001BEEC00F0EE
:102430000900F5CF03F004013F6F03C040F403C06F
:1024400050F5E8CF4FF50501526B090E516F0001B1
:102450004ADF01500301DC270250DD230DD0D89064
:10246000E335036A0001BEEC00F00900F5CF03F08C
:102470000301DC5F0350DD5B0101558156A905D0E6
:1024800056990301E32B010155810301E35105082E
:1024900009E10C0E04013F6F00011ADF010E016E0D
:1024A00003D00301000E016E000167EF13F0040179
:1024B0003053D8B497D0AA6A100EA96E520EA86EE7
:1024C000A69CA69EA684F250006EF29CF29E0F017E
:1024D000550EA76EAA0EA76EA682A6B2FED7A69428
:1024E0000050F212AA6A110EA96EA86AA69CA69EB6
:1024F000A684F2CF00F0F29CF29E550EA76EAA0EB3
:10250000A76EA682A6B2FED7A6940050F212AA6ABF
:10251000120EA96EA86AA69CA69EA684F2CF00F011
:10252000F29CF29E550EA76EAA0EA76EA682A6B2C8
:10253000FED7A6940050F212AA6A130EA96E020EDC
:10254000A86EA69CA69EA684F2CF00F0F29CF29EF6
:10255000550EA76EAA0EA76EA682A6B2FED7A694A7
:102560000050F212AA6A140EA96EA86AA69CA69E32
:10257000A684F2CF00F0F29CF29E550EA76EAA0E32
:10258000A76EA682A6B2FED7A6940050F212AA6A3F
:10259000150EA96EA86AA69CA69EA684F2CF00F08E
:1025A000F29CF29E550EA76EAA0EA76EA682A6B248
:1025B000FED7A6940050F2120001BCDDCC0EF66EE0
:1025C000190EF76ECADD040E0401396FFA0E05010B
:1025D0004D6F0001E6EC0DF00401392FF7D7000133
:1025E000A9DD0401F2CF39F4F29CF29EAA6A100E22
:1025F000A96EA69CA69EA680A85039BDF28C39BFB4
:10260000F28E316FF2CF39F4F29CF29EAA6A110E6B
:10261000A96EA69CA69EA680A85039BDF28C39BF93
:10262000F28E3A6FF2CF3BF4F29CF29EAA6A120E3F
:10263000A96EA69CA69EA680A8503BBDF28C3BBF6F
:10264000F28E3C6F3AC433F43CC432F40101569725
:102650005695569900016EDDDE0EF66E190EF76E78
:102660007CDD0A0E0401396FFA0E05014D6F000181
:10267000E6EC0DF00401392FF7D733C4DDF332C493
:10268000DCF30301E36B090EE26F0401386937697B
:1026900004000301DC510401375D05E10301DD5154
:1026A0000401385D12E0000145DDEC0EF66E190EF6
:1026B000F76E080E0401396F00015FDD31C444F488
:1026C00046DDDDC338F4DCC337F400011DD601520A
:1026D00005E0DDC333F4DCC332F403D00401D8D702
:1026E0000001AA6A100EA96E520EA86EA69CA69EA4
:1026F000A684F250006EF29CF29E0F01550EA76E5A
:10270000AA0EA76EA682A6B2FED7A6940050F21219
:1027100033C439F4AA6A110EA96E33C4A8FFA69C6B
:10272000A69EA684F2CF00F0F29CF29E550EA76EF4
:10273000AA0EA76EA682A6B2FED7A6940050F212E9
:1027400032C439F4AA6A120EA96E32C4A8FFA69C3C
:10275000A69EA684F2CF00F0F29CF29E550EA76EC4
:10276000AA0EA76EA682A6B2FED7A6940050F212B9
:10277000AA6A130EA96E34C4A8FFA69CA69EA684BE
:10278000F2CF00F0F29CF29E550EA76EAA0EA76E35
:10279000A682A6B2FED7A6940050F212AA6A140E20
:1027A000A96E35C4A8FFA69CA69EA684F2CF00F011
:1027B000F29CF29E550EA76EAA0EA76EA682A6B236
:1027C000FED7A6940050F212F2CF39F4F29CF29E9A
:1027D000AA6A100EA96EA69CA69EA680A850040107
:1027E00039BDF28C39BFF28E416EF2CF39F4F29CD2
:1027F000F29EAA6A110EA96EA69CA69EA680A8505B
:1028000039BDF28C39BFF28E426EF2CF39F4F29CB0
:10281000F29EAA6A120EA96EA69CA69EA680A85039
:1028200039BDF28C39BFF28E436EF2CF39F4F29C8F
:10283000F29EAA6A130EA96EA69CA69EA680A85018
:1028400039BDF28C39BFF28E496EF2CF39F4F29C69
:10285000F29EAA6A140EA96EA69CA69EA680A850F7
:1028600039BDF28C39BFF28E4A6E000163DCF80E7E
:10287000F66E190EF76E71DC040E0401396FFA0E54
:1028800005014D6F0001E6EC0DF00401392FF7D77B
:10289000000150DC0401406B0001F2DC020EF66E18
:1028A0001A0EF76E5ADC400E0401406F0001E8DC9E
:1028B000100EF66E1A0EF76E50DC010156A901D00B
:1028C000569956A506D05695020E0401346F10D0C5
:1028D000010156A704D056970401346B09D0140E99
:1028E00005014D6F0001E6EC0DF00400D3D70401A3
:1028F000AA6A130EA96E34C4A8FFA69CA69EA6843D
:10290000F250006EF29CF29E0F01550EA76EAA0EB9
:10291000A76EA682A6B2FED7A6940050F212F2CFFE
:1029200039F4F29CF29EAA6A130EA96EA69CA69E8A
:10293000A680A850040139BDF28C39BFF28E496ED1
:1029400000019AEC10F0220EF66E1A0EF76E05DCFE
:10295000040E0401396FFA0E05014D6F0001E6EC1B
:102960000DF00401392FF7D700019AEC10F00401A3
:10297000406B000185DC300EF66E1A0EF76EADEC82
:1029800010F0400E0401406F00017ADC420EF66E3A
:102990001A0EF76EADEC10F0010156A901D0569950
:1029A00056A506D05695010E0401356F10D00101D1
:1029B00056A704D056970401356B09D0140E0501B3
:1029C0004D6F0001E6EC0DF00400D1D70401AA6AB6
:1029D000140EA96E35C4A8FFA69CA69EA684F2502C
:1029E000006EF29CF29E0F01550EA76EAA0EA76E06
:1029F000A682A6B2FED7A6940050F212F2CF39F406
:102A0000F29CF29EAA6A140EA96EA69CA69EA680AF
:102A1000A850040139BDF28C39BFF28E4A6E000114
:102A20009AEC10F0540EF66E1A0EF76EADEC10F034
:102A3000040E0401396FFA0E05014D6F0001E6EC3A
:102A40000DF00401392FF7D700019AEC10F00401C2
:102A5000406B000115DC660EF66E1A0EF76EADECDB
:102A600010F0400E0401406F00010ADC780EF66E93
:102A70001A0EF76EADEC10F0010156A901D056996F
:102A800056A506D05695010E0401366F10D00101EF
:102A900056A704D056970401366B09D0140E0501D1
:102AA0004D6F0001E6EC0DF00400D1D70401AA6AD5
:102AB000150EA96E36C4A8FFA69CA69EA684F25049
:102AC000006EF29CF29E0F01550EA76EAA0EA76E25
:102AD000A682A6B2FED7A6940050F212F2CF39F425
:102AE000F29CF29EAA6A150EA96EA69CA69EA680CE
:102AF000A850040139BDF28C39BFF28E4B6E000133
:102B00009AEC10F08A0EF66E1A0EF76EADEC10F01D
:102B1000040E0401396FFA0E05014D6F0001E6EC59
:102B20000DF00401392FF7D700019AEC10F01200D4
:102B3000F2CF30F4F29CF29EAA6A100EA96EA69C07
:102B4000A69EA680A850040130BDF28C30BFF28E44
:102B5000520822E1F2CF31F4F29CF29EAA6A130EDF
:102B6000A96EA69CA69EA680A85031BDF28C31BF4E
:102B7000F28E020811E3F2CF32F4F29CF29EAA6ABE
:102B8000140EA96EA69CA69EA680A85032BDF28CFB
:102B900032BFF28E010805E2010E306F000187DCC2
:102BA0000CD0010156B50AD056A908D056B706D0A8
:102BB00056990401306B00017ADC010100014DEFF0
:102BC00030F005014F51016A4E5D03E24EC500F041
:102BD0000CD0006A080E506F4E3700364F51005C23
:102BE000D8B0006E0136502FF7D700011200015007
:102BF00035C44EF5640E05014F6F0001E2DF00C0E1
:102C000035F40150300E08E1040136A30FD036B779
:102C10000DD036B9200E04D004013697369936818E
:102C2000012601C044F40001A7EC10F035C44EF5B4
:102C30000A0E05014F6F0001C4DF00C035F40150DA
:102C4000300E08E1040136B70BD036A109D036B9F1
:102C5000200E0001012601C044F4A7EC10F004018D
:102C6000300E352735C444F40001A7EC10F01200F3
:102C7000EACF3DF4E9CF3CF404013639F009386F6E
:102C80003827E20F396F320F3B6F36510F0B392760
:102C900039273B27E90F3A6F3A273A2735390F0B87
:102CA0003A273B273A373B373B1F3B3735510F0B12
:102CB0003B273837070E376F0A0E3A073B27FDE3ED
:102CC00039073A27FDE338073927FDE33707382767
:102CD000FDE3040EEA6E370EE96E070E3C153C9DCF
:102CE000E9263B0EE95CD8B43C8DEF50006E08E15C
:102CF0003CBD06D03CB916D03CB702D0200E03D064
:102D00003C873C99300E0026EACF36F4E9CF35F403
:102D100000C044F40001A7EC10F036C4EAFF35C44B
:102D2000E9FF0401EE503CADDCD7000112000900C0
:102D3000F6CF36F4F7CF37F4F5509EA8FED7AD6E38
:102D400036C4F6FF37C4F7FF0401352F01D002D097
:102D50000001EDD700011200015035C44EF5640E9C
:102D600005014F6F00012DDF00C035F40150300E1A
:102D700008E1040136A30ED036B70CD036B9200EC8
:102D800004D00401369736993681012601509EA859
:102D9000FED7AD6E35C44EF50A0E05014F6F00012A
:102DA00010DF00C035F40150300E08E1040136B7E1
:102DB0000BD036A109D036B9200E000101260150F2
:102DC0009EA8FED7AD6E0401300E352735519EA862
:102DD000FED7AD6E000112000900F5520DE0F6CFEE
:102DE00035F4F7CF36F4F5509EA8FED7AD6E35C456
:102DF000F6FF36C4F7FFF0D71200EACF3DF4E9CF73
:102E00003CF404013639F009386F3827E20F396F86
:102E1000320F3B6F36510F0B392739273B27E90F0C
:102E20003A6F3A273A2735390F0B3A273B273A377B
:102E30003B373B1F3B3735510F0B3B273837070ECE
:102E4000376F0A0E3A073B27FDE339073A27FDE3C0
:102E500038073927FDE337073827FDE3040EEA6E0C
:102E6000370EE96E070E3C153C9DE9263B0EE95CEA
:102E7000D8B43C8DEF50006E08E13CBD06D03CB9A3
:102E80000CD03CB702D0200E03D03C873C99300ECA
:102E9000002600509EA8FED7AD6EEE503CADE6D7A2
:102EA00000017CEF18F00401306B93948A849396B0
:102EB0008A86959E8C8E140E336F00018FEC10F075
:102EC000495207E1C60EF66E1A0EF76EADEC10F021
:102ED00010D04950020807E1CE0EF66E1A0EF76EBA
:102EE000ADEC10F006D0D60EF66E1A0EF76EADEC05
:102EF00010F04A5207E1E00EF66E1A0EF76EADECD6
:102F000010F00FD04A2C07D0E80EF66E1A0EF76EAE
:102F1000ADEC10F006D0F00EF66E1A0EF76EADECBA
:102F200010F0F2CF33F4F29CF29EAA6A110EA96E51
:102F3000A69CA69EA680A850040133BDF28C33BF88
:102F4000F28E346FF2CF35F4F29CF29EAA6A120E22
:102F5000A96EA69CA69EA680A85035BDF28C35BF52
:102F6000F28E366F34C432F436C431F40A0E306F48
:102F7000305369E0400E406F000140EC11F0F2CF99
:102F800033F4F29CF29EAA6A100EA96EA69CA69E2D
:102F9000A680A850040133BDF28C33BFF28E346F8B
:102FA000FA0EF66E1A0EF76E060E396F0001BDECC2
:102FB00010F030C435F41B0E0401366F000117DE2B
:102FC000020EF66E1B0EF76E040E0401396F00013F
:102FD000BDEC10F034C444F4A7EC10F0100EE96E10
:102FE00032C436F431C435F443DE200E0401446F9C
:102FF0000001A7EC10F00E0EF66E1B0EF76E080E19
:103000000401356F000193DE30C435F41B0E04015A
:10301000366F0001A1DE180EF66E1B0EF76E0A0E5B
:103020000401356F000183DE040E0401336FFA0ED4
:1030300005014D6F0001E6EC0DF00401332FF7D7C9
:103040000400300795D7F2CF33F4F29CF29EAA6ABF
:10305000100EA96EA69CA69EA680A85033BDF28C29
:1030600033BFF28E346F240EF66E1B0EF76E140E05
:10307000356F00015CDE7E0EF66E1B0EF76EACDE69
:103080003A0EF66E1B0EF76E040E0401356F00014A
:103090004EDE44C035F4010E0401366F00015CDEE3
:1030A0002D0E9EA8FED7AD6E45C035F4010E04016D
:1030B000366F000151DE2D0E9EA8FED7AD6E46C0C4
:1030C00035F4010E0401366F000146DE4C0EF66E3B
:1030D0001B0EF76E0A0E0401356F000128DE040195
:1030E00034519EA8FED7AD6E100EE96E32C436F490
:1030F00031C435F4000181D65B0EF66E1B0EF76EFF
:103100000C0E0401356F000112DE49C035F41B0EB0
:103110000401366F000120DE690EF66E1B0EF76E9D
:103120000E0E0401356F000102DE4AC035F41B0E9D
:103130000401366F000110DE290E9EA8FED7AD6E89
:103140000D0E9EA8FED7AD6E0A0E9EA8FED7AD6EE0
:103150004FEF30F0A00E0501536F51517F0802E28E
:103160005383519F94880000948600008B98949814
:1031700000008B96949653C556F500017CEC0EF03A
:1031800051C554F50501556B51C556F500017CEC50
:103190000EF050C556F57CEC0EF052C556F57CECA1
:1031A0000EF094980000948682A6FED7000000D00E
:1031B0000000948800001200340EF66E170EF76EB1
:1031C0000BDE9AEC10F04E0EF66E170EF76EADECAD
:1031D00010F0050E0401306FF00E05014D6F000177
:1031E000E6EC0DF00401302FF7D70501516B506B61
:1031F000526B0001AFDF0501516B020E506F526B35
:103200000001A8DF0501516B030E506F526B0001E6
:10321000A1DF95948C9400006650500E666E643069
:10322000FEE36650666A6430FEE36650666A6430A8
:10323000FEE36650666A6430FEE395948C84000079
:103240000A0E05014D6F0001E6EC0DF095948C948B
:1032500000006650D70E666E6430FEE36650666A04
:103260006430FEE366CF60F495948C840000040122
:1032700060C401F001C030F401BE04D004000001BC
:10328000E5D70401400E406F000140EC11F05E0EE6
:10329000F66E170EF76EADEC10F0640EF66E170EAC
:1032A000F76E9ADD050E0401306FF00E05014D6FCB
:1032B0000001E6EC0DF00401302FF7D700011200F9
:1032C00081CF30F4040130B907D0010157B902D0E1
:1032D000040102D0558F040130A907D0010157A97C
:1032E00002D0040102D05581040130C457F100011D
:1032F000CF3D03D0D03D01D003D0CF2BD8B4D02BBD
:10330000D13D03D0D23D01D003D0D12BD8B4D22BA4
:10331000CD51CE110BE0D05303E1CF51050806E2A9
:10332000CF3D03D0D03D01D001D04C80D8900401D6
:103330002A35316F2B35326F000E010157AB010E6C
:103340000401311331C42AF43251E0092B6F2A539E
:1033500009E12B51F00806E10101568755811E0E47
:103360005E6F0401D8902C35316F2D35326F000E11
:10337000010157AD010E0401311331C42CF4325157
:10338000E0092D6F2C5309E12D51F00806E10101F0
:10339000568955811E0E5E6F0401D8902E35316F0F
:1033A0002F35326F000E010157AF010E04013113AA
:1033B00031C42EF43251E0092F6F2E5308E12F5102
:1033C000F00805E10101568555811E0E5E6F010171
:1033D0005F5303E093968A8602D093968A96000103
:1033E0009DEF30F0020E0401506F0001FDEC0EF075
:1033F00001503F0B0401306F516F000137EC0FF0AB
:1034000001C058F1010E0401506F0001FDEC0EF0F7
:1034100001C030F401C051F437EC0FF001C059F194
:103420000401506B0001FDEC0EF001507F0B040114
:10343000306F516F000137EC0FF001C05AF1040EEC
:103440000401506F0001FDEC0EF001C030F401C02A
:1034500051F437EC0FF001C05BF1050E0401506F21
:103460000001FDEC0EF001C030F401C051F437EC66
:103470000FF001C05CF1060E0401506F0001FDEC7D
:103480000EF001C030F401C051F437EC0FF001C070
:103490005DF150EF1AF0969A8D8A5DEF1AF0A2D77F
:1034A00001015E5303E197908E8003D097908E9038
:1034B0005E075F5304E10001EED708D0010104016B
:1034C000336B00018FEC10F001015F0701016053C5
:1034D00004E15589090E606F01D06007040129518C
:1034E0000101595D21E0558359C129F4473C03D0BE
:1034F000483C01D003D0472AD8B4482A59511E0865
:1035000002E1568104D059512D0801E156915951DB
:10351000050809E05951140806E05951230803E051
:103520005951320801E1558B968284B203D09394AD
:103530008A8402D093948A943B5202E13C5203E085
:10354000959E8C8E02D0959E8C9E0001A4EF30F04B
:103550009D9A010154B12DD0EA6AD30EE96EE26A58
:103560004D0EE16ECEC002F0CDC001F0015202E07E
:10357000022A02D0025206E0E6CFEEFF012EFCD76F
:10358000022EFAD7010E0001CD250401306F000E86
:103590000001CE210401316FD30E3025E96E000EFB
:1035A0003121EA6EEF6A010154810001CE6BCD6BCF
:1035B00001019D8A0001AAEF30F005014F694E69B3
:1035C0004C514C07000A26E04BC503F04A514A2BE8
:1035D000D8B44B2BE96E03C0EAFFEF504E1B4D6B86
:1035E0004D51070816E34E51010B006E036A00505F
:1035F00003100AE0D8904F31516F4E31010A4E6FDF
:103600005151A00A4F6F03D0D8904F334E334D2BFA
:10361000E7D7D6D74EC501F04FC502F00001120022
:10362000010154A148D054910001D351230842E133
:10363000D451415C3FE1D551425C3CE1D651435C01
:1036400039E1D7510D0836E1D851160833E10501AB
:103650004B6BD40E4A6F0A0E4C6F0001AEDF02C0F6
:1036600031F401C030F4DEC003F0DF510401305DFD
:1036700003E10350315D01E01FD0FA0E336F00010A
:103680008FEC10F0D95105E0010A07E0030A09E0C8
:1036900011D00101558B00010DD0010155850001AC
:1036A00009D0DAC0D9F3DBC0D8F3DCC0DBF3DDC06E
:1036B000DAF300D0010104010001AEEF30F0D8B21E
:1036C00004D0040EEA6E4D0EE96E006A016A026AC9
:1036D000036A04014D6B4E6B4F6B506B4C514B1199
:1036E0004A1149112CE0200E516FD89045374637CA
:1036F000473748374D374E374F3750374C51505D6D
:1037000008E14B514F5D05E14A514E5D02E14951DF
:103710004D5D0FE349514D5F4A51D8A04A3D4E5F80
:103720004B51D8A04B3D4F5F4C51D8A04C3D505F02
:10373000D8800036013602360336512FD6D74DC415
:10374000EFFF4EC4ECFF4FC4ECFF50C4ECFF000190
:103750001200D89004012135036A010FE96E040EAE
:103760000320EA6E36C4ECFFED5235C4EFFF212B87
:1037700021510F0801E2216B22510F0801E3222B96
:103780003E6B3D6B3C6B3B6B3F6B22513F5D14E2EC
:10379000D8903F35036A010FE96E040E0320EA6EEC
:1037A000ECCF03F0ED52EF503B2703503C23000ECB
:1037B0003D233E233F2BE9D7D8902231006E016A8A
:1037C000026A036A00503B25416F01503C21426F61
:1037D00002503D21436F03503E21446FD892486F01
:1037E00043C447F442C446F441C445F44C6B4B6BAC
:1037F0004A6B22C449F4000162DF03C03AF402C0FC
:1038000039F401C038F400C037F4040137C401F0C2
:1038100038C402F000011DEF1DF00401345100080E
:1038200008E2FF0A03E13351440803E20A0E016E85
:1038300065D03451000808E2FF0A03E133513F0824
:1038400003E2090E016E5AD03451000808E2FF0A63
:1038500003E133513D0803E2080E016E4FD03451AD
:10386000000808E2FF0A03E133513A0803E2070EB9
:10387000016E44D03451000808E2FF0A03E13351DD
:10388000370803E2060E016E39D03451000808E211
:10389000FF0A03E13351330803E2050E016E2ED017
:1038A0003451000808E2FF0A03E133512F0803E214
:1038B000040E016E23D03451000808E2FF0A03E130
:1038C00033512C0803E2030E016E18D03451000866
:1038D00008E2FF0A03E13351270803E2020E016EFA
:1038E0000DD03451000808E2FF0A03E133512008EB
:1038F00003E2010E016E02D0000E016E00012EEFF8
:103900001DF00401365303E135513F0808E23653F8
:1039100006E13551BF0803E3010E016E6BD036534B
:1039200003E13551BF080AE23651010807E303E11C
:1039300035513F0803E3020E016E5CD0365100089A
:103940000FE2FF0A03E135513F080AE23651010850
:1039500007E303E13551BF0803E3030E016E4AD0CC
:10396000365100080FE2FF0A03E13551BF080AE2B1
:103970003651020807E303E135513F0803E3040E23
:10398000016E38D0365101080FE2FF0A03E13551CC
:103990003F080AE23651020807E303E13551BF0848
:1039A00003E3050E016E26D0365101080FE2FF0A2F
:1039B00003E13551BF080AE23651030807E303E18A
:1039C00035513F0803E3060E016E14D0365102084C
:1039D0000FE2FF0A03E135513F080AE236510308BE
:1039E00007E303E13551BF0803E3070E016E02D080
:1039F000000E016E000153EF1DF0000E016EC2506B
:103A0000C30B0110C26E010E05014D6F0001E6EC03
:103A10000DF00401306B30510F0816E3C282C2B2C0
:103A2000FED7C4CF03F0C3CF33F4C4CF34F4C4CF34
:103A300036F4C3CF35F400018CD602C032F401C095
:103A400031F40401302BE7D732C43EF031C43DF0ED
:103A500032C434F431C433F40001DFD601C040F085
:103A60004950020807E1040E016EC250C30B011059
:103A7000C26E06D00C0E016EC250C30B0110C26E96
:103A8000010E05014D6F0001E6EC0DF0C282C2B2DD
:103A9000FED7C4CF34F4C3CF33F4C4CF36F4C3CF8E
:103AA00035F400012ED701C03FF069EF1FF005018A
:103AB0004B51030809E2FF0A03E14A51B00804E24E
:103AC000FF0E016E026E12D0D8904A35026E4B3551
:103AD000036E025003C0F7FF0001CBEC00F00900B9
:103AE000F5CF03F0016E03C002F0050100011200E2
:103AF0009EA8FED7AD6E120001504CC54EF5640E67
:103B000005014F6F0001E1EC15F000C04CF50150CC
:103B1000300E08E105014DA310D04DB70ED04DB9C0
:103B2000200E04D005014D974D994D81012601C00D
:103B300055F50001D1EC10F005014CC54EF50A0E0B
:103B40004F6F0001E1EC15F000C04CF50150300E54
:103B500008E105014DB70BD04DA109D04DB9200E9C
:103B60000001012601C055F5D1EC10F00501300E21
:103B70004C274CC555F50001D1EC10F012004BC597
:103B80004DF54AC54CF54DC503F005014CC5E9FF9F
:103B90004DC5EAFFEF5206E04C2BD8B44D2B000187
:103BA000F2D705014A514C5D006E4B514D59036EE1
:103BB00000C001F000011200A4A8FED76D6E120033
:103BC0009D9236C045F535C044F538C047F537C03D
:103BD00046F53CC049F53BC048F53C6A3B6A9D82CE
:103BE000230E0401306F41C031F442C032F443C0AF
:103BF00033F40F0E346F070E356F4A2C21D045C5B4
:103C00004BF544C54AF5000152DF02C043F501C03F
:103C100042F543C536F4040142C537F4040147C5F3
:103C20004BF546C54AF5000142DF02C043F501C02D
:103C300042F543C538F4040142C539F404010CD0FF
:103C400045C536F4040144C537F4040147C538F4CA
:103C5000040146C539F40401403805014A6FF00EED
:103C60004A173F500F0B4A2504013A6F49C53BF4F0
:103C7000040148C53CF40401040E05014B6F310EEC
:103C80004A6F0C0E4C6F000198DC02C040F501C079
:103C90003FF540C53DF404013FC53EF40401050174
:103CA000416B41510E080FE3036A4151300FE96E39
:103CB000040E0320EA6EEFCF4AF54A51000118DFE7
:103CC0000501412BEED74B2CE9D042C04BF543C048
:103CD0004AF5040E0301EF6F3F0EEE6F320E050141
:103CE000556F0001D1EC10F0300E0501556F000149
:103CF000D1EC10F05DC14CF5010E05014D6F0001D6
:103D0000FBDE2D0E0501556F0001D1EC10F05CC1FA
:103D10004CF5010E05014D6F0001EEDE2D0E050183
:103D2000556F0001D1EC10F05BC14CF5010E05019F
:103D30004D6F0001E1DE200E0501556F0001D1EC51
:103D400010F058C14CF5010E05014D6F0001D4DE95
:103D50003A0E0501556F0001D1EC10F059C14CF538
:103D6000010E05014D6F0001C7DE3A0E0501556FCA
:103D70000001D1EC10F05AC14CF5010E05014D6F58
:103D80000001BADE2C0E0501556F0001D1EC10F0D8
:103D9000100EE96E45C54DF544C54CF5E2EC10F04A
:103DA0002C0E0501556F0001D1EC10F0100EE96EDC
:103DB00047C54DF546C54CF5E2EC10F02C0E05015B
:103DC000556F0001D1EC10F0100EE96E49C54DF5AC
:103DD00048C54CF5E2EC10F02C0E0501556F0001C2
:103DE000D1EC10F0100EE96E3EC04DF53DC04CF523
:103DF000E2EC10F02C0E0501556F0001D1EC10F033
:103E00003FC04CF51B0E05014D6F000175DE2C0EF9
:103E10000501556F0001D1EC10F0100EE96E48C09D
:103E20004DF547C04CF5E2EC10F02C0E0501556F36
:103E30000001D1EC10F041C055F5D1EC10F0100E9E
:103E4000E96E4BC54DF54AC54CF5E2EC10F00A0E93
:103E50000501556F0001D1EC10F00501416B040E16
:103E60004B6F3F0E4A6F00018ADE01500501415D34
:103E700015E2036A41513F0FE96E040E0320EA6E1A
:103E8000EFCF4AF54A51000197DE010E05014D6F53
:103E90000001E6EC0DF00501412BE1D700016AEFCE
:103EA0001FF00301EDBB0BD0010E0401336F0001C5
:103EB0008FEC10F0D26BD16B0301ED8B0DD00001B4
:103EC000D25303E1D1510D0807E2010155990001D8
:103ED00094D576D60301ED9B0001B4EF30F0A00E2F
:103EE0000501526F50517F0802E25283509F94881F
:103EF0000000948600008B98949800008B9694960E
:103F000052C556F500017CEC0EF050C553F5050185
:103F1000546B50C556F500017CEC0EF04FC556F5BC
:103F20007CEC0EF0948800009486000082A6FED7F8
:103F30008B98949800008B96949605015251010934
:103F4000536F566F00017CEC0EF0006AD7EC0EF058
:103F500001C051F594980000948682A6FED7000017
:103F600000D0000094880000050151C501F0000157
:103F70001200230E0401306F41C031F442C032F40C
:103F800043C033F42B0E346F080E356F36C036F451
:103F900035C037F438C038F437C039F43CC03AF48F
:103FA0003BC03BF45DC13CF45CC13DF45BC13EF4FD
:103FB00058C13FF459C140F45AC141F495948C94CE
:103FC00000006650D70E666E6430FEE36650666A87
:103FD0006430FEE366CF60F495948C84000060C486
:103FE00001F001C042F40501506B020E4F6F000159
:103FF00076DF01C043F40501506B030E4F6F0001E3
:104000006EDF01C044F43EC045F404013DC046F4F7
:104010009682476B84B2472B010E616F650E61C4B7
:104020005FF45E6F5EC4E9FF5FC4EAFFEFCF48F460
:10403000010E5E25E96E000E5F21EA6EEFCF49F4B6
:10404000020E5E25E96E000E5F21EA6EEFCF4AF4A4
:10405000030E5E25E96E000E5F21EA6EEFCF4BF492
:10406000010E616F690E61C45FF45E6F5EC4E9FFAB
:104070005FC4EAFFEFCF4CF4010E5E25E96E000E3F
:104080005F21EA6EEFCF4DF4020E5E25E96E000E61
:104090005F21EA6EEFCF4EF4030E5E25E96E000E4F
:1040A0005F21EA6EEFCF4FF43FC050F4516B526B7B
:1040B000536B44C054F445500F0B606F01015F51C6
:1040C000F00B04016025556F46C056F448C057F404
:1040D00047C058F4040E05014B6F310E4A6F280E8D
:1040E0004C6F0001DDEC1AF002C05CF401C05BF41F
:1040F00004015CC459F45BC45AF45D6B5D512A0839
:104100000FE3036A5D51300FE96E040E0320EA6E7F
:10411000EFCF60F460510001EBDC04015D2BEED7C2
:104120000001ACEF20F00301EDBD0CD00001D26B1B
:10413000D16B010E0401336F00018FEC10F003010D
:10414000ED8D0CD00001D25303E1D1510D0806E2F0
:104150000101559B00010DD70301ED9D0001BAEF50
:1041600030F095948C9400006650D20E666E6430E8
:10417000FEE304013037313730373137FC0E30176A
:1041800031C434F4665031C466FF6430FEE330C499
:1041900034F4665030C466FF6430FEE36650666AED
:1041A0006430FEE36650666A6430FEE36650666A19
:1041B0006430FEE36650666A6430FEE36650666A09
:1041C0006430FEE3336B326B3351020814E303E1D6
:1041D00032510F0810E3C80E3225E96E010E33216B
:1041E000EA6E6650666A6430FEE366CFEFFF322BFC
:1041F000D8B4332BE9D795948C8400000001D3EF19
:1042000021F00501506B4F6B000169DE036A01C0AC
:1042100034F403C035F40501506B0C0E4F6F03C02E
:1042200052F501C051F5000173EC11F002C033F4F6
:1042300001C032F40401316B306B3151335D23E343
:1042400003E13251305D1FE2C80E3025016E010ED0
:104250003121036E01C034F4356F30C436F4020EE0
:104260003125376FE8CF50F530C44FF5000137DE08
:1042700035C4EAFF34C4E9FF01C0EFFF0401302B6D
:10428000D8B4312BDAD7315102080FE303E13051B2
:104290000F080BE3C80E3025E96E010E3121EA6EDE
:1042A000EF68302BD8B4312BEED70001D7EF21F0D7
:1042B000230E0401386F41C039F442C03AF443C0C0
:1042C0003BF43A0E3C6F150E3D6F35C43EF434C4DA
:1042D0003FF4746B74512F081DE3080E7425036AB4
:1042E000380F016E040E032274513625776F000ECD
:1042F0003721786FC80E7725E96E010E7821EA6EB6
:10430000EFCF79F403C0EAFF01C0E9FF79C4EFFF02
:10431000742BE0D7040E05014B6F390E4A6F370E30
:104320004C6F0001DDEC1AF002C073F401C072F4AE
:10433000040173C470F472C471F4746B745139085D
:1043400010E3036A7451380FE96E040E0320EA6E1D
:10435000EFCF75F47551000178EC1DF00401742B5A
:10436000EDD700010DEF22F00301D9510F0805E24E
:10437000FF0A07E1D851010804E3DA5305E1DB53F2
:1043800003E1DB6BDA6B5DD0968884A801D059D04D
:10439000F0530DE1D9510F0808E3D9C331F4D8C364
:1043A00030F40001DED603D0030100012AD7010E4C
:1043B0000401336F00018FEC10F0D9C350F5D8C35E
:1043C0004FF50501526B0B0E516F000173EC11F0AC
:1043D00002C031F401C030F40301F0510401302770
:1043E000000E3123336BF0C332F433C450F5F0C305
:1043F0004FF50501526B300E516F000173EC11F057
:1044000002C033F401C032F431C435F430C434F4A2
:1044100002C037F401C036F44BD70301F02BF05142
:104420000B080FE1F06BDA5302E1DB5308E0D82B05
:10443000D8B4D92BDA51D8B4DB07DA0702D0D9695E
:10444000D8690001BDEF30F08E0E006E36C401F069
:1044500035C402F0036A015209E102C001F0026AA8
:10446000080E005E015202E1006A08D0D89001BE39
:1044700004D0023601360006F9D7019E120004016D
:104480003551D8B4A5D0416F3951D8B4A1D0415FCE
:1044900005E37F0E4127D8B09BD006D0810E415F47
:1044A000D8A096D0D8B494D041C400F0016A026A72
:1044B000036A406B36C43FF43F8F37C43EF438C4C0
:1044C0003DF4190E416F3C513D5F0DE2010E3E5F20
:1044D0000AE23F5F08E2405F06E2402B3F2B3E2BA3
:1044E0003C513D2728D03B513E5F12E2010E3F5F19
:1044F0000FE2405F0DE2402B3F2B3B513E273C51EA
:104500003D2719E33E2B17E13F2B15E1402B13D03C
:104510003A5180093F5F0EE2010E405F0BE2402BF3
:104520003A5180093F273B513E27E9E33F2BE7E122
:10453000402BE5D70380412F01D00BD0D8903D37D9
:104540003E373F374037D890033602360136423780
:10455000BAD742A106D0D890013202320332423398
:1045600002D0000635E042BF1ED0D8903D373E371E
:104570003F3740373C513D5F07E2010E3E5F04E2AA
:104580003F5F02E2405F1AE33B513E5F05E2010EEE
:104590003F5F02E2405F12E33A5180093F5F03E26E
:1045A000010E405F0BE3032A09E1022A07E1012A19
:1045B00005E1002A0DE001320232033236C441F433
:1045C0003A51411B41AF02D0018E06D0019E04D06A
:1045D000006A016A026A036A00011200800ED8A212
:1045E00002D004013E1B0401436B446B3AC442F405
:1045F0003E51421B3951D8B4DFD0416F006E3D515E
:10460000D8B4E3D0415FD8B483D03EE33EC447F48E
:10461000478F3FC446F440C445F4446BD8904733B9
:10462000463345334433412FF8D742AF03D043815B
:10463000E0D0439141914389040EEA6E3C0EE96E4D
:10464000EBD0439942BF0AD041A113D04733463340
:1046500045334433002AD8B4C7D00BD047BF0CD061
:10466000D89044374537463747370006D8B4BCD0D2
:10467000F5D7438D6DD0439D3AC442F43AAF02D092
:10468000478FABD0479FA9D03DC441F43DC400F053
:104690003951415F3AC447F4478F3BC446F43CC4A8
:1046A00045F4446BD8904733463345334433412F68
:1046B000F8D742AF03D043839CD043934191438BBF
:1046C000040EEA6E400EE96EA7D0439B42BF0AD0AB
:1046D00041A113D04733463345334433002AD8B47D
:1046E00083D00BD047BF0CD0D890443745374637DE
:1046F00047370006D8B478D0F5D7438F29D0439FE9
:104700003EC442F43EAF02D0478F67D0479F65D08A
:104710003EC447F4478F3FC446F440C445F442AF1B
:1047200004D0479F438565D04395446B4191040E67
:10473000EA6E3C0EE96E70D042BF1CD03AC442F41F
:1047400041A106D04733463345334433002A4CE079
:1047500044AF0BD0452B09E1462B07E1472B05E180
:10476000473346334533002A3FE043BD84D743BF38
:10477000C6D71CD0800E471B47AF04D03AD03EC4EA
:1047800042F40AD03AC442F4475306E1465304E1E6
:10479000455302E1006A21D047BF08D0D890443782
:1047A000453746374737002EF7D71ED042AF02D0E5
:1047B000478F13D0479F11D03DC400F03EC447F44B
:1047C0003FC446F440C445F408D039C400F03AC4AC
:1047D00047F43BC446F43CC445F447C401F046C426
:1047E00002F045C403F034D0006A016A026A036A29
:1047F0002FD0446B451F461F471F441F442B05E124
:10480000452B03E1462B01E1472B43B112D743B3BC
:1048100054D743B589D7B3D7EF50452705E3462B87
:1048200003E1472BD8B44181ED52EF50462703E313
:10483000472BD8B44181ED52EF50EFBE01D0800A32
:104840004727D8B0418143B9FCD643BB3ED774D784
:104850000001120004014251D8B471D0006E4651DB
:10486000D8B46DD0002604E3810E002668E204D09F
:104870007F0E005E64E363E043C44AF447514A1B81
:10488000438F478F45514903F4CF4CF444514803BB
:10489000F4CF03F0F3CF4BF44903F3504C27F4501B
:1048A0004B23000E032245514803F3504C27F4508C
:1048B0004B23000E026A0322022243514903F350A4
:1048C0004B27F4500322000E022243514803F350B9
:1048D0000326F4500222000E016A012245514703CB
:1048E000F3504B27F4500322000E022201224451C0
:1048F0004703F3500326F4500222000E01224351D5
:104900004703F3500226F4500122002A01BE05D0CD
:104910004B370336023601360006000E4BAF0AD085
:10492000032A02220122015005E1025003E1035053
:1049300001E1002A4ABF018E4AAF019E04D0006AFD
:10494000016A026A036A0001120004014251B608BA
:10495000426F036A43C446F4438FD89043334433D1
:1049600045330332023201320032422FF6D746AFCE
:104970000BD0001E011E021E031E002AD8B4012AFD
:10498000D8B4022AD8B4032A0001F2EF24F0E95087
:1049900004013A6F39513C6F1BE038C445F437C409
:1049A00044F436C443F435C442F4496B486B200EDA
:1049B000476F820E466F00014DDF03C038F402C01E
:1049C00037F401C036F400C035F404013C2FE5D7BC
:1049D00038C445F437C444F436C443F435C442F40F
:1049E0000001B3D703C038F402C037F401C036F475
:1049F00000C035F4040138AF0DD03A073A8B351FAB
:104A0000361F371F381F352BD8B4362BD8B4372B69
:104A1000D8B4382B3B0E416F9A0E406FCA0E3F6FD1
:104A20003E6B0A0E3C6F3951D8B43A2BD882040E33
:104A3000EA6E350EE96E38C448F437C447F436C41C
:104A400046F435C445F441C44CF440C44BF43FC46F
:104A50004AF43EC449F400015FEC1BF001500052DF
:104A600013E1040139293C5DD8A402D000010CD027
:104A70003A510DE00F0B3C5D01E044E23ABF42D0F9
:104A80003ABD05D0200E37D0200E04013A173AABBC
:104A90000FD03A9B3951D8A43A0700503A6F2D0EE7
:104AA000446F0001A7EC10F004013A51006E3A6B1C
:104AB00039513C5D0DE100503A6F2E0E446F0001FC
:104AC000A7EC10F004013A51006E200E3A17000EC8
:104AD000300E3AAB10D03A9B3951D8A43A07005067
:104AE0003A6F2D0E446F0001A7EC10F004013A510B
:104AF000006E3A6B300E002600C044F40001A7ECB3
:104B000010F00401D89241C448F440C447F43FC4B3
:104B100046F43EC445F44C6B4B6B4A6B0A0E496F2E
:104B200000015FEC1BF003C041F402C040F401C07F
:104B30003FF400C03EF404013C2F78D7000112007E
:104B400004013651030809E2FF0A03E13551B008B8
:104B500004E2000E016E026E12D0D8903535026E5E
:104B60003635036E025003C0F7FF000183EC05F0F9
:104B70000900F5CF03F0016E03C002F0040100014B
:104B80001200E95004013C6F3B0E436F9A0E426FD6
:104B9000CA0E416F406B0A0E3E6F3B51D8A43C07D2
:104BA000D882040EEA6E370EE96E3AC448F439C46E
:104BB00047F438C446F437C445F443C44CF442C403
:104BC0004BF441C44AF440C449F400015FEC1BF0CB
:104BD0000150005213E104013B293E5DD8A402D0EC
:104BE00000010CD03C510CE00F0B3E5D01E020E2D7
:104BF0003CBF1ED03CBD04D0200E13D004013C6B42
:104C00003B513E5D0DE100C03CF42E0E446F0001AF
:104C1000A7EC10F004013CC400F0200E3C17000E7D
:104C2000300E002600C044F40001A7EC10F004018F
:104C3000D89243C448F442C447F441C446F440C443
:104C400045F44C6B4B6B4A6B0A0E496F00015FECED
:104C50001BF003C043F402C042F401C041F400C0A1
:104C600040F404013E2F9CD7000112004A52D8A400
:104C7000E2D0355202E1365241E0353C03D0363CB9
:104C800001D03CD036C036F435C035F424EC22F0E7
:104C90000401386B100E376F6F0E366F8B0E356F49
:104CA00003C03CF402C03BF401C03AF400C039F444
:104CB00000013FEC22F000C035F401C036F402C020
:104CC00037F403C038F4D89203C03CF402C03BF47C
:104CD00001C03AF400C039F4330E0401406F3F6F55
:104CE0003E6F7D0E3D6F000179DC03C034F402C0DD
:104CF00033F401C032F400C031F406D00401346B47
:104D0000336B326B316B0001320EF66E190EF76E9B
:104D1000070E0401396F0001BDEC10F0410EE96E81
:104D200034C438F433C437F432C436F431C435F4FF
:104D3000010E0401396F00012ADE3F0EF66E190ED6
:104D4000F76E040E0401396F0001BDEC10F037520C
:104D500002E1385241E0373C03D0383C01D03CD02E
:104D600038C036F437C035F424EC22F00401386B37
:104D7000100E376F6F0E366F8B0E356F03C03CF41D
:104D800002C03BF401C03AF400C039F400013FEC2A
:104D900022F000C035F401C036F402C037F403C07D
:104DA00038F4D89203C03CF402C03BF401C03AF49A
:104DB00000C039F4330E0401406F3F6F3E6F7D0E2B
:104DC0003D6F00010BDC03C034F402C033F401C0BA
:104DD00032F400C031F405D00401346B336B326B14
:104DE000316B400E0401406F000140EC11F0440EA5
:104DF000F66E190EF76E070E0401396F0001BDEC57
:104E000010F0410EE96E34C438F433C437F432C4C0
:104E100036F431C435F4010E0401396F0001B7DDF9
:104E2000510EF66E190EF76E040E0401396F000173
:104E3000BDEC10F05CD04A2C5AD036C036F435C0E8
:104E400035F47EDE02C036F401C035F4560EF66E3F
:104E5000190EF76E070E0401396F0001BDEC10F05A
:104E6000440EE96E04013A6B396B36C438F435C42C
:104E700037F4010E3B6F000184DE630EF66E190EEF
:104E8000F76E040E0401396F0001BDEC10F0400E06
:104E90000401406F000140EC11F038C036F437C017
:104EA00035F44EDE02C036F401C035F4680EF66EFD
:104EB000190EF76E070E0401396F0001BDEC10F0FA
:104EC000440EE96E04013A6B396B36C438F435C4CC
:104ED00037F4010E3B6F000154DE750EF66E190EAD
:104EE000F76E040E0401396F0001BDEC10F020EFE5
:104EF0002DF08C0EF66E180EF76EADEC10F0400E25
:104F00000401406F000140EC11F09C0EF66E180E8B
:104F1000F76E070E0401396F0001BDEC10F03FC0C1
:104F200035F41B0E0401366F0001F7EC15F0200E6E
:104F30000401446F0001A7EC10F0280E0401446F37
:104F40000001A7EC10F03F50F80F3BE2080FEFEF25
:104F500027F0300E0401446F0001A7EC10F031D0AF
:104F6000A80EF66E180EF76EADEC10F02AD0AC0E4F
:104F7000F66E180EF76EADEC10F023D0B00EF66E94
:104F8000180EF76EADEC10F01CD0B40EF66E180EC5
:104F9000F76EADEC10F015D0B80EF66E180EF76E79
:104FA000ADEC10F00ED0BC0EF66E180EF76EADEC38
:104FB00010F007D0C00EF66E180EF76EADEC10F0C4
:104FC00000D0DF0E0401446F0001A7EC10F0290EA1
:104FD0000401446F0001A7EC10F026EF2DF0E82447
:104FE000F76AF736F90FF66E4F0EF7220A00F55002
:104FF000FA6E0800F550F96E524F604F6E4F7C4FBD
:105000008A4F984FA64FB44FE60EF66E180EF76E05
:10501000080E0401396F0001BDEC10F05DC135F4DC
:10502000010E0401366F0001F7EC15F02D0E04019E
:10503000446F0001A7EC10F05CC135F4010E0401CF
:10504000366F0001F7EC15F02D0E0401446F0001DE
:10505000A7EC10F05BC135F4010E0401366F0001BE
:10506000F7EC15F0400E0401406F000140EC11F028
:10507000FE0EF66E180EF76E040E0401396F000175
:10508000BDEC10F058C135F4010E0401366F00017B
:10509000F7EC15F03A0E0401446F0001A7EC10F094
:1050A00059C135F4010E0401366F0001F7EC15F01B
:1050B0003A0E0401446F0001A7EC10F05AC135F418
:1050C000010E0401366F0001F7EC15F0100EF66EBC
:1050D000190EF76E040E0401396F0001BDEC10F0DB
:1050E0002CEF2DF04A0EF66E180EF76EADEC10F0A8
:1050F000400E0401406F000140EC11F00501506BBF
:10510000020E4F6F00016FEC1FF001C031F405017A
:10511000506B030E4F6F00016FEC1FF001C032F4B3
:1051200031C434F401C033F4100EE96E31C436F4E6
:1051300001C035F438EC16F02F0E0401446F000165
:10514000A7EC10F0100EE96E0401366F356B00010C
:1051500038EC16F0630EF66E180EF76E050E0401AD
:10516000396F0001BDEC10F032EF2DF0F60EF66E47
:10517000170EF76EADEC10F0400E0401406F000109
:1051800040EC11F0968284B210D04B2C07D0060E62
:10519000F66E180EF76EADEC10F006D0180EF66E27
:1051A000180EF76EADEC10F00FD04B2C07D02A0E76
:1051B000F66E180EF76EADEC10F006D03A0EF66EE5
:1051C000180EF76EADEC10F0010156A902D05699F9
:1051D000558B000138EF2DF04A2C31D0100EE96EBE
:1051E00036C036F435C035F438EC16F0060E04013E
:1051F000406F000140EC11F0100EE96E38C036F43B
:1052000037C035F438EC16F00C0E0401406F000185
:1052100040EC11F0100EE96E3CC036F43BC035F4A2
:1052200038EC16F0400E0401406F000140EC11F024
:10523000C40EF66E180EF76EADEC10F030D0080EFE
:10524000E96E36C036F435C035F438EC16F0060E8B
:105250000401406F000140EC11F0080EE96E38C007
:1052600036F437C035F438EC16F00C0E0401406FFC
:10527000000140EC11F0090EE96E3CC036F43BC071
:1052800035F438EC16F0400E0401406F000140EC9C
:1052900011F0D40EF66E180EF76EADEC10F03EEF76
:1052A0002DF0200E040137A9300E386F36C400F0FF
:1052B00036AF08D0001E002A00C036F42D0E386F1D
:1052C000378F3781015036C44EF5640E05014F6F9C
:1052D0000001E1EC15F000C036F4300E01240401A9
:1052E000396F36C44EF50A0E05014F6F0001E1EC2F
:1052F00015F0300E002404013B6F300E01243A6F8C
:1053000038C400F0300E395D04E0378337BF37858D
:1053100012D038C439F4200E386F300E3A5D04E0F4
:10532000378137BF378307D0D8A4378104E139C428
:105330003AF4200E396F37B505D037B308D037B1FE
:105340000BD00FD038C444F40001A7EC10F039C4DE
:1053500044F40001A7EC10F03AC444F40001A7ECB7
:1053600010F03BC444F40001A7EC10F017EF2AF052
:105370003EC036F43DC035F424EC22F00401456B08
:10538000446B200E436F7A0E426F03C049F402C093
:1053900048F401C047F400C046F400012AEC24F0B0
:1053A00003C034F402C033F401C032F400C031F45D
:1053B0006A0EF66E180EF76E070E0401396F0001C3
:1053C000BDEC10F0C90EE96E34C438F433C437F4C0
:1053D00032C436F431C435F4010E0401396F0001D2
:1053E000C7EC24F0770EF66E180EF76E060E040169
:1053F000396F0001BDEC10F0400E0401406F000158
:1054000040EC11F040500A0DF3CF35F404017E0E4C
:10541000F66E180EF76E090E396F0001BDEC10F034
:1054200035C436F4180E0401376F00013AD7250E43
:105430000401446F0001A7EC10F043EF2DF0DC0EE7
:10544000F66E170EF76EADEC10F0400E0401406FD3
:10545000000140EC11F05FC135F41B0E0401366F02
:105460000001F7EC15F0EC0EF66E170EF76E080E55
:105470000401396F0001BDEC10F048EF2DF0200E53
:10548000040137A9300E386F36C400F036AF08D0AB
:10549000001E002A00C036F42D0E386F378F37817A
:1054A000015036C44EF5640E05014F6F0001E1EC6A
:1054B00015F000C036F4300E01240401396F36C4F3
:1054C0004EF50A0E05014F6F0001E1EC15F0300EAC
:1054D000002404013B6F300E01243A6F38C400F001
:1054E000300E395D04E0378337BF378512D037B5CA
:1054F00010D038C439F437B304D0300E3A5D04E02C
:10550000378137BF378305D0D8A43781D8B439C4A1
:105510003AF437B505D037B308D037B10BD00FD038
:1055200038C444F40001A7EC10F039C444F400017D
:10553000A7EC10F03AC444F40001A7EC10F03BC40F
:1055400044F40001A7EC10F01200400E0401406F7B
:10555000000140EC11F07A0EF66E190EF76EADEC0C
:1055600010F0120036C437F40401386B37510908C3
:1055700005E20A0E375F100E382703D0375138275F
:1055800001D0F4D738C401F00001120004013591B4
:105590002351000A000105E0010A0DE0030A15E0AD
:1055A0001FD00401326B630E336F090E316F5DC182
:1055B00034F4000115D0010E0401326F0C0E336F6C
:1055C000316F5CC134F400010BD0010E0401326F65
:1055D0001F0E336F0F0E316F5BC134F4000100D02A
:1055E000980EF66E1A0EF76E080E0401396F000160
:1055F000BDEC10F05DC136F4010E0401376F0001FF
:105600003EDF2D0E0401446F0001A7EC10F05CC1D9
:1056100036F4010E0401376F000131DF2D0E040155
:10562000446F0001A7EC10F05BC136F4010E0401D9
:10563000376F000124DF0301EDB50CD0010156A93D
:1056400005D00301ED850101569903D000017DDFEE
:1056500001010301EDA530D000014AEC11F031C485
:1056600040F440EC11F00E0E04013F6F000168ECB5
:1056700011F0010156A50CD056950401342B34BF0E
:1056800005D03451335D02E232C434F43581010176
:1056900056A70CD056970401340734BF03D03251BB
:1056A000345D02E233C434F43581010156A904D0DB
:1056B00056990401232B0101040135A13DD00101BC
:1056C000558104012351000A000105E0010A13E09D
:1056D000030A21E030D034C45DF15DC136F442DF0D
:1056E00001C036F4060E0401506F01C051F40001F0
:1056F000A5EC0EF020D034C45CF15CC136F432DF8E
:1057000001C036F4050E0401506F01C051F40001D0
:10571000A5EC0EF010D034C45BF15BC136F422DF8F
:1057200001C036F4040E0401506F01C051F40001B1
:10573000A5EC0EF000D004012351030809E1030198
:10574000ED950401236B0C0E3F6F000168EC11F026
:10575000000E0301EDB5010E016E00014DEF2DF0BD
:10576000040135912451000A000105E0010A0DE011
:10577000030A15E01ED00401326B170E336F070EBB
:10578000316F58C134F4000114D00401326B3B0E68
:10579000336F0A0E316F59C134F400010AD004018D
:1057A000326B3B0E336F0D0E316F5AC134F4000172
:1057B00000D0B00EF66E1A0EF76E060E0401396FA9
:1057C0000001BDEC10F058C136F4010E0401376F32
:1057D000000155DE3A0E0401446F0001A7EC10F001
:1057E00059C136F4010E0401376F000148DE3A0E4C
:1057F0000401446F0001A7EC10F05AC136F4010E09
:105800000401376F00013BDE0301EDB70DD001014C
:1058100056A906D00301ED8701015699558103D0A1
:10582000000193DE01010301EDA733D000014AEC32
:1058300011F031C440F440EC11F00E0E04013F6F42
:10584000000168EC11F0010156A50DD05695040138
:10585000342B34BF05D03451335D02E232C434F40A
:1058600035810101558156A70DD0569704013407A3
:1058700034BF03D03251345D02E233C434F4358195
:105880000101558156A905D056990401242B010127
:105890005581040135A13CD00101558104012451F9
:1058A000000A000105E0010A13E0030A21E02FD0FD
:1058B00034C458F158C136F455DE01C036F4020E36
:1058C0000401506F01C051F40001A5EC0EF01FD08F
:1058D00034C459F159C136F445DE01C036F4010E25
:1058E0000401506F01C051F40001A5EC0EF00FD07F
:1058F00034C45AF15AC136F435DE01507F0B04012D
:10590000366F506B516F0001A5EC0EF000D0040112
:10591000245103080BE10301ED970401246B0C0EE5
:105920003F6F000168EC11F001015581000E030189
:10593000EDB7010E016E000154EF2DF0A20EF66ED0
:10594000170EF76E0A0E0401396F0001BDEC10F05E
:10595000080EE96ED9C336F4D8C335F438EC16F026
:10596000400E0401406F000140EC11F0B20EF66EE3
:10597000170EF76E0A0E0401396F0001BDEC10F02E
:10598000080EE96EDBC336F4DAC335F438EC16F0F2
:105990005BEF2DF0160EF66E190EF76EADEC10F0F3
:1059A000400E0401406F000140EC11F0860EF66ECF
:1059B000140EF76EADEC10F0200E0401446F0001E0
:1059C000A7EC10F0200E0401446F0001A7EC10F0CA
:1059D000280EF66E190EF76EADEC10F060EF2DF09C
:1059E0000B0E0401306F0301EDB90ED0010156B565
:1059F00002D0030109D0569504013051255D02E221
:105A0000252B01D0256B0301EDB90DD0010156B74F
:105A100002D0030108D056970401255302E0250760
:105A200002D030C425F400019AEC10F00401255195
:105A3000F40F4BE20C0F000168EF2DF036EF26F06B
:105A40000301ED99040141D079EF27F00301ED99AD
:105A500004013BD004EF28F00301ED99040135D097
:105A600072EF28F00301ED9904012FD0B6EF28F072
:105A70000301ED99040129D0ECEF28F00301ED9921
:105A8000040123D075D40301ED9904011ED0D7D4AD
:105A90000301ED99040119D079D50301ED9901B005
:105AA000ED89040112D05CD60301ED9901B0ED89B6
:105AB00004010BD043D70301ED99040106D06AD746
:105AC0000301ED99040101D004010001C3EF30F09E
:105AD000E824F76AF736EB0FF66E5A0EF7220A0043
