:040000001AEF23F0E0
:080008006BEF00F000000000A6
:100010000000000000000000046ED8CF05F0E0CF23
:1000200006F00001E9CF0CF0EACF07F0E1CF08F0CD
:10003000E2CF09F0D9CF0AF0DACF0BF0F3CF12F00C
:10004000F4CF13F0FACF14F0F5CF15F0F6CF16F089
:10005000F7CF17F000C00EF001C00FF002C010F093
:1000600003C011F0A0A238EF00F0A1B2D7EF00F06A
:100070009DAA3EEF00F09EBACCEF01F0A3AA44EF98
:1000800000F0A4BAF0EF01F00EC000F00FC001F0D4
:1000900010C002F011C003F00CC0E9FF07C0EAFF76
:1000A000078E08C0E1FF09C0E2FF0AC0D9FF0BC0FC
:1000B000DAFF12C0F3FF13C0F4FF14C0FAFF15C03B
:1000C000F5FF16C0F6FF17C0F7FF045006C0E0FFAB
:1000D00005C0D8FF1000196ED8CF1AF0E0CF1BF082
:1000E0000001E9CF21F0EACF1CF0E1CF1DF0E2CF13
:1000F0001EF0D9CF1FF0DACF20F0F3CF27F0F4CFE6
:1001000028F0FACF29F0F5CF2AF0F6CF2BF0F7CF71
:100110002CF000C023F001C024F002C025F003C081
:1001200026F09DA097EF00F09EB04DEF01F09DA24C
:100130009DEF00F09EB270EF01F0F2A8A3EF00F087
:10014000F2B242EF01F023C000F024C001F025C05C
:1001500002F026C003F021C0E9FF1CC0EAFF1C8E9C
:100160001DC0E1FF1EC0E2FF1FC0D9FF20C0DAFFA3
:1001700027C0F3FF28C0F4FF29C0FAFF2AC0F5FF0B
:100180002BC0F6FF2CC0F7FF19501BC0E0FF1AC0B0
:10019000D8FF1000F76AA40FF66E010EF7220900CF
:1001A000F550120031302D4D61792D313700B10EEF
:1001B000B36EE00EB26E81CF5AF1D8900301E135F3
:1001C0000501596F0301E23505015A6F000E010167
:1001D0005AAB010E0501591359C5E1F305015A51F6
:1001E000E0090301E26FE15309E1E251F00806E1A1
:1001F0000101598758811E0E616F0301D890E335C4
:100200000501596F0301E43505015A6F000E010124
:100210005AAD010E0501591359C5E3F305015A51B1
:10022000E0090301E46FE35309E1E451F00806E15A
:100230000101598958811E0E616F0301D890E5357F
:100240000501596F0301E63505015A6F000E0101E2
:100250005AAF010E0501591359C5E5F305015A516D
:10026000E0090301E66FE55309E1E651F00806E114
:100270000101598558811E0E616F0301A192000191
:1002800044EF00F00101682BD8B4692B3F2AD8B4A1
:10029000402AF2920001A3EF00F0630ECF6EC00E71
:1002A000CE6E0101588D0301E72BE751640814E17C
:1002B00069C13CF068C13BF00101696B686B3E505D
:1002C0003C5C08E303E13B503D5C04E23CC03EF093
:1002D0003BC03DF00301E76B9E900001A3EF00F0EF
:1002E00005015CA10CD00101643D05D0653D03D042
:1002F000050105D00101642BD8B4652B050193805D
:100300005C9381B05C835CB326D00301E9B102D079
:10031000050121D0392AD8B43A2AE9A313D005011E
:100320005C9165C136F064C135F03650385C08E345
:1003300003E13750355C04E236C038F035C037F0A1
:100340000301E993E9B307D00101656B646B050113
:100350005C810301E9830301E99105015CA303D0FA
:100360000301E98105010301E82BE851640804E178
:10037000E86B0101588D03019E920001A3EF00F08C
:100380009EAAFED7ABCF34F0AECF01F034A202D09C
:10039000AB98AB88CFEF01F0D36BD26BF1D701C034
:1003A00059F5D1530EE1D0517F080BE3500ED02503
:1003B000E96E000ED121EA6E59C5EFFFD02BD8B4FB
:1003C000D12B9E9A44EF00F0A4AAFED76BCF34F055
:1003D0006ECF01F034A202D06B986B88F1EF01F080
:1003E000F3D701C059F5A49A44EF00F023204461EB
:1003F0007461666C61736820706167652072656105
:10040000642066726F6D20256C750D0A00000D0A60
:1004100000000D0A2320446F6E650D0A00002320A2
:10042000696E697469616C697A696E67206C6F675F
:1004300067696E670D0A0000526573657474696EB2
:1004400067204C6F67210000446F6E6500003E20FE
:10045000646F6E650D0A00002320706C6179696E0F
:1004600067206C6F670D0A003E20646F6E650D0A91
:100470000000232044756D70696E67206C6F670DF6
:100480000A003E20646F6E650D0A000050616765CA
:10049000205265713A2530356C750000204E205091
:1004A000616765733A2530356C750000556E697467
:1004B00020557074696D653A0000256C75206D6972
:1004C0006E7574657300576972656C657373206F20
:1004D0006E3A00002575207365636F6E64730000CB
:1004E00053442043617264205374617475733A00FD
:1004F000202020204C6F6767696E67002020204E07
:100500006F742052656164792100496E7465726E62
:10051000616C204D656D6F727900256C752F256CAF
:10052000752066756C6C0000496E7075743A2025F4
:10053000302E316C6620766F6C7473004261747477
:100540006572793A20256425250057696E64204438
:100550006972656374696F6E3A00536563746F7294
:100560002025752028003435000039300000313353
:100570003500313830003232350032373000333117
:1005800035004628487A2920464D61782020436E60
:100590007400542020202020546D696E20436F7514
:1005A0006E740000446174653A2032302530327533
:1005B0002D253032752D2530327500004E6F772095
:1005C000253032753A253032753A2530327520554E
:1005D0005443000053706565643A202530322E3153
:1005E00066206D2F7300477573743A2020253032D2
:1005F0002E3166206D2F7300507265762020536572
:10060000742020204E65787400002D2020202020AA
:100610005365742020202020202B00002D20202036
:1006200020204E65787420202020202B00004E4F83
:1006300020202020594553005072657620456E7465
:10064000657220204E657874000057726F746520C3
:1006500044656661756C7420534E00005365726981
:10066000616C3A202563256C752020202020000035
:100670002D2020202020444F4E4520202020202BBC
:10068000000057726F746520534E0000202D2048E3
:10069000572054595045202D200052444C202020F2
:1006A00020202020202052444C55000057726F74A7
:1006B00065204857205479706500202D20414E4513
:1006C0004D4F2054595045202D20000023343048F0
:1006D00043202020202020544845495300005772D1
:1006E0006F746520416E656D6F20547970650000F0
:1006F000446174653A203230253032642D25303221
:10070000642D25303264000054696D653A2025302F
:1007100032643A253032643A253032640000726423
:100720006C285529000072646C556E690000756E66
:100730006B6E6F776E210000202334304843000039
:10074000205448454953000020554E4B4E4F574EBC
:100750000000557020696E2025752049443D2563B1
:10076000256C752000002320555020494E2025750A
:10077000205345434F4E44530D0A0000232072641A
:100780004C6F67676572556E6976657273616C2030
:10079000257320283230253032752D253032752DC5
:1007A0002530327529202873657269616C202563B4
:1007B000256C75292028686172647761726520252F
:1007C00075292028616E656D6F6D657465722025D1
:1007D00075290D0A000031302D4D61792D3137001A
:1007E0005072657373206D6964646C650000627596
:1007F00074746F6E20746F20636C65617200639A0D
:100800009598958A959C300E636EC00E646E959691
:100810008C8695948C84000090EF06F094869488E2
:1008200091EF06F0050EEA6E470EE96EEF500DE00F
:10083000020E016E006A002EFED7012EFBD7970E26
:10084000006E002EFED7EF2EF3D7120097968E86FD
:1008500097968E96120004014CBF02D08E9E01D056
:100860008E8E979E4CBD02D08E9C01D08E8C979C14
:100870004CBB02D08E9A01D08E8A979A4CB902D086
:100880008E9801D08E8897980001E0DF04014CB764
:1008900002D08E9E01D08E8E979E4CB502D08E9C3B
:1008A00001D08E8C979C4CB302D08E9A01D08E8A48
:1008B000979A4CB102D08E9801D08E8897980001FB
:1008C000C5DF1A0E006E002EFED7000012000F0EBC
:1008D0000501476F0001A6DF97928E9297948E9440
:1008E000979E8E9E979C8E9C979A8E8A97988E88BC
:1008F000ADDF050E0501476F000194DFA7DF420E53
:10090000006E002EFED70000A1DF050E0501476F27
:10091000000188DF97988E9899DF1A0E006E002EDE
:10092000FED70000280E04014C6F000194DF0C0E6E
:1009300004014C6F00018FDF060E04014C6F0001B3
:100940008ADF010E04014C6F000185DF92EF06F093
:10095000080E016E00008B9694960000050150373A
:100960008B98D8B09488D8A09498948682A6FED705
:10097000012E01D002D00001EDD700008B96949695
:100980000000948800000000948682A6FED7016AC9
:10099000000082B801808B9694968B989498000101
:1009A000120094880000948600008B9894980000B0
:1009B0008B969496D00E0501506F0001C9DF01504F
:1009C00004014E9101B04E814EA102D00001E9D741
:1009D0004CC450F50001BCDF4DC450F5B9DF94980C
:1009E0000000948682A6FED7000000D00000948804
:1009F00000001200070E04014C6F100E4D6F000135
:100A0000D0DF93EF06F0080E05014E6F00C04FF5E2
:100A100094880000948682A6FED782B8D88082A8E7
:100A2000D8900136000094968B964E2FF1D794887B
:100A300000008B984F51D8A494980000948682A609
:100A4000FED700008B96949600008B989498000136
:100A5000120094880000948600008B9894980000FF
:100A60008B969496D00E0501506F000171DF0150F6
:100A70000108EFE04CC450F56BDF948800009486C9
:100A8000000082A6FED78B98949800008B969496CF
:100A9000D10E0501506F00015BDF01500108EDE050
:100AA000006AB1DF01C04DF494980000948682A6DC
:100AB000FED7000000D000009488000004014DC45F
:100AC00001F00001120004014D394E6F0F0E4E1758
:100AD0004D510F0B4F6F4E510A0DF3504F25016EC4
:100AE0000001120004014C6B4D6B00015ADF060E31
:100AF00004014C6F0A0E4D6F000153DF050E040117
:100B00004C6F010E4D6F00014CDF040E04014C6F61
:100B1000010E4D6F000145DF020E04014C6F4D6B5D
:100B200000013FDF010E04014C6F4D6B000139DF06
:100B3000A1EF06F0720ED36ED350C150C00B0B095B
:100B4000C16EC050C00B0709C06EC08EC2800101CB
:100B500058935895589758815899589B5981589D42
:100B6000589F59955997599981CF5AF11E0E616F27
:100B7000366A356A386837683A6A396A3C6A3B6A65
:100B80003E6A3D6A406A3F6A696B686B040EEA6EB2
:100B90002C0EE96E000E0001CAEC00F00A000900FC
:100BA000F550EE6E0009FBE1300E04012C5D0A0DDC
:100BB000F3CF4AF0300E2D5D4A262F514A080FE13F
:100BC0003051410803E1010E496E08D031514E0801
:100BD00003E1060E496E02D0070E496E37D02F5141
:100BE000410809E13051500803E1040E496E02D07A
:100BF000080E496E2BD02F514D0809E13151520892
:100C000003E1030E496E02D0050E496E1FD02F512D
:100C1000460803E1020E496E19D02F51530803E133
:100C2000090E496E13D02F514F0803E10A0E496E89
:100C30000DD02F514E0803E10B0E496E07D02F51F6
:100C4000440803E10C0E496E01D04968300E335D53
:100C50000A0DF3CF48F0300E345D48264C6A4B6ADB
:100C60004F900001D16BD06BD369D269D569D4693B
:100C700001015791F2CF4CF4F29CF29EAA6A100E39
:100C8000A96EA69CA69EA680A85004014CBDF28C1D
:100C90004CBFF28E456EF2CF4CF4F29CF29EAA6AE3
:100CA000110EA96EA69CA69EA680A8504CBDF28CE3
:100CB0004CBFF28E466EF2CF4CF4F29CF29EAA6AC2
:100CC000120EA96EA69CA69EA680A8504CBDF28CC2
:100CD0004CBFF28E476EF2CF4CF4F29CF29EAA6AA1
:100CE000130EA96EA69CA69EA680A8504CBDF28CA1
:100CF0004CBFF28E4D6EF2CF4CF4F29CF29EAA6A7B
:100D0000140EA96EA69CA69EA680A8504CBDF28C7F
:100D10004CBFF28E4E6E0301DE69DD6900016FD5B6
:100D20007DD5D5D567D6060E04014C6F000191DE46
:100D300001C04CF401C04DF4C6DE0150040801E3CB
:100D4000D1D6950ECD6E000E0509CA6E310ECB6E52
:100D5000850EB16E9D8AA38AF19CF19EC00EF2129F
:100D6000A1EF23F004012F510101625D02E22FC4C3
:100D700062F1969A8D9A0001120097928E92010E5E
:100D800004014C6F000167DD020E0501476F000191
:100D900049DD120097928E8242C44CF45CDD120051
:100DA0000900F5520CE0F6CF32F4F7CF33F4F5CF6B
:100DB00042F4F0DF32C4F6FF33C4F7FFF1D712007C
:100DC00097928E92800E04013525366F4C6F00018C
:100DD00042DD12000900F6CF36F4F7CF37F4F5CF35
:100DE00042F4D8DF36C4F6FF37C4F7FF0401352FCD
:100DF00001D002D00001EED700011200EACF3AF490
:100E0000E9CF39F404013339F009356F3527E20FA2
:100E1000366F320F386F33510F0B3627362738278E
:100E2000E90F376F3727372732390F0B3727382726
:100E300037373837381F383732510F0B38273537A7
:100E4000070E346F0A0E37073827FDE336073727BA
:100E5000FDE335073627FDE334073527FDE3040EB0
:100E6000EA6E340EE96E070E3915399DE926380E03
:100E7000E95CD8B4398DEF50006E08E139BD06D079
:100E800039B915D039B702D0200E03D03987399936
:100E9000300E0026EACF33F4E9CF32F400C042F43A
:100EA000000178DF33C4EAFF32C4E9FF0401EE50E9
:100EB00039ADDDD70001120004012C53D8B481D024
:100EC000AA6A100EA96E520EA86EA69CA69EA684B3
:100ED000F250006EF29CF29E0F01550EA76EAA0E04
:100EE000A76EA682A6B2FED7A6940050F212AA6AF6
:100EF000110EA96EA86AA69CA69EA684F2CF00F049
:100F0000F29CF29E550EA76EAA0EA76EA682A6B2FE
:100F1000FED7A6940050F212AA6A120EA96EA86A11
:100F2000A69CA69EA684F2CF00F0F29CF29E550EDF
:100F3000A76EAA0EA76EA682A6B2FED7A6940050F0
:100F4000F212AA6A130EA96E020EA86EA69CA69EA5
:100F5000A684F2CF00F0F29CF29E550EA76EAA0E68
:100F6000A76EA682A6B2FED7A6940050F212AA6A75
:100F7000140EA96EA86AA69CA69EA684F2CF00F0C5
:100F8000F29CF29E550EA76EAA0EA76EA682A6B27E
:100F9000FED7A6940050F2120001EFDE4A0EF66E64
:100FA000060EF76EFDDE040E0401326FFA0E050127
:100FB000476F000137DC0401322FF8D70001DDDE76
:100FC0000401F2CF32F4F29CF29EAA6A100EA96ECE
:100FD000A69CA69EA680A85032BDF28C32BFF28E8F
:100FE0002D6FF2CF32F4F29CF29EAA6A110EA96E16
:100FF000A69CA69EA680A85032BDF28C32BFF28E6F
:10100000336FF2CF34F4F29CF29EAA6A120EA96EEC
:10101000A69CA69EA680A85034BDF28C34BFF28E4A
:10102000356F33C42FF435C42EF4356B0001C8DEA0
:101030005C0EF66E060EF76E080E0401356F0001A9
:10104000C9DE2DC442F4A6DE100EE96E2FC433F4BF
:101050002EC432F4D3DE690EF66E060EF76E050E60
:101060000401356F0001B6DE400E0401356F00014A
:10107000A7DE700EF66E060EF76E92DE010159A91C
:1010800002D059991AD059A506D0599504012E2B92
:10109000D8B42F2B010159A706D0599704012E511E
:1010A000D8B42F072E07140E0501476F000112EC6C
:1010B00004F004000401B9D70101AA6A100EA96E58
:1010C000520EA86EA69CA69EA684F250006EF29CBC
:1010D000F29E0F01550EA76EAA0EA76EA682A6B2AB
:1010E000FED7A6940050F2122FC432F4AA6A110E51
:1010F000A96E2FC4A8FFA69CA69EA684F2CF00F0DE
:10110000F29CF29E550EA76EAA0EA76EA682A6B2FC
:10111000FED7A6940050F2122EC432F4AA6A120E20
:10112000A96E2EC4A8FFA69CA69EA684F2CF00F0AE
:10113000F29CF29E550EA76EAA0EA76EA682A6B2CC
:10114000FED7A6940050F212AA6A130EA96E30C4FC
:10115000A8FFA69CA69EA684F2CF00F0F29CF29E69
:10116000550EA76EAA0EA76EA682A6B2FED7A694AB
:101170000050F212AA6A140EA96E31C4A8FFA69CF0
:10118000A69EA684F2CF00F0F29CF29E550EA76EAA
:10119000AA0EA76EA682A6B2FED7A6940050F2129F
:1011A000F2CF32F4F29CF29EAA6A100EA96EA69CAF
:1011B000A69EA680A850040132BDF28C32BFF28EEA
:1011C000456EF2CF32F4F29CF29EAA6A110EA96E1D
:1011D000A69CA69EA680A85032BDF28C32BFF28E8D
:1011E000466EF2CF32F4F29CF29EAA6A120EA96EFB
:1011F000A69CA69EA680A85032BDF28C32BFF28E6D
:10120000476EF2CF32F4F29CF29EAA6A130EA96ED8
:10121000A69CA69EA680A85032BDF28C32BFF28E4C
:101220004D6EF2CF32F4F29CF29EAA6A140EA96EB1
:10123000A69CA69EA680A85032BDF28C32BFF28E2C
:101240004E6E00019ADD820EF66E060EF76EA8DD78
:10125000040E0401326FFA0E0501476F000112EC13
:1012600004F00401322FF7D7000187DD0401356B4C
:101270000001A6DD8C0EF66E060EF76E91DD400EB7
:101280000401356F00019CDD9A0EF66E060EF76EB6
:1012900087DD010159A901D0599959A506D0599561
:1012A000020E0401306F10D0010159A704D05997E4
:1012B0000401306B09D0140E0501476F000112ECD8
:1012C00004F00400D3D70401AA6A130EA96E30C437
:1012D000A8FFA69CA69EA684F250006EF29CF29EE9
:1012E0000F01550EA76EAA0EA76EA682A6B2FED754
:1012F000A6940050F212F2CF32F4F29CF29EAA6A47
:10130000130EA96EA69CA69EA680A850040132BD0D
:10131000F28C32BFF28E4D6E00012FDDAC0EF66EF8
:10132000060EF76E3DDD040E0401326FFA0E050164
:10133000476F000112EC04F00401322FF7D70001CF
:101340001CDD0401356B00013BDDBA0EF66E060EA6
:10135000F76E26DD400E0401356F000131DDCC0E45
:10136000F66E060EF76E1CDD010159A901D05999E0
:1013700059A506D05995010E0401316F10D0010115
:1013800059A704D059970401316B09D0140E0501F7
:10139000476F000112EC04F00400D3D70401AA6ADD
:1013A000140EA96E31C4A8FFA69CA69EA684F25076
:1013B000006EF29CF29E0F01550EA76EAA0EA76E4C
:1013C000A682A6B2FED7A6940050F212F2CF32F453
:1013D000F29CF29EAA6A140EA96EA69CA69EA680F6
:1013E000A850040132BDF28C32BFF28E4E6E000165
:1013F000C4DCDE0EF66E060EF76ED2DC040E0401BF
:10140000326FFA0E0501476F000112EC04F004017F
:10141000322FF7D70001B1DC1200F2CF2CF4F29C8E
:10142000F29EAA6A100EA96EA69CA69EA680A8503F
:1014300004012CBDF28C2CBFF28E520822E1F2CFB7
:101440002DF4F29CF29EAA6A130EA96EA69CA69E8B
:10145000A680A8502DBDF28C2DBFF28E020811E39C
:10146000F2CF2EF4F29CF29EAA6A140EA96EA69CEC
:10147000A69EA680A8502EBDF28C2EBFF28E01082B
:1014800005E2010E2C6F000117DD0CD0010159B5EA
:101490000AD059A908D059B706D0599904012C6B24
:1014A00000010ADD01010001BBEF23F005014251FB
:1014B000016A415D03E241C500F00CD0006A080EEC
:1014C000436F413700364251005CD8B0006E0136A0
:1014D000432FF7D700011200015031C441F5640ECB
:1014E0000501426F0001E2DF00C031F40150300E0F
:1014F00008E1040132A30ED032B70CD032B9200E6D
:1015000004D00401329732993281012601C042F49D
:10151000000140DC31C441F50A0E0501426F0001B3
:10152000C5DF00C031F40150300E08E1040132B7CC
:101530000AD032A108D032B9200E0001012601C024
:1015400042F428DC0401300E312731C442F400019A
:1015500021DC12000900F6CF32F4F7CF33F4F55056
:101560009EA8FED7AD6E32C4F6FF33C4F7FF040168
:10157000312F01D002D00001EDD70001120001503F
:1015800031C441F5640E0501426F00018FDF00C0D8
:1015900031F40150300E08E1040132A30ED032B70D
:1015A0000CD032B9200E04D0040132973299328126
:1015B000012601509EA8FED7AD6E31C441F50A0E3A
:1015C0000501426F000172DF00C031F40150300E9E
:1015D00008E1040132B70BD032A109D032B9200E94
:1015E0000001012601509EA8FED7AD6E0401300E09
:1015F000312731519EA8FED7AD6E000112000900BF
:10160000F5520DE0F6CF31F4F7CF32F4F5509EA845
:10161000FED7AD6E31C4F6FF32C4F7FFF0D712002B
:10162000EACF39F4E9CF38F404013239F009346FE4
:101630003427E20F356F320F376F32510F0B3527DA
:1016400035273727E90F366F3627362731390F0B05
:101650003627372736373737371F373731510F0B94
:1016600037273437070E336F0A0E36073727FDE367
:1016700035073627FDE334073527FDE333073427E5
:10168000FDE3040EEA6E330EE96E070E3815389D41
:10169000E926370EE95CD8B4388DEF50006E08E1CA
:1016A00038BD06D038B90CD038B702D0200E03D0E0
:1016B00038873899300E002600509EA8FED7AD6EB0
:1016C000EE5038ADE6D700018AEF0CF004012C6B28
:1016D000140E2F6F0001B2EC06F04D5207E11E0E02
:1016E000F66E070EF76ED0EC06F010D04D500208E3
:1016F00007E1260EF66E070EF76ED0EC06F006D068
:101700002E0EF66E070EF76ED0EC06F04E5207E185
:10171000380EF66E070EF76ED0EC06F00FD04E2C9A
:1017200007D0400EF66E070EF76ED0EC06F006D02E
:10173000480EF66E070EF76ED0EC06F0F2CF2FF4DF
:10174000F29CF29EAA6A110EA96EA69CA69EA68085
:10175000A85004012FBDF28C2FBFF28E306FF2CF54
:1017600031F4F29CF29EAA6A120EA96EA69CA69E65
:10177000A680A85031BDF28C31BFF28E326F30C4DA
:101780002EF432C42DF40A0E2C6F2C536AE0400E56
:10179000356F0001E0EC06F0F2CF2FF4F29CF29EE0
:1017A000AA6A100EA96EA69CA69EA680A850040147
:1017B0002FBDF28C2FBFF28E306F520EF66E070ED9
:1017C000F76E060E356F0001EAEC06F02CC431F41A
:1017D0001B0E0401326F00017FDE5A0EF66E070EFB
:1017E000F76E040E0401356F0001EAEC06F030C418
:1017F00042F4CAEC06F0100EE96E2EC433F42DC488
:1018000032F4FEEC06F0200E0401426F0001CAEC37
:1018100006F0660EF66E070EF76E080E0401316FC5
:10182000000198DE2CC431F41B0E0401326F00015C
:10183000A6DE700EF66E070EF76E0A0E0401316F0B
:10184000000188DE040E04012F6FFA0E0501476FB8
:10185000000112EC04F004012F2FF7D704002C072D
:1018600094D7F2CF2FF4F29CF29EAA6A100EA96EC2
:10187000A69CA69EA680A8502FBDF28C2FBFF28EEC
:10188000306F7C0EF66E070EF76E140E316F00018E
:1018900061DED60EF66E070EF76EB1DE920EF66EB4
:1018A000070EF76E040E0401316F000153DE48C0CD
:1018B00031F4010E0401326F000161DE2D0E9EA88D
:1018C000FED7AD6E49C031F4010E0401326F000144
:1018D00056DE2D0E9EA8FED7AD6E4AC031F4010E25
:1018E0000401326F00014BDEA40EF66E070EF76E98
:1018F0000A0E0401316F00012DDE040130519EA853
:10190000FED7AD6E100EE96E2EC432F42DC431F444
:10191000000186D6B30EF66E070EF76E0C0E0401AC
:10192000316F000117DE4DC031F41B0E0401326F20
:10193000000125DEC10EF66E070EF76E0E0E0401D5
:10194000316F000107DE4EC031F41B0E0401326F0F
:10195000000115DE290E9EA8FED7AD6E0D0E9EA8C5
:10196000FED7AD6E0A0E9EA8FED7AD6EBDEF23F07A
:10197000A00E05014D6F4B517F0802E24D834B9F36
:1019800094880000948600008B98949800008B96B1
:1019900094964DC550F50001A8EC04F04BC54EF5EA
:1019A00005014F6B4BC550F50001A8EC04F04AC58A
:1019B00050F5A8EC04F04CC550F5A8EC04F0949850
:1019C0000000948682A6FED7000000D00000948814
:1019D000000012001E0EF66E040EF76E10DEBDEC57
:1019E00006F0380EF66E040EF76ED0EC06F0050E1B
:1019F00004012C6FF00E0501476F000112EC04F09A
:101A000004012C2FF7D705014B6B4A6B4C6B00017F
:101A1000AFDF05014B6B020E4A6F4C6B0001A8DF74
:101A200005014B6B030E4A6F4C6B0001A1DF9594CF
:101A30008C9400006650500E666E6430FEE3665073
:101A4000666A6430FEE36650666A6430FEE36650A0
:101A5000666A6430FEE395948C8400000A0E0501EA
:101A6000476F000112EC04F095948C9400006650CE
:101A7000D70E666E6430FEE36650666A6430FEE33D
:101A800066CF5CF495948C84000004015CC401F082
:101A900001C02CF401BE04D004000001E5D704010C
:101AA000400E356F0001E0EC06F0480EF66E040EB5
:101AB000F76ED0EC06F04E0EF66E040EF76E9FDD5C
:101AC000050E04012C6FF00E0501476F000112ECAA
:101AD00004F004012C2FF7D70001120081CF2CF461
:101AE00004012CB907D001015AB902D0040102D077
:101AF000588F04012CA907D001015AA902D0040172
:101B000002D0588104012CC45AF10001D23D03D007
:101B1000D33D01D003D0D22BD8B4D32BD43D03D0A6
:101B2000D53D01D003D0D42BD8B4D52BD051D11171
:101B30000BE0D35303E1D251050806E2D23D03D0B6
:101B4000D33D01D001D04F80D890040126352D6FB0
:101B500027352E6F000E01015AAB010E04012D1323
:101B60002DC426F42E51E009276F265309E1275191
:101B7000F00806E10101598758811E0E616F0401CA
:101B8000D89028352D6F29352E6F000E01015AADE2
:101B9000010E04012D132DC428F42E51E009296FE4
:101BA000285309E12951F00806E1010159895881BA
:101BB0001E0E616F0401D8902A352D6F2B352E6FC4
:101BC000000E01015AAF010E04012D132DC42AF499
:101BD0002E51E0092B6F2A5309E12B51F00806E141
:101BE0000101598558811E0E616F0401000110EF3B
:101BF00024F0020E04014C6F000129EC05F00150A5
:101C00003F0B04012C6F4D6F000163EC05F001C028
:101C10005BF1010E04014C6F000129EC05F001C0DD
:101C20002CF401C04DF463EC05F001C05CF104013B
:101C30004C6B000129EC05F001507F0B04012C6F67
:101C40004D6F000163EC05F001C05DF1040E04016D
:101C50004C6F000129EC05F001C02CF401C04DF4DB
:101C600063EC05F001C05EF1050E04014C6F00014C
:101C700029EC05F001C02CF401C04DF463EC05F033
:101C800001C05FF1060E04014C6F000129EC05F064
:101C900001C02CF401C04DF463EC05F001C060F10B
:101CA00057EF0EF0969A8D8A64EF0EF0A2D70101DD
:101CB000615303E197908E8003D097908E906107D7
:101CC000625304E10001EED708D0010104012F6B3B
:101CD0000001B2EC06F0010162070101635304E167
:101CE0005889090E636F01D0630704012551010172
:101CF0005C5D21E058835CC125F44B3C03D04C3C37
:101D000001D003D04B2AD8B44C2A5C511E0802E102
:101D1000598104D05C512D0801E159915C510508AD
:101D200009E05C51140806E05C51230803E05C51B3
:101D3000320801E1588B000117EF24F09D9A010150
:101D400057B12DD0EA6AD60EE96EE26A500EE16E06
:101D5000D1C002F0D0C001F0015202E0022A02D04C
:101D6000025206E0E6CFEEFF012EFCD7022EFAD794
:101D7000010E0001D02504012C6F000E0001D121BD
:101D800004012D6FD60E2C25E96E000E2D21EA6E72
:101D9000EF6A010157810001D16BD06B01019D8A6F
:101DA00000011DEF24F00401766975697351730712
:101DB000000A26E072C403F07151712BD8B4722B63
:101DC000E96E03C0EAFFEF50751B746B745107088E
:101DD00016E37551010B006E036A005003100AE010
:101DE000D8907631786F7531010A756F7851A00AF5
:101DF000766F03D0D89076337533742BE7D7D6D768
:101E000075C401F076C402F000011200010157A16F
:101E100048D057910001D651230842E1D751455C83
:101E20003FE1D851465C3CE1D951475C39E1DA5198
:101E30000D0836E1DB51160833E10401726BD70E51
:101E4000716F0A0E736F0001AEDF02C02DF401C086
:101E50002CF4E1C003F0E25104012C5D03E10350D6
:101E60002D5D01E01FD0FA0E2F6F0001B2EC06F0DD
:101E7000DC5105E0010A07E0030A09E011D0010185
:101E8000588B00010DD001015885000109D0DDC03B
:101E9000DEF3DEC0DDF3DFC0E0F3E0C0DFF300D04F
:101EA00001010401000121EF24F0D8B204D0050E95
:101EB000EA6E540EE96E006A016A026A036A05015D
:101EC000546B556B566B576B535152115111501146
:101ED0002CE0200E586FD8904C374D374E374F3787
:101EE00054375537563757375351575D08E15251DC
:101EF000565D05E15151555D02E15051545D0FE3CE
:101F00005051545F5151D8A0513D555F5251D8A006
:101F1000523D565F5351D8A0533D575FD88000368D
:101F2000013602360336582FD6D754C5EFFF55C5B4
:101F3000ECFF56C5ECFF57C5ECFF00011200D8902E
:101F400004011D35036AFD0FE96E030E0320EA6EDE
:101F500032C4ECFFED5231C4EFFF1D2B1D510F08B1
:101F600001E21D6B1E510F0801E31E2B3A6B396B0A
:101F7000386B376B3B6B1E513B5D14E2D8903B35A1
:101F8000036AFD0FE96E030E0320EA6EECCF03F047
:101F9000ED52EF50372703503823000E39233A23F0
:101FA0003B2BE9D7D8901E31006E016A026A036AA2
:101FB000005037253D6F015038213E6F02503921C6
:101FC0003F6F03503A21406FD892E8CF4FF53FC49E
:101FD0004EF53EC44DF53DC44CF50501536B526BB7
:101FE000516B1EC450F5000160DF03C036F402C01F
:101FF00035F401C034F400C033F4040133C401F0FB
:1020000034C402F0000115EF11F004013051000852
:1020100008E2FF0A03E12F51440803E20A0E016EB1
:1020200065D03051000808E2FF0A03E12F513F0854
:1020300003E2090E016E5AD03051000808E2FF0A8F
:1020400003E12F513D0803E2080E016E4FD03051DD
:10205000000808E2FF0A03E12F513A0803E2070EE5
:10206000016E44D03051000808E2FF0A03E12F510D
:10207000370803E2060E016E39D03051000808E23D
:10208000FF0A03E12F51330803E2050E016E2ED043
:102090003051000808E2FF0A03E12F512F0803E244
:1020A000040E016E23D03051000808E2FF0A03E15C
:1020B0002F512C0803E2030E016E18D03051000896
:1020C00008E2FF0A03E12F51270803E2020E016E26
:1020D0000DD03051000808E2FF0A03E12F5120081B
:1020E00003E2010E016E02D0000E016E000126EF28
:1020F00011F00401325303E131513F0808E2325339
:1021000006E13151BF0803E3010E016E6BD032537B
:1021100003E13151BF080AE23251010807E303E14C
:1021200031513F0803E3020E016E5CD032510008CA
:102130000FE2FF0A03E131513F080AE23251010880
:1021400007E303E13151BF0803E3030E016E4AD0F8
:10215000325100080FE2FF0A03E13151BF080AE2E1
:102160003251020807E303E131513F0803E3040E53
:10217000016E38D0325101080FE2FF0A03E13151FC
:102180003F080AE23251020807E303E13151BF0878
:1021900003E3050E016E26D0325101080FE2FF0A5B
:1021A00003E13151BF080AE23251030807E303E1BA
:1021B00031513F0803E3060E016E14D0325102087C
:1021C0000FE2FF0A03E131513F080AE232510308EE
:1021D00007E303E13151BF0803E3070E016E02D0AC
:1021E000000E016E00014BEF11F0000E016EC250A7
:1021F000C30B0110C26E010E0501476F000112EC06
:1022000004F004012C6B2C510F0816E3C282C2B2F9
:10221000FED7C4CF03F0C3CF2FF4C4CF30F4C4CF64
:1022200032F4C3CF31F400018AD602C02EF401C0CB
:102230002DF404012C2BE7D72EC442F02DC441F01D
:102240002EC430F42DC42FF40001DFD601C044F0B9
:102250004D50020807E1040E016EC250C30B01107D
:10226000C26E06D00C0E016EC250C30B0110C26EBE
:10227000010E0501476F000112EC04F0C282C2B2E8
:10228000FED7C4CF30F4C3CF2FF4C4CF32F4C3CFC2
:1022900031F400012ED701C043F0B3EF11F09EA836
:1022A000FED7AD6E1200230E04012C6F45C02DF435
:1022B00046C02EF447C02FF40F0E306F070E316F5B
:1022C00036C032F435C033F438C034F437C035F496
:1022D00044383E6FF00E3E1743500F0B3E25366FCD
:1022E0003AC037F439C038F4040E726F2D0E716F96
:1022F0000C0E736F000157DD02C03CF401C03BF4CB
:1023000004013CC439F43BC43AF43D6B3D510E0822
:102310000FE3036A3D512C0FE96E040E0320EA6EB1
:10232000EFCF3EF43E510001BADF04013D2BEED762
:102330000001B4EF11F00301E9BB0BD0010E040161
:102340002F6F0001B2EC06F0D56BD46B0301E98B63
:102350000DD00001D55303E1D4510D0807E201016E
:102360005899000142D79FD70301E99B000127EF4D
:1023700024F0A00E05014C6F4A517F0802E24C8305
:102380004A9F94880000948600008B9894980000DF
:102390008B9694964CC550F50001A8EC04F04AC504
:1023A0004DF505014E6B4AC550F50001A8EC04F04F
:1023B00049C550F5A8EC04F094880000948600000C
:1023C00082A6FED78B98949800008B969496050170
:1023D0004C5101094D6F506F0001A8EC04F0006AE8
:1023E00003EC05F001C04BF594980000948682A69A
:1023F000FED7000000D000009488000005014BC506
:1024000001F000011200230E04012C6F45C02DF4D1
:1024100046C02EF447C02FF42B0E306F080E316FDC
:1024200036C032F435C033F438C034F437C035F434
:102430003AC036F439C037F460C138F45FC139F4BA
:102440005EC13AF45BC13BF45CC13CF45DC13DF458
:1024500095948C9400006650D70E666E6430FEE34F
:102460006650666A6430FEE366CF5CF495948C84B3
:1024700000005CC401F001C03EF405014A6B020E8D
:10248000496F000176DF01C03FF405014A6B030E7E
:10249000496F00016EDF01C040F442C041F4040105
:1024A00041C042F49682436B84B2432B010E5D6FB0
:1024B0006A0E5DC45BF45A6F5AC4E9FF5BC4EAFF5D
:1024C000EFCF44F4010E5A25E96E000E5B21EA6E4F
:1024D000EFCF45F4020E5A25E96E000E5B21EA6E3D
:1024E000EFCF46F4030E5A25E96E000E5B21EA6E2B
:1024F000EFCF47F4010E5D6F6E0E5DC45BF45A6F53
:102500005AC4E9FF5BC4EAFFEFCF48F4010E5A2535
:10251000E96E000E5B21EA6EEFCF49F4020E5A25F8
:10252000E96E000E5B21EA6EEFCF4AF4030E5A25E6
:10253000E96E000E5B21EA6EEFCF4BF443C04CF422
:102540004D6B4E6B4F6B48C050F449500F0B5C6F96
:1025500001016251F00B04015C25516F4AC052F435
:102560004CC053F44BC054F4040E726F2D0E716FB7
:10257000280E736F000117DC02C058F401C057F435
:10258000040158C455F457C456F4596B59512A08DC
:102590000FE3036A59512C0FE96E040E0320EA6E13
:1025A000EFCF5CF45C5100017ADE0401592BEED7C9
:1025B0000001F4EF12F00301E9BD0CD00001D56B6E
:1025C000D46B010E04012F6F0001B2EC06F0030181
:1025D000E98D0CD00001D55303E1D4510D0806E27A
:1025E0000101589B00010FD70301E99D00012DEF68
:1025F00024F095948C9400006650D20E666E643080
:10260000FEE304012C372D372C372D37FC0E2C1709
:102610002DC430F466502DC466FF6430FEE32CC434
:1026200030F466502CC466FF6430FEE36650666A80
:102630006430FEE36650666A6430FEE36650666AA4
:102640006430FEE36650666A6430FEE36650666A94
:102650006430FEE32F6B2E6B2F51020814E303E16D
:102660002E510F0810E3CD0E2E25E96E010E2F21FD
:10267000EA6E6650666A6430FEE366CFEFFF2E2B8B
:10268000D8B42F2BE9D795948C840000000129EF52
:1026900014F0050149514B03F3CF01F0F4CF00F0E2
:1026A0004C03F35000264A514B03F3500020026EB6
:1026B0000001120005014A6B496B00015ADE036AF2
:1026C00001C030F403C031F405014A6B0C0E496FB0
:1026D00003C04CF501C04BF50001DBDF02C02FF455
:1026E00001C02EF404012D6B2C6B2D512F5D23E3C3
:1026F00003E12E512C5D1FE2CD0E2C25016E010E43
:102700002D21036E01C030F4316F2CC432F4020E5F
:102710002D25336FE8CF4AF52CC449F5000129DE99
:1027200031C4EAFF30C4E9FF01C0EFFF04012C2BE4
:10273000D8B42D2BDAD72D5102080FE303E12C5129
:102740000F080BE3CD0E2C25E96E010E2D21EA6E4C
:10275000EF682C2BD8B42D2BEED700012DEF14F001
:10276000230E0401346F45C035F446C036F447C02B
:1027700037F43A0E386F150E396F31C43AF430C45D
:102780003BF4706B70512F081DE3080E7025036A2F
:10279000340F016E040E032270513225736F000E48
:1027A0003321746FCD0E7325E96E010E7421EA6E2C
:1027B000EFCF75F403C0EAFF01C0E9FF75C4EFFF76
:1027C000702BE0D7040E726F350E716F370E736F7A
:1027D0000001D3EC0EF002C06FF401C06EF40401EE
:1027E0006FC46CF46EC46DF4706B705139080FE3F4
:1027F000036A7051340FE96E040E0320EA6EEFCFC6
:1028000071F4715100014BDD0401702BEED7000112
:1028100061EF14F00301DE510F0805E2FF0A07E142
:10282000DD51010804E3DF5305E1E05303E1E06B10
:10283000DF6B5BD0968884A801D057D0EC530DE1B4
:10284000DE510F0808E3DEC32DF4DDC32CF40001D4
:10285000D0D603D0030100012DD7010E04012F6F44
:102860000001B2EC06F0DEC34AF5DDC349F505010F
:102870004C6B0B0E4B6F00010CDF02C02DF401C03E
:102880002CF40301EC5104012C27000E2D232F6B97
:10289000ECC32EF42FC44AF5ECC349F505014C6B8B
:1028A000300E4B6F0001F5DE02C02FF401C02EF494
:1028B0002DC431F42CC430F402C033F401C032F41E
:1028C0004FD70301EC2BEC510B080FE1EC6BDF53FE
:1028D00002E1E05308E0DD2BD8B4DE2BDF51D8B4A1
:1028E000E007DF0702D0DE69DD69000130EF24F088
:1028F0008E0E006E36C401F035C402F0036A015238
:1029000009E102C001F0026A080E005E015202E114
:10291000006A08D0D89001BE04D002360136000605
:10292000F9D7019E120004013551D8B4A5D0416FEA
:102930003951D8B4A1D0415F05E37F0E4127D8B00B
:102940009BD006D0810E415FD8A096D0D8B494D049
:1029500041C400F0016A026A036A406B36C43FF466
:102960003F8F37C43EF438C43DF4190E416F3C51DB
:102970003D5F0DE2010E3E5F0AE23F5F08E2405F0D
:1029800006E2402B3F2B3E2B3C513D2728D03B51AC
:102990003E5F12E2010E3F5F0FE2405F0DE2402B0F
:1029A0003F2B3B513E273C513D2719E33E2B17E17E
:1029B0003F2B15E1402B13D03A5180093F5F0EE2C7
:1029C000010E405F0BE2402B3A5180093F273B51FB
:1029D0003E27E9E33F2BE7E1402BE5D70380412F7A
:1029E00001D00BD0D8903D373E373F374037D89095
:1029F0000336023601364237BAD742A106D0D89004
:102A0000013202320332423302D0000635E042BFC7
:102A10001ED0D8903D373E373F3740373C513D5F61
:102A200007E2010E3E5F04E23F5F02E2405F1AE30D
:102A30003B513E5F05E2010E3F5F02E2405F12E361
:102A40003A5180093F5F03E2010E405F0BE3032A26
:102A500009E1022A07E1012A05E1002A0DE001321D
:102A60000232033236C441F43A51411B41AF02D025
:102A7000018E06D0019E04D0006A016A026A036AD0
:102A800000011200800ED8A202D004013E1B0401F6
:102A9000436B446B3AC442F43E51421B3951D8B4A3
:102AA000DFD0416F006E3D51D8B4E3D0415FD8B460
:102AB00083D03EE33EC447F4478F3FC446F440C44E
:102AC00045F4446BD8904733463345334433412F64
:102AD000F8D742AF03D04381E0D04391419143897D
:102AE000040EEA6E3C0EE96EEBD0439942BF0AD069
:102AF00041A113D04733463345334433002AD8B479
:102B0000C7D00BD047BF0CD0D89044374537463795
:102B100047370006D8B4BCD0F5D7438D6DD0439D60
:102B20003AC442F43AAF02D0478FABD0479FA9D006
:102B30003DC441F43DC400F03951415F3AC447F40B
:102B4000478F3BC446F43CC445F4446BD8904733AC
:102B5000463345334433412FF8D742AF03D0438344
:102B60009CD043934191438B040EEA6E400EE96E74
:102B7000A7D0439B42BF0AD041A113D0473346336D
:102B800045334433002AD8B483D00BD047BF0CD090
:102B9000D89044374537463747370006D8B478D001
:102BA000F5D7438F29D0439F3EC442F43EAF02D0B5
:102BB000478F67D0479F65D03EC447F4478F3FC4D7
:102BC00046F440C445F442AF04D0479F438565D0E6
:102BD0004395446B4191040EEA6E3C0EE96E70D051
:102BE00042BF1CD03AC442F441A106D04733463319
:102BF00045334433002A4CE044AF0BD0452B09E168
:102C0000462B07E1472B05E1473346334533002A7E
:102C10003FE043BD84D743BFC6D71CD0800E471BBF
:102C200047AF04D03AD03EC442F40AD03AC442F48A
:102C3000475306E1465304E1455302E1006A21D0BF
:102C400047BF08D0D8904437453746374737002E1E
:102C5000F7D71ED042AF02D0478F13D0479F11D075
:102C60003DC400F03EC447F43FC446F440C445F4BC
:102C700008D039C400F03AC447F43BC446F43CC41D
:102C800045F447C401F046C402F045C403F034D013
:102C9000006A016A026A036A2FD0446B451F461F0F
:102CA000471F441F442B05E1452B03E1462B01E15F
:102CB000472B43B112D743B354D743B589D7B3D7C2
:102CC000EF50452705E3462B03E1472BD8B441815C
:102CD000ED52EF50462703E3472BD8B44181ED5224
:102CE000EF50EFBE01D0800A4727D8B0418143B9E9
:102CF000FCD643BB3ED774D70001120005014C51EE
:102D0000D8B471D0006E5051D8B46DD0002604E311
:102D1000810E002668E204D07F0E005E64E363E06B
:102D20004DC554F55151541B4D8F518F4F51530385
:102D3000F4CF56F54E515203F4CF03F0F3CF55F5CF
:102D40005303F3505627F4505523000E03224F51DE
:102D50005203F3505627F4505523000E026A032203
:102D600002224D515303F3505527F4500322000E15
:102D700002224D515203F3500326F4500222000E5A
:102D8000016A01224F515103F3505527F450032299
:102D9000000E022201224E515103F3500326F4503B
:102DA0000222000E01224D515103F3500226F4502D
:102DB0000122002A01BE05D05537033602360136FE
:102DC0000006000E55AF0AD0032A0222012201504C
:102DD00005E1025003E1035001E1002A54BF018ED6
:102DE00054AF019E04D0006A016A026A036A0001BE
:102DF000120005014C51B6084C6F036A4DC550F5E1
:102E00004D8FD8904D334E334F330332023201325F
:102E100000324C2FF6D750AF0BD0001E011E021E01
:102E2000031E002AD8B4012AD8B4022AD8B4032A2F
:102E300000011200E95004013A6F39513C6F1CE067
:102E400038C44FF537C44EF536C44DF535C44CF58E
:102E50000501536B526B200E516F820E506F0001B3
:102E60004DDF03C038F402C037F401C036F400C0AF
:102E700035F404013C2FE4D738C44FF537C44EF580
:102E800036C44DF535C44CF50001B3DF03C038F44A
:102E900002C037F401C036F400C035F4040138AF85
:102EA0000DD03A073A8B351F361F371F381F352B89
:102EB000D8B4362BD8B4372BD8B4382B3B0E416F4F
:102EC0009A0E406FCA0E3F6F3E6B0A0E3C6F39512F
:102ED000D8B43A2BD882040EEA6E350EE96E38C4A7
:102EE0004FF537C44EF536C44DF535C44CF541C4E5
:102EF00053F540C452F53FC451F53EC450F50001AE
:102F000055EC0FF00150005213E1040139293C5DEA
:102F1000D8A402D000010CD03A510DE00F0B3C5D5B
:102F200001E044E23ABF42D03ABD05D0200E37D08E
:102F3000200E04013A173AAB0FD03A9B3951D8A46E
:102F40003A0700503A6F2D0E426F0001CAEC06F0AE
:102F500004013A51006E3A6B39513C5D0DE100506D
:102F60003A6F2E0E426F0001CAEC06F004013A518E
:102F7000006E200E3A17000E300E3AAB10D03A9B7E
:102F80003951D8A43A0700503A6F2D0E426F000114
:102F9000CAEC06F004013A51006E3A6B300E00267E
:102FA00000C042F40001CAEC06F00401D89241C40A
:102FB0004FF540C44EF53FC44DF53EC44CF50501F8
:102FC000536B526B516B0A0E506F000155EC0FF0B2
:102FD00003C041F402C040F401C03FF400C03EF41D
:102FE00004013C2F77D7000112004E52D8A485D09F
:102FF000355202E136523EE0353C03D0363C01D03A
:1030000039D036C036F435C035F472DC0401386B83
:10301000100E376F6F0E366F8B0E356F03C03CF49A
:1030200002C03BF401C03AF400C039F400017BDC7B
:1030300000C035F401C036F402C037F403C038F4E0
:10304000D89203C03CF402C03BF401C03AF400C083
:1030500039F4330E0401406F3F6F3E6F7D0E3D6FBC
:10306000000110DD03C030F402C02FF401C02EF4C3
:1030700000C02DF4375202E138523EE0373C03D015
:10308000383C01D039D038C036F437C035F430DCA4
:103090000401386B100E376F6F0E366F8B0E356F65
:1030A00003C03CF402C03BF401C03AF400C039F460
:1030B000000139DC00C035F401C036F402C037F439
:1030C00003C038F4D89203C03CF402C03BF401C002
:1030D0003AF400C039F4330E0401406F3F6F3E6F85
:1030E0007D0E3D6F0001CEDC03C034F402C033F42A
:1030F00001C032F400C031F4A1D04E2C91D03B522B
:1031000002E13C523EE03CC036F43BC035F478EC82
:1031100014F0860E05014F6F550E4E6F3C0E4D6F2D
:103120007A0E4C6F03C053F502C052F501C051F541
:1031300000C050F50001E2DD00C035F401C036F4F6
:1031400002C037F403C038F4D89203C03CF402C084
:103150003BF401C03AF400C039F4030E0401406F9F
:10316000CF0E3F6F7D0E3E6F7C0E3D6F00018ADCFF
:1031700003C030F402C02FF401C02EF400C02DF4BF
:1031800006D00401306B2F6B2E6B2D6B00013D526E
:1031900002E13E523EE03EC036F43DC035F478ECEC
:1031A00014F0860E05014F6F550E4E6F3C0E4D6F9D
:1031B0007A0E4C6F03C053F502C052F501C051F5B1
:1031C00000C050F500019ADD00C035F401C036F4AE
:1031D00002C037F403C038F4D89203C03CF402C0F4
:1031E0003BF401C03AF400C039F4030E0401406F0F
:1031F000CF0E3F6F7D0E3E6F7C0E3D6F000142DCB7
:1032000003C034F402C033F401C032F400C031F41E
:1032100006D00401346B336B326B316B00010ED07E
:103220000401306B2F6B800E2E6F7F0E2D6F346B71
:10323000336B800E326F7F0E316F0001D40EF66E4D
:10324000050EF76E070E0401356F0001EAEC06F07B
:10325000410EE96E30C438F42FC437F42EC436F46E
:103260002DC435F4010E0401396F0001E3DDE10ED8
:10327000F66E050EF76E040E0401356F0001EAECE0
:1032800006F0400E0401356F0001E0EC06F0E60E9A
:10329000F66E050EF76E070E0401356F0001EAECBD
:1032A00006F0410EE96E34C438F433C437F432C446
:1032B00036F431C435F4010E0401396F0001BADD72
:1032C000F30EF66E050EF76E040E0401356F000165
:1032D000EAEC06F0EEEF1EF04A0EF66E050EF76E03
:1032E000D0EC06F0400E0401356F0001E0EC06F072
:1032F0005A0EF66E050EF76E070E0401356F0001CB
:10330000EAEC06F043C031F41B0E0401326F0001F9
:103310006CEC0AF0200E0401426F0001CAEC06F0CA
:10332000280E0401426F0001CAEC06F04350F80F6A
:103330003BE2080FE2EF19F0300E0401426F00018A
:10334000CAEC06F031D0660EF66E050EF76ED0ECC4
:1033500006F02AD06A0EF66E050EF76ED0EC06F077
:1033600023D06E0EF66E050EF76ED0EC06F01CD074
:10337000720EF66E050EF76ED0EC06F015D0760ED6
:10338000F66E050EF76ED0EC06F00ED07A0EF66EE5
:10339000050EF76ED0EC06F007D07E0EF66E050E29
:1033A000F76ED0EC06F000D0DF0E0401426F000192
:1033B000CAEC06F0290E0401426F0001CAEC06F0C7
:1033C000F4EF1EF0E824F76AF736DF0FF66E330EDF
:1033D000F7220A00F550FA6E0800F550F96E3833FE
:1033E00046335433623370337E338C339A33A40EB6
:1033F000F66E050EF76E080E0401356F0001EAEC5B
:1034000006F060C131F4010E0401326F00016CEC72
:103410000AF02D0E0401426F0001CAEC06F05FC1F4
:1034200031F4010E0401326F00016CEC0AF02D0E34
:103430000401426F0001CAEC06F05EC131F4010ED6
:103440000401326F00016CEC0AF0400E0401356F8C
:103450000001E0EC06F0BC0EF66E050EF76E040EF1
:103460000401356F0001EAEC06F05BC131F4010E96
:103470000401326F00016CEC0AF03A0E0401426F55
:103480000001CAEC06F05CC131F4010E0401326F98
:1034900000016CEC0AF03A0E0401426F0001CAEC24
:1034A00006F05DC131F4010E0401326F00016CECD5
:1034B0000AF0CE0EF66E050EF76E040E0401356F9F
:1034C0000001EAEC06F0FAEF1EF00A0EF66E050EA9
:1034D000F76ED0EC06F0400E0401356F0001E0EC11
:1034E00006F005014A6B020E496F0001B9EC11F0BC
:1034F00001C02DF405014A6B030E496F0001B9ECC0
:1035000011F001C02EF42DC430F401C02FF4100EC0
:10351000E96E2DC433F401C032F4FEEC06F02F0E38
:103520000401426F0001CAEC06F0100EE96E0401BE
:10353000336F326B0001FEEC06F0210EF66E050EC5
:10354000F76E050E0401356F0001EAEC06F000EF9E
:103550001FF0E00EF66E040EF76ED0EC06F0400E93
:103560000401356F0001E0EC06F0968284B207D0CA
:10357000F00EF66E040EF76ED0EC06F006D0FC0EE0
:10358000F66E040EF76ED0EC06F0010159A902D0D8
:103590005999588B000106EF1FF04E2C31D0100EB8
:1035A000E96E3CC033F43BC032F4FEEC06F0060E8C
:1035B0000401356F0001E0EC06F0100EE96E3EC02C
:1035C00033F43DC032F4FEEC06F00C0E0401356F0E
:1035D0000001E0EC06F0100EE96E40C033F43FC08D
:1035E00032F4FEEC06F0400E0401356F0001E0EC11
:1035F00006F0820EF66E050EF76ED0EC06F030D0B7
:10360000080EE96E36C033F435C032F4FEEC06F035
:10361000060E0401356F0001E0EC06F0080EE96EBD
:1036200038C033F437C032F4FEEC06F00C0E04015F
:10363000356F0001E0EC06F0090EE96E3AC033F494
:1036400039C032F4FEEC06F0400E0401356F000183
:10365000E0EC06F0920EF66E050EF76ED0EC06F07A
:103660000CEF1FF0200E040133A9300E346F32C46A
:1036700000F032AF08D0001E002A00C032F42D0E38
:10368000346F338F3381015032C441F5640E05012C
:10369000426F000156EC0AF000C032F4300E0124F3
:1036A0000401356F32C441F50A0E0501426F000175
:1036B00056EC0AF0300E00240401376F300E01245E
:1036C000366F34C400F0300E355D04E0338333BF11
:1036D000338512D034C435F4200E346F300E365D8D
:1036E00004E0338133BF338307D0D8A4338104E1AE
:1036F00035C436F4200E356F33B505D033B308D05A
:1037000033B10BD00FD034C442F40001CAEC06F040
:1037100035C442F40001CAEC06F036C442F400019C
:10372000CAEC06F037C442F40001CAEC06F0F8EF28
:103730001BF042C036F441C035F478EC14F00501BA
:103740004F6B4E6B200E4D6F7A0E4C6F03C053F5CE
:1037500002C052F501C051F500C050F500017EECE9
:1037600016F003C030F402C02FF401C02EF400C0E4
:103770002DF4280EF66E050EF76E070E0401356F58
:103780000001EAEC06F0C90EE96E30C438F42FC42B
:1037900037F42EC436F42DC435F4010E0401396F0C
:1037A00000011AEC17F0350EF66E050EF76E060ED8
:1037B0000401356F0001EAEC06F0400E0401356F9C
:1037C0000001E0EC06F044500A0DF3CF31F404019F
:1037D0003C0EF66E050EF76E090E356F0001EAEC31
:1037E00006F031C432F4180E0401336F00013AD7E9
:1037F000250E0401426F0001CAEC06F011EF1FF024
:10380000C60EF66E040EF76ED0EC06F0400E040104
:10381000356F0001E0EC06F062C131F41B0E0401CB
:10382000326F00016CEC0AF0D60EF66E040EF76EE5
:10383000080E0401356F0001EAEC06F016EF1FF0E8
:10384000200E040133A9300E346F32C400F032AFC1
:1038500008D0001E002A00C032F42D0E346F338FC2
:103860003381015032C441F5640E0501426F0001FD
:1038700056EC0AF000C032F4300E01240401356F1A
:1038800032C441F50A0E0501426F000156EC0AF000
:10389000300E00240401376F300E0124366F34C41B
:1038A00000F0300E355D04E0338333BF338512D032
:1038B00033B510D034C435F433B304D0300E365D94
:1038C00004E0338133BF338305D0D8A43381D8B427
:1038D00035C436F433B505D033B308D033B10BD08B
:1038E0000FD034C442F40001CAEC06F035C442F4EF
:1038F0000001CAEC06F036C442F40001CAEC06F03E
:1039000037C442F40001CAEC06F01200400E040174
:10391000356F0001E0EC06F0F80EF66E050EF76E5E
:10392000D0EC06F01200400E0401356F0001E0EC0F
:1039300006F00A0EF66E060EF76ED0EC06F01200D8
:1039400097928E9232C44CF42BEC04F01A0E006E57
:10395000002EFED70000120032C433F40401346B91
:103960003351090805E20A0E335F100E342703D0E5
:103970003351342701D0F4D734C401F000011200D0
:10398000040131911F51000A000105E0010A0DE018
:10399000030A15E01FD004012E6B630E2F6F090E72
:1039A0002D6F60C130F4000115D0010E04012E6F9F
:1039B0000C0E2F6F2D6F5FC130F400010BD0010E84
:1039C00004012E6F1F0E2F6F0F0E2D6F5EC130F48E
:1039D000000100D0F00EF66E060EF76E080E040120
:1039E000356F0001EAEC06F060C132F4010E04010B
:1039F000336F000125DF2D0E0401426F0001CAEC78
:103A000006F05FC132F4010E0401336F000118DFCC
:103A10002D0E0401426F0001CAEC06F05EC132F4C3
:103A2000010E0401336F00010BDF0301E9B50CD077
:103A3000010159A905D00301E9850101599903D074
:103A4000000164DF01010301E9A52ED000016BDF55
:103A50002DC435F4E0EC06F00E0E0401326F0001C7
:103A60006FDF010159A50CD059950401302B30BFEF
:103A700005D030512F5D02E22EC430F431810101B6
:103A800059A70CD059970401300730BF03D02E51ED
:103A9000305D02E22FC430F43181010159A904D014
:103AA000599904011F2B0101040131A13DD00101ED
:103AB000588104011F51000A000105E0010A13E0CA
:103AC000030A21E030D030C460F160C132F444DF39
:103AD00001C032F4060E04014C6F01C04DF4000128
:103AE000D1EC04F020D030C45FF15FC132F434DF98
:103AF00001C032F4050E04014C6F01C04DF4000109
:103B0000D1EC04F010D030C45EF15EC132F424DF99
:103B100001C032F4040E04014C6F01C04DF40001E9
:103B2000D1EC04F000D004011F51030808E10301A7
:103B3000E99504011F6B0C0E326F000101DF000ECE
:103B40000301E9B5010E016E00011BEF1FF0040136
:103B500031912051000A000105E0010A0DE0030A3D
:103B600015E01ED004012E6B170E2F6F070E2D6F60
:103B70005BC130F4000114D004012E6B3B0E2F6F9B
:103B80000A0E2D6F5CC130F400010AD004012E6BC7
:103B90003B0E2F6F0D0E2D6F5DC130F4000100D074
:103BA000080EF66E070EF76E060E0401356F000163
:103BB000EAEC06F05BC132F4010E0401336F000140
:103BC0003FDE3A0E0401426F0001CAEC06F05CC110
:103BD00032F4010E0401336F000132DE3A0E0401AB
:103BE000426F0001CAEC06F05DC132F4010E04011F
:103BF000336F000125DE0301E9B70DD0010159A99A
:103C000006D00301E98701015999588103D00001C9
:103C10007DDE01010301E9A731D0000184DE2DC45E
:103C200035F4E0EC06F00E0E0401326F000188DE80
:103C3000010159A50DD059950401302B30BF05D095
:103C400030512F5D02E22EC430F4318101015881E0
:103C500059A70DD059970401300730BF03D02E511A
:103C6000305D02E22FC430F431810101588159A93D
:103C700005D059990401202B01015881040131A17B
:103C80003CD00101588104012051000A000105E0E7
:103C9000010A13E0030A21E02FD030C45BF15BC1BD
:103CA00032F45ADE01C032F4020E04014C6F01C03E
:103CB0004DF40001D1EC04F01FD030C45CF15CC1C4
:103CC00032F44ADE01C032F4010E04014C6F01C02F
:103CD0004DF40001D1EC04F00FD030C45DF15DC1B2
:103CE00032F43ADE01507F0B0401326F4C6B4D6FA2
:103CF0000001D1EC04F000D00401205103080AE1D6
:103D00000301E9970401206B0C0E326F000118DEED
:103D100001015881000E0301E9B7010E016E000197
:103D200022EF1FF08C0EF66E040EF76E090E0401E2
:103D3000356F0001EAEC06F0080EE96EDEC333F4DD
:103D4000DDC332F4FEEC06F0400E0401356F0001D5
:103D5000E0EC06F09C0EF66E040EF76E090E040100
:103D6000356F0001EAEC06F0080EE96EE0C333F4AB
:103D7000DFC332F4FEEC06F029EF1FF00A0E040157
:103D80002C6F0301E9B90ED0010159B502D003012E
:103D900009D0599504012C51215D02E2212B01D05B
:103DA000216B0301E9B90DD0010159B702D003011C
:103DB00008D059970401215302E0210702D02CC4F6
:103DC00021F40001BDEC06F004012151F50F46E29B
:103DD0000B0F000131EF1FF0F5EF17F00301E99928
:103DE00004013CD06CEF19F00301E999040136D0CD
:103DF000F7EF19F00301E999040130D065EF1AF0EB
:103E00000301E99904012AD0A9EF1AF00301E99905
:103E1000040124D0CDEF1AF00301E99904011ED06A
:103E200088D40301E999040119D0EAD40301E9997E
:103E3000040114D0A5D50301E99901B0E989040171
:103E40000DD085D60301E99901B0E989040106D0B6
:103E500069D70301E999040101D00401000137EF9A
:103E600024F0E824F76AF7367D0FF66E3E0EF7224F
:103E70000A00F550FA6E0800F550F96ED83DE43DA1
:103E8000F03DFC3D083E143E203E2A3E343E423E7C
:103E9000503EEBC3EAFFEAC3E9FF05014CC5EFFF63
:103EA000E92AD8B4EA2AEF6A0301EA2BD8B4EB2B4B
:103EB0000001120001503FC541F5640E0501426F3B
:103EC000000156EC0AF000C03FF50150300E08E149
:103ED000050140A30FD040B70DD040B9200E04D04B
:103EE0000501409740994081012601C04CF5000131
:103EF000D0DF05013FC541F50A0E426F000156ECC7
:103F00000AF000C03FF50150300E08E1050140B74E
:103F10000AD040A108D040B9200E0001012601C0FE
:103F20004CF5B7DF0501300E3F273FC54CF50001CA
:103F3000B0DF1200EACF47F5E9CF46F50501403979
:103F4000F009426F4227E20F436F320F456F405135
:103F50000F0B432743274527E90F446F4427442786
:103F60003F390F0B4427452744374537451F453711
:103F70003F510F0B45274237070E416F0A0E44078A
:103F80004527FDE343074427FDE342074327FDE3BD
:103F900041074227FDE3050EEA6E410EE96E070E6A
:103FA0004615469DE926450EE95CD8B4468DEF508E
:103FB000006E08E146BD06D046B915D046B702D01E
:103FC000200E03D046874699300E0026EACF40F5F2
:103FD000E9CF3FF500C04CF500015BDF40C5EAFFCB
:103FE0003FC5E9FF0501EE5046ADDDD700011200E7
:103FF000E9500501446F4351466F1CE042C54FF53F
:1040000041C54EF540C54DF53FC54CF5536B526B60
:10401000200E516F820E506F00017EEC16F003C02F
:1040200042F502C041F501C040F500C03FF5050171
:10403000462FE4D742C54FF541C54EF540C54DF575
:104040003FC54CF50001F9EC16F003C042F502C083
:1040500041F501C040F500C03FF5050142AF0DD06C
:104060004407448B3F1F401F411F421F3F2BD8B4C2
:10407000402BD8B4412BD8B4422B3B0E4B6F9A0E39
:104080004A6FCA0E496F486B0A0E466F4351D8B447
:10409000442BD882050EEA6E3F0EE96E42C54FF5FD
:1040A00041C54EF540C54DF53FC54CF54BC553F5E3
:1040B0004AC552F549C551F548C550F5000155ECC2
:1040C0000FF00150005213E105014329465DD8A4C9
:1040D00002D000010CD044510DE00F0B465D01E011
:1040E00040E244BF3ED044BD05D0200E34D0200E67
:1040F0000501441744AB0ED0449B4351D8A4440758
:104100000050446F2D0E4C6F0001C3DE0501445179
:10411000006E446B4351465D0CE10050446F2E0E1F
:104120004C6F0001B6DE05014451006E200E4417AD
:10413000000E300E44AB0FD0449B4351D8A444072B
:104140000050446F2D0E4C6F0001A3DE0501445159
:10415000006E446B300E002600C04CF5000199DE65
:104160000501D8924BC54FF54AC54EF549C54DF5E9
:1041700048C54CF5536B526B516B0A0E506F0001E2
:1041800055EC0FF003C04BF502C04AF501C049F5EC
:1041900000C048F50501462F7CD700011200959418
:1041A0008C9400006650AB0E666E6430FEE395940E
:1041B0008C840000010E0501476F000112EC04F031
:1041C00040EF21F005014A6B496B0001B9EC11F099
:1041D00001C043F5036A050143C547F503C048F52F
:1041E0004A6B0C0E496F03C04CF543C54BF50001FB
:1041F00049EC13F001C041F50501020E0224426FA3
:10420000466B46510B081BE346514125476F000E94
:104210004221486F036A46513F25E96E4051032011
:10422000EA6EEFCF49F548C54BF547C54AF549C594
:104230004CF50001B8EC0CF00501462BE2D7432BFE
:104240004B6B4A6B43C54CF50001B8EC0CF0050113
:1042500043512C08D8A47BD04A6B020E496F000151
:10426000B9EC11F001C047F505014A6B030E496F27
:104270000001B9EC11F047C545F501C044F58FD7F1
:1042800095948C9400006650820E666E6430FEE356
:1042900005014435416F4535426F41374237FC0EC9
:1042A000411742C547F5665042C566FF6430FEE3DC
:1042B00041C547F5665041C566FF6430FEE3665070
:1042C000666A6430FEE3426B416B425102081CE3B4
:1042D00003E141510F0818E3040041C547F5020E00
:1042E0004225486F4A6F41C549F50001B9EC11F00C
:1042F00001C046F5665046C566FF6430FEE3050121
:10430000412BD8B4422BE1D795948C8400004B6BA1
:104310004A6B4C6B0001B8EC0CF00501442BD8B48F
:10432000452B45C547F54B6B020E4A6F45C54CF50D
:104330000001B8EC0CF044C547F505014B6B030ECA
:104340004A6F44C54CF50001B8EC0CF005010001C2
:10435000F6EF22F040C542F53FC541F542C503F0F6
:10436000050141C5E9FF42C5EAFFEF5206E0412BD6
:10437000D8B4422B0001F2D705013F51415D006ED8
:1043800040514259036E00C001F00001FEEF22F0DF
:10439000A4A8FED76D6E0EEF23F09D9236C039F5BE
:1043A00035C038F538C03BF537C03AF53AC03DF571
:1043B00039C03CF5366A356A386837683A6A396A0E
:1043C0009D8260C12CF45FC12DF45EC12EF45BC1EF
:1043D0002FF45CC130F439C531F4040138C532F42E
:1043E00004013BC533F404013AC534F404013DC56E
:1043F00035F404013CC536F40401443805013F6F2F
:10440000F00E3F1743500F0B3F250401376F040E8A
:104410000301EB6F380EEA6F320E05014C6F00019D
:1044200038DD300E05014C6F000133DD60C13FF512
:10443000010E0501406F00013DDD2D0E05014C6FA1
:10444000000127DD5FC13FF5010E0501406F00014E
:1044500031DD2D0E05014C6F00011BDD5EC13FF506
:10446000010E0501406F000125DD200E05014C6F96
:1044700000010FDD5BC13FF5010E0501406F00013A
:1044800019DD3A0E05014C6F000103DD5CC13FF5FB
:10449000010E0501406F00010DDD2C0E05014C6F72
:1044A0000001F7DC100EE96E39C540F538C53FF55F
:1044B00041DD2C0E05014C6F0001EBDC100EE96EA6
:1044C0003BC540F53AC53FF535DD2C0E05014C6F77
:1044D0000001DFDC100EE96E3DC540F53CC53FF53F
:1044E00029DD2C0E05014C6F0001D3DC100EE96EA6
:1044F00042C040F541C03FF51DDD2C0E05014C6F5B
:104500000001C7DC43C03FF51B0E0501406F0001F1
:10451000D1DC2C0E05014C6F0001BBDCC90EE96E2D
:104520006DC142F56CC141F56BC140F56AC13FF503
:10453000050E0501436F00015BDD2C0E05014C6F7C
:104540000001A7DCC90EE96E71C142F570C141F5E9
:104550006FC140F56EC13FF5050E0501436F0001C7
:1045600047DD2C0E05014C6F000193DC05013F6B0C
:104570001B0E406F00019EDC2C0E05014C6F0001EC
:1045800088DC05013F6B1B0E406F000193DC2C0E95
:1045900005014C6F00017DDC05013F6B1B0E406F78
:1045A000000188DC2C0E05014C6F000172DC100E3E
:1045B000E96E4CC040F54BC03FF5BCDC2C0E05014C
:1045C0004C6F000166DC100EE96E0501406B3F6B1D
:1045D0000001B0DC0A0E05014C6F00015ADC040E2C
:1045E0000501406F2C0E3F6F0001ECD505013E6BBD
:1045F000040E406F380E3F6F0001ACD6015005012C
:104600003E5D15E2036A3E51380FE96E040E032049
:10461000EA6EEFCF3FF53F510001BAD6010E05011A
:10462000476F000112EC04F005013E2BE1D70001B9
:104630003DEF24F0F86A9F809F82A2929F9AA59AEC
:10464000D08E078EEA6AE96A700ED36ED350346A50
:104650007E86220EAF6E000E7F6EA60EAC6E900EA2
:10466000AB6E7C960C0E6F6EA20E6C6E900E6B6E27
:104670000301E26BE16BE46BE36BE66BE56BE76B0D
:10468000E86BE991E993EB6BEA6BEC6BFB6BFC6B12
:1046900004011D6B1E6B0301E99504011F6B0301EF
:1046A000E9970401206B0301E9990401226B236B54
:1046B000246B0301E99BE99D640E0401256F276BC0
:1046C000266B296B286B2B6B2A6BC150C00B0F0913
:1046D000C16E070EB46E2E6A2F6A0301ED6BEE6B8E
:1046E000EF6BF06BF16BF26BF36BF46BF56BF66BDE
:1046F000F76BF86BF96BFA6BFD6BFE6BFF6B0401EC
:10470000006B016B026B036B046B056B066B076B35
:10471000086B096B0A6B0B6B0C6B0D6B0E6B0F6BE5
:10472000106B116B126B136B146B156B166B176B95
:10473000186B196B1A6B1B6B1C6B216B00019AEFCA
:1047400005F0A08297908E901E0E04012F6F00013D
:10475000B2EC06F0020E04012C6FFA0E0501476F51
:10476000000112EC04F004012C2FF7D70001BDEC7E
:1047700006F00DEF0AF066EF0BF001015ABB35D0E1
:104780005ABD33D05ABD31D0599559975999000126
:10479000BDEC06F0E00EF66E070EF76ED0EC06F0FC
:1047A000400E0401356F0001E0EC06F0EE0EF66EEF
:1047B000070EF76ED0EC06F0040E04012C6FFA0E13
:1047C0000501476F000112EC04F004012C2FF7D70C
:1047D000010159995995599759A906D0599900013C
:1047E000EAEC0CF003D00101F7D700010A0E010139
:1047F000636F640E0501476F000112EC04F0A09294
:1048000097908E804E2C03D09D80F28801D09D829F
:104810000400010158AD05D0589D00016EEF0DF068
:10482000010158AF05D0589F000156EF0EF001016D
:104830004FA004D000019EEF0EF04F90000106EF54
:104840000FF0010158A904D000019BEF11F0010104
:1048500058AB03D00001DBEF12F000010AEF14F0B7
:10486000010158A105D058910001BEEF1EF00101D1
:1048700058A304D05893000190D5010158A505D044
:1048800058950001EAEC0CF001010001C1D7FFD7F7
:020000040030CA
:0E0000000048111A03053000FFC0FFE0FF406A
:00000001FF
;PIC18F6622
;CRC=7B6C  CREATED="10-May-17 17:27"
