:0400000089EF38F05C
:080008006BEF00F000000000A6
:100010000000000000000000046ED8CF05F0E0CF23
:1000200006F00001E9CF0CF0EACF07F0E1CF08F0CD
:10003000E2CF09F0D9CF0AF0DACF0BF0F3CF12F00C
:10004000F4CF13F0FACF14F0F5CF15F0F6CF16F089
:10005000F7CF17F000C00EF001C00FF002C010F093
:1000600003C011F0A0A238EF00F0A1B248EF0AF0EF
:100070009DAA3EEF00F09EBA57EF0BF0A3AA44EF03
:1000800000F0A4BA7BEF0BF00EC000F00FC001F03F
:1000900010C002F011C003F00CC0E9FF07C0EAFF76
:1000A000078E08C0E1FF09C0E2FF0AC0D9FF0BC0FC
:1000B000DAFF12C0F3FF13C0F4FF14C0FAFF15C03B
:1000C000F5FF16C0F6FF17C0F7FF045006C0E0FFAB
:1000D00005C0D8FF1000196ED8CF1AF0E0CF1BF082
:1000E0000001E9CF21F0EACF1CF0E1CF1DF0E2CF13
:1000F0001EF0D9CF1FF0DACF20F0F3CF27F0F4CFE6
:1001000028F0FACF29F0F5CF2AF0F6CF2BF0F7CF71
:100110002CF000C023F001C024F002C025F003C081
:1001200026F09DA297EF00F09EB2B3EF0AF023C035
:1001300000F024C001F025C002F026C003F021C069
:10014000E9FF1CC0EAFF1C8E1DC0E1FF1EC0E2FFDC
:100150001FC0D9FF20C0DAFF27C0F3FF28C0F4FF7B
:1001600029C0FAFF2AC0F5FF2BC0F6FF2CC0F7FF0D
:1001700019501BC0E0FF1AC0D8FF1000F76A8C0F9F
:10018000F66E010EF7220900F55012001027E80361
:1001900064000A000100A40FF66E010EF7220900A8
:1001A000F550120000000000000000000000E6E929
:1001B000FFAB01887870E05F8D53094A76424C3C72
:1001C0002D37DC322B2FFA2B3029BC268E249C2293
:1001D000DC20471FD71D881C551B3B1A36194518B4
:1001E00065179516D3151E157314D4133E13B0124C
:1001F0002A12AC113411C2105710F00F8E0F310FAC
:10020000D80E840E320EE50D9A0D530D0E0DCD0C49
:100210008D0C500C160CDD0BA70B720B400B0F0B4B
:10022000DF0AB10A850A5A0A310A080AE109BB093C
:100230009709730950092F090E09EE08CF08B10874
:10024000940877085B08400825080C08F207DA07CD
:10025000C207AA0794077D07670752073D072907CA
:1002600015070107EE06DB06C906B706A6069406C3
:1002700083067306630653064306340625061606F0
:100280000806F905EC05DE05D005C305B605AA0587
:100290009D059105850579056D05620556054B059A
:1002A000400535052B05200516050C050205F8044B
:1002B000EF04E504DC04D204C904C004B804AF04AC
:1002C000A6049E0495048D0485047D0475046E04C3
:1002D00066045E0457044F04480441043A0433049E
:1002E0002C0425041E04180411040B040404FE034A
:1002F000F803F203EC03E603E003DA03D403CE03CE
:10030000C903C303BD03B803B303AD03A803A30329
:100310009D03980393038E038903840380037B0367
:10032000760371036D03680364035F035B03560385
:1003300052034E034903450341033D03390334038C
:1003400030032C032903250321031D03190315037F
:1003500012030E030A0307030303FF02FC02F80261
:10036000F502F202EE02EB02E702E402E102DE0233
:10037000DA02D702D402D102CE02CB02C802C502F1
:10038000C202BF02BC02B902B602B302B002AD02A1
:10039000AA02A802A502A2029F029D029A02970247
:1003A0009502920290028D028A02880285028302DF
:1003B00080027E027C02790277027402720270026D
:1003C0006D026B02690266026402620260025D02F3
:1003D0005B02590257025502530251024E024C026F
:1003E0004A02480246024402420240023E023C02E5
:1003F0003A02380236023402330231022F022D0251
:100400002B022902270225022402220220021E02B8
:100410001D021B0219021702160214021202110217
:100420000F020D020C020A02080207020502030273
:1004300002020002FF01FD01FC01FA01F901F701CE
:10044000F501F401F201F101EF01EE01ED01EB0123
:10045000EA01E801E701E501E401E301E101E0016E
:10046000DE01DD01DC01DA01D901D801D601D501B7
:10047000D401D201D101D001CE01CD01CC01CB01FB
:10048000C901C801C701C601C401C301C201C1013C
:10049000C001BE01BD01BC01BB01BA01B801B70179
:1004A000B601B501B401B301B201B001AF01AE01B3
:1004B000AD01AC01AB01AA01A901A801A701A501E9
:1004C000A401A301A201A101A0019F019E019D0120
:1004D0009C019B019A019901980197019601950150
:1004E000940193019201910190018F018E018D0180
:1004F0008C018B018A018A018901880187018601AB
:1005000085018401830182018101800180017F01D5
:100510007E017D017C017B017A01790179017801FD
:100520007701760175017401740173017201710123
:1005300070016F016F016E016D016C016B016B0148
:100540006A0169016801680167016601650164016A
:100550006401630162016101610160015F015E018B
:100560005E015D015C015C015B015A0159015901A9
:1005700058015701560156015501540154015301C8
:10058000520152015101500150014F014E014E01E3
:100590004D014C014C014B014A014A0149014801FE
:1005A0004801470146014601450144014401430118
:1005B000430142014101410140013F013F013E0130
:1005C0003E013D013C013C013B013B013A01390147
:1005D000390138013801370137013601350135015C
:1005E0003401340133013301320131013101300171
:1005F00030012F012F012E012E012D012C012C0184
:100600002B012B012A012A01290129012801280196
:1006100027012701260126012501250124012301A7
:1006200023012201220121012101200120011F01BA
:100630001F011E011E011D011D011D011C011C01C8
:100640001B011B011A011A011901190118011801D6
:1006500017011701160116011501150114011401E6
:1006600014011301130112011201110111011001F2
:10067000100110010F010F010E010E010D010D01FE
:100680000C010C010C010B010B010A010A0109010B
:100690000901090108010801070107010701060115
:1006A0000601050105010401040104010301030120
:1006B000020102010201010101010001000100012A
:1006C000FF00FF00FE00FE00FE00FD00FD00FD003B
:1006D000FC00FC00FB00FB00FB00FA00FA00FA0043
:1006E000F900F900F800F800F800F700F700F7004B
:1006F000F600F600F500F500F500F400F400F40053
:10070000F300F300F300F200F200F200F100F10058
:10071000F100F000F000EF00EF00EF00EE00EE005F
:10072000EE00ED00ED00ED00EC00EC00EC00EB0065
:10073000EB00EB00EA00EA00EA00E900E900E9006A
:10074000E800E800E800E700E700E700E700E6006F
:10075000E600E600E500E500E500E400E400E40072
:10076000E300E300E300E200E200E200E200E10077
:10077000E100E100E000E000E000DF00DF00DF007A
:10078000DE00DE00DE00DE00DD00DD00DD00DC007E
:10079000DC00DC00DC00DB00DB00DB00DA00DA0080
:1007A000DA00DA00D900D900D900D800D800D80082
:1007B000D800D700D700D700D600D600D600D60084
:1007C000D500D500D500D500D400D400D400D30086
:1007D000D300D300D300D200D200D200D200D10087
:1007E000D100D100D100D000D000D000D000CF0087
:1007F000CF00CF00CE00CE00CE00CE00CD00CD0089
:10080000CD00CD00CC00CC00CC00CC00CB00CB0088
:10081000CB00CB00CA00CA00CA00CA00C900C90088
:10082000C900C900C900C800C800C800C800C70086
:10083000C700C700C700C600C600C600C600C50086
:10084000C500C500C500C400C400C400C400C40085
:10085000C300C300C300C300C200C200C200C20084
:10086000C200C100C100C100C100C000C000C00082
:10087000C000C000BF00BF00BF00BF00BE00BE0080
:10088000BE00BE00BE00BD00BD00BD00BD00BC007E
:10089000BC00BC00BC00BC00BB00BB00BB00BB007C
:1008A000BB00BA00BA00BA00BA00BA00B900B90079
:1008B000B900B900B800B800B800B800B800B70077
:1008C000B700B700B700B700B600B600B600B60074
:1008D000B600B500B500B500B500B500B400B40071
:1008E000B400B400B400B400B300B300B300B3006C
:1008F000B300B200B200B200B200B200B100B10069
:10090000B100B100B100B000B000B000B000B00064
:10091000B000AF00AF00AF00AF00AF00AE00AE0060
:10092000AE00AE00AE00AE00AD00AD00AD00AD005B
:10093000AD00AC00AC00AC00AC00AC00AC00AB0057
:10094000AB00AB00AB00AB00AB00AA00AA00AA0052
:10095000AA00AA00A900A900A900A900A900A9004D
:10096000A800A800A800A800A800A800A700A70049
:10097000A700A700A700A700A600A600A600A60043
:10098000A600A600A500A500A500A500A500A5003D
:10099000A400A400A400A400A400A400A300A30039
:1009A000A300A300A300A300A300A200A200A20032
:1009B000A200A200A200A100A100A100A100A1002C
:1009C000A100A000A000A000A000A000A000A00026
:1009D0009F009F009F009F009F009F009E009E0021
:1009E0009E009E009E009E009E009D009D009D001A
:1009F0009D009D009D009D009C009C009C009C0013
:100A00009C009C009C009B009B009B009B009B000B
:100A10009B009B009A009A009A009A009A009A0004
:100A20009A009900990099009900990099009900FD
:100A300098009800980098009800980098009700F7
:100A400097009700970097009700970096009600F0
:100A500096009600960096009600960095009500E8
:100A600095009500950095009500940094009400E1
:100A700094009400940094009400930093009300D9
:100A800093009300930093009200920092009200D2
:100A900092009200920092009100910091009100CA
:100AA00091009100910091009000900090009000C2
:100AB00090009000900090008F008F008F008F00BA
:100AC0008F008F008F008F008E008E008E008E00B2
:100AD0008E008E008E008E008E008D008D008D00A9
:100AE0008D008D008D008D008D008C008C008C00A1
:100AF0008C008C008C008C008C008B008B008B0099
:100B00008B008B008B00140FF66E0B0EF722090082
:100B1000F55012000000030003000400040005006B
:100B2000050006000600070007000800080008008E
:100B3000090009000A000A000B000B000C000C0061
:100B40000D000D000E000E000E000F000F00100033
:100B50001000110011001200120013001300130006
:100B600014001400150015001600160017001700D9
:100B7000180018001900190019001A001A001B00AB
:100B80001B001C001C001D001D001E001E001F007D
:100B90001F001F0020002000210021002200220051
:100BA0002300230024002400250025002500260022
:100BB00026002700270028002800290029002A00F5
:100BC0002A002A002B002B002C002C002D002D00C9
:100BD0002E002E002F002F0030003000300031009A
:100BE000310032003200330033003400340035006D
:100BF0003500360036003600370037003800380040
:100C0000390039003A003A003B003B003B003C0011
:100C10003C003D003D003E003E003F003F004000E4
:100C200040004100410041004200420043004300B7
:100C30004400440045004500460046004700470088
:100C4000470048004800490049004A004A004B005C
:100C50004B004C004C004D004D004D004E004E002E
:100C60004F004F0050005000510051005200520000
:100C700052005300530054005400550055005600D4
:100C800056005700570058005800580059005900A6
:100C90005A005A005B005B005C005C005D005D0078
:100CA0005E005E005E005F005F006000600061004B
:100CB000610062006200630063006300640064001E
:100CC00065006500660066006700670068006800F0
:100CD0006900690069006A006A006B006B006C00C3
:100CE0006C006D006D006E006E006F006F006F0095
:100CF0007000700071007100720072007300730068
:100D00007400740075007500750076007600770039
:100D1000770078007800790079007A007A007A000C
:100D20007B007B007C007C007D007D007E007E00DF
:100D30007F007F00800080008000810081008200B1
:100D40008200830083008400840085008500860083
:100D50008600860087008700880088008900890057
:100D60008A008A008B008B008B008C008C008D0029
:100D70008D008E008E008F008F00900090009100FB
:100D800091009100920092009300930094009400CF
:100D900095009500960096009700970097009800A0
:100DA0009800990099009A009A009B009B009C0073
:100DB0009C009D009D009D009E009E009F009F0046
:100DC000A000A000A100A100A200A200A200A30018
:100DD000A300A400A400A500A500A600A600A700EB
:100DE000A700A800A800A800A900A900AA00AA00BE
:100DF000AB00AB00AC00AC00AD00AD00AE00AE008F
:100E0000AE00AF00AF00B000B000B100B100B20062
:100E1000B200B300B300B400B400B400B500B50034
:100E2000B600B600B700B700B800B800B900B90006
:100E3000B900BA00BA00BB00BB00BC00BC00BD00DA
:100E4000BD00BE00BE00BF00BF00BF00C000C000AC
:100E5000C100C100C200C200C300C300C400C4007E
:100E6000C500C500C500C600C600C700C700C80051
:100E7000C800C900C900CA00CA00CA00CB00CB0024
:100E8000CC00CC00CD00CD00CE00CE00CF00CF00F6
:100E9000D000D000D000D100D100D200D200D300C9
:100EA000D300D400D400D500D500D600D600D6009B
:100EB000D700D700D800D800D900D900DA00DA006E
:100EC000DB00DB00DC00DC00DC00DD00DD00DE0040
:100ED000DE00DF00DF00E000E000E100E100E10013
:100EE000E200E200E300E300E400E400E500E500E6
:100EF000E600E600E700E700E700E800E800E900B8
:100F0000E900EA00EA00EB00EB00EC00EC00ED0089
:100F1000ED00ED00EE00EE00EF00EF00F000F0005D
:100F2000F100F100F200F200F200F300F300F4002F
:100F3000F400F500F500F600F600F700F700F80001
:100F4000F800F800F900F900FA00FA00FB00FB00D5
:100F5000FC00FC00FD00FD00FE00FE00FE00FF00A6
:100F6000FF00000100010101010102010201030172
:100F70000301040104010401050105010601060144
:100F800007010701080108010901090109010A0116
:100F90000A010B010B010C010C010D010D010E01E9
:100FA0000E010F010F010F011001100111011101BC
:100FB000120112011301130114011401150115018D
:100FC0001501160116011701170118011801190161
:100FD00019011A011A011A011B011B011C011C0134
:100FE0001D011D011E011E011F011F012001200105
:100FF00020012101210122012201230123012401D9
:1010000024012501250126012601260127012701AA
:1010100028012801290129012A012A012B012B017C
:101020002C012C012C012D012D012E012E012F014F
:101030002F01300130013101310131013201320122
:1010400033013301340134013501350136013601F4
:1010500037013701370138013801390139013A01C7
:101060003A013B013B013C013C013D013D013D0199
:101070003E013E013F013F0140014001410141016C
:10108000420142014201430143014401440145013F
:101090004501460146014701470148014801480111
:1010A000490149014A014A014B014B014C014C01E4
:1010B0004D014D014E014E014E014F014F015001B6
:1010C0005001510151015201520153015301540188
:1010D000540154015501550156015601570157015C
:1010E000580158015901590159015A015A015B012E
:1010F0005B015C015C015D015D015E015E015F0100
:101100005F015F01600160016101610162016201D3
:1011100063016301640164016501650165016601A4
:1011200066016701670168016801690169016A0177
:101130006A016B016B016B016C016C016D016D014A
:101140006E016E016F016F0170017001700171011C
:1011500071017201720173017301740174017501EF
:1011600075017601760176017701770178017801C2
:10117000790179017A017A017B017B017C017C0193
:101180007C017D017D017E017E017F017F01800167
:10119000800181018101810182018201830183013A
:1011A000840184018501850186018601870187010B
:1011B000870188018801890189018A018A018B01DF
:1011C0008B018C018C018D018D018D018E018E01B1
:1011D0008F018F0190019001910191019201920183
:1011E0009301930193019401940195019501960156
:1011F0009601970197019801980198019901990129
:101200009A019A019B019B019C019C019D019D01FA
:101210009E019E019E019F019F01A001A001A101CD
:10122000A101A201A201A301A301A401A401A4019F
:10123000A501A501A601A601A701A701A801A80172
:10124000A901A901A901AA01AA01AB01AB01AC0145
:10125000AC01AD01AD01AE01AE01AF01AF01AF0117
:10126000B001B001B101B101B201B201B301B301EA
:10127000B401B401B501B501B501B601B601B701BC
:10128000B701B801B801B901B901BA01BA01BB018E
:10129000BB01BB01BC01BC01BD01BD01BE01BE0162
:1012A000BF01BF01C001C001C001C101C101C20134
:1012B000C201C301C301C401C401C501C501C60106
:1012C000C601C601C701C701C801C801C901C901DA
:1012D000CA01CA01CB01CB01CC01CC01CC01CD01AB
:1012E000CD01CE01CE01CF01CF01D001D001D1017E
:1012F000D101D101D201D201D301D301D401D40152
:10130000D501D501D601D601D701D701D701D80122
:10131000D801D901D901DA01DA01DB01DB01DC01F5
:10132000DC01DD01DD01DD01DE01DE01DF01DF01C8
:10133000E001E001E101E101E201E201E301E30199
:10134000E301E401E401E501E501E601E601E7016D
:10135000E701E801E801E801E901E901EA01EA0140
:10136000EB01EB01EC01EC01ED01ED01EE01EE0111
:10137000EE01EF01EF01F001F001F101F101F201E5
:10138000F201F301F301F401F401F401F501F501B7
:10139000F601F601F701F701F801F801F901F90189
:1013A000F901FA01FA01FB01FB01FC01FC01FD015D
:1013B000FD01FE01FE01FF01FF01FF01000200022D
:1013C00001020102020202020302030204020402F9
:1013D00005020502050206020602070207020802CC
:1013E0000802090209020A020A020B020B020B029E
:1013F0000C020C020D020D020E020E020F020F0271
:101400001002100210021102110212021202130243
:101410001302140214021502150216021602160215
:101420001702170218021802190219021A021A02E8
:101430001B021B021C021C021C021D021D021E02BA
:101440001E021F021F02200220022102210222028C
:101450002202220223022302240224022502250260
:101460002602260227022702270228022802290232
:1014700029022A022A02F76A860FF66E140EF72254
:101480000900F550120031382D5365702D313800A8
:10149000B10EB36EE00EB26E81CF81F1D89004012F
:1014A0000E350501AB6F04010F350501AC6F000E61
:1014B000010181AB010E0501AB13ABC50EF40501B3
:1014C000AC51E00904010F6F0E5309E10F51F00810
:1014D00006E1010180877F811E0E886F0401D8908C
:1014E00010350501AB6F040111350501AC6F000E1D
:1014F000010181AD010E0501AB13ABC510F405016F
:10150000AC51E0090401116F105309E11151F008C9
:1015100006E1010180897F811E0E886F0401D89049
:1015200012350501AB6F040113350501AC6F000ED8
:10153000010181AF010E0501AB13ABC512F405012A
:10154000AC51E0090401136F125309E11351F00883
:1015500006E1010180857F811E0E886F0401A19242
:10156000000144EF00F00401142B1451640804E15D
:10157000146B01017F8D04014E2C42D09380050134
:10158000AE9381B0AE83AEB30FD0040117B102D0D9
:1015900005010AD001018D2BD8B48E2B3B2AD8B47B
:1015A0003C2A392AD8B43A2A040117910501AEA37E
:1015B00003D00401178105010401152BD8B4162BA3
:1015C000155110081CE11651270819E1166B156B0F
:1015D0008EC136F08DC135F001018E6B8D6B3850A8
:1015E000365C04E307E13550375C04E3373C06D052
:1015F000383C04D036C038F035C037F0040147D04D
:101600000501AEA10CD001018B3D05D08C3D03D06E
:10161000050105D001018B2BD8B48C2B05019380DB
:10162000AE9381B0AE83AEB329D0040117B102D01E
:10163000050124D03B2AD8B43C2A392AD8B43A2A06
:1016400017A313D00501AE918CC136F08BC135F0D4
:101650003650385C08E303E13750355C04E236C0AD
:1016600038F035C037F00401179317B307D00101E4
:101670008C6B8B6B0501AE810401178304011791FC
:101680000501AEA303D004011781050104019E9258
:10169000000197EF00F09EAAFED7ABCF34F0AECF9B
:1016A00001F034A202D0AB98AB885AEF0BF0FA6B82
:1016B000F96BF1D701C0ABF5F8530EE1F7517F0894
:1016C0000BE3770EF725E96E000EF821EA6EABC545
:1016D000EFFFF72BD8B4F82B9E9A44EF00F0A4AAA2
:1016E000FED76BCF34F06ECF01F034A202D06B98EE
:1016F0006B887CEF0BF0F3D701C0ABF5A49A44EFF5
:1017000000F0232044617461666C6173682070612D
:10171000676520726561642066726F6D20256C7547
:101720000D0A00000D0A00000D0A2320446F6E65AB
:101730000D0A00002320696E697469616C697A6919
:101740006E67206C6F6767696E670D0A00005265EF
:1017500073657474696E67204C6F67210000446F75
:101760006E6500003E20646F6E650D0A0000232048
:10177000706C6179696E67206C6F670D0A003E209E
:10178000646F6E650D0A0000232044756D70696EEC
:1017900067206C6F670D0A003E20646F6E650D0A4E
:1017A000000050616765205265713A202530356C24
:1017B0007500204E2050616765733A202530356CE6
:1017C0007500556E697420557074696D653A000036
:1017D000256C75206D696E75746573005769726547
:1017E0006C657373206F6E3A000025752073656316
:1017F0006F6E64730000534420436172642053741D
:10180000617475733A004C6F6767696E67202831A1
:1018100030207365632900004C6F6767696E67202D
:10182000283630207365632900004E6F742072657E
:10183000616479212028313029004E6F742072654F
:1018400061647921202836302900496E7465726EF2
:10185000616C204D656D6F72793A0000256C752FB3
:10186000256C752066756C6C0000416E616C6F674D
:1018700020303A20256C7500416E616C6F67203115
:101880003A20256C7500496E7075743A2025302E0B
:10189000316C6620766F6C7473004261747465728B
:1018A000793A20256425250057696E6420446972C1
:1018B000656374696F6E3A0025336C752563202863
:1018C000534543544F523D257529000053656374B9
:1018D0006F72202575202800343500003930000053
:1018E0003133350031383000323235003237300094
:1018F000333135004628487A2920464D617820202A
:10190000436E7400542020202020546D696E2043C3
:101910006F756E740000446174653A203230253072
:1019200032752D253032752D2530327500004E6F01
:101930007720253032753A253032753A25303275A8
:101940002055544300004669726D776172652056D8
:10195000657273696F6E3A0031353A30313A33331C
:10196000000053706565643A202530322E316620C0
:101970006D2F7300477573743A20202530322E3155
:1019800066206D2F730053706565643A20253034EE
:101990002E3177206D2F7300477573743A20202500
:1019A00030342E3177206D2F7300507265762020F1
:1019B0005365742020204E65787400002D2020206F
:1019C00020205365742020202020202B00002D2073
:1019D000202020204E65787420202020202B00001D
:1019E0004E4F2020202059455300507265762045E7
:1019F0006E74657220204E657874000057726F74A3
:101A0000652044656661756C7420534E0000536513
:101A10007474696E6720534E2E2E2E0053657269C2
:101A2000616C3A202563000057726F746520534E35
:101A30000000202D2048572054595045202D2000CB
:101A400052444C20202020202020202052444C555D
:101A5000000057726F7465204857205479706500F4
:101A6000202D20414E454D4F2054595045202D20CA
:101A700000002334304843202020202020544849AF
:101A80004553000057726F746520416E656D6F207D
:101A9000547970650000202D205344204C4F47207E
:101AA00052415445202D200036302073656320209C
:101AB0002020313020736563000057726F746520F9
:101AC0005344207261746500202D204C49564520F6
:101AD000464F524D4154202D200053484F52542020
:101AE00020202020202046554C4C000057726F7457
:101AF00065206C697665202564002D2057494E4489
:101B00002044495220535243202D00004144432099
:101B1000202020202020434D5053313200005772A6
:101B20006F746520776473726320256400004461DC
:101B300074653A203230253032642D253032642DE0
:101B400025303264000054696D653A2025303264D6
:101B50003A253032643A253032640000434D505308
:101B600020566572733A2030782530325800434D44
:101B700050532054656D703A20256425634300005E
:101B8000434D5053205359204759204143204D4144
:101B90000000524157256320504954434820524F7A
:101BA0004C4C0000434D505331322043616C0000D7
:101BB00053746F726520457869742045726173654E
:101BC0000000524553455454494E472043414C4927
:101BD00042520000534156494E472043414C49422E
:101BE00052415449000072646C2855290000726407
:101BF0006C556E690000756E6B6E6F776E2100001C
:101C00002023343048430000205448494553000005
:101C100020554E4B4E4F574E0000557020696E2098
:101C200025752049443D2563256C7520000023203F
:101C3000555020494E202575205345434F4E44535F
:101C40000D0A0000232072644C6F67676572556E41
:101C50006976657273616C202573202832302530D7
:101C600032752D253032752D253032752920287397
:101C7000657269616C202563256C7529202868616F
:101C8000726477617265202575292028616E656D03
:101C90006F6D65746572202575290D0A0000313855
:101CA0002D5365702D3138005072657373206D6946
:101CB00064646C650000627574746F6E20746F20CC
:101CC000636C65617200639A9598958A959C300E55
:101CD000636EC00E646E95968C8695948C8400001D
:101CE00022EF11F09486948823EF11F0050EEA6E2E
:101CF000850EE96EEF500DE0020E016E006A002EB7
:101D0000FED7012EFBD7970E006E002EFED7EF2ECA
:101D1000F3D7120097968E8697968E96120004013E
:101D20007ABF02D08E9E01D08E8E979E7ABD02D051
:101D30008E9C01D08E8C979C7ABB02D08E9A01D05B
:101D40008E8A979A7AB902D08E9801D08E88979809
:101D50000001E0DF04017AB702D08E9E01D08E8EA2
:101D6000979E7AB502D08E9C01D08E8C979C7AB3C8
:101D700002D08E9A01D08E8A979A7AB102D08E982C
:101D800001D08E8897980001C5DF1A0E006E002ED4
:101D9000FED7000012000F0E0501856F0001A6DFBF
:101DA00097928E9297948E94979E8E9E979C8E9CDF
:101DB000979A8E8A97988E88ADDF050E0501856FFC
:101DC000000194DFA7DF420E006E002EFED7000058
:101DD000A1DF050E0501856F000188DF97988E98B9
:101DE00099DF1A0E006E002EFED70000280E0401A7
:101DF0007A6F000194DF0C0E04017A6F00018FDF0F
:101E0000060E04017A6F00018ADF010E04017A6F69
:101E1000000185DF24EF11F0080E016E00008B96A3
:101E200094960000050180378B98D8B09488D8A08C
:101E30009498948682A6FED7012E01D002D000018C
:101E4000EDD700008B969496000094880000000067
:101E5000948682A6FED7016A000082B801808B9624
:101E600094968B98949800011200948800009486B0
:101E700000008B98949800008B969496D00E0501E4
:101E8000806F0001C9DF015004017C9101B07C81A9
:101E90007CA102D00001E9D77AC480F50001BCDF43
:101EA0007BC480F5B9DF94980000948682A6FED7A3
:101EB000000000D00000948800001200070E04010A
:101EC0007A6F100E7B6F0001D0DF25EF11F0080E46
:101ED00005017E6F00C07FF594880000948682A67D
:101EE000FED782B8D88082A8D89001360000949698
:101EF0008B967E2FF1D7948800008B987F51D8A4C1
:101F000094980000948682A6FED700008B96949643
:101F100000008B9894980001120094880000948629
:101F200000008B98949800008B969496D00E050133
:101F3000806F000171DF01500108EFE07AC480F585
:101F40006BDF948800009486000082A6FED78B98F1
:101F5000949800008B969496D10E0501806F000135
:101F60005BDF01500108EDE0006AB1DF01C07BF4E6
:101F700094980000948682A6FED7000000D000004E
:101F80009488000004017BC401F0000112000401E8
:101F90007B397C6F0F0E7C177B510F0B7D6F7C5153
:101FA0000A0DF3507D25016E0001120004017A6BC9
:101FB0007B6B00015ADF060E04017A6F0A0E7B6FFD
:101FC000000153DF050E04017A6F010E7B6F0001E3
:101FD0004CDF040E04017A6F010E7B6F000145DFB8
:101FE000020E04017A6F7B6B00013FDF010E0401DA
:101FF0007A6F7B6B000139DF33EF11F0720ED36E15
:10200000D350C150C00B0B09C16EC050C00B0709A3
:10201000C06EC08EC28001017F937F957F977F81C4
:102020007F997F9B80817F9D7F9F809580978099FE
:1020300081CF81F11E0E886F366A356A386837683D
:102040003C6A3B6A3A6A396A536A5A0E526E8E6B20
:102050008D6B040EEA6E5A0EE96E000E00013BEC29
:102060000AF00A000900F550EE6E0009FBE1300E9F
:1020700004015A5D0A0DF3CF4AF0300E5B5D4A262B
:102080005D514A080FE15E51410803E1010E496EBE
:1020900008D05F514E0803E1060E496E02D0070ECC
:1020A000496E37D05D51410809E15E51500803E1A6
:1020B000040E496E02D0080E496E2BD05D514D08BA
:1020C00009E15F51520803E1030E496E02D0050E8B
:1020D000496E1FD05D51460803E1020E496E19D0CA
:1020E0005D51530803E1090E496E13D05D514F084D
:1020F00003E10A0E496E0DD05D514E0803E10B0E4F
:10210000496E07D05D51440803E10C0E496E01D0C1
:102110004968300E615D0A0DF3CF48F0300E625D04
:1021200048264C6A4B6A00017691F86BF76BFA69A6
:10213000F969FC69FB6901017E91F2CF7AF4F29CA6
:10214000F29EAA6A100EA96EA69CA69EA680A85012
:1021500004017ABDF28C7ABFF28E456EF2CF7AF42A
:10216000F29CF29EAA6A110EA96EA69CA69EA6805B
:10217000A8507ABDF28C7ABFF28E466EF2CF7AF416
:10218000F29CF29EAA6A120EA96EA69CA69EA6803A
:10219000A8507ABDF28C7ABFF28E476EF2CF7AF4F5
:1021A000F29CF29EAA6A130EA96EA69CA69EA68019
:1021B000A8507ABDF28C7ABFF28E4D6EF2CF7AF4CF
:1021C000F29CF29EAA6A140EA96EA69CA69EA680F8
:1021D000A8507ABDF28C7ABFF28E4E6EF2CF7AF4AE
:1021E000F29CF29EAA6A150EA96EA69CA69EA680D7
:1021F000A8507ABDF28C7ABFF28E506EF2CF7AF48C
:10220000F29CF29EAA6A160EA96EA69CA69EA680B5
:10221000A8507ABDF28C7ABFF28E4F6EF2CF7AF46C
:10222000F29CF29EAA6A170EA96EA69CA69EA68094
:10223000A8507ABDF28C7ABFF28E516E03690269A2
:10224000000141D54FD5A7D539D6060E04017A6FC6
:10225000000163DE01C07AF401C07BF498DE015016
:10226000040801E3A3D6000E0509CA6E310ECB6E39
:10227000850EB16E9D8AA38AF19EC00EF21206EF02
:1022800039F004015D510101895D02E25DC489F10B
:10229000969A8D9A0001120097928E92010E040177
:1022A0007A6F00013CDD020E0501856F00011EDD25
:1022B000120097928E826EC47AF431DD120009000A
:1022C000F5520CE0F6CF6BF4F7CF6CF4F5CF6EF46B
:1022D000F0DF6BC4F6FF6CC4F7FFF1D71200090002
:1022E000F6CF66F4F7CF67F4F5CF6EF4E2DF66C49D
:1022F000F6FF67C4F7FF0401652F01D002D000018B
:10230000EED70001120019C4EAFF18C4E9FF050165
:10231000AAC5EFFFE92AD8B4EA2AEF6A0401182B0C
:10232000D8B4192B00011200EACFA9F5E9CFA8F51E
:102330000501A239F009A46FA427E20FA56F320F9F
:10234000A76FA2510F0BA527A527A727E90FA66FF7
:10235000A627A627A1390F0BA627A727A637A73799
:10236000A71FA737A1510F0BA727A437070EA36FED
:102370000A0EA607A727FDE3A507A627FDE3A407E6
:10238000A527FDE3A307A427FDE3050EEA6EA30E30
:10239000E96E070EA815A89DE926A70EE95CD8B43A
:1023A000A88DEF50006E08E1A8BD06D0A8B915D0E1
:1023B000A8B702D0200E03D0A887A899300E002617
:1023C000EACFA2F5E9CFA1F500C0AAF500019BDF95
:1023D000A2C5EAFFA1C5E9FF0501EE50A8ADDDD712
:1023E0000001120097928E92800E04016C256D6F91
:1023F0007A6F000194DC1200400E04016C6F000142
:10240000F1DFBC0EF66E190EF76E59DF1200EF52B7
:102410000FE0EACF6CF4E9CF6BF4EFCF6EF449DF55
:102420006CC4EAFF6BC4E9FFE92AD8B4EA2AEFD703
:102430004CEF12F097928E926BC47AF470DC1A0E05
:10244000006E002EFED700001200050179517B03BB
:10245000F3CF01F0F4CF00F07C03F35000267A5163
:102460007B03F3500020026E00011200040E0401F1
:10247000196F650E186F080EE96E07C4A2F506C441
:10248000A1F5000151DFB8DF0CC46CF4ABDF040E22
:10249000EA6E650EE96EBBD704010C510D256B6F1A
:1024A0006C6F00019FDF0E0E04016B6F0001C2DF35
:1024B000010180A549D08095036A04010D51650F83
:1024C000E96E040E0320EA6EEF50350807E10D5364
:1024D00005E1500E065FC30E075B34D0036A0D5151
:1024E000650FE96E040E0320EA6EEF5039081DE116
:1024F000D8900D35036A0001BEEC00F00900F5CF5D
:1025000003F004016B6F03C06CF403C07AF5E8CFED
:1025100079F505017C6B090E7B6F000196DF015098
:102520000401065F0250075B0DD0D8900D35036A99
:102530000001BEEC00F00900F5CF03F0040106270E
:102540000350072301017F8180A749D08097036A48
:1025500004010D51650FE96E040E0320EA6EEF5081
:10256000300807E10D5305E1500E0627C30E07237F
:1025700034D0036A0D51650FE96E040E0320EA6E34
:10258000EF5030081DE1D8900D35036A0001BEEC14
:1025900000F00900F5CF03F004016B6F03C06CF489
:1025A00003C07AF5E8CF79F505017C6B090E7B6FE6
:1025B00000014BDF015004010627025007230DD014
:1025C000D8900D35036A0001BEEC00F00900F5CF8C
:1025D00003F00401065F0350075B01017F8180A9BE
:1025E00005D0809904010D2B01017F8104010D515B
:1025F000050808E10C0E6B6F00011CDF010E016E77
:1026000003D00401000E016E00019CEF14F00501DF
:10261000A851016AA75D03E2A7C500F00CD0006ACB
:10262000080EA96FA7370036A851005CD8B0006E1D
:102630000136A92FF7D700011200200E040166A968
:10264000300E676F65C400F065AF08D0001E002A29
:1026500000C065F42D0E676F668F6681015065C4FA
:10266000A7F5640E0501A86F0001D1DF00C065F475
:10267000300E01240401686F65C4A7F50A0E050138
:10268000A86F0001C4DF300E002404016A6F300E11
:102690000124696F67C400F0300E685D04E0668352
:1026A00066BF668512D067C468F4200E676F300E6F
:1026B000695D04E0668166BF668307D0D8A4668141
:1026C00004E168C469F4200E686F66B505D066B38E
:1026D00007D066B109D00CD067C46EF40001E9DD03
:1026E00068C46EF40001E5DD69C46EF40001E1DD4B
:1026F0006AC46EF40001DDDD120004015A53D8B43F
:10270000ACD0AA6A100EA96E520EA86EA69CA69E08
:10271000A684F250006EF29CF29E0F01550EA76E39
:10272000AA0EA76EA682A6B2FED7A6940050F212F9
:10273000AA6A110EA96EA86AA69CA69EA684F2CFCC
:1027400000F0F29CF29E550EA76EAA0EA76EA6820E
:10275000A6B2FED7A6940050F212AA6A120EA96E73
:10276000A86AA69CA69EA684F2CF00F0F29CF29ED8
:10277000550EA76EAA0EA76EA682A6B2FED7A69485
:102780000050F212AA6A130EA96E020EA86EA69C41
:10279000A69EA684F2CF00F0F29CF29E550EA76E84
:1027A000AA0EA76EA682A6B2FED7A6940050F21279
:1027B000AA6A140EA96EA86AA69CA69EA684F2CF49
:1027C00000F0F29CF29E550EA76EAA0EA76EA6828E
:1027D000A6B2FED7A6940050F212AA6A150EA96EF0
:1027E000A86AA69CA69EA684F2CF00F0F29CF29E58
:1027F000550EA76EAA0EA76EA682A6B2FED7A69405
:102800000050F212AA6A170EA96EA86AA69CA69E8C
:10281000A684F2CF00F0F29CF29E550EA76EAA0E8F
:10282000A76EA682A6B2FED7A6940050F2120001AF
:1028300033DDFC0EF66E190EF76E41DD040E040159
:10284000656FFA0E0501856F000176EC0EF004014C
:10285000652FF7D7000120DD0401F2CF65F4F29C6B
:10286000F29EAA6A100EA96EA69CA69EA680A850EB
:1028700065BDF28C65BFF28E5B6FF2CF65F4F29CA2
:10288000F29EAA6A110EA96EA69CA69EA680A850CA
:1028900065BDF28C65BFF28E666FF2CF67F4F29C75
:1028A000F29EAA6A120EA96EA69CA69EA680A850A9
:1028B00067BDF28C67BFF28E686F66C45DF468C452
:1028C0005CF401018097809580990001E5DC0E0E93
:1028D000F66E1A0EF76EF3DC0A0E0401656FFA0E3F
:1028E0000501856F000176EC0EF00401652FF7D726
:1028F0005DC407F45CC406F40D6B090E0C6F6469CB
:10290000636904000651635D03E10751645D12E0F1
:102910000001C2DC1C0EF66E1A0EF76E080E0401E2
:10292000656F0001DCDC5BC46EF4C3DC07C464F4D7
:1029300006C463F400019AD5015205E007C45DF4B2
:1029400006C45CF403D00401DCD70001AA6A100EAF
:10295000A96E520EA86EA69CA69EA684F250006E8A
:10296000F29CF29E0F01550EA76EAA0EA76EA682CC
:10297000A6B2FED7A6940050F2125DC465F4AA6A0E
:10298000110EA96E5DC4A8FFA69CA69EA684F2CFD8
:1029900000F0F29CF29E550EA76EAA0EA76EA682BC
:1029A000A6B2FED7A6940050F2125CC465F4AA6ADF
:1029B000120EA96E5CC4A8FFA69CA69EA684F2CFA8
:1029C00000F0F29CF29E550EA76EAA0EA76EA6828C
:1029D000A6B2FED7A6940050F212AA6A130EA96EF0
:1029E0005EC4A8FFA69CA69EA684F2CF00F0F29C2F
:1029F000F29E550EA76EAA0EA76EA682A6B2FED7AD
:102A0000A6940050F212AA6A140EA96E5FC4A8FF21
:102A1000A69CA69EA684F2CF00F0F29CF29E550ED4
:102A2000A76EAA0EA76EA682A6B2FED7A6940050E5
:102A3000F212F2CF65F4F29CF29EAA6A100EA96E11
:102A4000A69CA69EA680A850040165BDF28C65BF19
:102A5000F28E456EF2CF65F4F29CF29EAA6A110ED8
:102A6000A96EA69CA69EA680A85065BDF28C65BFE7
:102A7000F28E466EF2CF65F4F29CF29EAA6A120EB6
:102A8000A96EA69CA69EA680A85065BDF28C65BFC7
:102A9000F28E476EF2CF65F4F29CF29EAA6A130E94
:102AA000A96EA69CA69EA680A85065BDF28C65BFA7
:102AB000F28E4D6EF2CF65F4F29CF29EAA6A140E6D
:102AC000A96EA69CA69EA680A85065BDF28C65BF87
:102AD000F28E4E6E00014CEC11F0280EF66E1A0EBE
:102AE000F76E5FEC11F0040E0401656FFA0E05013C
:102AF000856F000176EC0EF00401652FF7D7000119
:102B00004CEC11F004016C6B00016CDC320EF66EC3
:102B10001A0EF76E5FEC11F0400E04016C6F0001AD
:102B200061DC400EF66E1A0EF76E5FEC11F00101DB
:102B300080A901D0809980A506D08095020E04015D
:102B40005E6F10D0010180A704D0809704015E6BF6
:102B500009D0140E0501856F000176EC0EF004001B
:102B6000D1D70401AA6A130EA96E5EC4A8FFA69C61
:102B7000A69EA684F250006EF29CF29E0F01550EA6
:102B8000A76EAA0EA76EA682A6B2FED7A694005084
:102B9000F212F2CF65F4F29CF29EAA6A130EA96EAD
:102BA000A69CA69EA680A850040165BDF28C65BFB8
:102BB000F28E4D6E00014CEC11F0520EF66E1A0EB4
:102BC000F76E5FEC11F0040E0401656FFA0E05015B
:102BD000856F000176EC0EF00401652FF7D7000138
:102BE0004CEC11F004016C6B0001F2EC11F0600E82
:102BF000F66E1A0EF76E5FEC11F0400E04016C6F6A
:102C00000001F2EC11F0720EF66E1A0EF76E5FEC28
:102C100011F0010180A901D0809980A506D080958E
:102C2000010E04015F6F10D0010180A704D08097CE
:102C300004015F6B09D0140E0501856F000176EC6D
:102C40000EF00400CFD70401AA6A140EA96E5FC467
:102C5000A8FFA69CA69EA684F250006EF29CF29E4F
:102C60000F01550EA76EAA0EA76EA682A6B2FED7BA
:102C7000A6940050F212F2CF65F4F29CF29EAA6A7A
:102C8000140EA96EA69CA69EA680A850040165BD40
:102C9000F28C65BFF28E4E6E00014CEC11F0840E8A
:102CA000F66E1A0EF76E5FEC11F0040E0401656FFC
:102CB000FA0E0501856F000176EC0EF00401652F18
:102CC000F7D700014CEC11F004016C6B0001F2EC41
:102CD00011F0960EF66E1A0EF76E5FEC11F0400EC4
:102CE00004016C6F0001F2EC11F0A80EF66E1A0EE2
:102CF000F76E5FEC11F0010180A901D0809980A5E9
:102D000006D08095010E0401606F10D0010180A7EC
:102D100004D080970401606B09D0140E0501856F03
:102D2000000176EC0EF00400CFD70401AA6A150E5C
:102D3000A96E60C4A8FFA69CA69EA684F250006E51
:102D4000F29CF29E0F01550EA76EAA0EA76EA682E8
:102D5000A6B2FED7A6940050F212F2CF65F4F29C10
:102D6000F29EAA6A150EA96EA69CA69EA680A850E1
:102D7000040165BDF28C65BFF28E506E00014CEC13
:102D800011F0BA0EF66E1A0EF76E5FEC11F0040E2B
:102D90000401656FFA0E0501856F000176EC0EF0F7
:102DA0000401652FF7D700014CEC11F004016C6BA6
:102DB0000001F2EC11F0C80EF66E1A0EF76E5FEC21
:102DC00011F0400E04016C6F0001F2EC11F0DA0E0C
:102DD000F66E1A0EF76E5FEC11F0010180A901D0BA
:102DE000809980A506D08095010E0401616F10D0F6
:102DF000010180A704D080970401616B09D0140EF3
:102E00000501856F000176EC0EF00400CFD70401B8
:102E1000AA6A160EA96E61C4A8FFA69CA69EA684E7
:102E2000F250006EF29CF29E0F01550EA76EAA0E94
:102E3000A76EA682A6B2FED7A6940050F212F2CFD9
:102E400065F4F29CF29EAA6A160EA96EA69CA69E36
:102E5000A680A850040165BDF28C65BFF28E4F6E4E
:102E600000014CEC11F0EC0EF66E1A0EF76E0B0E24
:102E70000401656F00016FEC11F061C465F4180E78
:102E80000401666F00011DEC13F0080E0401656F6C
:102E9000FA0E0501856F000176EC0EF00401652F36
:102EA000F7D700014CEC11F004016C6B0001F2EC5F
:102EB00011F0FA0EF66E1A0EF76E5FEC11F0400E7E
:102EC00004016C6F0001F2EC11F00C0EF66E1B0E9B
:102ED000F76E5FEC11F0010180A901D0809980A507
:102EE00006D08095010E0401626F10D0010180A709
:102EF00004D080970401626B09D0140E0501856F20
:102F0000000176EC0EF00400CFD70401AA6A170E78
:102F1000A96E62C4A8FFA69CA69EA684F250006E6D
:102F2000F29CF29E0F01550EA76EAA0EA76EA68206
:102F3000A6B2FED7A6940050F212F2CF65F4F29C2E
:102F4000F29EAA6A170EA96EA69CA69EA680A850FD
:102F5000040165BDF28C65BFF28E516E00014CEC30
:102F600011F01E0EF66E1B0EF76E0C0E0401656F4F
:102F700000016FEC11F061C465F4180E0401666F76
:102F800000011DEC13F0080E0401656FFA0E050137
:102F9000856F000176EC0EF00401652FF7D7000174
:102FA0004CEC11F01200F2CF5AF4F29CF29EAA6A95
:102FB000100EA96EA69CA69EA680A85004015ABD1C
:102FC000F28C5ABFF28E520833E1F2CF5BF4F29CDE
:102FD000F29EAA6A130EA96EA69CA69EA680A85071
:102FE0005BBDF28C5BBFF28E020822E3F2CF5CF491
:102FF000F29CF29EAA6A140EA96EA69CA69EA680BA
:10300000A8505CBDF28C5CBFF28E010811E3F2CFD8
:103010005DF4F29CF29EAA6A160EA96EA69CA69E6C
:10302000A680A8505DBDF28C5DBFF28E010806E25D
:10303000010E5A6F00017DEC13F00DD0010180B537
:103040000BD080A909D080B707D0809904015A6BB2
:1030500000017DEC13F00101000120EF39F0015077
:1030600060C4A7F5640E0501A86F000107EC13F01A
:1030700000C060F40150300E08E1040161A30FD0DC
:1030800061B70DD061B9200E04D004016197619938
:103090006181012601C06EF4000159EC11F060C499
:1030A000A7F50A0E0501A86F000107EC13F000C098
:1030B00060F40150300E08E1040161B70BD061A14A
:1030C00009D061B9200E0001012601C06EF459EC4F
:1030D00011F00401300E602760C46EF4000159EC59
:1030E00011F01200EACF67F4E9CF66F40401603909
:1030F000F009626F6227E20F636F320F656F6051F4
:103100000F0B632763276527E90F646F6427642724
:103110005F390F0B6427652764376537651F65378F
:103120005F510F0B65276237070E616F0A0E640748
:103130006527FDE363076427FDE362076327FDE37B
:1031400061076227FDE3040EEA6E610EE96E070E69
:103150006615669DE926650EE95CD8B4668DEF506C
:10316000006E08E166BD06D066B916D066B702D01B
:10317000200E03D066876699300E0026EACF60F4F1
:10318000E9CF5FF400C06EF4000159EC11F060C4A7
:10319000EAFF5FC4E9FF0401EE5066ADDCD7000131
:1031A00012000900F6CF60F4F7CF61F4F5509EA845
:1031B000FED7AD6E60C4F6FF61C4F7FF04015F2F58
:1031C00001D002D00001EDD70001120001505FC410
:1031D000A7F5640E0501A86F000107EC13F000C00D
:1031E0005FF40150300E08E1040160A30ED060B717
:1031F0000CD060B9200E04D0040160976099608102
:10320000012601509EA8FED7AD6E5FC4A7F50A0E39
:103210000501A86F000107EC13F000C05FF4015036
:10322000300E08E1040160B70BD060A109D060B98D
:10323000200E0001012601509EA8FED7AD6E0401AC
:10324000300E5F275F519EA8FED7AD6E00011200C1
:103250000900F5520DE0F6CF5FF4F7CF60F4F550BA
:103260009EA8FED7AD6E5FC4F6FF60C4F7FFF0D72F
:103270001200EACF67F4E9CF66F404016039F0097F
:10328000626F6227E20F636F320F656F60510F0B41
:10329000632763276527E90F646F642764275F3915
:1032A0000F0B6427652764376537651F65375F51E6
:1032B0000F0B65276237070E616F0A0E64076527DB
:1032C000FDE363076427FDE362076327FDE361070E
:1032D0006227FDE3040EEA6E610EE96E070E6615C5
:1032E000669DE926650EE95CD8B4668DEF50006EE8
:1032F00008E166BD06D066B90CD066B702D0200ED4
:1033000003D066876699300E002600509EA8FED72F
:10331000AD6EEE5066ADE6D70001B8EF1AF00401CD
:103320005A6B93948A8493968A86959E8C8E140EFB
:103330005D6F000141EC11F04D5207E1E60EF66EB3
:103340001B0EF76E5FEC11F010D04D50020807E134
:10335000EE0EF66E1B0EF76E5FEC11F006D0F60E59
:10336000F66E1B0EF76E5FEC11F04E5207E1000E89
:10337000F66E1C0EF76E5FEC11F00FD04E2C07D0DE
:10338000080EF66E1C0EF76E5FEC11F006D0100EF4
:10339000F66E1C0EF76E5FEC11F0F2CF5DF4F29C4E
:1033A000F29EAA6A110EA96EA69CA69EA680A8509F
:1033B00004015DBDF28C5DBFF28E5E6FF2CF5FF4F3
:1033C000F29CF29EAA6A120EA96EA69CA69EA680E8
:1033D000A8505FBDF28C5FBFF28E606F5EC45CF47C
:1033E00060C45BF40A0E5A6F5A5369E0400E6C6F6A
:1033F0000001F2EC11F0F2CF5DF4F29CF29EAA6AA9
:10340000100EA96EA69CA69EA680A85004015DBDC4
:10341000F28C5DBFF28E5E6F1A0EF66E1C0EF76EAA
:10342000060E656F00016FEC11F05AC460F41B0EBC
:103430000401616F000113DE220EF66E1C0EF76EA2
:10344000040E0401656F00016FEC11F05EC46EF4B0
:1034500059EC11F0100EE96E5CC460F45BC45FF4CB
:1034600041DE200E04016E6F000159EC11F02E0EAA
:10347000F66E1C0EF76E080E04015F6F000191DE00
:103480005AC45FF41B0E0401606F00019FDE380E0A
:10349000F66E1C0EF76E0A0E04015F6F000181DEEE
:1034A000040E04015D6FFA0E0501856F000176ECD4
:1034B0000EF004015D2FF7D704005A0795D7F2CF1D
:1034C0005DF4F29CF29EAA6A100EA96EA69CA69EBE
:1034D000A680A8505DBDF28C5DBFF28E5E6F440E7B
:1034E000F66E1C0EF76E140E5F6F00015ADE9E0E14
:1034F000F66E1C0EF76EACDE5A0EF66E1C0EF76EF4
:10350000040E04015F6F00014CDE48C05FF4010E41
:103510000401606F00015ADE2D0E9EA8FED7AD6E2D
:1035200049C05FF4010E0401606F00014FDE2D0EF3
:103530009EA8FED7AD6E4AC05FF4010E0401606F15
:10354000000144DE6C0EF66E1C0EF76E0A0E0401CE
:103550005F6F000126DE04015E519EA8FED7AD6EAE
:10356000100EE96E5CC460F45BC45FF4000181D6A8
:103570007B0EF66E1C0EF76E0C0E04015F6F0001E1
:1035800010DE4DC05FF41B0E0401606F00011EDEF3
:10359000890EF66E1C0EF76E0E0E04015F6F0001B1
:1035A00000DE4EC05FF41B0E0401606F00010EDEF2
:1035B000290E9EA8FED7AD6E0D0E9EA8FED7AD6E4D
:1035C0000A0E9EA8FED7AD6E22EF39F0A00E0501BF
:1035D0007D6F7B517F0802E27D837B9F9488000092
:1035E000948600008B98949800008B9694967DC5E5
:1035F00080F500010CEC0FF07BC57EF505017F6BBB
:103600007BC580F500010CEC0FF07AC580F50CEC61
:103610000FF07CC580F50CEC0FF0949800009486B8
:1036200082A6FED7000000D000009488000012009F
:10363000340EF66E170EF76E0BDE4CEC11F04E0EDC
:10364000F66E170EF76E5FEC11F0050E04015A6F5F
:10365000F00E0501856F000176EC0EF004015A2F83
:10366000F7D705017B6B7A6B7C6B0001AFDF05013F
:103670007B6B020E7A6F7C6B0001A8DF05017B6B10
:10368000030E7A6F7C6B0001A1DF95948C9400008F
:103690006650500E666E6430FEE36650666A6430B3
:1036A000FEE36650666A6430FEE36650666A643024
:1036B000FEE395948C8400000A0E0501856F0001DD
:1036C00076EC0EF095948C9400006650D70E666EE2
:1036D0006430FEE36650666A6430FEE366CF8AF4C7
:1036E00095948C84000004018AC401F001C05AF44E
:1036F00001BE04D004000001E5D70401400E6C6F48
:103700000001F2EC11F05E0EF66E170EF76E5FEC34
:1037100011F0640EF66E170EF76E9ADD050E0401B9
:103720005A6FF00E0501856F000176EC0EF0040172
:103730005A2FF7D70001120081CF5AF404015AB969
:1037400007D0010181B902D0040102D07F8F0401AA
:103750005AA907D0010181A902D0040102D07F81BA
:1037600004015AC481F10001F93D03D0FA3D01D0B2
:1037700003D0F92BD8B4FA2BFB3D03D0FC3D01D08C
:1037800003D0FB2BD8B4FC2BF751F8110BE0FA5304
:1037900003E1F951050806E2F93D03D0FA3D01D0F5
:1037A00001D07681D890040154355B6F55355C6F3C
:1037B000000E010181AB010E04015B135BC454F4E4
:1037C0005C51E009556F545309E15551F00806E189
:1037D000010180877F811E0E886F0401D8905635C5
:1037E0005B6F57355C6F000E010181AD010E040166
:1037F0005B135BC456F45C51E009576F565309E103
:103800005751F00806E1010180897F811E0E886F03
:103810000401D89058355B6F59355C6F000E01017B
:1038200081AF010E04015B135BC458F45C51E009E5
:10383000596F585308E15951F00805E1010180859D
:103840007F811E0E886F0101895303E093968A865B
:1038500002D093968A96000170EF39F0020E0401AF
:103860007A6F00018DEC0FF001503F0B04015A6F8D
:103870007B6F0001C7EC0FF001C082F1010E040163
:103880007A6F00018DEC0FF001C05AF401C07BF497
:10389000C7EC0FF001C083F104017A6B00018DECDD
:1038A0000FF001507F0B04015A6F7B6F0001C7ECD2
:1038B0000FF001C084F1040E04017A6F00018DEC59
:1038C0000FF001C05AF401C07BF4C7EC0FF001C047
:1038D00085F1050E04017A6F00018DEC0FF001C037
:1038E0005AF401C07BF4C7EC0FF001C086F1060E5C
:1038F00004017A6F00018DEC0FF001C05AF401C091
:103900007BF4C7EC0FF001C087F190EF1DF0969AA1
:103910008D8A9DEF1DF094880000948600008B989E
:10392000949800008B969496C00E0501806F00015C
:103930000CEC0FF001500108EEE00501806B000176
:103940000CEC0FF0948800009486000082A6FED74D
:103950008B98949800008B969496C10E0501806F09
:1039600000010CEC0FF001500108ECE004015A6B6F
:103970005A511D0811E3036A5A51560FE96E000EA1
:103980000320EA6E010E006E000167EC0FF001C02B
:10399000EFFF04015A2BECD7006A000167EC0FF02F
:1039A00001C074F094980000948682A6FED70000AF
:1039B00000D0000094880000E9EF1DF0036A0501C3
:1039C0009E51560FE96E000E0320EA6EEFCF9FF571
:1039D000010E9E25036A560FE96E000E0320EA6E63
:1039E000EFCFA0F59FC503F0A0C501F09FC502F081
:1039F00000011200016A026A006A036A04015F5151
:103A000002E15E5118E0100E606FD8905C375D37B0
:103A1000003603365F51035C02E15E51005C07E350
:103A20005E51005ED8A003065F51035ED880013668
:103A30000236602FEAD7000133EF1DF0512C6CD015
:103A4000020E05019E6F0001B9DF02C05BF401C0E8
:103A50005AF402C05DF401C05CF404015F6B0A0E0D
:103A60005E6F0001C7D7525004010124546E5350B9
:103A70000220556E5550000809E2FF0A03E1545038
:103A8000670804E2680E545E010E555A555000084E
:103A900007E2FF0A03E15450520802E23F6A3CD0B9
:103AA0005550000808E2FF0A03E15450250803E2DC
:103AB000070E3F6E31D0555203E15450F80803E22F
:103AC000060E3F6E29D0555203E15450CB0803E255
:103AD000050E3F6E21D0555203E154509E0803E27B
:103AE000040E3F6E19D0555203E15450710803E2A1
:103AF000030E3F6E11D0555203E15450440803E2C7
:103B0000020E3F6E09D0555203E15450170803E2EC
:103B1000010E3F6E01D03F6A0001EAEF1DF09ED614
:103B20000101885303E197908E8003D097908E9087
:103B30008807895304E10001EAD608D00101040195
:103B40005D6B000141EC11F00101890701018A530D
:103B500004E17F89090E8A6F01D08A07040153515D
:103B60000101835D21E07F8383C153F44B3C03D08B
:103B70004C3C01D003D04B2AD8B44C2A83511E08A8
:103B800002E1808104D083512D0801E180918351AD
:103B9000050809E08351140806E08351230803E077
:103BA0008351320801E17F8B968284B203D09394D3
:103BB0008A8402D093948A943B5202E13C5203E0FF
:103BC000959E8C8E02D0959E8C9E512C04D0000127
:103BD000A2D634D70101000177EF39F09D9A010197
:103BE0007EB12DD0EA6AFD0EE96EE26A770EE16ED3
:103BF000F8C002F0F7C001F0015202E0022A02D040
:103C0000025206E0E6CFEEFF012EFCD7022EFAD7D5
:103C1000010E0001F72504015A6F000E0001F82182
:103C200004015B6FFD0E5A25E96E000E5B21EA6E02
:103C3000EF6A01017E810001F86BF76B01019D8A3B
:103C400000017CEF39F005018A698969875187078E
:103C5000000A26E086C503F08551852BD8B4862B53
:103C6000E96E03C0EAFFEF50891B886B8851070893
:103C700016E38951010B006E036A005003100AE03D
:103C8000D8908A318C6F8931010A896F8C51A00AD2
:103C90008A6F03D0D8908A338933882BE7D7D6D759
:103CA00089C501F08AC502F00001120001017EA160
:103CB00056D07E910001FD51230850E1FE51455C34
:103CC0004DE1FF51465C4AE101010051475CD8B427
:103CD00002D0000143D001510D08D8B402D0000138
:103CE0003DD002511608D8B402D0000137D00501EA
:103CF000866BFE0E856F0A0E876F0001A4DF02C07F
:103D00005BF401C05AF408C103F001010951040138
:103D10005A5D03E103505B5D01E022D0FA0E5D6F56
:103D2000000141EC11F001010351000A000105E01E
:103D3000010A07E0030A09E011D001017F8B0001AD
:103D40000DD001017F85000109D004C103F405C134
:103D500002F406C105F407C104F400D00101040116
:103D600000017FEF39F0D8B204D0040EEA6E770E6E
:103D7000E96E006A016A026A036A0401776B786B74
:103D8000796B7A6B76517511741173112CE0200EDA
:103D90007B6FD8906F3770377137723777377837D6
:103DA00079377A3776517A5D08E17551795D05E1A9
:103DB0007451785D02E17351775D0FE37351775F62
:103DC0007451D8A0743D785F7551D8A0753D795F66
:103DD0007651D8A0763D7A5FD8800036013602361B
:103DE00003367B2FD6D777C4EFFF78C4ECFF79C4B6
:103DF000ECFF7AC4ECFF00011200D89004014B35AF
:103E0000036A2B0FE96E040E0320EA6E60C4ECFF18
:103E1000ED525FC4EFFF4B2B4B510F0801E24B6B90
:103E20004C510F0801E34C2B686B676B666B656B3D
:103E3000696B4C51695D14E2D8906935036A2B0FA8
:103E4000E96E040E0320EA6EECCF03F0ED52EF5062
:103E5000652703506623000E67236823692BE9D783
:103E6000D8904C31006E016A026A036A00506525E1
:103E70006B6F015066216C6F025067216D6F0350AC
:103E800068216E6FD892726F6DC471F46CC470F457
:103E90006BC46FF4766B756B746B4CC473F4000178
:103EA00062DF03C064F402C063F401C062F400C0C6
:103EB00061F4040161C401F062C402F0000171EF19
:103EC00020F004015E51000808E2FF0A03E15D51A1
:103ED000440803E20A0E016E65D05E51000808E254
:103EE000FF0A03E15D513F0803E2090E016E5AD05B
:103EF0005E51000808E2FF0A03E15D513D0803E25C
:103F0000080E016E4FD05E51000808E2FF0A03E17F
:103F10005D513A0803E2070E016E44D05E5100087D
:103F200008E2FF0A03E15D51370803E2060E016E65
:103F300039D05E51000808E2FF0A03E15D51330801
:103F400003E2050E016E2ED05E51000808E2FF0A62
:103F500003E15D512F0803E2040E016E23D05E5190
:103F6000000808E2FF0A03E15D512C0803E2030E9A
:103F7000016E18D05E51000808E2FF0A03E15D51AE
:103F8000270803E2020E016E0DD05E51000808E220
:103F9000FF0A03E15D51200803E2010E016E02D029
:103FA000000E016E000182EF20F004015E5303E178
:103FB0005D513F0808E25E5306E15D51BF0803E32F
:103FC000010E016E6BD05E5303E15D51BF080AE242
:103FD0005E51010807E303E15D513F0803E3020E70
:103FE000016E5CD05E5100080FE2FF0A03E15D51F3
:103FF0003F080AE25E51010807E303E15D51BF0893
:1040000003E3030E016E4AD05E5100080FE2FF0A7F
:1040100003E15D51BF080AE25E51020807E303E1D4
:104020005D513F0803E3040E016E38D05E51010874
:104030000FE2FF0A03E15D513F080AE25E51020808
:1040400007E303E15D51BF0803E3050E016E26D0CF
:104050005E5101080FE2FF0A03E15D51BF080AE269
:104060005E51030807E303E15D513F0803E3060ED9
:10407000016E14D05E5102080FE2FF0A03E15D51A8
:104080003F080AE25E51030807E303E15D51BF0800
:1040900003E3070E016E02D0000E016E0001A9EFCE
:1040A00020F0000E016EC250C30B0110C26E010E53
:1040B0000501856F000176EC0EF004015A6B5A5130
:1040C0000F0816E3C282C2B2FED7C4CF03F0C3CF3B
:1040D0005DF4C4CF5EF4C4CF60F4C3CF5FF40001DD
:1040E0008CD602C05CF401C05BF404015A2BE7D704
:1040F0005CC43EF05BC43DF05CC45EF45BC45DF444
:104100000001DFD601C040F04D50020807E1040E67
:10411000016EC250C30B0110C26E06D00C0E016EB0
:10412000C250C30B0110C26E010E0501856F000164
:1041300076EC0EF0C282C2B2FED7C3CF41F0C4CF3C
:1041400042F0512C01D007D042C05EF441C05DF472
:104150002CD701C03FF0080E016EC250C30B0110F6
:10416000C26E010E0501856F000176EC0EF0C28271
:10417000C2B2FED7C3CF43F0C4CF44F0E4EF25F082
:1041800005018651030809E2FF0A03E18551B008E1
:1041900004E2FF0E016E026E12D0D8908535026ED9
:1041A0008635036E025003C0F7FF0001CBEC00F030
:1041B0000900F5CF03F0016E03C002F00501000114
:1041C0001200036A0501A051560FE96E000E03208C
:1041D000EA6EEFCF01F0000112009EA8FED7AD6E8F
:1041E00012000150A1C5A7F5640E0501A86F0001DA
:1041F00007EC13F000C0A1F50150300E08E10501F5
:10420000A2A310D0A2B70ED0A2B9200E04D00501EF
:10421000A297A299A281012601C0AAF5000183EC10
:1042200011F00501A1C5A7F50A0EA86F000107EC62
:1042300013F000C0A1F50150300E08E10501A2B74E
:104240000BD0A2A109D0A2B9200E0001012601C005
:10425000AAF583EC11F00501300EA127A1C5AAF53E
:10426000000183EC11F0120086C588F585C587F53D
:1042700088C503F0050187C5E9FF88C5EAFFEF524D
:1042800006E0872BD8B4882B0001F2D705018551B1
:10429000875D006E86518859036E00C001F00001F1
:1042A0001200A4A8FED76D6E1200200E0501A2A96F
:1042B000300EA36FA1C500F0A1AF08D0001E002AE8
:1042C00000C0A1F52D0EA36FA28FA2810150A1C540
:1042D000A7F5640EA86F000107EC13F000C0A1F56C
:1042E000300E01240501A46FA1C5A7F50A0EA86F21
:1042F000000107EC13F0300E00240501A66F300E0C
:104300000124A56FA3C500F0300EA45D04E0A283D4
:10431000A2BFA28512D0A3C5A4F5200EA36F300EB4
:10432000A55D04E0A281A2BFA28307D0D8A4A28188
:1043300004E1A4C5A5F5200EA46FA2B505D0A2B3D3
:1043400008D0A2B10BD00FD0A3C5AAF5000183EC11
:1043500011F0A4C5AAF5000183EC11F0A5C5AAF5DA
:10436000000183EC11F0A6C5AAF5000183EC11F061
:104370001200EACFA9F5E9CFA8F50501A2AF08D050
:10438000A88FA8A9A82BA11FA21FA12BD8B4A22B2C
:10439000A239F009A46FA427E20FA56F320FA76F0F
:1043A000A2510F0BA527A527A727E90FA66FA627C0
:1043B000A627A1390F0BA627A727A637A737A71F20
:1043C000A737A1510F0BA727A437070EA36F0A0E1B
:1043D000A607A727FDE3A507A627FDE3A407A527B2
:1043E000FDE3A307A427FDE3050EEA6EA30EE96E25
:1043F000070EA815A89DE906A81507E1A8B9E92A9E
:10440000A8B903D0200E006E1CD0E926A70EE95CE7
:10441000D8B4A88DEF50006E08E1A8BD06D0A8B9A9
:104420001ED0A8B702D0200E0BD0A8AF06D02D0EFC
:10443000006EED50A89DA89F04D0A887A899300EC3
:104440000026EACFA2F5E9CFA1F500C0AAF5000148
:1044500083EC11F0A2C5EAFFA1C5E9FF0501EE500A
:10446000A8ADD4D7000193EF25F09D9236C080F51A
:1044700035C07FF538C082F537C081F53CC084F582
:104480003BC083F53C6A3B6A9D824F2C87D0230E4C
:1044900004015A6F45C05BF446C05CF447C05DF44C
:1044A0001A0E5E6F240E5F6F4E2C21D080C586F5EC
:1044B0007FC585F5000164DE02C07EF501C07DF593
:1044C0007EC560F404017DC561F4040182C586F5F2
:1044D00081C585F5000154DE02C07EF501C07DF581
:1044E0007EC562F404017DC563F404010CD080C56F
:1044F00060F404017FC561F4040182C562F4040123
:1045000081C563F4040184C564F4040183C565F4C2
:1045100004016B6B6BC46AF46AC469F469C468F41F
:1045200068C467F467C466F4512C14D055C06CF4A9
:1045300054C06DF4040E0501A06F000142DE01C0FD
:104540006EF4050E0501A06F00013BDE01C06FF4A3
:104550000AD0040142C06CF441C06DF444C06EF452
:1045600043C06FF400013EC070F404013DC071F41B
:10457000040E0501866F5B0E856F170E876F0001B5
:1045800023EC1EF002C07BF501C07AF57BC572F406
:1045900004017AC573F4040161D00001230E040103
:1045A0005A6F45C05BF446C05CF447C05DF40F0E23
:1045B0005E6F070E5F6F4E2C21D080C586F57FC5DC
:1045C00085F50001DDDD02C07EF501C07DF57EC50B
:1045D00060F404017DC561F4040182C586F581C5DE
:1045E00085F50001CDDD02C07EF501C07DF57EC5FB
:1045F00062F404017DC563F404010CD080C560F44D
:1046000004017FC561F4040182C562F4040181C51F
:1046100063F4040140380501856FF00E85173F50A3
:104620000F0B85250401646F84C565F4040183C5FF
:1046300066F40401040E0501866F5B0E856F0C0E97
:10464000876F000123EC1EF002C07BF501C07AF5F4
:104650007BC567F404017AC568F4040105017C6B2D
:1046600004015E5105017C5D0FE2036A7C515A0F23
:10467000E96E040E0320EA6EEFCF85F58551000147
:10468000ACDD05017C2BECD7502C83D246C086F5DF
:1046900047C085F5040E0401196F7A0E186F320EAB
:1046A0000501AA6F000183EC11F0300E0501AA6F1D
:1046B000000183EC11F087C1A1F5010E0501A26F85
:1046C00000018FDD2D0E0501AA6F000183EC11F0B2
:1046D00086C1A1F5010E0501A26F000182DD2D0E3C
:1046E0000501AA6F000183EC11F085C1A1F5010E4F
:1046F0000501A26F000175DD200E0501AA6F000102
:1047000083EC11F082C1A1F5010E0501A26F000139
:1047100068DD3A0E0501AA6F000183EC11F083C138
:10472000A1F5010E0501A26F00015BDD3A0E050146
:10473000AA6F000183EC11F084C1A1F5010E0501FF
:10474000A26F00014EDD2C0E0501AA6F000183EC63
:1047500011F0100EE96E80C5A2F57FC5A1F594ECAD
:1047600011F02C0E0501AA6F000183EC11F0100E60
:10477000E96E82C5A2F581C5A1F594EC11F02C0E6D
:104780000501AA6F000183EC11F0100EE96E84C5DB
:10479000A2F583C5A1F594EC11F02C0E0501AA6FCA
:1047A000000183EC11F0100EE96E3EC0A2F53DC091
:1047B000A1F594EC11F02C0E0501AA6F000183EC19
:1047C00011F0100EE96E42C0A2F541C0A1F594ECC3
:1047D00011F02C0E0501AA6F000183EC11F0100EF0
:1047E000E96E4CC0A2F54BC0A1F594EC11F02C0E73
:1047F0000501AA6F000183EC11F045C0AAF583EC16
:1048000011F0100EE96E86C5A2F585C5A1F594ECF0
:1048100011F005017C6B040E866F7A0E856F000126
:1048200023DD015005017C5D15E2036A7C517A0F9E
:10483000E96E040E0320EA6EEFCF85F58551000185
:1048400030DD010E0501856F000176EC0EF00501EB
:104850007C2BE1D7512C98D1020E9E6F0001DEEC2B
:104860001CF002C086F501C085F5040E0501A06F9D
:104870000001A7DC01C087F5050E0501A06F00014E
:10488000A0DC01C088F5060E05019E6F0001DEEC7C
:104890001CF002C08AF501C089F5080E05019E6F63
:1048A0000001DEEC1CF002C08CF501C08BF50A0E95
:1048B00005019E6F0001DEEC1CF002C08EF501C008
:1048C0008DF50C0E05019E6F0001DEEC1CF002C0A0
:1048D00090F501C08FF50E0E05019E6F0001DEEC14
:1048E0001CF002C092F501C091F5100E05019E6FFB
:1048F0000001DEEC1CF002C094F501C093F5120E2D
:1049000005019E6F0001DEEC1CF002C096F501C0AF
:1049100095F5140E05019E6F0001DEEC1CF002C03F
:1049200098F501C097F5160E05019E6F0001DEECAB
:104930001CF002C09AF501C099F51A0E05019E6F90
:104940000001DEEC1CF002C09CF501C09BF5190EC5
:104950000501A06F000135DC01C09DF51C0E0501AD
:104960009E6F0001DEEC1CF002C09FF501C09EF5B9
:104970001E0E0501A06F000124DC01C0A0F5040E8D
:104980000401196F7A0E186F2C0E0501AA6F000131
:1049900083EC11F0100EE96E86C5A2F585C5A1F570
:1049A00094EC11F02C0E0501AA6F000183EC11F0BC
:1049B00087C5A1F5180E0501A26F000176DC2C0E4B
:1049C0000501AA6F000183EC11F088C5A1F5180E4E
:1049D0000501A26F000169DC2C0E0501AA6F000120
:1049E00083EC11F0100EE96E8AC5A2F589C5A1F518
:1049F00094EC11F02C0E0501AA6F000183EC11F06C
:104A0000100EE96E8CC5A2F58BC5A1F594EC11F0E2
:104A10002C0E0501AA6F000183EC11F0100EE96E57
:104A20008EC5A2F58DC5A1F594EC11F02C0E0501F3
:104A3000AA6F000183EC11F0100EE96E90C5A2F58B
:104A40008FC5A1F594EC11F02C0E0501AA6F0001A1
:104A500083EC11F0100EE96E92C5A2F591C5A1F597
:104A600094EC11F02C0E0501AA6F000183EC11F0FB
:104A7000100EE96E94C5A2F593C5A1F594EC11F062
:104A80002C0E0501AA6F000183EC11F0100EE96EE7
:104A900096C5A2F595C5A1F594EC11F02C0E050173
:104AA000AA6F000183EC11F0100EE96E98C5A2F513
:104AB00097C5A1F594EC11F02C0E0501AA6F000129
:104AC00083EC11F0100EE96E9AC5A2F599C5A1F517
:104AD00094EC11F02C0E0501AA6F000183EC11F08B
:104AE000100EE96E9CC5A2F59BC5A1F594EC11F0E2
:104AF0002C0E0501AA6F000183EC11F09DC5A1F5F4
:104B0000180E0501A26F000155EC21F02C0E0501D5
:104B1000AA6F000183EC11F0100EE96E9FC5A2F59B
:104B20009EC5A1F526D42C0E0501AA6F000183ECC9
:104B300011F0A0C5A1F51B0E0501A26F0001F1EC5B
:104B400020F005017C6B040E866F7A0E856F0001E4
:104B500034EC21F0015005017C5D16E2036A7C51C2
:104B60007A0FE96E040E0320EA6EEFCF85F58551CA
:104B7000000151EC21F0010E0501856F000176EC7A
:104B80000EF005017C2BDFD70A0E000151EC21F05D
:104B900005010001E5EF25F0040117BD0AD0010E63
:104BA0005D6F000141EC11F0FC6BFB6B0401178D94
:104BB0000ED00001FC5303E1FB510D0808E2010196
:104BC0007F99000151EF20F050D40401179D00019E
:104BD00085EF39F0A00E05017C6F7A517F0802E263
:104BE0007C837A9F94880000948600008B98949828
:104BF00000008B9694967CC580F500010CEC0FF0BC
:104C00007AC57DF505017E6B7AC580F500010CEC57
:104C10000FF079C580F50CEC0FF0948800009486B5
:104C2000000082A6FED78B98949800008B969496ED
:104C300005017C5101097D6F806F00010CEC0FF0C4
:104C4000006A67EC0FF001C07BF594980000948631
:104C500082A6FED7000000D0000094880000050165
:104C60007BC501F000011200230E04015A6F45C0FC
:104C70005BF446C05CF447C05DF42B0E5E6F080E1B
:104C80005F6F36C060F435C061F438C062F437C07D
:104C900063F43CC064F43BC065F487C166F486C12C
:104CA00067F485C168F482C169F483C16AF484C180
:104CB0006BF495948C9400006650D70E666E643049
:104CC000FEE36650666A6430FEE366CF8AF495942C
:104CD0008C8400008AC401F001C06CF405017A6B79
:104CE000020E796F000176DF01C06DF405017A6B69
:104CF000030E796F00016EDF01C06EF43EC06FF4E9
:104D000004013DC070F49682716B84B2712B010E68
:104D10008B6F8F0E8BC489F4886F88C4E9FF89C4B8
:104D2000EAFFEFCF72F4010E8825E96E000E8921AB
:104D3000EA6EEFCF73F4020E8825E96E000E89212A
:104D4000EA6EEFCF74F4030E8825E96E000E892118
:104D5000EA6EEFCF75F4010E8B6F930E8BC489F45E
:104D6000886F88C4E9FF89C4EAFFEFCF76F4010EAB
:104D70008825E96E000E8921EA6EEFCF77F4020EE6
:104D80008825E96E000E8921EA6EEFCF78F4030ED4
:104D90008825E96E000E8921EA6EEFCF79F43FC0D5
:104DA0007AF47B6B7C6B7D6B48C07EF449500F0BB3
:104DB0008A6F01018951F00B04018A257F6F4AC077
:104DC00080F44CC081F44BC082F4040E0501866F60
:104DD0005B0E856F280E876F000123EC1EF002C06A
:104DE00086F401C085F4040186C483F485C484F488
:104DF000876B87512A0810E3036A87515A0FE96EBF
:104E0000040E0320EA6EEFCF8AF48A510001EDEC24
:104E100020F00401872BEDD7000128EF27F00401D3
:104E200017BF0CD00001FC6BFB6B010E04015D6F22
:104E3000000141EC11F00401178F0CD00001FC536C
:104E400003E1FB510D0806E201017F9B00010CD735
:104E50000401179F00018BEF39F095948C940000AA
:104E60006650D20E666E6430FEE304015A375B373B
:104E70005A375B37FC0E5A175BC45EF466505BC44E
:104E800066FF6430FEE35AC45EF466505AC466FF9F
:104E90006430FEE36650666A6430FEE36650666A1C
:104EA0006430FEE36650666A6430FEE36650666A0C
:104EB0006430FEE36650666A6430FEE35D6B5C6BF3
:104EC0005D51020814E303E15C510F0810E3F20E98
:104ED0005C25E96E010E5D21EA6E6650666A6430FB
:104EE000FEE366CFEFFF5C2BD8B45D2BE9D795943A
:104EF0008C84000000014FEF28F005017A6B796B7C
:104F0000000168DE036A01C05EF403C05FF40501BE
:104F10007A6B0C0E796F03C07CF501C07BF5000144
:104F200025EC12F002C05DF401C05CF404015B6B7F
:104F30005A6B5B515D5D23E303E15C515A5D1FE2F7
:104F4000F20E5A25016E010E5B21036E01C05EF464
:104F50005F6F5AC460F4020E5B25616FE8CF7AF58B
:104F60005AC479F5000136DE5FC4EAFF5EC4E9FF8A
:104F700001C0EFFF04015A2BD8B45B2BDAD75B5189
:104F800002080FE303E15A510F080BE3F20E5A2512
:104F9000E96E010E5B21EA6EEF685A2BD8B45B2BE9
:104FA000EED7000153EF28F0230E0401626F45C0D5
:104FB00063F446C064F447C065F43A0E666F150E9C
:104FC000676F5FC468F45EC469F49E6B9E512F08DE
:104FD0001DE3080E9E25036A620F016E040E032274
:104FE0009E516025A16F000E6121A26FF20EA125D6
:104FF000E96E010EA221EA6EEFCFA3F403C0EAFF2F
:1050000001C0E9FFA3C4EFFF9E2BE0D7040E05010A
:10501000866F630E856F370E876F000123EC1EF0DD
:1050200002C09DF401C09CF404019DC49AF49CC488
:105030009BF49E6B9E51390810E3036A9E51620FE8
:10504000E96E040E0320EA6EEFCF9FF49F5100013A
:10505000EDEC20F004019E2BEDD7000188EF28F045
:10506000040103510F0805E2FF0A07E1025101089C
:1050700004E3045305E1055303E1056B046B5CD0C5
:10508000968884A801D058D01A530EE103510F0816
:1050900008E303C45BF402C45AF40001DED603D073
:1050A000040100012AD70401010E5D6F000141ECEB
:1050B00011F003C47AF502C479F505017C6B0B0E7F
:1050C0007B6F000125EC12F002C05BF401C05AF4C2
:1050D00004011A515A27000E5B235D6B1AC45CF45D
:1050E0005DC47AF51AC479F505017C6B300E7B6FCF
:1050F000000125EC12F002C05DF401C05CF45BC459
:105100005FF45AC45EF402C061F401C060F44CD78D
:1051100004011A2B1A510B080FE11A6B045302E118
:10512000055308E0022BD8B4032B0451D8B405076B
:10513000040702D00369026900018EEF39F08E0E78
:10514000006E60C401F05FC402F0036A015209E11D
:1051500002C001F0026A080E005E015202E1006A1C
:1051600008D0D89001BE04D0023601360006F9D727
:10517000019E120004015F51D8B4A5D06B6F63513A
:10518000D8B4A1D06B5F05E37F0E6B27D8B09BD05E
:1051900006D0810E6B5FD8A096D0D8B494D06BC4E3
:1051A00000F0016A026A036A6A6B60C469F4698F7D
:1051B00061C468F462C467F4190E6B6F6651675F6F
:1051C0000DE2010E685F0AE2695F08E26A5F06E2CB
:1051D0006A2B692B682B6651672728D06551685F59
:1051E00012E2010E695F0FE26A5F0DE26A2B692B22
:1051F000655168276651672719E3682B17E1692B0A
:1052000015E16A2B13D064518009695F0EE2010E2B
:105210006A5F0BE26A2B6451800969276551682730
:10522000E9E3692BE7E16A2BE5D703806B2F01D017
:105230000BD0D8906737683769376A37D89003360C
:10524000023601366C37BAD76CA106D0D89001323D
:10525000023203326C3302D0000635E06CBF1ED040
:10526000D8906737683769376A376651675F07E2F2
:10527000010E685F04E2695F02E26A5F1AE365514A
:10528000685F05E2010E695F02E26A5F12E3645142
:105290008009695F03E2010E6A5F0BE3032A09E1FB
:1052A000022A07E1012A05E1002A0DE0013202325B
:1052B000033260C46BF464516B1B6BAF02D0018E80
:1052C00006D0019E04D0006A016A026A036A0001E6
:1052D0001200800ED8A202D00401681B04016D6B7D
:1052E0006E6B64C46CF468516C1B6351D8B4DFD02E
:1052F0006B6F006E6751D8B4E3D06B5FD8B483D0C6
:105300003EE368C471F4718F69C470F46AC46FF4C9
:105310006E6BD890713370336F336E336B2FF8D759
:105320006CAF03D06D81E0D06D916B916D89040EEF
:10533000EA6E660EE96EEBD06D996CBF0AD06BA178
:1053400013D0713370336F336E33002AD8B4C7D0A3
:105350000BD071BF0CD0D8906E376F377037713764
:105360000006D8B4BCD0F5D76D8D6DD06D9D64C4EA
:105370006CF464AF02D0718FABD0719FA9D067C4B9
:105380006BF467C400F063516B5F64C471F4718F98
:1053900065C470F466C46FF46E6BD890713370336B
:1053A0006F336E336B2FF8D76CAF03D06D839CD007
:1053B0006D936B916D8B040EEA6E6A0EE96EA7D049
:1053C0006D9B6CBF0AD06BA113D0713370336F33F8
:1053D0006E33002AD8B483D00BD071BF0CD0D890D4
:1053E0006E376F37703771370006D8B478D0F5D77D
:1053F0006D8F29D06D9F68C46CF468AF02D0718F37
:1054000067D0719F65D068C471F4718F69C470F4FE
:105410006AC46FF46CAF04D0719F6D8565D06D95D3
:105420006E6B6B91040EEA6E660EE96E70D06CBF07
:105430001CD064C46CF46BA106D0713370336F332D
:105440006E33002A4CE06EAF0BD06F2B09E1702B4E
:1054500007E1712B05E1713370336F33002A3FE0B0
:105460006DBD84D76DBFC6D71CD0800E711B71AFC8
:1054700004D03AD068C46CF40AD064C46CF471539C
:1054800006E1705304E16F5302E1006A21D071BF5D
:1054900008D0D8906E376F3770377137002EF7D736
:1054A0001ED06CAF02D0718F13D0719F11D067C422
:1054B00000F068C471F469C470F46AC46FF408D071
:1054C00063C400F064C471F465C470F466C46FF41E
:1054D00071C401F070C402F06FC403F034D0006AEC
:1054E000016A026A036A2FD06E6B6F1F701F711FF3
:1054F0006E1F6E2B05E16F2B03E1702B01E1712B09
:105500006DB112D76DB354D76DB589D7B3D7EF50FE
:105510006F2705E3702B03E1712BD8B46B81ED523B
:10552000EF50702703E3712BD8B46B81ED52EF502D
:10553000EFBE01D0800A7127D8B06B816DB9FCD65F
:105540006DBB3ED774D70001120004016C51D8B472
:1055500071D0006E7051D8B46DD0002604E3810E76
:10556000002668E204D07F0E005E64E363E06DC451
:1055700074F47151741B6D8F718F6F517303F4CF7D
:1055800076F46E517203F4CF03F0F3CF75F4730326
:10559000F3507627F4507523000E03226F517203E7
:1055A000F3507627F4507523000E026A032202227C
:1055B0006D517303F3507527F4500322000E02223D
:1055C0006D517203F3500326F4500222000E016A5B
:1055D00001226F517103F3507527F4500322000E1E
:1055E000022201226E517103F3500326F45002226D
:1055F000000E01226D517103F3500226F450012276
:10560000002A01BE05D07537033602360136000682
:10561000000E75AF0AD0032A02220122015005E1D3
:10562000025003E1035001E1002A74BF018E74AF00
:10563000019E04D0006A016A026A036A0001120036
:1056400004016C51B6086C6F036A6DC470F46D8F01
:10565000D8906D336E336F33033202320132003231
:105660006C2FF6D770AF0BD0001E011E021E031E5A
:10567000002AD8B4012AD8B4022AD8B4032A0001D7
:105680006DEF2BF0E9500401646F6351666F1BE00E
:1056900062C46FF461C46EF460C46DF45FC46CF4F2
:1056A000736B726B200E716F820E706F00014DDF95
:1056B00003C062F402C061F401C060F400C05FF492
:1056C0000401662FE5D762C46FF461C46EF460C450
:1056D0006DF45FC46CF40001B3D703C062F402C080
:1056E00061F401C060F400C05FF4040162AF0DD04A
:1056F0006407648B5F1F601F611F621F5F2BD8B43C
:10570000602BD8B4612BD8B4622B3B0E6B6F9A0E12
:105710006A6FCA0E696F686B0A0E666F6351D8B400
:10572000642BD882040EEA6E5F0EE96E62C472F4D6
:1057300061C471F460C470F45FC46FF46BC476F438
:105740006AC475F469C474F468C473F40001B3ECFA
:105750001EF00150005213E104016329665DD8A4D4
:1057600002D000010CD064510DE00F0B665D01E02A
:1057700044E264BF42D064BD05D0200E37D0200E75
:105780000401641764AB0FD0649B6351D8A4640711
:105790000050646F2D0E6E6F000159EC11F0040182
:1057A0006451006E646B6351665D0DE10050646F7F
:1057B0002E0E6E6F000159EC11F004016451006E61
:1057C000200E6417000E300E64AB10D0649B635142
:1057D000D8A464070050646F2D0E6E6F000159EC61
:1057E00011F004016451006E646B300E002600C09D
:1057F0006EF4000159EC11F00401D8926BC472F4FC
:105800006AC471F469C470F468C46FF4766B756B24
:10581000746B0A0E736F0001B3EC1EF003C06BF4DF
:1058200002C06AF401C069F400C068F40401662F84
:1058300078D70001120004016051030809E2FF0A51
:1058400003E15F51B00804E2000E016E026E12D057
:10585000D8905F35026E6035036E025003C0F7FFCB
:10586000000183EC05F00900F5CF03F0016E03C0E1
:1058700002F0040100011200E9500401666F3B0EC2
:105880006D6F9A0E6C6FCA0E6B6F6A6B0A0E686F43
:105890006551D8A46607D882040EEA6E610EE96EDF
:1058A00064C472F463C471F462C470F461C46FF4CC
:1058B0006DC476F46CC475F46BC474F46AC473F488
:1058C0000001B3EC1EF00150005213E10401652900
:1058D000685DD8A402D000010CD066510CE00F0B1B
:1058E000685D01E020E266BF1ED066BD04D0200ED8
:1058F00013D00401666B6551685D0DE100C066F46C
:105900002E0E6E6F000159EC11F0040166C400F018
:10591000200E6617000E300E002600C06EF4000147
:1059200059EC11F00401D8926DC472F46CC471F496
:105930006BC470F46AC46FF4766B756B746B0A0E8B
:10594000736F0001B3EC1EF003C06DF402C06CF481
:1059500001C06BF400C06AF40401682F9CD70001F9
:1059600012004E52D8A4E2D0355202E1365241E044
:10597000353C03D0363C01D03CD036C060F435C055
:105980005FF49FEC28F00401626B100E616F6F0EE4
:10599000606F8B0E5F6F03C066F402C065F401C0D8
:1059A00064F400C063F40001BAEC28F000C05FF4B6
:1059B00001C060F402C061F403C062F4D89203C075
:1059C00066F402C065F401C064F400C063F4330EF1
:1059D00004016A6F696F686F7D0E676F000179DC83
:1059E00003C05EF402C05DF401C05CF400C05BF46F
:1059F00006D004015E6B5D6B5C6B5B6B0001620E3D
:105A0000F66E190EF76E070E0401656F00016FEC5C
:105A100011F0410EE96E5EC462F45DC461F45CC4D1
:105A200060F45BC45FF4010E0401636F00012ADEC1
:105A30006F0EF66E190EF76E040E0401656F00010D
:105A40006FEC11F0375202E1385241E0373C03D09D
:105A5000383C01D03CD038C060F437C05FF49FECD4
:105A600028F00401626B100E616F6F0E606F8B0E79
:105A70005F6F03C066F402C065F401C064F400C047
:105A800063F40001BAEC28F000C05FF401C060F4D8
:105A900002C061F403C062F4D89203C066F402C08D
:105AA00065F401C064F400C063F4330E04016A6F4E
:105AB000696F686F7D0E676F00010BDC03C05EF4D9
:105AC00002C05DF401C05CF400C05BF405D00401C9
:105AD0005E6B5D6B5C6B5B6B400E04016C6F000179
