:04000000E5EF1FF019
:08000800046ED8CF05F0E0CF33
:1000100006F00001E9CF0CF0EACF07F0E1CF08F0DD
:10002000E2CF09F0D9CF0AF0DACF0BF0F3CF12F01C
:10003000F4CF13F0FACF14F0F5CF15F0F6CF16F099
:10004000F7CF17F000C00EF001C00FF002C010F0A3
:1000500003C011F09DA230EF00F09EB27CEF00F0E3
:10006000F2A836EF00F0F2B210EF01F0F2A63CEF8A
:1000700000F0F2B035EF01F09DAA42EF00F09EBA19
:100080005CEF01F0A3AA48EF00F0A4BA80EF01F002
:100090000EC000F00FC001F010C002F011C003F05C
:1000A0000CC0E9FF07C0EAFF078E08C0E1FF09C0E6
:1000B000E2FF0AC0D9FF0BC0DAFF12C0F3FF13C082
:1000C000F4FF14C0FAFF15C0F5FF16C0F6FF17C005
:1000D000F7FF045006C0E0FF05C0D8FF1000F76A24
:1000E000EE0FF66E000EF7220900F55012003235C1
:1000F0002D5365702D3135000101483D03D0493D38
:1001000001D003D0482BD8B4492B0301C32BC351D2
:100110000A08D8A481D0C36B0001B63D03D0B73D17
:1001200001D003D0B62BD8B4B72BB83D03D0B93D1E
:1001300001D003D0B82BD8B4B92BB451B5110BE012
:10014000B75303E1B651050806E2B63D03D0B73D0B
:1001500001D001D03380D8900301C4350501346F3C
:100160000301C5350501356F000E01013EAB010EDF
:100170000501341334C5C4F305013551E009030109
:10018000C56FC45309E1C551F00806E101013D8581
:100190003C811E0E456F0301D890C6350501346FB2
:1001A0000301C7350501356F000E01013EAD010E9B
:1001B0000501341334C5C6F305013551E0090301C7
:1001C000C76FC65309E1C751F00806E101013D8739
:1001D0003C811E0E456F0301D890C8350501346F70
:1001E0000301C9350501356F000E01013EAF010E57
:1001F0000501341334C5C8F305013551E009030185
:10020000C96FC85309E1C951F00806E101013D83F6
:100210003C811E0E456F03019E92000148EF00F0E5
:1002200092948984242AD8B4252A0301CAA110D023
:1002300049C121F048C120F02150235C08E303E1CB
:100240002250205C04E221C023F020C022F0CA9199
:10025000CAB105D00101496B486B0301CA81929470
:100260008994F292000148EF00F081CF34F5050146
:1002700034B907D001013EB902D0050102D03C8D4E
:10028000050134A907D001013EA902D0050102D021
:100290003C81050134C53EF1F290000148EF00F0C9
:1002A0009EAAFED7ABCF1FF0AECF01F01FA202D0A7
:1002B000AB98AB885FEF01F0B76BB66BF1D701C0BD
:1002C00034F5B5530EE1B4517F080BE3340EB42579
:1002D000E96E000EB521EA6E34C5EFFFB42BD8B439
:1002E000B52B9E9A48EF00F0A4AAFED76BCF1FF063
:1002F0006ECF01F01FA202D06B986B8881EF01F0E6
:10030000F3D701C034F5A49A48EF00F023204461EC
:100310007461666C617368207061676520726561E5
:10032000642066726F6D20256C750D0A00000D0A41
:1003300000000D0A2320446F6E650D0A0000232083
:10034000696E697469616C697A696E67206C6F6740
:1003500067696E670D0A0000526573657474696E93
:1003600067204C6F67210000446F6E6500003E20DF
:10037000646F6E650D0A00002320706C6179696EF0
:1003800067206C6F670D0A003E20646F6E650D0A72
:100390000000232044756D70696E67206C6F670DD7
:1003A0000A003E20646F6E650D0A000050616765AB
:1003B000205265713A2530356C750000204E205072
:1003C000616765733A2530356C750000556E697448
:1003D00020557074696D653A0000256C75206D6953
:1003E0006E7574657300576972656C657373206F01
:1003F0006E3A00002575207365636F6E64730000AC
:100400004C61743A20202530322E346C66004C6FDB
:100410006E3A202530332E346C660000534420435E
:10042000617264205374617475733A002020202037
:100430004C6F6767696E67002020204E6F742052F2
:10044000656164792100496E7465726E616C204D3E
:10045000656D6F727900256C752F256C752066753A
:100460006C6C0000496E7075743A2025302E316C2A
:100470006620766F6C747300426174746572793AA9
:1004800020256425250057696E64204469726563E0
:1004900074696F6E3A00536563746F72202575201E
:1004A0002800343500003930000031333500313850
:1004B00030003232350032373000333135005420CD
:1004C00020202020546D696E20436F756E740000EB
:1004D000446174653A203230253032752D25303232
:1004E000752D2530327500004E6F7720253032751E
:1004F0003A253032753A2530327520555443000084
:1005000053706565643A202530322E3166206D2F98
:100510007300477573743A20202530322E316620DF
:100520006D2F730050726576202053657420202053
:100530004E65787400002D20202020205365742003
:1005400020202020202B00002D20202020204E6560
:10055000787420202020202B00004E4F20202020C7
:10056000594553005072657620456E74657220209F
:100570004E657874000057726F746520446566613B
:10058000756C7420534E000053657269616C3A209B
:100590002563256C75202020202000002D202020A0
:1005A0002020444F4E4520202020202B0000577251
:1005B0006F746520534E0000202D20485720545959
:1005C0005045202D200052444C2020202020202067
:1005D000202052444C55000057726F7465204857D4
:1005E000205479706500446174653A2032302530BA
:1005F00032642D253032642D253032640000546978
:100600006D653A20253032643A253032643A25301F
:100610003264000072644C6F676765722855290068
:1006200072644C6F67676572556E69766572736147
:100630006C00756E6B6E6F776E21000055702069CF
:100640006E2025752049443D2563256C75200000EA
:100650002320555020494E202575205345434F4EA9
:1006600044530D0A0000232072644C6F6767657263
:10067000556E6976657273616C202573202832305F
:10068000253032752D253032752D253032752920D3
:100690002873657269616C202563256C7529202893
:1006A0006861726477617265202575290D0A000002
:1006B00032352D5365702D313500507265737320BE
:1006C0006D6964646C650000627574746F6E20748B
:1006D0006F20636C65617200639A9598958A959C0A
:1006E000300E636EC00E646E95968C8695948C84E5
:1006F0000000D8EF05F094869488D9EF05F0050E38
:10070000EA6E220EE96EEF500DE0020E016E006AF5
:10071000002EFED7012EFBD7970E006E002EFED7BF
:10072000EF2EF3D7120097968E8697968E9612002C
:10073000040127BF02D08E9E01D08E8E979E27BDCA
:1007400002D08E9C01D08E8C979C27BB02D08E9AB3
:1007500001D08E8A979A27B902D08E9801D08E88C0
:1007600097980001E0DF040127B702D08E9E01D0E8
:100770008E8E979E27B502D08E9C01D08E8C979C32
:1007800027B302D08E9A01D08E8A979A27B102D0D1
:100790008E9801D08E8897980001C5DF1A0E006EE2
:1007A000002EFED7000012000F0E0501226F00017F
:1007B000A6DF97928E9297948E94979E8E9E979C8A
:1007C0008E9C979A8E8A97988E88ADDF050E0501CC
:1007D000226F000194DFA7DF420E006E002EFED7CD
:1007E0000000A1DF050E0501226F000188DF979848
:1007F0008E9899DF1A0E006E002EFED70000280E8C
:100800000401276F000194DF0C0E0401276F000123
:100810008FDF060E0401276F00018ADF010E04013D
:10082000276F000185DFDAEF05F0080E016E00008A
:100830008B969496000005012B378B98D8B094883E
:10084000D8A09498948682A6FED7012E01D002D01B
:100850000001EDD700008B9694960000948800006C
:100860000000948682A6FED7016A000082B801804B
:100870008B9694968B9894980001120094880000AF
:10088000948600008B98949800008B969496D00ED6
:1008900005012B6F0001C9DF01500401299101B04E
:1008A000298129A102D00001E9D727C42BF5000135
:1008B000BCDF28C42BF5B9DF94980000948682A68B
:1008C000FED7000000D00000948800001200070E40
:1008D0000401276F100E286F0001D0DFDBEF05F059
:1008E000080E0501296F00C02AF59488000094863F
:1008F00082A6FED782B8D88082A8D89001360000A0
:1009000094968B96292FF1D7948800008B982A51C2
:10091000D8A494980000948682A6FED700008B96F7
:10092000949600008B98949800011200948800001F
:10093000948600008B98949800008B969496D00E25
:1009400005012B6F000171DF01500108EFE027C4A2
:100950002BF56BDF948800009486000082A6FED7FA
:100960008B98949800008B969496D10E05012B6F6E
:1009700000015BDF01500108EDE0006AB1DF01C05A
:1009800028F494980000948682A6FED7000000D038
:10099000000094880000040128C401F00001120046
:1009A00004012839296F0F0E291728510F0B2A6FC0
:1009B00029510A0DF3502A25016E0001120004018D
:1009C000276B286B00015ADF060E0401276F0A0E01
:1009D000286F000153DF050E0401276F010E286FF9
:1009E00000014CDF040E0401276F010E286F000187
:1009F00045DF020E0401276F286B00013FDF010E67
:100A00000401276F286B000139DFE9EF05F0720E52
:100A1000D36ED350C150C00B0B09C16EC050C00B78
:100A20000709C06EC08EC28001013C933C953C9783
:100A30003C813C993C9B3C8F3C9D3D933D953D9733
:100A400081CF3EF11E0E456F216A206A236822681D
:100A5000256A246A040EEA6E070EE96E000E000194
:100A60006FEC00F00A000900F550EE6E0009FBE1A2
:100A7000300E0401075D0A0DF3CF2FF0300E085D34
:100A80002F260A514A080FE10B51410803E1010EDC
:100A90002E6E08D00C514E0803E1060E2E6E02D0C9
:100AA000070E2E6E37D00A51410809E10B5150084C
:100AB00003E1040E2E6E02D0080E2E6E2BD00A51CA
:100AC0004D0809E10C51520803E1030E2E6E02D0CD
:100AD000050E2E6E1FD00A51460803E1020E2E6E3F
:100AE00019D00A51530803E1090E2E6E13D00A5192
:100AF0004F0803E10A0E2E6E0DD00A514E0803E195
:100B00000B0E2E6E07D00A51440803E10C0E2E6E18
:100B100001D02E68300E0E5D0A0DF3CF2DF0300E91
:100B20000F5D2D26316A306A33900001B56BB46BCE
:100B3000B769B669B969B86901013B91F2CF27F489
:100B4000F29EAA6A100EA96EA69CA69EA680A85028
:100B5000040127BFF28E2A6EF2CF27F4F29EAA6A12
:100B6000110EA96EA69CA69EA680A85027BFF28E45
:100B70002B6EF2CF27F4F29EAA6A120EA96EA69CE3
:100B8000A69EA680A85027BFF28E2C6EF2CF27F427
:100B9000F29EAA6A130EA96EA69CA69EA680A850D5
:100BA00027BFF28E326E0301C069BF69000194D580
:100BB000A2D5FAD58CD6060E0401276F0001B6DE49
:100BC00001C027F401C028F4EBDE0150040801E362
:100BD000F6D6000E0509CA6E300ECB6E9D8AA38A2A
:100BE0009D82F19E010E0501226F000188DDF286D3
:100BF000F19CF288C00EF2125DEF20F004010A5160
:100C00000101465D02E20AC446F1969A8D9A0001FE
:100C1000120097928E92010E0401276F000188DD69
:100C2000020E0501226F00016ADD120097928E828A
:100C30001DC427F47DDD12000900F5520CE0F6CF4B
:100C40000DF4F7CF0EF4F5CF1DF4F0DF0DC4F6FF71
:100C50000EC4F7FFF1D7120097928E92800E040116
:100C60001025116F276F000163DD12000900F6CF18
:100C700011F4F7CF12F4F5CF1DF4D8DF11C4F6FF4D
:100C800012C4F7FF0401102F01D002D00001EED7EB
:100C900000011200EACF14F4E9CF13F404010D3976
:100CA000F0090F6F0F27E20F106F320F126F0D5107
:100CB0000F0B102710271227E90F116F112711278B
:100CC0000C390F0B1127122711371237121F123749
:100CD0000C510F0B12270F37070E0E6F0A0E11075C
:100CE0001227FDE310071127FDE30F071027FDE38F
:100CF0000E070F27FDE3040EEA6E0E0EE96E070ED7
:100D00001315139DE926120EE95CD8B4138DEF502C
:100D1000006E08E113BD06D013B915D013B702D089
:100D2000200E03D013871399300E0026EACF0DF45E
:100D3000E9CF0CF400C01DF4000178DF0DC4EAFF18
:100D40000CC4E9FF0401EE5013ADDDD70001120021
:100D50000401075368E0AA6A100EA96E520EA86E2D
:100D6000A69CA69EA684F250006EF29E0F01550E20
:100D7000A76EAA0EA76EA682A6B2FED7A6940050B2
:100D8000F212AA6A110EA96EA86AA69CA69EA68453
:100D9000F2CF00F0F29E550EA76EAA0EA76EA682A5
:100DA000A6B2FED7A6940050F212AA6A120EA96E3D
:100DB000A86AA69CA69EA684F2CF00F0F29E550ECD
:100DC000A76EAA0EA76EA682A6B2FED7A694005062
:100DD000F212AA6A130EA96E020EA86EA69CA69E17
:100DE000A684F2CF00F0F29E550EA76EAA0EA76E53
:100DF000A682A6B2FED7A6940050F212000109DF27
:100E0000760EF66E050EF76E17DF040E04010C6FFA
:100E1000FA0E0501226F000172DC04010C2FF8D7D5
:100E20000001F7DE0401F2CF0CF4F29EAA6A100E64
:100E3000A96EA69CA69EA680A8500CBFF28E086F35
:100E4000F2CF0CF4F29EAA6A110EA96EA69CA69E81
:100E5000A680A8500CBFF28E0D6FF2CF0EF4F29E5A
:100E6000AA6A120EA96EA69CA69EA680A8500EBFC6
:100E7000F28E0F6F0DC40AF40FC409F4106B000159
:100E8000EBDE880EF66E050EF76E080E0401106F8D
:100E90000001ECDE08C41DF4C9DE100EE96E0AC4C0
:100EA0000DF409C40CF4F6DE950EF66E050EF76E21
:100EB000050E0401106F0001D9DE400E0401106F11
:100EC0000001CADE9C0EF66E050EF76EB5DE01015E
:100ED0003DA702D03D971AD03DA306D03D93040113
:100EE000092BD8B40A2B01013DA506D03D9504017C
:100EF0000951D8B40A070907140E0501226F000131
:100F00007FEC03F004000401B9D70101AA6A100EB6
:100F1000A96E520EA86EA69CA69EA684F250006EE4
:100F2000F29E0F01550EA76EAA0EA76EA682A6B25C
:100F3000FED7A6940050F2120AC40CF4AA6A110E4D
:100F4000A96E0AC4A8FFA69CA69EA684F2CF00F0B4
:100F5000F29E550EA76EAA0EA76EA682A6B2FED767
:100F6000A6940050F21209C40CF4AA6A120EA96EDB
:100F700009C4A8FFA69CA69EA684F2CF00F0F29E0C
:100F8000550EA76EAA0EA76EA682A6B2FED7A6948D
:100F90000050F212AA6A130EA96E0BC4A8FFA69CF9
:100FA000A69EA684F2CF00F0F29E550EA76EAA0E62
:100FB000A76EA682A6B2FED7A6940050F212F2CF78
:100FC0000CF4F29EAA6A100EA96EA69CA69EA6809C
:100FD000A85004010CBFF28E2A6EF2CF0CF4F29EE0
:100FE000AA6A110EA96EA69CA69EA680A8500CBF48
:100FF000F28E2B6EF2CF0CF4F29EAA6A120EA96E3C
:10100000A69CA69EA680A8500CBFF28E2C6EF2CF96
:101010000CF4F29EAA6A130EA96EA69CA69EA68048
:10102000A8500CBFF28E326E0001F3DDAE0EF66EEC
:10103000050EF76E01DE040E04010C6FFA0E0501B9
:10104000226F00017FEC03F004010C2FF7D70001A1
:10105000E0DD0401106B0001FFDDB80EF66E050E39
:10106000F76EEADD400E0401106F0001F5DDC60EDB
:10107000F66E050EF76EE0DD01013DA701D03D974C
:101080003DA306D03D93020E04010B6F10D0010169
:101090003DA504D03D9504010B6B09D0140E05014C
:1010A000226F00017FEC03F00400D3D70401AA6A89
:1010B000130EA96E0BC4A8FFA69CA69EA684F25090
:1010C000006EF29E0F01550EA76EAA0EA76EA682A5
:1010D000A6B2FED7A6940050F212F2CF0CF4F29E04
:1010E000AA6A130EA96EA69CA69EA680A85004010B
:1010F0000CBFF28E326E00018CDDD80EF66E050E3E
:10110000F76E9ADD040E04010C6FFA0E0501226FD2
:1011100000017FEC03F004010C2FF7D7000179DD0B
:101120001200F2CF07F4F29EAA6A100EA96EA69CD6
:10113000A69EA680A850040107BFF28E52080EE1B9
:10114000F2CF08F4F29EAA6A130EA96EA69CA69E80
:10115000A680A85008BFF28E020805E2010E076FB4
:101160000001F6DD0CD001013DB30AD03DA708D047
:101170003DB506D03D970401076B0001E9DD010193
:10118000000174EF20F005011D51016A1C5D03E2AE
:101190001CC500F00CD0006A080E1E6F1C3700360C
:1011A0001D51005CD8B0006E01361E2FF7D700012C
:1011B000120001500CC41CF5640E05011D6F0001E6
:1011C000E2DF00C00CF40150300E08E104010DA371
:1011D0000ED00DB70CD00DB9200E04D004010D9720
:1011E0000D990D81012601C01DF400011FDD0CC405
:1011F0001CF50A0E05011D6F0001C5DF00C00CF4CF
:101200000150300E08E104010DB70AD00DA108D03D
:101210000DB9200E0001012601C01DF407DD0401F7
:10122000300E0C270CC41DF4000100DD1200090073
:10123000F6CF0DF4F7CF0EF4F5509EA8FED7AD6EA5
:101240000DC4F6FF0EC4F7FF04010C2F01D002D02D
:101250000001EDD70001120001500CC41CF5640E12
:1012600005011D6F00018FDF00C00CF40150300E2E
:1012700008E104010DA30ED00DB70CD00DB9200E5E
:1012800004D004010D970D990D81012601509EA8EF
:10129000FED7AD6E0CC41CF50A0E05011D6F0001D2
:1012A00072DF00C00CF40150300E08E104010DB7EC
:1012B0000BD00DA109D00DB9200E0001012601505F
:1012C0009EA8FED7AD6E0401300E0C270C519EA8CF
:1012D000FED7AD6E000112000900F5520DE0F6CF09
:1012E0000CF4F7CF0DF4F5509EA8FED7AD6E0CC4EC
:1012F000F6FF0DC4F7FFF0D71200EACF14F4E9CFE0
:1013000013F404010D39F0090F6F0F27E20F106F6E
:10131000320F126F0D510F0B102710271227E90FF4
:10132000116F112711270C390F0B112712271137B5
:101330001237121F12370C510F0B12270F37070EDF
:101340000E6F0A0E11071227FDE310071127FDE3A8
:101350000F071027FDE30E070F27FDE3040EEA6ECB
:101360000E0EE96E070E1315139DE926120EE95CA9
:10137000D8B4138DEF50006E08E113BD06D013B939
:101380000CD013B702D0200E03D013871399300E60
:10139000002600509EA8FED7AD6EEE5013ADE6D7E6
:1013A0000001C0EF0AF00401076B140E0A6F000180
:1013B00025DC325206E1140EF66E060EF76E3CDCAA
:1013C0000ED03250020806E1200EF66E060EF76EC1
:1013D00033DC05D0320EF66E060EF76E2DDCF2CF42
:1013E0000AF4F29EAA6A110EA96EA69CA69EA68079
:1013F000A85004010ABFF28E0B6FF2CF0CF4F29EDC
:10140000AA6A120EA96EA69CA69EA680A8500CBF22
:10141000F28E0D6F0BC409F40DC408F40A0E076FA9
:10142000075358E0400E106F000116DCF2CF0AF4AB
:10143000F29EAA6A100EA96EA69CA69EA680A8502F
:1014400004010ABFF28E0B6F3C0EF66E060EF76EAD
:10145000060E106F00010ADC07C40CF41B0E040119
:101460000D6F0001A6DE440EF66E060EF76E040E3A
:101470000401106F000136EC06F00BC41DF416ECED
:1014800006F0100EE96E09C40DF408C40CF402DC79
:10149000200E04011D6F000116EC06F0500EF66ED2
:1014A000060EF76E080E04010C6F0001C0DE07C4C3
:1014B0000CF41B0E04010D6F0001CEDE5A0EF66E09
:1014C000060EF76E0A0E04010C6F0001B0DE040177
:1014D0000707A6D7F2CF0AF4F29EAA6A100EA96EE9
:1014E000A69CA69EA680A8500ABFF28E0B6F660E21
:1014F000F66E060EF76E140E0C6F000198DEB00E3D
:10150000F66E060EF76EE8DE7C0EF66E060EF76ED1
:10151000040E04010C6F00018ADE2DC00CF4010ED4
:1015200004010D6F000198DE2D0E9EA8FED7AD6E52
:101530002EC00CF4010E04010D6F00018DDE2D0E86
:101540009EA8FED7AD6E2FC00CF4010E04010D6FE6
:10155000000182DE8E0EF66E060EF76E0A0E040194
:101560000C6F000164DE04010B519EA8FED7AD6E26
:10157000100EE96E09C40DF408C40CF40001BDD6C8
:101580009D0EF66E060EF76E0C0E04010C6F000138
:101590004EDE32C00CF41B0E04010D6F00015CDE48
:1015A000290E9EA8FED7AD6E0D0E9EA8FED7AD6E7D
:1015B0000A0E9EA8FED7AD6E76EF20F0A00E0501B4
:1015C000286F26517F0802E22883269F9488000016
:1015D000948600008B98949800008B96949628C56A
:1015E0002BF5000115EC04F026C529F505012A6B41
:1015F00026C52BF5000115EC04F025C52BF515ECDF
:1016000004F027C52BF515EC04F09498000094869F
:1016100082A6FED7000000D00000948800001200CF
:101620003E0EF66E030EF76E57DE09EC06F0580E0E
:10163000F66E030EF76E1CEC06F0050E0401076F44
:10164000F00E0501226F00017FEC03F00401072F6B
:10165000F7D70501266B256B276B0001AFDF05016E
:10166000266B020E256F276B0001A8DF0501266B94
:10167000030E256F276B0001A1DF95948C94000069
:101680006650500E666E6430FEE36650666A6430E3
:10169000FEE36650666A6430FEE36650666A643054
:1016A000FEE395948C8400000A0E0501226F000170
:1016B0007FEC03F095948C9400006650D70E666E14
:1016C0006430FEE36650666A6430FEE366CF37F44A
:1016D00095948C840000040137C401F001C007F424
:1016E00001BE04D004000001E5D70401400E106FD4
:1016F00000012CEC06F0680EF66E030EF76E1CEC83
:1017000006F06E0EF66E030EF76EE6DD050E0401B2
:10171000076FF00E0501226F00017FEC03F004015A
:10172000072FF7D7000112009D9A01013BB12DD080
:10173000EA6ABA0EE96EE26A340EE16EB5C002F0F2
:10174000B4C001F0015202E0022A02D0025206E0C7
:10175000E6CFEEFF012EFCD7022EFAD7010E0001D4
:10176000B4250401076F000E0001B5210401086FC4
:10177000BA0E0725E96E000E0821EA6EEF6A010134
:101780003B810001B56BB46B01019D8A0001BDEF87
:1017900020F00401516950694E514E07000A26E0BD
:1017A0004DC403F04C514C2BD8B44D2BE96E03C003
:1017B000EAFFEF50501B4F6B4F51070816E3505193
:1017C000010B006E036A005003100AE0D8905131FB
:1017D000536F5031010A506F5351A00A516F03D01B
:1017E000D890513350334F2BE7D7D6D750C401F0A0
:1017F00051C402F00001120001013BA148D03B910D
:101800000001BA51230842E1BB512A5C3FE1BC51BF
:101810002B5C3CE1BD512C5C39E1BE510D0836E139
:10182000BF51160833E104014D6BBB0E4C6F0A0E1D
:101830004E6F0001AEDF02C008F401C007F4C5C05E
:1018400003F0C6510401075D03E10350085D01E0A8
:101850001FD0FA0E0A6F0001FEEC05F0C05105E042
:10186000010A07E0030A09E011D001013C8B0001E5
:101870000DD001013C85000109D0C1C0C0F3C2C038
:10188000BFF3C3C0C2F3C4C0C1F300D0010104015F
:101890000001C0EF20F0020E0401276F000196EC5A
:1018A00004F001503F0B0401076F286F0001D0ECDA
:1018B00004F001C03FF1010E0401276F000196EC16
:1018C00004F001C007F401C028F4D0EC04F001C01A
:1018D00040F10401276B000196EC04F001507F0BEE
:1018E0000401076F286F0001D0EC04F001C041F142
:1018F000040E0401276F000196EC04F001C007F408
:1019000001C028F4D0EC04F001C042F1050E04013E
:10191000276F000196EC04F001C007F401C028F421
:10192000D0EC04F001C043F1060E0401276F000162
:1019300096EC04F001C007F401C028F4D0EC04F0E8
:1019400001C044F1ACEF0CF0969A8D8AB9EF0CF01F
:1019500001013C9D00019FD70101455303E1979090
:101960008E8003D097908E904507465304E1000186
:10197000EBD708D0010104010A6B0001FEEC05F071
:10198000010146070101475304E13C89090E476FF5
:1019900001D04707040106510101405D21E03C836D
:1019A00040C106F4303C03D0313C01D003D0302A92
:1019B000D8B4312A40511E0802E13C8F04D0405176
:1019C0002D0801E13C9F4051050809E040511408F1
:1019D00006E04051230803E04051320801E13C8B0E
:1019E0000001C6EF20F0D8B204D0050EEA6E2F0E2B
:1019F000E96E006A016A026A036A05012F6B306BA7
:101A0000316B326B2E512D112C112B112CE0200E2D
:101A1000336FD8902737283729372A372F37303771
:101A2000313732372E51325D08E12D51315D05E1FC
:101A30002C51305D02E12B512F5D0FE32B512F5FB5
:101A40002C51D8A02C3D305F2D51D8A02D3D315FB9
:101A50002E51D8A02E3D325FD88000360136023696
:101A60000336332FD6D72FC5EFFF30C5ECFF31C576
:101A7000ECFF32C5ECFF00011200D8900301FE35E7
:101A8000036ADE0FE96E030E0320EA6E0DC4ECFF5D
:101A9000ED520CC4EFFFFE2BFE510F0801E2FE6B6E
:101AA000FF510F0801E3FF2B0401156B146B136B3F
:101AB000126B166B0301FF510401165D14E2D890FE
:101AC0001635036ADE0FE96E030E0320EA6EECCFD3
:101AD00003F0ED52EF50122703501323000E14238E
:101AE0001523162BE7D7D8900301FF31006E016A4A
:101AF000026A036A005004011225186F0150132175
:101B0000196F025014211A6F035015211B6FD892C0
:101B1000E8CF2AF51AC429F519C428F518C427F501
:101B200005012E6B2D6B2C6BFFC32BF500015BDFCA
:101B300003C011F402C010F401C00FF400C00EF491
:101B400004010EC401F00FC402F00001B8EF0EF062
:101B500004010B51000808E2FF0A03E10A5144089E
:101B600003E20A0E016E65D00B51000808E2FF0A7D
:101B700003E10A513F0803E2090E016E5AD00B51EE
:101B8000000808E2FF0A03E10A513D0803E2080EDB
:101B9000016E4FD00B51000808E2FF0A03E10A5121
:101BA0003A0803E2070E016E44D00B51000808E228
:101BB000FF0A03E10A51370803E2060E016E39D02D
:101BC0000B51000808E2FF0A03E10A51330803E25F
:101BD000050E016E2ED00B51000808E2FF0A03E14A
:101BE0000A512F0803E2040E016E23D00B510008A6
:101BF00008E2FF0A03E10A512C0803E2030E016E1A
:101C000018D00B51000808E2FF0A03E10A51270827
:101C100003E2020E016E0DD00B51000808E2FF0A2C
:101C200003E10A51200803E2010E016E02D0000E0A
:101C3000016E0001C9EF0EF004010D5303E10C51D8
:101C40003F0808E20D5306E10C51BF0803E3010E03
:101C5000016E6BD00D5303E10C51BF080AE20D5128
:101C6000010807E303E10C513F0803E3020E016E94
:101C70005CD00D5100080FE2FF0A03E10C513F0850
:101C80000AE20D51010807E303E10C51BF0803E329
:101C9000030E016E4AD00D5100080FE2FF0A03E166
:101CA0000C51BF080AE20D51020807E303E10C5191
:101CB0003F0803E3040E016E38D00D5101080FE216
:101CC000FF0A03E10C513F080AE20D51020807E345
:101CD00003E10C51BF0803E3050E016E26D00D5140
:101CE00001080FE2FF0A03E10C51BF080AE20D519F
:101CF000030807E303E10C513F0803E3060E016EFE
:101D000014D00D5102080FE2FF0A03E10C513F0805
:101D10000AE20D51030807E303E10C51BF0803E396
:101D2000070E016E02D0000E016E0001EEEF0EF004
:101D3000000E016EC250C30B0110C26E010E0501F0
:101D4000226F00017FEC03F00401076B07510F08BD
:101D500016E3C282C2B2FED7C4CF03F0C3CF0AF4E7
:101D6000C4CF0BF4C4CF0DF4C3CF0CF4000185D65F
:101D700002C009F401C008F40401072BE7D709C425
:101D800027F008C426F009C40BF408C40AF40001C3
:101D9000DFD601C029F03250020807E1040E016EBF
:101DA000C250C30B0110C26E06D00C0E016EC250A1
:101DB000C30B0110C26E010E0501226F00017FEC02
:101DC00003F0C282C2B2FED7C4CF0BF4C3CF0AF471
:101DD000C4CF0DF4C3CF0CF400012ED701C028F0FE
:101DE00056EF0FF09EA8FED7AD6E1200230E040131
:101DF000076F2AC008F42BC009F42CC00AF40F0E98
:101E00000B6F070E0C6F21C00DF420C00EF423C021
:101E10000FF422C010F42938196FF00E191728504A
:101E20000F0B1925116F25C012F424C013F4040EF2
:101E30004D6F080E4C6F0C0E4E6F0001AADC02C0F5
:101E400017F401C016F4040117C414F416C415F4F1
:101E5000186B18510E080FE3036A1851070FE96E4B
:101E6000040E0320EA6EEFCF19F419510001BADF16
:101E70000401182BEED7000157EF0FF00301CAB988
:101E80000BD0010E04010A6F0001FEEC05F0B96BE6
:101E9000B86B0301CA890DD00001B95303E1B851F1
:101EA0000D0807E201013C99000142D79FD70301C9
:101EB000CA990001CCEF20F0A00E0501276F255133
:101EC0007F0802E22783259F948800009486000003
:101ED0008B98949800008B96949627C52BF500015B
:101EE00015EC04F025C528F50501296B25C52BF552
:101EF000000115EC04F024C52BF515EC04F09488D2
:101F000000009486000082A6FED78B98949800006B
:101F10008B969496050127510109286F2B6F0001BC
:101F200015EC04F0006A70EC04F001C026F59498FA
:101F30000000948682A6FED7000000D0000094889E
:101F40000000050126C501F000011200230E040166
:101F5000076F2AC008F42BC009F42CC00AF42B0E1A
:101F60000B6F080E0C6F21C00DF420C00EF423C0BF
:101F70000FF422C010F425C011F424C012F444C19F
:101F800013F443C114F442C115F43FC116F440C127
:101F900017F441C118F495948C9400006650D70E44
:101FA000666E6430FEE36650666A6430FEE366CFB8
:101FB00037F495948C84000037C401F001C019F403
:101FC0000501256B020E246F000176DF01C01AF4B3
:101FD0000501256B030E246F00016EDF01C01BF4A9
:101FE00027C01CF4040126C01DF496821E6B84B227
:101FF0001E2B010E386F4C0E38C436F4356F35C4C5
:10200000E9FF36C4EAFFEFCF1FF4010E3525E96E74
:10201000000E3621EA6EEFCF20F4020E3525E96E70
:10202000000E3621EA6EEFCF21F4030E3525E96E5E
:10203000000E3621EA6EEFCF22F4010E386F500EFB
:1020400038C436F4356F35C4E9FF36C4EAFFEFCF44
:1020500023F4010E3525E96E000E3621EA6EEFCF2E
:1020600024F4020E3525E96E000E3621EA6EEFCF1C
:1020700025F4030E3525E96E000E3621EA6EEFCF0A
:1020800026F428C027F4286B296B2A6B2DC02BF46B
:102090002E500F0B376F01014651F00B040137250D
:1020A0002C6F2FC02DF431C02EF430C02FF4040E4D
:1020B0004D6F080E4C6F280E4E6F0001C9EC0BF0EF
:1020C00002C033F401C032F4040133C430F432C42A
:1020D00031F4346B34512A080FE3036A3451070F8B
:1020E000E96E040E0320EA6EEFCF37F4375100019A
:1020F00079DE0401342BEED7000198EF10F00301D4
:10210000CABB0CD00001B96BB86B010E04010A6F99
:102110000001FEEC05F00301CA8B0CD00001B9539D
:1021200003E1B8510D0806E201013C9B00010ED706
:102130000301CA9B0001D2EF20F095948C9400001B
:102140006650D20E666E6430FEE30401073708372E
:1021500007370837FC0E071708C40BF4665008C48D
:1021600066FF6430FEE307C40BF4665007C466FFE5
:102170006430FEE36650666A6430FEE36650666A69
:102180006430FEE36650666A6430FEE36650666A59
:102190006430FEE36650666A6430FEE30A6B096BE6
:1021A0000A51020814E303E109510F0810E3AF0ECE
:1021B0000925E96E010E0A21EA6E6650666A6430EE
:1021C000FEE366CFEFFF092BD8B40A2BE9D795942D
:1021D0008C8400000001CDEF11F00501245126038D
:1021E000F3CF01F0F4CF00F02703F3500026255180
:1021F0002603F3500020026E000112000501256B3A
:10220000246B000159DE036A01C00BF403C00CF417
:102210000501256B0C0E246F03C027F501C026F5C0
:102220000001DBDF02C00AF401C009F40401086BFD
:10223000076B08510A5D23E303E10951075D1FE2C3
:10224000AF0E0725016E010E0821036E01C00BF4CD
:102250000C6F07C40DF4020E08250E6FE8CF25F5AC
:1022600007C424F5000128DE0CC4EAFF0BC4E9FF13
:1022700001C0EFFF0401072BD8B4082BDAD70851AF
:1022800002080FE303E107510F080BE3AF0E072528
:10229000E96E010E0821EA6EEF68072BD8B4082B0F
:1022A000EED70001D1EF11F0230E04010F6F2AC009
:1022B00010F42BC011F42CC012F43A0E136F150E4B
:1022C000146F0CC415F40BC416F44B6B4B512F0850
:1022D0001DE3080E4B25036A0F0F016E040E032247
:1022E0004B510D254E6F000E0E214F6FAF0E4E2538
:1022F000E96E010E4F21EA6EEFCF50F403C0EAFF02
:1023000001C0E9FF50C4EFFF4B2BE0D7040E4D6F27
:10231000100E4C6F370E4E6F0001C9EC0BF002C06F
:102320004AF401C049F404014AC447F449C448F4DA
:102330004B6B4B5139080FE3036A4B510F0FE96E9A
:10234000040E0320EA6EEFCF4CF44C5100014ADD3D
:1023500004014B2BEED7000105EF12F00301C05131
:102360000F0805E2FF0A07E1BF51010804E3C1536A
:1023700005E1C25303E1C26BC16B5BD0968884A8B0
:1023800001D057D0CD530DE1C0510F0808E3C0C3B1
:1023900008F4BFC307F40001D0D603D00301000145
:1023A0002DD7010E04010A6F0001FEEC05F0C0C339
:1023B00025F5BFC324F50501276B0B0E266F000121
:1023C0000CDF02C008F401C007F40301CD51040181
:1023D0000727000E08230A6BCDC309F40AC425F5AC
:1023E000CDC324F50501276B300E266F0001F5DE05
:1023F00002C00AF401C009F408C40CF407C40BF4C9
:1024000002C00EF401C00DF44FD70301CD2BCD5106
:102410000B080FE1CD6BC15302E1C25308E0BF2BA3
:10242000D8B4C02BC151D8B4C207C10702D0C0690B
:10243000BF690001D5EF20F08E0E006E11C401F0CF
:1024400010C402F0036A015209E102C001F0026AFD
:10245000080E005E015202E1006A08D0D89001BE69
:1024600004D0023601360006F9D7019E120004019D
:102470001051D8B4A5D01C6F1451D8B4A1D01C5F92
:1024800005E37F0E1C27D8B09BD006D0810E1C5FC1
:10249000D8A096D0D8B494D01CC400F0016A026AC7
:1024A000036A1B6B11C41AF41A8F12C419F413C4F3
:1024B00018F4190E1C6F1751185F0DE2010E195F09
:1024C0000AE21A5F08E21B5F06E21B2B1A2B192B8C
:1024D0001751182728D01651195F12E2010E1A5F02
:1024E0000FE21B5F0DE21B2B1A2B165119271751F8
:1024F000182719E3192B17E11A2B15E11B2B13D001
:10250000155180091A5F0EE2010E1B5F0BE21B2BB7
:10251000155180091A2716511927E9E31A2BE7E10B
:102520001B2BE5D703801C2F01D00BD0D890183778
:1025300019371A371B37D8900336023601361D3744
:10254000BAD71DA106D0D8900132023203321D3312
:1025500002D0000635E01DBF1ED0D89018371937BD
:102560001A371B371751185F07E2010E195F04E293
:102570001A5F02E21B5F1AE31651195F05E2010EB2
:102580001A5F02E21B5F12E3155180091A5F03E232
:10259000010E1B5F0BE3032A09E1022A07E1012A6E
:1025A00005E1002A0DE001320232033211C41CF4AD
:1025B00015511C1B1CAF02D0018E06D0019E04D009
:1025C000006A016A026A036A00011200800ED8A242
:1025D00002D00401191B04011E6B1F6B15C41DF4EE
:1025E00019511D1B1451D8B4DFD01C6F006E185147
:1025F000D8B4E3D01C5FD8B483D03EE319C422F42E
:10260000228F1AC421F41BC420F41F6BD8902233EC
:10261000213320331F331C2FF8D71DAF03D01E8169
:10262000E0D01E911C911E89040EEA6E170EE96E11
:10263000EBD01E991DBF0AD01CA113D02233213329
:1026400020331F33002AD8B4C7D00BD022BF0CD000
:10265000D8901F372037213722370006D8B4BCD096
:10266000F5D71E8D6DD01E9D15C41DF415AF02D07B
:10267000228FABD0229FA9D018C41CF418C400F03C
:1026800014511C5F15C422F4228F16C421F417C400
:1026900020F41F6BD8902233213320331F331C2F9B
:1026A000F8D71DAF03D01E839CD01E931C911E8BA8
:1026B000040EEA6E1B0EE96EA7D01E9B1DBF0AD04A
:1026C0001CA113D02233213320331F33002AD8B466
:1026D00083D00BD022BF0CD0D8901F3720372137A2
:1026E00022370006D8B478D0F5D71E8F29D01E9F88
:1026F00019C41DF419AF02D0228F67D0229F65D074
:1027000019C422F4228F1AC421F41BC420F41DAF73
:1027100004D0229F1E8565D01E951F6B1C91040E50
:10272000EA6E170EE96E70D01DBF1CD015C41DF4E3
:102730001CA106D02233213320331F33002A4CE062
:102740001FAF0BD0202B09E1212B07E1222B05E144
:10275000223321332033002A3FE01EBD84D71EBF21
:10276000C6D71CD0800E221B22AF04D03AD019C489
:102770001DF40AD015C41DF4225306E1215304E1CF
:10278000205302E1006A21D022BF08D0D8901F3721
:10279000203721372237002EF7D71ED01DAF02D0A9
:1027A000228F13D0229F11D018C400F019C422F434
:1027B0001AC421F41BC420F408D014C400F015C4BA
:1027C00022F416C421F417C420F422C401F021C459
:1027D00002F020C403F034D0006A016A026A036A7E
:1027E0002FD01F6B201F211F221F1F1F1F2B05E132
:1027F000202B03E1212B01E1222B1EB112D71EB3A6
:1028000054D71EB589D7B3D7EF50202705E3212B26
:1028100003E1222BD8B41C81ED52EF50212703E3B2
:10282000222BD8B41C81ED52EF50EFBE01D0800AAC
:102830002227D8B01C811EB9FCD61EBB3ED774D748
:102840000001120005012751D8B471D0006E2B5140
:10285000D8B46DD0002604E3810E002668E204D0CF
:102860007F0E005E64E363E028C52FF52C512F1B1B
:10287000288F2C8F2A512E03F4CF31F529512D03A7
:10288000F4CF03F0F3CF30F52E03F3503127F4509B
:102890003023000E03222A512D03F3503127F45028
:1028A0003023000E026A0322022228512E03F35025
:1028B0003027F4500322000E022228512D03F3503A
:1028C0000326F4500222000E016A01222A512C0331
:1028D000F3503027F4500322000E02220122295126
:1028E0002C03F3500326F4500222000E012228513B
:1028F0002C03F3500226F4500122002A01BE05D019
:1029000030370336023601360006000E30AF0AD0EB
:10291000032A02220122015005E1025003E1035083
:1029200001E1002A2FBF018E2FAF019E04D0006A63
:10293000016A026A036A0001120005012751B60804
:10294000276F036A28C52BF5288FD89028332933A1
:102950002A330332023201320032272FF6D72BAF4F
:102960000BD0001E011E021E031E002AD8B4012A2D
:10297000D8B4022AD8B4032A00011200E950040195
:10298000156F1451176F1CE013C42AF512C429F5F2
:1029900011C428F510C427F505012E6B2D6B200EF0
:1029A0002C6F820E2B6F00014DDF03C013F402C0A9
:1029B00012F401C011F400C010F40401172FE4D781
:1029C00013C42AF512C429F511C428F510C427F53B
:1029D0000001B3DF03C013F402C012F401C011F40C
:1029E00000C010F4040113AF0DD01507158B101F94
:1029F000111F121F131F102BD8B4112BD8B4122B78
:102A0000D8B4132B3B0E1C6F9A0E1B6FCA0E1A6F95
:102A1000196B0A0E176F1451D8B4152BD882040EF7
:102A2000EA6E100EE96E13C42AF512C429F511C41A
:102A300028F510C427F51CC42EF51BC42DF51AC4A7
:102A40002CF519C42BF50001F3EC0CF001500052E9
:102A500013E104011429175DD8A402D000010CD0A1
:102A600015510DE00F0B175D01E044E215BF42D098
:102A700015BD05D0200E37D0200E0401151715AB5B
:102A80000FD0159B1451D8A415070050156F2D0EAB
:102A90001D6F000116EC06F004011551006E156B58
:102AA0001451175D0DE10050156F2E0E1D6F0001C2
:102AB00016EC06F004011551006E200E1517000EDD
:102AC000300E15AB10D0159B1451D8A4150700502B
:102AD000156F2D0E1D6F000116EC06F00401155147
:102AE000006E156B300E002600C01DF4000116ECC0
:102AF00006F00401D8921CC42AF51BC429F51AC497
:102B000028F519C427F505012E6B2D6B2C6B0A0EC9
:102B10002B6F0001F3EC0CF003C01CF402C01BF49B
:102B200001C01AF400C019F40401172F77D700016F
:102B30001200205202E121523EE0203C03D0213C11
:102B400001D039D021C011F420C010F475DC04018B
:102B5000136B100E126F6F0E116F8B0E106F03C080
:102B600017F402C016F401C015F400C014F40001FB
:102B70007EDC00C010F401C011F402C012F403C0E6
:102B800013F4D89203C017F402C016F401C015F470
:102B900000C014F4330E04011B6F1A6F196F7D0E01
:102BA000186F000113DD03C00BF402C00AF401C06A
:102BB00009F400C008F4225202E123523EE0223C14
:102BC00003D0233C01D039D023C011F422C010F42B
:102BD00033DC0401136B100E126F6F0E116F8B0E2E
:102BE000106F03C017F402C016F401C015F400C042
:102BF00014F400013CDC00C010F401C011F402C068
:102C000012F403C013F4D89203C017F402C016F4F0
:102C100001C015F400C014F4330E04011B6F1A6FC9
:102C2000196F7D0E186F0001D1DC03C00FF402C0D4
:102C30000EF401C00DF400C00CF4000EF66E050E8B
:102C4000F76E070E0401106F000136EC06F0410E1E
:102C5000E96E0BC413F40AC412F409C411F408C4D5
:102C600010F4010E0401146F000188DE0D0EF66EE3
:102C7000050EF76E040E0401106F000136EC06F02D
:102C8000400E0401106F00012CEC06F0120EF66EDF
:102C9000050EF76E070E0401106F000136EC06F00A
:102CA000410EE96E0FC413F40EC412F40DC411F4F6
:102CB0000CC410F4010E0401146F00015FDE1F0E3E
:102CC000F66E050EF76E040E0401106F000136EC6F
:102CD00006F0B9EF1BF0860EF66E040EF76E1CECD4
:102CE00006F0400E0401106F00012CEC06F0960E69
:102CF000F66E040EF76E070E0401106F000136EC3D
:102D000006F028C00CF41B0E04010D6F0001D9EC75
:102D100008F0200E04011D6F000116EC06F0280ECD
:102D200004011D6F000116EC06F02850F80F3BE27D
:102D3000080FE1EF16F0300E04011D6F000116ECD4
:102D400006F031D0A20EF66E040EF76E1CEC06F003
:102D50002AD0A60EF66E040EF76E1CEC06F023D0F9
:102D6000AA0EF66E040EF76E1CEC06F01CD0AE0E2A
:102D7000F66E040EF76E1CEC06F015D0B20EF66E71
:102D8000040EF76E1CEC06F00ED0B60EF66E040EB6
:102D9000F76E1CEC06F007D0BA0EF66E040EF76E56
:102DA0001CEC06F000D0DF0E04011D6F000116ECD4
:102DB00006F0290E04011D6F000116EC06F0BFEFAE
:102DC0001BF0E824F76AF736DD0FF66E2D0EF722BA
:102DD0000A00F550FA6E0800F550F96E362D442DB4
:102DE000522D602D6E2D7C2D8A2D982DD00EF66ED5
:102DF000040EF76E080E0401106F000136EC06F0A9
:102E000044C10CF4010E04010D6F0001D9EC08F06F
:102E10002D0E04011D6F000116EC06F043C10CF4E9
:102E2000010E04010D6F0001D9EC08F02D0E040114
:102E30001D6F000116EC06F042C10CF4010E0401F6
:102E40000D6F0001D9EC08F0400E0401106F000175
:102E50002CEC06F0E80EF66E040EF76E040E04017C
:102E6000106F000136EC06F03FC10CF4010E0401B6
:102E70000D6F0001D9EC08F03A0E04011D6F00013E
:102E800016EC06F040C10CF4010E04010D6F0001B8
:102E9000D9EC08F03A0E04011D6F000116EC06F0A3
:102EA00041C10CF4010E04010D6F0001D9EC08F0D2
:102EB000FA0EF66E040EF76E040E0401106F000198
:102EC00036EC06F0C5EF1BF0460EF66E040EF76EFC
:102ED0001CEC06F0400E0401106F00012CEC06F013
:102EE0000501256B020E246F00015CEC0FF001C0A0
:102EF00008F40501256B030E246F00015CEC0FF054
:102F000001C009F408C40BF401C00AF4100EE96E04
:102F100008C40DF401C00CF44AEC06F02F0E0401B5
:102F20001D6F000116EC06F0100EE96E04010D6F26
:102F30000C6B00014AEC06F05D0EF66E040EF76EA7
:102F4000050E0401106F000136EC06F0CBEF1BF00C
:102F50001C0EF66E040EF76E1CEC06F0400E04011B
:102F6000106F00012CEC06F0968284B207D02C0E74
:102F7000F66E040EF76E1CEC06F006D0380EF66EF8
:102F8000040EF76E1CEC06F001013DA702D03D9740
:102F90003C8B0001D1EF1BF0080EE96E21C00DF44F
:102FA00020C00CF44AEC06F0060E0401106F00017C
:102FB0002CEC06F0080EE96E23C00DF422C00CF4D0
:102FC0004AEC06F00C0E0401106F00012CEC06F028
:102FD000090EE96E25C00DF424C00CF44AEC06F08D
:102FE000400E0401106F00012CEC06F0BE0EF66ED0
:102FF000040EF76E1CEC06F0D7EF1BF0200E040158
:103000000EA9300E0F6F0DC400F00DAF08D0001EDA
:10301000002A00C00DF42D0E0F6F0E8F0E8101508F
:103020000DC41CF5640E05011D6F0001C3EC08F012
:1030300000C00DF4300E01240401106F0DC41CF506
:103040000A0E05011D6F0001C3EC08F0300E0024CC
:103050000401126F300E0124116F0FC400F0300E06
:10306000105D04E00E830EBF0E8512D00FC410F465
:10307000200E0F6F300E115D04E00E810EBF0E8327
:1030800007D0D8A40E8104E110C411F4200E106FF3
:103090000EB505D00EB308D00EB10BD00FD00FC4B3
:1030A0001DF4000116EC06F010C41DF4000116EC2E
:1030B00006F011C41DF4000116EC06F012C41DF454
:1030C000000116EC06F0C3EF18F027C011F426C07B
:1030D00010F41CEC12F005012A6B296B200E286FEE
:1030E0007A0E276F03C02EF502C02DF501C02CF516
:1030F00000C02BF5000122EC14F003C00BF402C059
:103100000AF401C009F400C008F4640EF66E040E5F
:10311000F76E070E0401106F000136EC06F0C90EC1
:10312000E96E0BC413F40AC412F409C411F408C400
:1031300010F4010E0401146F000120DC710EF66E14
:10314000040EF76E060E0401106F000136EC06F057
:10315000400E0401106F00012CEC06F029500A0DFE
:10316000F3CF0CF40401780EF66E040EF76E090E20
:10317000106F000136EC06F00CC40DF4180E0401BB
:103180000E6F00013BD7250E04011D6F000116ECE8
:1031900006F0DCEF1BF0E60EF66E030EF76E1CEC8D
:1031A00006F0400E0401106F00012CEC06F046C141
:1031B0000CF41B0E04010D6F0001D9EC08F0F60EA3
:1031C000F66E030EF76E080E0401106F000136EC68
:1031D00006F0E1EF1BF0200E04010EA9300E0F6F78
:1031E0000DC400F00DAF08D0001E002A00C00DF481
:1031F0002D0E0F6F0E8F0E8101500DC41CF5640E45
:1032000005011D6F0001C3EC08F000C00DF4300E85
:1032100001240401106F0DC41CF50A0E05011D6F79
:103220000001C3EC08F0300E00240401126F300ED0
:103230000124116F0FC400F0300E105D04E00E8306
:103240000EBF0E8512D00EB510D00FC410F40EB301
:1032500004D0300E115D04E00E810EBF0E8305D048
:10326000D8A40E81D8B410C411F40EB505D00EB395
:1032700008D00EB10BD00FD00FC41DF4000116EC16
:1032800006F010C41DF4000116EC06F011C41DF484
:10329000000116EC06F012C41DF4000116EC06F055
:1032A0001200400E0401106F00012CEC06F0240EF9
:1032B000F66E050EF76E1CEC06F01200400E0401CF
:1032C000106F00012CEC06F0360EF66E050EF76E50
:1032D0001CEC06F0120097928E920DC427F498EC25
:1032E00003F01A0E006E002EFED7000012000DC46F
:1032F0000EF404010F6B0E51090805E20A0E0E5F71
:10330000100E0F2703D00E510F2701D0F4D70FC492
:1033100001F00001120004010C910051000A0001AB
:1033200005E0010A0DE0030A15E01FD00401096B56
:10333000630E0A6F090E086F44C10BF4000115D02B
:10334000010E0401096F0C0E0A6F086F43C10BF4E4
:1033500000010BD0010E0401096F1F0E0A6F0F0E42
:10336000086F42C10BF4000100D0E60EF66E050EA8
:10337000F76E080E0401106F000136EC06F044C130
:103380000DF4010E04010E6F000125DF2D0E040166
:103390001D6F000116EC06F043C10DF4010E04018F
:1033A0000E6F000118DF2D0E04011D6F000116ECD9
:1033B00006F042C10DF4010E04010E6F00010BDF97
:1033C0000301CAB30CD001013DA705D00301CA8394
:1033D00001013D9703D0000164DF01010301CAA38D
:1033E0002ED000016BDF08C410F42CEC06F00E0E9A
:1033F00004010D6F00016FDF01013DA30CD03D936F
:1034000004010B2B0BBF05D00B510A5D02E209C46E
:103410000BF40C8101013DA50CD03D9504010B0777
:103420000BBF03D009510B5D02E20AC40BF40C81FF
:1034300001013DA704D03D970401002B01010401C7
:103440000CA13DD001013C8104010051000A0001A2
:1034500005E0010A13E0030A21E030D00BC444F177
:1034600044C10DF444DF01C00DF4060E0401276FC2
:1034700001C028F400013EEC04F020D00BC443F15D
:1034800043C10DF434DF01C00DF4050E0401276FB4
:1034900001C028F400013EEC04F010D00BC442F14E
:1034A00042C10DF424DF01C00DF4040E0401276FA6
:1034B00001C028F400013EEC04F000D004010051EA
:1034C000030808E10301CA930401006B0C0E0D6FA1
:1034D000000101DF000E0301CAB3010E016E0001FD
:1034E000E6EF1BF004010C910151000A000105E018
:1034F000010A0DE0030A15E01ED00401096B170E46
:103500000A6F070E086F3FC10BF4000114D00401CD
:10351000096B3B0E0A6F0A0E086F40C10BF40001E5
:103520000AD00401096B3B0E0A6F0D0E086F41C1F2
:103530000BF4000100D0FE0EF66E050EF76E060EBF
:103540000401106F000136EC06F03FC10DF4010ECE
:1035500004010E6F00013FDE3A0E04011D6F0001F1
:1035600016EC06F040C10DF4010E04010E6F0001CF
:1035700032DE3A0E04011D6F000116EC06F041C167
:103580000DF4010E04010E6F000125DE0301CAB522
:103590000DD001013DA706D00301CA8501013D9769
:1035A0003C8103D000017DDE01010301CAA531D0B9
:1035B000000184DE08C410F42CEC06F00E0E0401A9
:1035C0000D6F000188DE01013DA30DD03D93040184
:1035D0000B2B0BBF05D00B510A5D02E209C40BF4A3
:1035E0000C8101013C813DA50DD03D9504010B07E7
:1035F0000BBF03D009510B5D02E20AC40BF40C812E
:1036000001013C813DA705D03D970401012B01013B
:103610003C8104010CA13CD001013C810401015119
:10362000000A000105E0010A13E0030A21E02FD09F
:103630000BC43FF13FC10DF45ADE01C00DF4020E80
:103640000401276F01C028F400013EEC04F01FD0F4
:103650000BC440F140C10DF44ADE01C00DF4010E6F
:103660000401276F01C028F400013EEC04F00FD0E4
:103670000BC441F141C10DF43ADE01507F0B04014E
:103680000D6F276B286F00013EEC04F000D00401A1
:10369000015103080AE10301CA950401016B0C0EF4
:1036A0000D6F000118DE01013C81000E0301CAB557
:1036B000010E016E0001EDEF1BF0AC0EF66E030E75
:1036C000F76E090E0401106F000136EC06F0080ECB
:1036D000E96EC0C30DF4BFC30CF44AEC06F0400E13
:1036E0000401106F00012CEC06F0BC0EF66E030E08
:1036F000F76E090E0401106F000136EC06F0080E9B
:10370000E96EC2C30DF4C1C30CF44AEC06F0F4EF49
:103710001BF00A0E0401076F0301CAB70ED00101A6
:103720003DB302D0030109D03D9304010751025D6E
:1037300002E2022B01D0026B0301CAB70DD00101D6
:103740003DB502D0030108D03D950401025302E0CB
:10375000020702D007C402F4000109EC06F00401DC
:103760000251F50F46E20B0F0001FCEF1BF099EF41
:1037700015F00301CA9704013CD06BEF16F003016A
:10378000CA97040136D0F6EF16F00301CA97040178
:1037900030D064EF17F00301CA9704012AD0A8EFD4
:1037A00017F00301CA97040124D0CCEF17F00301EE
:1037B000CA9704011ED089D40301CA97040119D005
:1037C000EAD40301CA97040114D0A5D50301CA970E
:1037D00001B0CA8704010DD085D60301CA9701B094
:1037E000CA87040106D069D70301CA97040101D032
:1037F00004010001DCEF20F0E824F76AF736130F2C
:10380000F66E380EF7220A00F550FA6E0800F550F1
:10381000F96E6E377A37863792379E37AA37B637C2
:10382000C037CA37D837E637CCC3EAFFCBC3E9FF86
:10383000050127C5EFFFE92AD8B4EA2AEF6A030198
:10384000CB2BD8B4CC2B0001120001501AC51CF5AB
:10385000640E05011D6F0001C3EC08F000C01AF5ED
:103860000150300E08E105011BA30FD01BB70DD08E
:103870001BB9200E04D005011B971B991B81012643
:1038800001C027F50001D0DF05011AC51CF50A0E9D
:103890001D6F0001C3EC08F000C01AF50150300E96
:1038A00008E105011BB70AD01BA108D01BB9200EE7
:1038B0000001012601C027F5B7DF0501300E1A27E8
:1038C0001AC527F50001B0DF1200EACF22F5E9CFD3
:1038D00021F505011B39F0091D6F1D27E20F1E6F31
:1038E000320F206F1B510F0B1E271E272027E90FB9
:1038F0001F6F1F271F271A390F0B1F2720271F375E
:103900002037201F20371A510F0B20271D37070E95
:103910001C6F0A0E1F072027FDE31E071F27FDE36C
:103920001D071E27FDE31C071D27FDE3050EEA6E9C
:103930001C0EE96E070E2115219DE926200EE95C7B
:10394000D8B4218DEF50006E08E121BD06D021B919
:1039500015D021B702D0200E03D021872199300E37
:103960000026EACF1BF5E9CF1AF500C027F50001C4
:103970005BDF1BC5EAFF1AC5E9FF0501EE5021AD6B
:10398000DDD700011200E95005011F6F1E51216FA4
:103990001CE01DC52AF51CC529F51BC528F51AC54F
:1039A00027F52E6B2D6B200E2C6F820E2B6F0001D6
:1039B00022EC14F003C01DF502C01CF501C01BF57C
:1039C00000C01AF50501212FE4D71DC52AF51CC535
:1039D00029F51BC528F51AC527F500019DEC14F043
:1039E00003C01DF502C01CF501C01BF500C01AF58F
:1039F00005011DAF0DD01F071F8B1A1F1B1F1C1F9A
:103A00001D1F1A2BD8B41B2BD8B41C2BD8B41D2BBC
:103A10003B0E266F9A0E256FCA0E246F236B0A0E7B
:103A2000216F1E51D8B41F2BD882050EEA6E1A0ED4
:103A3000E96E1DC52AF51CC529F51BC528F51AC553
:103A400027F526C52EF525C52DF524C52CF523C54E
:103A50002BF50001F3EC0CF00150005213E10501CD
:103A60001E29215DD8A402D000010CD01F510DE009
:103A70000F0B215D01E040E21FBF3ED01FBD05D00E
:103A8000200E34D0200E05011F171FAB0ED01F9B38
:103A90001E51D8A41F0700501F6F2D0E276F000165
:103AA000C3DE05011F51006E1F6B1E51215D0CE12D
:103AB00000501F6F2E0E276F0001B6DE05011F514B
:103AC000006E200E1F17000E300E1FAB0FD01F9B75
:103AD0001E51D8A41F0700501F6F2D0E276F000125
:103AE000A3DE05011F51006E1F6B300E002600C0C3
:103AF00027F5000199DE0501D89226C52AF525C5CE
:103B000029F524C528F523C527F52E6B2D6B2C6BC5
:103B10000A0E2B6F0001F3EC0CF003C026F502C077
:103B200025F501C024F500C023F50501212F7CD720
:103B30000001120095948C9400006650AB0E666EE6
:103B40006430FEE395948C840000010E0501226F21
:103B500000017FEC03F00BEF1EF00501256B246BD9
:103B600000015CEC0FF001C01EF5036A05011EC5E3
:103B700022F503C023F5256B0C0E246F03C027F537
:103B80001EC526F50001EDEC10F001C01CF5050185
:103B9000020E02241D6F216B21510B081BE32151E2
:103BA0001C25226F000E1D21236F036A21511A2547
:103BB000E96E1B510320EA6EEFCF24F523C526F5ED
:103BC00022C525F524C527F50001DEEC0AF0050124
:103BD000212BE2D71E2B266B256B1EC527F5000176
:103BE000DEEC0AF005011E512C08D8A47BD0256B11
:103BF000020E246F00015CEC0FF001C022F50501FC
:103C0000256B030E246F00015CEC0FF022C520F53C
:103C100001C01FF58FD795948C9400006650820EDA
:103C2000666E6430FEE305011F351C6F20351D6F85
:103C30001C371D37FC0E1C171DC522F566501DC50F
:103C400066FF6430FEE31CC522F566501CC566FFA6
:103C50006430FEE36650666A6430FEE31D6B1C6BE5
:103C60001D5102081CE303E11C510F0818E3040076
:103C70001CC522F5020E1D25236F256F1CC524F5DA
:103C800000015CEC0FF001C021F5665021C566FF14
:103C90006430FEE305011C2BD8B41D2BE1D79594AD
:103CA0008C840000266B256B276B0001DEEC0AF08C
:103CB00005011F2BD8B4202B20C522F5266B020E40
:103CC000256F20C527F50001DEEC0AF01FC522F59F
:103CD0000501266B030E256F1FC527F50001DEECDD
:103CE0000AF005010001C1EF1FF01BC51DF51AC543
:103CF0001CF51DC503F005011CC5E9FF1DC5EAFF44
:103D0000EF5206E01C2BD8B41D2B0001F2D70501A1
:103D10001A511C5D006E1B511D59036E00C001F04D
:103D20000001C9EF1FF0A4A8FED76D6ED9EF1FF0F8
:103D3000F29821C014F520C013F523C016F522C057
:103D400015F525C018F524C017F5216A206A2368E7
:103D50002268256A246AF28844C107F443C108F442
:103D600042C109F43FC10AF440C10BF414C50CF47C
:103D7000040113C50DF4040116C50EF4040115C5A4
:103D80000FF4040118C510F4040117C511F404015F
:103D9000293805011A6FF00E1A1728500F0B1A2533
:103DA0000401126F040E0301CC6F130ECB6F320EA1
:103DB0000501276F000138DD300E0501276F000176
:103DC00033DD44C11AF5010E05011B6F00013DDD15
:103DD0002D0E0501276F000127DD43C11AF5010EE5
:103DE00005011B6F000131DD2D0E0501276F00015C
:103DF0001BDD42C11AF5010E05011B6F000125DD17
:103E0000200E0501276F00010FDD3FC11AF5010EDD
:103E100005011B6F000119DD3A0E0501276F000136
:103E200003DD40C11AF5010E05011B6F00010DDD18
:103E30002C0E0501276F0001F7DC100EE96E14C58A
:103E40001BF513C51AF541DD2C0E0501276F000186
:103E5000EBDC100EE96E16C51BF515C51AF535DD40
:103E60002C0E0501276F0001DFDC100EE96E18C56E
:103E70001BF517C51AF529DD2C0E0501276F00016A
:103E8000D3DC100EE96E27C01BF526C01AF51DDD28
:103E90002C0E0501276F0001C7DC28C01AF51B0E88
:103EA00005011B6F0001D1DC2C0E0501276F0001FD
:103EB000BBDCC90EE96E4FC11DF54EC11CF54DC1ED
:103EC0001BF54CC11AF5050E05011E6F00015BDDE7
:103ED0002C0E0501276F0001A7DCC90EE96E53C146
:103EE0001DF552C11CF551C11BF550C11AF5050E47
:103EF00005011E6F000147DD2C0E0501276F000133
:103F000093DC05011A6B1B0E1B6F00019EDC2C0E4F
:103F10000501276F000188DC05011A6B1B0E1B6F62
:103F2000000193DC2C0E0501276F00017DDC0501EB
:103F30001A6B1B0E1B6F000188DC2C0E0501276F0E
:103F4000000172DC100EE96E31C01BF530C01AF5AD
:103F5000BCDC2C0E0501276F000166DC100EE96E3B
:103F600005011B6B1A6B0001B0DC0A0E0501276FFF
:103F700000015ADC040E05011B6F070E1A6F0001C9
:103F8000ECD50501196B040E1B6F130E1A6F00019F
:103F9000ACD601500501195D15E2036A1951130FE2
:103FA000E96E040E0320EA6EEFCF1AF51A510001F4
:103FB000BAD6010E0501226F00017FEC03F0050166
:103FC000192BE1D70001E2EF20F0F86AD09E078EAE
:103FD000EA6AE96A700ED36ED3501F6A7E86220E9B
:103FE000AF6E000E7F6EA60EAC6E900EAB6E7C9622
:103FF0000C0E6F6EA20E6C6E900E6B6E0301C36B97
:10400000C56BC46BC76BC66BC96BC86BCA91CC6BF5
:10401000CB6BCD6BDC6BDD6BFE6BFF6BCA9304016E
:10402000006B0301CA950401016B0301CA970401E7
:10403000036B046B056B0301CA99CA9B640E0401F0
:10404000066FC150C00B0F09C16E070EB46E196A1E
:104050001A6A0301CE6BCF6BD06BD16BD26BD36B73
:10406000D46BD56BD66BD76BD86BD96BDA6BDB6B3C
:10407000DE6BDF6BE06BE16BE26BE36BE46BE56BDC
:10408000E66BE76BE86BE96BEA6BEB6BEC6BED6B8C
:10409000EE6BEF6BF06BF16BF26BF36BF46BF56B3C
:1040A000F66BF76BF86BF96BFA6BFB6BFC6BFD6BEC
:1040B0000401026B000107EF05F01E0E04010A6FF8
:1040C0000001FEEC05F0020E0401076FFA0E050177
:1040D000226F00017FEC03F00401072FF7D70001E6
:1040E00009EC06F091EF08F0D3EF09F001013EBBB7
:1040F00035D03EBD33D03EBD31D03D933D953D974B
:10410000000109EC06F0BA0EF66E060EF76E1CEC16
:1041100006F0400E0401106F00012CEC06F0C80EF2
:10412000F66E060EF76E1CEC06F0040E0401076F27
:10413000FA0E0501226F00017FEC03F00401072F46
:10414000F7D701013D973D933D953DA706D03D979B
:10415000000110EC0BF003D00101F7D700010A0EAB
:104160000101476F640E0501226F00017FEC03F02F
:10417000040033A003D094EF0BF03390FCEF0BF06E
:1041800001013CAD04D00001A8EF0CF001013CA9F5
:1041900004D000013EEF0FF001013CAB03D0000161
:1041A0007FEF10F00001AEEF11F001013CA105D04E
:1041B0003C91000189EF1BF001013CA304D03C932A
:1041C0000001B6D501013CA505D03C95000110ECDD
:0A41D0000BF001010001CCD7030041
:020000040030CA
:0E00000000C81E1B0305B100FFC0FFE0FF405B
:00000001FF
;PIC18F6622
;CRC=2E07  CREATED="25-Sep-15 14:23"
