:04000000E6EF20F017
:080008006BEF00F000000000A6
:100010000000000000000000046ED8CF05F0E0CF23
:1000200006F00001E9CF0CF0EACF07F0E1CF08F0CD
:10003000E2CF09F0D9CF0AF0DACF0BF0F3CF12F00C
:10004000F4CF13F0FACF14F0F5CF15F0F6CF16F089
:10005000F7CF17F000C00EF001C00FF002C010F093
:1000600003C011F0A0A238EF00F0A1B2CBEF00F076
:100070009DAA3EEF00F09EBA92EF01F0A3AA44EFD2
:1000800000F0A4BAB6EF01F00EC000F00FC001F00E
:1000900010C002F011C003F00CC0E9FF07C0EAFF76
:1000A000078E08C0E1FF09C0E2FF0AC0D9FF0BC0FC
:1000B000DAFF12C0F3FF13C0F4FF14C0FAFF15C03B
:1000C000F5FF16C0F6FF17C0F7FF045006C0E0FFAB
:1000D00005C0D8FF1000196ED8CF1AF0E0CF1BF082
:1000E0000001E9CF21F0EACF1CF0E1CF1DF0E2CF13
:1000F0001EF0D9CF1FF0DACF20F0F3CF27F0F4CFE6
:1001000028F0FACF29F0F5CF2AF0F6CF2BF0F7CF71
:100110002CF000C023F001C024F002C025F003C081
:1001200026F09DA297EF00F09EB236EF01F023C0BB
:1001300000F024C001F025C002F026C003F021C069
:10014000E9FF1CC0EAFF1C8E1DC0E1FF1EC0E2FFDC
:100150001FC0D9FF20C0DAFF27C0F3FF28C0F4FF7B
:1001600029C0FAFF2AC0F5FF2BC0F6FF2CC0F7FF0D
:1001700019501BC0E0FF1AC0D8FF1000F76A8C0F9F
:10018000F66E010EF7220900F550120030362D4EA2
:100190006F762D313500B10EB36EE00EB26E81CFA9
:1001A00053F1D8900301D83505014F6F0301D935BC
:1001B0000501506F000E010153AB010E05014F13F5
:1001C0004FC5D8F305015051E0090301D96FD85349
:1001D00009E1D951F00806E10101528751811E0E53
:1001E0005A6F0301D890DA3505014F6F0301DB35F3
:1001F0000501506F000E010153AD010E05014F13B3
:100200004FC5DAF305015051E0090301DB6FDA5302
:1002100009E1DB51F00806E10101528951811E0E0E
:100220005A6F0301D890DC3505014F6F0301DD35AE
:100230000501506F000E010153AF010E05014F1370
:100240004FC5DCF305015051E0090301DD6FDC53BC
:1002500009E1DD51F00806E10101528551811E0ED0
:100260005A6F0301A192000144EF00F0050152A171
:100270000CD001015D3D05D05E3D03D0050105D0E8
:1002800001015D2BD8B45E2B05019380529381B0A0
:10029000528352B326D00301DFB102D0050121D031
:1002A000392AD8B43A2ADFA313D0050152915EC18E
:1002B00036F05DC135F03650385C08E303E1375065
:1002C000355C04E236C038F035C037F00301DF9307
:1002D000DFB307D001015E6B5D6B05015281030145
:1002E000DF830301DF91050152A303D00301DF8106
:1002F00005010301DE2BDE51640804E1DE6B010120
:10030000518D03019E92000197EF00F09EAAFED747
:10031000ABCF34F0AECF01F034A202D0AB98AB88B3
:1003200095EF01F0CC6BCB6BF1D701C04FF5CA5301
:100330000EE1C9517F080BE3490EC925E96E000E95
:10034000CA21EA6E4FC5EFFFC92BD8B4CA2B9E9ABB
:1003500044EF00F0A4AAFED76BCF34F06ECF01F0CB
:1003600034A202D06B986B88B7EF01F0F3D701C0CD
:100370004FF5A49A44EF00F0232044617461666C49
:1003800061736820706167652072656164206672C0
:100390006F6D20256C750D0A00000D0A00000D0A16
:1003A0002320446F6E650D0A00002320696E697476
:1003B00069616C697A696E67206C6F6767696E67DF
:1003C0000D0A0000526573657474696E67204C6F86
:1003D00067210000446F6E6500003E20646F6E650B
:1003E0000D0A00002320706C6179696E67206C6FC4
:1003F000670D0A003E20646F6E650D0A0000232021
:1004000044756D70696E67206C6F670D0A003E2041
:10041000646F6E650D0A000050616765205265715A
:100420003A2530356C750000204E205061676573A9
:100430003A2530356C750000556E6974205570741E
:10044000696D653A0000256C75206D696E7574657F
:100450007300576972656C657373206F6E3A0000A4
:100460002575207365636F6E647300004C61743A88
:1004700020202530322E346C66004C6F6E3A2025D9
:1004800030332E346C660000534420436172642084
:100490005374617475733A00202020204C6F676795
:1004A000696E67002020204E6F7420526561647968
:1004B0002100496E7465726E616C204D656D6F72BE
:1004C0007900256C752F256C752066756C6C0000A5
:1004D000496E7075743A2025302E316C6620766F27
:1004E0006C747300426174746572793A20256425D6
:1004F000250057696E6420446972656374696F6E84
:100500003A00536563746F722025752028003435D6
:1005100000003930000031333500313830003232DC
:100520003500323730003331350054202020202070
:10053000546D696E20436F756E740000446174657C
:100540003A203230253032752D253032752D253048
:10055000327500004E6F7720253032753A253032E3
:10056000753A253032752055544300005370656547
:10057000643A202530322E3166206D2F7300477586
:1005800073743A20202530322E3166206D2F73008F
:100590005072657620205365742020204E65787453
:1005A00000002D20202020205365742020202020B2
:1005B000202B00002D20202020204E657874202044
:1005C0002020202B00004E4F202020205945530092
:1005D0005072657620456E74657220204E65787481
:1005E000000057726F74652044656661756C7420F5
:1005F000534E000053657269616C3A202563256C87
:1006000075202020202000002D2020202020444F75
:100610004E4520202020202B000057726F7465204B
:10062000534E0000202D2048572054595045202D6E
:10063000200052444C202020202020202020524402
:100640004C55000057726F746520485720547970DC
:100650006500446174653A203230253032642D25BE
:100660003032642D25303264000054696D653A20C3
:10067000253032643A253032643A25303264000045
:1006800072644C6F676765722855290072644C6FFD
:1006900067676572556E6976657273616C00756E19
:1006A0006B6E6F776E210000557020696E20257586
:1006B0002049443D2563256C7520000023205550BA
:1006C00020494E202575205345434F4E44530D0A73
:1006D0000000232072644C6F67676572556E6976FF
:1006E000657273616C202573202832302530327595
:1006F0002D253032752D25303275292028736572ED
:1007000069616C202563256C7529202868617264F5
:1007100077617265202575290D0A000030362D4E4F
:100720006F762D3135005072657373206D69646486
:100730006C650000627574746F6E20746F20636C5A
:1007400065617200639A9598958A959C300E636EE8
:10075000C00E646E95968C8695948C8400001BEF79
:1007600006F0948694881CEF06F0050EEA6E3D0EA6
:10077000E96EEF500DE0020E016E006A002EFED70A
:10078000012EFBD7970E006E002EFED7EF2EF3D76B
:10079000120097968E8697968E961200040142BF9D
:1007A00002D08E9E01D08E8E979E42BD02D08E9C2E
:1007B00001D08E8C979C42BB02D08E9A01D08E8A3B
:1007C000979A42B902D08E9801D08E8897980001EE
:1007D000E0DF040142B702D08E9E01D08E8E979E3C
:1007E00042B502D08E9C01D08E8C979C42B302D031
:1007F0008E9A01D08E8A979A42B102D08E9801D0FB
:100800008E8897980001C5DF1A0E006E002EFED765
:10081000000012000F0E05013D6F0001A6DF979248
:100820008E9297948E94979E8E9E979C8E9C979A6C
:100830008E8A97988E88ADDF050E05013D6F000109
:1008400094DFA7DF420E006E002EFED70000A1DF6E
:10085000050E05013D6F000188DF97988E9899DF9E
:100860001A0E006E002EFED70000280E0401426F03
:10087000000194DF0C0E0401426F00018FDF060EB1
:100880000401426F00018ADF010E0401426F000182
:1008900085DF1DEF06F0080E016E00008B96949622
:1008A0000000050146378B98D8B09488D8A094985A
:1008B000948682A6FED7012E01D002D00001EDD78A
:1008C00000008B96949600009488000000009486A7
:1008D00082A6FED7016A000082B801808B969496AA
:1008E0008B98949800011200948800009486000070
:1008F0008B98949800008B969496D00E0501466FC5
:100900000001C9DF01500401449101B0448144A1B8
:1009100002D00001E9D742C446F50001BCDF43C460
:1009200046F5B9DF94980000948682A6FED70000B1
:1009300000D00000948800001200070E0401426FEE
:10094000100E436F0001D0DF1EEF06F0080E050108
:10095000446F00C045F594880000948682A6FED7B7
:1009600082B8D88082A8D8900136000094968B96E1
:10097000442FF1D7948800008B984551D8A49498BF
:100980000000948682A6FED700008B969496000005
:100990008B989498000112009488000094860000BF
:1009A0008B98949800008B969496D00E0501466F14
:1009B000000171DF01500108EFE042C446F56BDF32
:1009C000948800009486000082A6FED78B989498A5
:1009D00000008B969496D10E0501466F00015BDFF7
:1009E00001500108EDE0006AB1DF01C043F49498C2
:1009F0000000948682A6FED7000000D000009488F4
:100A00000000040143C401F0000112000401433955
:100A1000446F0F0E441743510F0B456F44510A0D9D
:100A2000F3504525016E000112000401426B436B37
:100A300000015ADF060E0401426F0A0E436F0001E7
:100A400053DF050E0401426F010E436F00014CDFBE
:100A5000040E0401426F010E436F000145DF020ED8
:100A60000401426F436B00013FDF010E0401426F3E
:100A7000436B000139DF2CEF06F0720ED36ED350BA
:100A8000C150C00B0B09C16EC050C00B0709C06E2E
:100A9000C08EC28001015193519551975181519956
:100AA000519B5281519D519F52955297529981CF9E
:100AB00053F11E0E5A6F366A356A386837683A6ADB
:100AC000396A040EEA6E220EE96E000E0001BEECD9
:100AD00000F00A000900F550EE6E0009FBE1300E4F
:100AE0000401225D0A0DF3CF44F0300E235D44264D
:100AF00025514A080FE12651410803E1010E436EDA
:100B000008D027514E0803E1060E436E02D0070EAF
:100B1000436E37D02551410809E12651500803E1C1
:100B2000040E436E02D0080E436E2BD025514D08A3
:100B300009E12751520803E1030E436E02D0050E6E
:100B4000436E1FD02551460803E1020E436E19D0B3
:100B50002551530803E1090E436E13D025514F0868
:100B600003E10A0E436E0DD025514E0803E10B0E32
:100B7000436E07D02551440803E10C0E436E01D0AB
:100B80004368300E295D0A0DF3CF42F0300E2A5D26
:100B90004226466A456A48900001CA6BC96BCC6917
:100BA000CB69CE69CD6901015091F2CF42F4F29C3C
:100BB000F29EAA6A100EA96EA69CA69EA680A850B8
:100BC000040142BDF28C42BFF28E3F6EF2CF42F47E
:100BD000F29CF29EAA6A110EA96EA69CA69EA68001
:100BE000A85042BDF28C42BFF28E406EF2CF42F46A
:100BF000F29CF29EAA6A120EA96EA69CA69EA680E0
:100C0000A85042BDF28C42BFF28E416EF2CF42F448
:100C1000F29CF29EAA6A130EA96EA69CA69EA680BE
:100C2000A85042BDF28C42BFF28E476E0301D569D7
:100C3000D469000187D595D5EDD57FD6060E040180
:100C4000426F0001A9DE01C042F401C043F4DEDEC0
:100C50000150040801E3E9D6000E0509CA6E310E01
:100C6000CB6E850EB16E9D8AA38AF19EC00EF212E4
:100C70006BEF21F00401255101015B5D02E225C407
:100C80005BF1969A8D9A0001120097928E92010E56
:100C90000401426F000182DD020E05013D6F00017B
:100CA00064DD120097928E8238C442F477DD120020
:100CB0000900F5520CE0F6CF28F4F7CF29F4F5CF70
:100CC00038F4F0DF28C4F6FF29C4F7FFF1D712008B
:100CD00097928E92800E04012B252C6F426F00019B
:100CE0005DDD12000900F6CF2CF4F7CF2DF4F5CF1F
:100CF00038F4D8DF2CC4F6FF2DC4F7FF04012B2FE6
:100D000001D002D00001EED700011200EACF2FF48B
:100D1000E9CF2EF404012839F0092A6F2A27E20FBF
:100D20002B6F320F2D6F28510F0B2B272B272D27C1
:100D3000E90F2C6F2C272C2727390F0B2C272D2759
:100D40002C372D372D1F2D3727510F0B2D272A37E5
:100D5000070E296F0A0E2C072D27FDE32B072C27E2
:100D6000FDE32A072B27FDE329072A27FDE3040ECD
:100D7000EA6E290EE96E070E2E152E9DE9262D0E20
:100D8000E95CD8B42E8DEF50006E08E12EBD06D080
:100D90002EB915D02EB702D0200E03D02E872E9953
:100DA000300E0026EACF28F4E9CF27F400C038F44B
:100DB000000178DF28C4EAFF27C4E9FF0401EE50F0
:100DC0002EADDDD700011200040122536CE0AA6AA7
:100DD000100EA96E520EA86EA69CA69EA684F25076
:100DE000006EF29CF29E0F01550EA76EAA0EA76E22
:100DF000A682A6B2FED7A6940050F212AA6A110EDD
:100E0000A96EA86AA69CA69EA684F2CF00F0F29CCA
:100E1000F29E550EA76EAA0EA76EA682A6B2FED7A8
:100E2000A6940050F212AA6A120EA96EA86AA69C95
:100E3000A69EA684F2CF00F0F29CF29E550EA76EFD
:100E4000AA0EA76EA682A6B2FED7A6940050F212F2
:100E5000AA6A130EA96E020EA86EA69CA69EA68470
:100E6000F2CF00F0F29CF29E550EA76EAA0EA76E6E
:100E7000A682A6B2FED7A6940050F212000105DFAA
:100E8000E20EF66E050EF76E13DF040E0401276FF7
:100E9000FA0E05013D6F000168DC0401272FF8D729
:100EA0000001F3DE0401F2CF27F4F29CF29EAA6A5D
:100EB000100EA96EA69CA69EA680A85027BDF28CF7
:100EC00027BFF28E236FF2CF27F4F29CF29EAA6A1C
:100ED000110EA96EA69CA69EA680A85027BDF28CD6
:100EE00027BFF28E286FF2CF29F4F29CF29EAA6AF5
:100EF000120EA96EA69CA69EA680A85029BDF28CB3
:100F000029BFF28E2A6F28C425F42AC424F42B6B3F
:100F10000001DEDEF40EF66E050EF76E080E04011B
:100F20002B6F0001DFDE23C438F4BCDE100EE96E47
:100F300025C428F424C427F4E9DE010EF66E060E5B
:100F4000F76E050E04012B6F0001CCDE400E04018C
:100F50002B6F0001BDDE080EF66E060EF76EA8DEE2
:100F6000010152A902D052991AD052A506D0529529
:100F70000401242BD8B4252B010152A706D0529787
:100F800004012451D8B425072407140E05013D6F30
:100F90000001B5EC03F004000401B9D70101AA6A0D
:100FA000100EA96E520EA86EA69CA69EA684F250A4
:100FB000006EF29CF29E0F01550EA76EAA0EA76E50
:100FC000A682A6B2FED7A6940050F21225C427F43A
:100FD000AA6A110EA96E25C4A8FFA69CA69EA68487
:100FE000F2CF00F0F29CF29E550EA76EAA0EA76EED
:100FF000A682A6B2FED7A6940050F21224C427F40B
:10100000AA6A120EA96E24C4A8FFA69CA69EA68456
:10101000F2CF00F0F29CF29E550EA76EAA0EA76EBC
:10102000A682A6B2FED7A6940050F212AA6A130EA8
:10103000A96E26C4A8FFA69CA69EA684F2CF00F0A7
:10104000F29CF29E550EA76EAA0EA76EA682A6B2BD
:10105000FED7A6940050F212F2CF27F4F29CF29E33
:10106000AA6A100EA96EA69CA69EA680A85004018E
:1010700027BDF28C27BFF28E3F6EF2CF27F4F29C91
:10108000F29EAA6A110EA96EA69CA69EA680A850E2
:1010900027BDF28C27BFF28E406EF2CF27F4F29C70
:1010A000F29EAA6A120EA96EA69CA69EA680A850C1
:1010B00027BDF28C27BFF28E416EF2CF27F4F29C4F
:1010C000F29EAA6A130EA96EA69CA69EA680A850A0
:1010D00027BDF28C27BFF28E476E0001D6DD1A0EB7
:1010E000F66E060EF76EE4DD040E0401276FFA0EAD
:1010F00005013D6F0001B5EC03F00401272FF7D780
:101100000001C3DD04012B6B0001E2DD240EF66E4D
:10111000060EF76ECDDD400E04012B6F0001D8DD09
:10112000320EF66E060EF76EC3DD010152A901D034
:10113000529952A506D05295020E0401266F10D086
:10114000010152A704D052970401266B09D0140E56
:1011500005013D6F0001B5EC03F00400D3D7040195
:10116000AA6A130EA96E26C4A8FFA69CA69EA684F2
:10117000F250006EF29CF29E0F01550EA76EAA0E61
:10118000A76EA682A6B2FED7A6940050F212F2CFA6
:1011900027F4F29CF29EAA6A130EA96EA69CA69E44
:1011A000A680A850040127BDF28C27BFF28E476E9F
:1011B00000016BDD440EF66E060EF76E79DD040E4F
:1011C0000401276FFA0E05013D6F0001B5EC03F035
:1011D0000401272FF7D7000158DD1200F2CF22F4C7
:1011E000F29CF29EAA6A100EA96EA69CA69EA680EC
:1011F000A850040122BDF28C22BFF28E520811E1E8
:10120000F2CF23F4F29CF29EAA6A130EA96EA69C5A
:10121000A69EA680A85023BDF28C23BFF28E0208A2
:1012200005E2010E226F0001CFDD0CD0010152B5A5
:101230000AD052A908D052B706D052990401226BA5
:101240000001C2DD0101000185EF21F005013851E7
:10125000016A375D03E237C500F00CD0006A080E62
:10126000396F373700363851005CD8B0006E013620
:10127000392FF7D700011200015027C437F5640E4B
:101280000501386F0001E2DF00C027F40150300E85
:1012900008E1040128A30ED028B70CD028B9200EED
:1012A00004D00401289728992881012601C038F428
:1012B0000001F8DC27C437F50A0E0501386F00017C
:1012C000C5DF00C027F40150300E08E1040128B743
:1012D0000AD028A108D028B9200E0001012601C09B
:1012E00038F4E0DC0401300E272727C438F400016D
:1012F000D9DC12000900F6CF28F4F7CF29F4F55015
:101300009EA8FED7AD6E28C4F6FF29C4F7FF0401DE
:10131000272F01D002D00001EDD7000112000150AB
:1013200027C437F5640E0501386F00018FDF00C058
:1013300027F40150300E08E1040128A30ED028B78D
:101340000CD028B9200E04D00401289728992881B0
:10135000012601509EA8FED7AD6E27C437F50A0EB0
:101360000501386F000172DF00C027F40150300E14
:1013700008E1040128B70BD028A109D028B9200E14
:101380000001012601509EA8FED7AD6E0401300E6B
:10139000272727519EA8FED7AD6E00011200090035
:1013A000F5520DE0F6CF27F4F7CF28F4F5509EA8BC
:1013B000FED7AD6E27C4F6FF28C4F7FFF0D71200A2
:1013C000EACF2FF4E9CF2EF404012839F0092A6F6F
:1013D0002A27E20F2B6F320F2D6F28510F0B2B276F
:1013E0002B272D27E90F2C6F2C272C2727390F0BA4
:1013F0002C272D272C372D372D1F2D3727510F0B3D
:101400002D272A37070E296F0A0E2C072D27FDE3FB
:101410002B072C27FDE32A072B27FDE329072A2783
:10142000FDE3040EEA6E290EE96E070E2E152E9DC1
:10143000E9262D0EE95CD8B42E8DEF50006E08E140
:101440002EBD06D02EB90CD02EB702D0200E03D060
:101450002E872E99300E002600509EA8FED7AD6E26
:10146000EE502EADE6D700013FEF0BF00401226BEA
:10147000140E256F00013AEC06F0475206E1800E8B
:10148000F66E060EF76E14DC0ED04750020806E129
:101490008C0EF66E060EF76E0BDC05D09E0EF66E09
:1014A000060EF76E05DCF2CF25F4F29CF29EAA6AD6
:1014B000110EA96EA69CA69EA680A850040125BD6B
:1014C000F28C25BFF28E266FF2CF27F4F29CF29EAB
:1014D000AA6A120EA96EA69CA69EA680A85027BD39
:1014E000F28C27BFF28E286F26C424F428C423F47C
:1014F0000A0E226F22536AE0400E2B6F000168EC47
:1015000006F0F2CF25F4F29CF29EAA6A100EA96EA4
:10151000A69CA69EA680A850040125BDF28C25BFDE
:10152000F28E266FA80EF66E060EF76E060E2B6F65
:10153000000172EC06F022C427F41B0E0401286F90
:1015400000019ADEB00EF66E060EF76E040E040170
:101550002B6F000172EC06F026C438F452EC06F052
:10156000100EE96E24C428F423C427F486EC06F098
:10157000200E0401386F000152EC06F0BC0EF66E2E
:10158000060EF76E080E0401276F0001B3DE22C4B9
:1015900027F41B0E0401286F0001C1DEC60EF66E93
:1015A000060EF76E0A0E0401276F0001A3DE040E7B
:1015B0000401256FFA0E05013D6F0001B5EC03F043
:1015C0000401252FF7D70400220794D7F2CF25F482
:1015D000F29CF29EAA6A100EA96EA69CA69EA680F8
:1015E000A85025BDF28C25BFF28E266FD20EF66E66
:1015F000060EF76E140E276F00017CDE1C0EF66ED1
:10160000070EF76ECCDEE80EF66E060EF76E040ED1
:101610000401276F00016EDE42C027F4010E0401B1
:10162000286F00017CDE2D0E9EA8FED7AD6E43C054
:1016300027F4010E0401286F000171DE2D0E9EA813
:10164000FED7AD6E44C027F4010E0401286F0001DF
:1016500066DEFA0EF66E060EF76E0A0E0401276FAE
:10166000000148DE040126519EA8FED7AD6E100E83
:10167000E96E24C428F423C427F40001A1D6090E7E
:10168000F66E070EF76E0C0E0401276F000132DEB6
:1016900047C027F41B0E0401286F000140DE290E0D
:1016A0009EA8FED7AD6E0D0E9EA8FED7AD6E0A0E9B
:1016B0009EA8FED7AD6E87EF21F0A00E0501436F07
:1016C00041517F0802E24383419F94880000948641
:1016D00000008B98949800008B96949643C546F52D
:1016E00000014BEC04F041C544F50501456B41C5D3
:1016F00046F500014BEC04F040C546F54BEC04F018
:1017000042C546F54BEC04F094980000948682A6FE
:10171000FED7000000D00000948800001200AA0E3E
:10172000F66E030EF76E3BDE45EC06F0C40EF66E69
:10173000030EF76E58EC06F0050E0401226FF00E52
:1017400005013D6F0001B5EC03F00401222FF7D72E
:101750000501416B406B426B0001AFDF0501416B3E
:10176000020E406F426B0001A8DF0501416B030EC2
:10177000406F426B0001A1DF95948C94000066508D
:10178000500E666E6430FEE36650666A6430FEE3B7
:101790006650666A6430FEE36650666A6430FEE353
:1017A00095948C8400000A0E05013D6F0001B5EC94
:1017B00003F095948C9400006650D70E666E6430EA
:1017C000FEE36650666A6430FEE366CF52F4959499
:1017D0008C840000040152C401F001C022F401BE57
:1017E00004D004000001E5D70401400E2B6F000176
:1017F00068EC06F0D40EF66E030EF76E58EC06F0A9
:10180000DA0EF66E030EF76ECADD050E0401226FC6
:10181000F00E05013D6F0001B5EC03F00401222F2D
:10182000F7D70001120081CF22F4040122B907D0BA
:10183000010153B902D0040102D0518F040122A941
:1018400007D0010153A902D0040102D05181040143
:1018500022C453F10001CB3D03D0CC3D01D003D0D5
:10186000CB2BD8B4CC2BCD3D03D0CE3D01D003D073
:10187000CD2BD8B4CE2BC951CA110BE0CC5303E108
:10188000CB51050806E2CB3D03D0CC3D01D001D0C1
:101890004880D89004011C35236F1D35246F000E3D
:1018A000010153AB010E0401231323C41CF4245182
:1018B000E0091D6F1C5309E11D51F00806E101010B
:1018C000528751811E0E5A6F0401D8901E35236F26
:1018D0001F35246F000E010153AD010E04012313C7
:1018E00023C41EF42451E0091F6F1E5309E11F5148
:1018F000F00806E10101528951811E0E5A6F040160
:10190000D8902035236F2135246F000E010153AF8D
:10191000010E0401231323C420F42451E009216F94
:10192000205309E12151F00806E10101528551815E
:101930001E0E5A6F04010001D5EF21F0020E0401C2
:10194000426F0001CCEC04F001503F0B0401226F08
:10195000436F000106EC05F001C054F1010E0401D3
:10196000426F0001CCEC04F001C022F401C043F44A
:1019700006EC05F001C055F10401426B0001CCEC0E
:1019800004F001507F0B0401226F436F000106EC4D
:1019900005F001C056F1040E0401426F0001CCECC9
:1019A00004F001C022F401C043F406EC05F001C0CC
:1019B00057F1050E0401426F0001CCEC04F001C0A8
:1019C00022F401C043F406EC05F001C058F1060E04
:1019D0000401426F0001CCEC04F001C022F401C00C
:1019E00043F406EC05F001C059F1FCEF0CF0969AB7
:1019F0008D8A09EF0DF0A2D701015A5303E19790A8
:101A00008E8003D097908E905A075B5304E10001BB
:101A1000EED708D001010401256B00013AEC06F075
:101A200001015B0701015C5304E15189090E5C6F00
:101A300001D05C0704011B510101555D21E0518378
:101A400055C11BF4453C03D0463C01D003D0452A88
:101A5000D8B4462A55511E0802E1528104D055518E
:101A60002D0801E152915551050809E0555114081E
:101A700006E05551230803E05551320801E1518B2E
:101A80000001DCEF21F09D9A010150B12DD0EA6AEE
:101A9000CF0EE96EE26A490EE16ECAC002F0C9C01B
:101AA00001F0015202E0022A02D0025206E0E6CF23
:101AB000EEFF012EFCD7022EFAD7010E0001C92538
:101AC0000401226F000E0001CA210401236FCF0E12
:101AD0002225E96E000E2321EA6EEF6A0101508192
:101AE0000001CA6BC96B01019D8A0001E2EF21F080
:101AF00004016C696B6969516907000A26E068C4D2
:101B000003F06751672BD8B4682BE96E03C0EAFF76
:101B1000EF506B1B6A6B6A51070816E36B51010BA0
:101B2000006E036A005003100AE0D8906C316E6FAB
:101B30006B31010A6B6F6E51A00A6C6F03D0D890A5
:101B40006C336B336A2BE7D7D6D76BC401F06CC408
:101B500002F000011200010150A148D05091000193
:101B6000CF51230842E1D0513F5C3FE1D151405C6D
:101B70003CE1D251415C39E1D3510D0836E1D451F9
:101B8000160833E10401686BD00E676F0A0E696FA7
:101B90000001AEDF02C023F401C022F4DAC003F07A
:101BA000DB510401225D03E10350235D01E01FD0FE
:101BB000FA0E256F00013AEC06F0D55105E0010A56
:101BC00007E0030A09E011D00101518B00010DD09B
:101BD00001015185000109D0D6C0D5F3D7C0D4F397
:101BE000D8C0D7F3D9C0D6F300D001010401000159
:101BF000E6EF21F0D8B204D0050EEA6E4A0EE96E87
:101C0000006A016A026A036A05014A6B4B6B4C6BFE
:101C10004D6B49514811471146112CE0200E4E6F73
:101C2000D89042374337443745374A374B374C37DC
:101C30004D3749514D5D08E148514C5D05E1475133
:101C40004B5D02E146514A5D0FE346514A5F475101
:101C5000D8A0473D4B5F4851D8A0483D4C5F495103
:101C6000D8A0493D4D5FD880003601360236033694
:101C70004E2FD6D74AC5EFFF4BC5ECFF4CC5ECFF46
:101C80004DC5ECFF00011200D89004011335036A22
:101C9000F30FE96E030E0320EA6E28C4ECFFED5249
:101CA00027C4EFFF132B13510F0801E2136B1451DC
:101CB0000F0801E3142B306B2F6B2E6B2D6B316BE8
:101CC0001451315D14E2D8903135036AF30FE96E97
:101CD000030E0320EA6EECCF03F0ED52EF502D27F8
:101CE00003502E23000E2F233023312BE9D7D89019
:101CF0001431006E016A026A036A00502D25336FA9
:101D000001502E21346F02502F21356F03503021A6
:101D1000366FD892E8CF45F535C444F534C443F561
:101D200033C442F50501496B486B476B14C446F553
:101D3000000160DF03C02CF402C02BF401C02AF4C0
:101D400000C029F4040129C401F02AC402F00001F2
:101D5000BAEF0FF004012651000808E2FF0A03E180
:101D60002551440803E20A0E016E65D02651000891
:101D700008E2FF0A03E125513F0803E2090E016E64
:101D80005AD02651000808E2FF0A03E125513D0818
:101D900003E2080E016E4FD02651000808E2FF0A48
:101DA00003E125513A0803E2070E016E44D02651A3
:101DB000000808E2FF0A03E12551370803E2060E96
:101DC000016E39D02651000808E2FF0A03E12551CF
:101DD000330803E2050E016E2ED02651000808E2FA
:101DE000FF0A03E125512F0803E2040E016E23D000
:101DF0002651000808E2FF0A03E125512C0803E2FE
:101E0000030E016E18D02651000808E2FF0A03E114
:101E10002551270803E2020E016E0DD0265100085D
:101E200008E2FF0A03E12551200803E2010E016EDA
:101E300002D0000E016E0001CBEF0FF00401285319
:101E400003E127513F0808E2285306E12751BF0864
:101E500003E3010E016E6BD0285303E12751BF0845
:101E60000AE22851010807E303E127513F0803E391
:101E7000020E016E5CD0285100080FE2FF0A03E158
:101E800027513F080AE22851010807E303E12751DF
:101E9000BF0803E3030E016E4AD0285100080FE289
:101EA000FF0A03E12751BF080AE22851020807E3AD
:101EB00003E127513F0803E3040E016E38D0285197
:101EC00001080FE2FF0A03E127513F080AE2285107
:101ED000020807E303E12751BF0803E3050E016E83
:101EE00026D0285101080FE2FF0A03E12751BF085D
:101EF0000AE22851030807E303E127513F0803E3FF
:101F0000060E016E14D0285102080FE2FF0A03E109
:101F100027513F080AE22851030807E303E127514C
:101F2000BF0803E3070E016E02D0000E016E000130
:101F3000F0EF0FF0000E016EC250C30B0110C26E25
:101F4000010E05013D6F0001B5EC03F00401226BA9
:101F500022510F0816E3C282C2B2FED7C4CF03F0EB
:101F6000C3CF25F4C4CF26F4C4CF28F4C3CF27F4BD
:101F700000018AD602C024F401C023F40401222BFC
:101F8000E7D724C43CF023C43BF024C426F423C484
:101F900025F40001DFD601C03EF04750020807E1FA
:101FA000040E016EC250C30B0110C26E06D00C0E9F
:101FB000016EC250C30B0110C26E010E05013D6FD0
:101FC0000001B5EC03F0C282C2B2FED7C4CF26F442
:101FD000C3CF25F4C4CF28F4C3CF27F400012ED7F4
:101FE00001C03DF058EF10F09EA8FED7AD6E120074
:101FF000230E0401226F3FC023F440C024F441C0EB
:1020000025F40F0E266F070E276F36C028F435C053
:1020100029F438C02AF437C02BF43E38346FF00E60
:1020200034173D500F0B34252C6F3AC02DF439C0B6
:102030002EF4040E686F230E676F0C0E696F00019B
:1020400057DD02C032F401C031F4040132C42FF470
:1020500031C430F4336B33510E080FE3036A33514C
:10206000220FE96E040E0320EA6EEFCF34F43451F0
:102070000001BADF0401332BEED7000159EF10F055
:102080000301DFBB0BD0010E0401256F00013AEC08
:1020900006F0CE6BCD6B0301DF8B0DD00001CE536C
:1020A00003E1CD510D0807E201015199000142D72A
:1020B0009FD70301DF9B0001ECEF21F0A00E05018B
:1020C000426F40517F0802E24283409F94880000A3
:1020D000948600008B98949800008B96949642C545
:1020E00046F500014BEC04F040C543F50501446B97
:1020F00040C546F500014BEC04F03FC546F54BECFE
:1021000004F0948800009486000082A6FED78B9885
:10211000949800008B969496050142510109436FF3
:10212000466F00014BEC04F0006AA6EC04F001C01D
:1021300041F594980000948682A6FED7000000D056
:10214000000094880000050141C501F00001120063
:10215000230E0401226F3FC023F440C024F441C089
:1021600025F42B0E266F080E276F36C028F435C0D5
:1021700029F438C02AF437C02BF43AC02CF439C003
:102180002DF459C12EF458C12FF457C130F454C165
:1021900031F455C132F456C133F495948C94000057
:1021A0006650D70E666E6430FEE36650666A643031
:1021B000FEE366CF52F495948C84000052C401F083
:1021C00001C034F40501406B020E3F6F000176DF61
:1021D00001C035F40501406B030E3F6F00016EDF57
:1021E00001C036F43CC037F404013BC038F4968299
:1021F000396B84B2392B010E536F610E53C451F405
:10220000506F50C4E9FF51C4EAFFEFCF3AF4010E1A
:102210005025E96E000E5121EA6EEFCF3BF4020E1D
:102220005025E96E000E5121EA6EEFCF3CF4030E0B
:102230005025E96E000E5121EA6EEFCF3DF4010EFC
:10224000536F650E53C451F4506F50C4E9FF51C42D
:10225000EAFFEFCF3EF4010E5025E96E000E51214A
:10226000EA6EEFCF3FF4020E5025E96E000E5121C9
:10227000EA6EEFCF40F4030E5025E96E000E5121B7
:10228000EA6EEFCF41F43DC042F4436B446B456BC3
:1022900042C046F443500F0B526F01015B51F00BEB
:1022A00004015225476F44C048F446C049F445C074
:1022B0004AF4040E686F230E676F280E696F0001E1
:1022C00017DC02C04EF401C04DF404014EC44BF4BF
:1022D0004DC44CF44F6B4F512A080FE3036A4F5122
:1022E000220FE96E040E0320EA6EEFCF52F4525132
:1022F00000017ADE04014F2BEED7000199EF11F0B7
:102300000301DFBD0CD00001CE6BCD6B010E0401CB
:10231000256F00013AEC06F00301DF8D0CD00001BF
:10232000CE5303E1CD510D0806E20101519B00019E
:102330000FD70301DF9D0001F2EF21F095948C94FB
:1023400000006650D20E666E6430FEE30401223750
:10235000233722372337FC0E221723C426F4665076
:1023600023C466FF6430FEE322C426F4665022C410
:1023700066FF6430FEE36650666A6430FEE36650D2
:10238000666A6430FEE36650666A6430FEE3665057
:10239000666A6430FEE36650666A6430FEE3256B6D
:1023A000246B2551020814E303E124510F0810E3C4
:1023B000C40E2425E96E010E2521EA6E6650666A78
:1023C0006430FEE366CFEFFF242BD8B4252BE9D78A
:1023D00095948C8400000001CEEF12F005013F516E
:1023E0004103F3CF01F0F4CF00F04203F350002695
:1023F00040514103F3500020026E0001120005011C
:10240000406B3F6B00015ADE036A01C026F403C033
:1024100027F40501406B0C0E3F6F03C042F501C06D
:1024200041F50001DBDF02C025F401C024F4040102
:10243000236B226B2351255D23E303E12451225DAD
:102440001FE2C40E2225016E010E2321036E01C07E
:1024500026F4276F22C428F4020E2325296FE8CF23
:1024600040F522C43FF5000129DE27C4EAFF26C457
:10247000E9FF01C0EFFF0401222BD8B4232BDAD7E8
:10248000235102080FE303E122510F080BE3C40EAE
:102490002225E96E010E2321EA6EEF68222BD8B4C3
:1024A000232BEED70001D2EF12F0230E04012A6F86
:1024B0003FC02BF440C02CF441C02DF43A0E2E6FD7
:1024C000150E2F6F27C430F426C431F4666B6651A5
:1024D0002F081DE3080E6625036A2A0F016E040EFD
:1024E000032266512825696F000E29216A6FC40EE8
:1024F0006925E96E010E6A21EA6EEFCF6BF403C025
:10250000EAFF01C0E9FF6BC4EFFF662BE0D7040EC2
:10251000686F2B0E676F370E696F000178EC0DF056
:1025200002C065F401C064F4040165C462F464C4CB
:1025300063F4666B665139080FE3036A66512A0F2C
:10254000E96E040E0320EA6EEFCF67F467510001D5
:102550004BDD0401662BEED7000106EF13F00301FB
:10256000D5510F0805E2FF0A07E1D451010804E341
:10257000D65305E1D75303E1D76BD66B5BD0968872
:1025800084A801D057D0E2530DE1D5510F0808E3DC
:10259000D5C323F4D4C322F40001D0D603D0030161
:1025A00000012DD7010E0401256F00013AEC06F061
:1025B000D5C340F5D4C33FF50501426B0B0E416F07
:1025C00000010CDF02C023F401C022F40301E25138
:1025D00004012227000E2323256BE2C324F425C423
:1025E00040F5E2C33FF50501426B300E416F00013B
:1025F000F5DE02C025F401C024F423C427F422C46C
:1026000026F402C029F401C028F44FD70301E22BBD
:10261000E2510B080FE1E26BD65302E1D75308E019
:10262000D42BD8B4D52BD651D8B4D707D60702D0DF
:10263000D569D4690001F5EF21F08E0E006E2CC42F
:1026400001F02BC402F0036A015209E102C001F05B
:10265000026A080E005E015202E1006A08D0D890BA
:1026600001BE04D0023601360006F9D7019E1200E1
:1026700004012B51D8B4A5D0376F2F51D8B4A1D0B5
:10268000375F05E37F0E3727D8B09BD006D0810E89
:10269000375FD8A096D0D8B494D037C400F0016A80
:1026A000026A036A366B2CC435F4358F2DC434F4BA
:1026B0002EC433F4190E376F3251335F0DE2010E21
:1026C000345F0AE2355F08E2365F06E2362B352BCF
:1026D000342B3251332728D03151345F12E2010EAE
:1026E000355F0FE2365F0DE2362B352B3151342743
:1026F0003251332719E3342B17E1352B15E1362BF3
:1027000013D030518009355F0EE2010E365F0BE2C7
:10271000362B30518009352731513427E9E3352BE9
:10272000E7E1362BE5D70380372F01D00BD0D890C7
:102730003337343735373637D890033602360136DB
:102740003837BAD738A106D0D890013202320332D6
:10275000383302D0000635E038BF1ED0D89033376A
:102760003437353736373251335F07E2010E345F85
:1027700004E2355F02E2365F1AE33151345F05E26D
:10278000010E355F02E2365F12E330518009355F9A
:1027900003E2010E365F0BE3032A09E1022A07E197
:1027A000012A05E1002A0DE00132023203322CC475
:1027B00037F43051371B37AF02D0018E06D0019E5F
:1027C00004D0006A016A026A036A00011200800EE6
:1027D000D8A202D00401341B0401396B3A6B30C417
:1027E00038F43451381B2F51D8B4DFD0376F006E16
:1027F0003351D8B4E3D0375FD8B483D03EE334C488
:102800003DF43D8F35C43CF436C43BF43A6BD8906C
:102810003D333C333B333A33372FF8D738AF03D00F
:102820003981E0D0399137913989040EEA6E320E40
:10283000E96EEBD0399938BF0AD037A113D03D33B8
:102840003C333B333A33002AD8B4C7D00BD03DBF1A
:102850000CD0D8903A373B373C373D370006D8B4D8
:10286000BCD0F5D7398D6DD0399D30C438F430AF38
:1028700002D03D8FABD03D9FA9D033C437F433C4D1
:1028800000F02F51375F30C43DF43D8F31C43CF42C
:1028900032C43BF43A6BD8903D333C333B333A334C
:1028A000372FF8D738AF03D039839CD0399337917D
:1028B000398B040EEA6E360EE96EA7D0399B38BF0D
:1028C0000AD037A113D03D333C333B333A33002A8F
:1028D000D8B483D00BD03DBF0CD0D8903A373B371B
:1028E0003C373D370006D8B478D0F5D7398F29D09A
:1028F000399F34C438F434AF02D03D8F67D03D9F48
:1029000065D034C43DF43D8F35C43CF436C43BF44B
:1029100038AF04D03D9F398565D039953A6B3791F2
:10292000040EEA6E320EE96E70D038BF1CD030C48F
:1029300038F437A106D03D333C333B333A33002AD9
:102940004CE03AAF0BD03B2B09E13C2B07E13D2B90
:1029500005E13D333C333B33002A3FE039BD84D7AA
:1029600039BFC6D71CD0800E3D1B3DAF04D03AD036
:1029700034C438F40AD030C438F43D5306E13C5333
:1029800004E13B5302E1006A21D03DBF08D0D8905A
:102990003A373B373C373D37002EF7D71ED038AF9C
:1029A00002D03D8F13D03D9F11D033C400F034C40A
:1029B0003DF435C43CF436C43BF408D02FC400F0D9
:1029C00030C43DF431C43CF432C43BF43DC401F0A6
:1029D0003CC402F03BC403F034D0006A016A026ACE
:1029E000036A2FD03A6B3B1F3C1F3D1F3A1F3A2B07
:1029F00005E13B2B03E13C2B01E13D2B39B112D723
:102A000039B354D739B589D7B3D7EF503B2705E34E
:102A10003C2B03E13D2BD8B43781ED52EF503C27DE
:102A200003E33D2BD8B43781ED52EF50EFBE01D018
:102A3000800A3D27D8B0378139B9FCD639BB3ED79B
:102A400074D70001120005014251D8B471D0006E54
:102A50004651D8B46DD0002604E3810E002668E20A
:102A600004D07F0E005E64E363E043C54AF547513E
:102A70004A1B438F478F45514903F4CF4CF54451CE
:102A80004803F4CF03F0F3CF4BF54903F3504C2741
:102A9000F4504B23000E032245514803F3504C27BA
:102AA000F4504B23000E026A0322022243514903D1
:102AB000F3504B27F4500322000E022243514803E7
:102AC000F3500326F4500222000E016A0122455100
:102AD0004703F3504B27F4500322000E0222012239
:102AE00044514703F3500326F4500222000E012202
:102AF00043514703F3500226F4500122002A01BE3D
:102B000005D04B370336023601360006000E4BAFB8
:102B10000AD0032A02220122015005E1025003E1FA
:102B2000035001E1002A4ABF018E4AAF019E04D042
:102B3000006A016A026A036A00011200050142513B
:102B4000B608426F036A43C546F5438FD8904333B6
:102B5000443345330332023201320032422FF6D77A
:102B600046AF0BD0001E011E021E031E002AD8B461
:102B7000012AD8B4022AD8B4032A00011200E9506D
:102B80000401306F2F51326F1CE02EC445F52DC467
:102B900044F52CC443F52BC442F50501496B486B41
:102BA000200E476F820E466F00014DDF03C02EF4EA
:102BB00002C02DF401C02CF400C02BF40401322F0C
:102BC000E4D72EC445F52DC444F52CC443F52BC4DD
:102BD00042F50001B3DF03C02EF402C02DF401C0A2
:102BE0002CF400C02BF404012EAF0DD03007308B35
:102BF0002B1F2C1F2D1F2E1F2B2BD8B42C2BD8B4E2
:102C00002D2BD8B42E2B3B0E376F9A0E366FCA0E73
:102C1000356F346B0A0E326F2F51D8B4302BD882F7
:102C2000040EEA6E2B0EE96E2EC445F52DC444F554
:102C30002CC443F52BC442F537C449F536C448F5D6
:102C400035C447F534C446F50001FAEC0DF00150E7
:102C5000005213E104012F29325DD8A402D00001F3
:102C60000CD030510DE00F0B325D01E044E230BF7B
:102C700042D030BD05D0200E37D0200E04013017D1
:102C800030AB0FD0309B2F51D8A430070050306F9D
:102C90002D0E386F000152EC06F004013051006E29
:102CA000306B2F51325D0DE10050306F2E0E386FBA
:102CB000000152EC06F004013051006E200E301776
:102CC000000E300E30AB10D0309B2F51D8A43007FF
:102CD0000050306F2D0E386F000152EC06F00401E9
:102CE0003051006E306B300E002600C038F4000109
:102CF00052EC06F00401D89237C445F536C444F5C9
:102D000035C443F534C442F50501496B486B476B44
:102D10000A0E466F0001FAEC0DF003C037F402C052
:102D200036F401C035F400C034F40401322F77D7F3
:102D300000011200355202E136523EE0353C03D02C
:102D4000363C01D039D036C02CF435C02BF475DCBC
:102D500004012E6B100E2D6F6F0E2C6F8B0E2B6FD0
:102D600003C032F402C031F401C030F400C02FF4CB
:102D700000017EDC00C02BF401C02CF402C02DF455
:102D800003C02EF4D89203C032F402C031F401C063
:102D900030F400C02FF4330E0401366F356F346FFA
:102DA0007D0E336F000113DD03C026F402C025F44D
:102DB00001C024F400C023F4375202E138523EE04F
:102DC000373C03D0383C01D039D038C02CF437C060
:102DD0002BF433DC04012E6B100E2D6F6F0E2C6F55
:102DE0008B0E2B6F03C032F402C031F401C030F4FB
:102DF00000C02FF400013CDC00C02BF401C02CF417
:102E000002C02DF403C02EF4D89203C032F402C0E5
:102E100031F401C030F400C02FF4330E0401366FDA
:102E2000356F346F7D0E336F0001D1DC03C02AF49F
:102E300002C029F401C028F400C027F46C0EF66E1D
:102E4000050EF76E070E04012B6F000172EC06F001
:102E5000410EE96E26C42EF425C42DF424C42CF4AE
:102E600023C42BF4010E04012F6F000188DE790EBC
:102E7000F66E050EF76E040E04012B6F000172EC66
:102E800006F0400E04012B6F000168EC06F07E0E88
:102E9000F66E050EF76E070E04012B6F000172EC43
:102EA00006F0410EE96E2AC42EF429C42DF428C47C
:102EB0002CF427C42BF4010E04012F6F00015FDEF8
:102EC0008B0EF66E050EF76E040E04012B6F0001DB
:102ED00072EC06F0BAEF1CF0F20EF66E040EF76E0E
:102EE00058EC06F0400E04012B6F000168EC06F070
:102EF000020EF66E050EF76E070E04012B6F000131
:102F000072EC06F03DC027F41B0E0401286F00018F
:102F10003CEC09F0200E0401386F000152EC06F081
:102F2000280E0401386F000152EC06F03D50F80FF6
:102F30003BE2080FE2EF17F0300E0401386F00019A
:102F400052EC06F031D00E0EF66E050EF76E58EC10
:102F500006F02AD0120EF66E050EF76E58EC06F04B
:102F600023D0160EF66E050EF76E58EC06F01CD048
:102F70001A0EF66E050EF76E58EC06F015D01E0E02
:102F8000F66E050EF76E58EC06F00ED0220EF66EB9
:102F9000050EF76E58EC06F007D0260EF66E050EFD
:102FA000F76E58EC06F000D0DF0E0401386F000118
:102FB00052EC06F0290E0401386F000152EC06F0C5
:102FC000C0EF1CF0E824F76AF736DF0FF66E2F0E1D
:102FD000F7220A00F550FA6E0800F550F96E382F06
:102FE000462F542F622F702F7E2F8C2F9A2F3C0E3E
:102FF000F66E050EF76E080E04012B6F000172ECE1
:1030000006F059C127F4010E0401286F00013CECC1
:1030100009F02D0E0401386F000152EC06F058C182
:1030200027F4010E0401286F00013CEC09F02D0E7D
:103030000401386F000152EC06F057C127F4010E6D
:103040000401286F00013CEC09F0400E04012B6FD5
:10305000000168EC06F0540EF66E050EF76E040ED5
:1030600004012B6F000172EC06F054C127F4010E2D
:103070000401286F00013CEC09F03A0E0401386F9E
:10308000000152EC06F055C127F4010E0401286F2F
:1030900000013CEC09F03A0E0401386F000152ECDB
:1030A00006F056C127F4010E0401286F00013CEC24
:1030B00009F0660EF66E050EF76E040E04012B6F16
:1030C000000172EC06F0C6EF1CF0B20EF66E040EB4
:1030D000F76E58EC06F0400E04012B6F000168EC0F
:1030E00006F00501406B020E3F6F00015EEC10F030
:1030F00001C023F40501406B030E3F6F00015EEC3D
:1031000010F001C024F423C426F401C025F4100EED
:10311000E96E23C428F401C027F486EC06F02F0ED4
:103120000401386F000152EC06F0100EE96E040144
:10313000286F276B000186EC06F0C90EF66E040EB0
:10314000F76E050E04012B6F000172EC06F0CCEF58
:103150001CF0880EF66E040EF76E58EC06F0400E6A
:1031600004012B6F000168EC06F0968284B207D050
:10317000980EF66E040EF76E58EC06F006D0A40E0C
:10318000F66E040EF76E58EC06F0010152A902D05B
:103190005299518B0001D2EF1CF0080EE96E36C037
:1031A00028F435C027F486EC06F0060E04012B6FD8
:1031B000000168EC06F0080EE96E38C028F437C04C
:1031C00027F486EC06F00C0E04012B6F000168EC6E
:1031D00006F0090EE96E3AC028F439C027F486ECEF
:1031E00006F0400E04012B6F000168EC06F02A0E79
:1031F000F66E050EF76E58EC06F0D8EF1CF0200EB8
:10320000040129A9300E2A6F28C400F028AF08D085
:10321000001E002A00C028F42D0E2A6F298F298154
:10322000015028C437F5640E0501386F000126EC03
:1032300009F000C028F4300E012404012B6F28C4CB
:1032400037F50A0E0501386F000126EC09F0300E43
:10325000002404012D6F300E01242C6F2AC400F0CD
:10326000300E2B5D04E0298329BF298512D02AC4A2
:103270002BF4200E2A6F300E2C5D04E0298129BF2B
:10328000298307D0D8A4298104E12BC42CF4200E73
:103290002B6F29B505D029B308D029B10BD00FD099
:1032A0002AC438F4000152EC06F02BC438F40001B3
:1032B00052EC06F02CC438F4000152EC06F02DC498
:1032C00038F4000152EC06F0C4EF19F03CC02CF4C5
:1032D0003BC02BF41DEC13F00501456B446B200E35
:1032E000436F7A0E426F03C049F502C048F501C032
:1032F00047F500C046F5000123EC15F003C026F4A5
:1033000002C025F401C024F400C023F4D00EF66EF0
:10331000040EF76E070E04012B6F000172EC06F02D
:10332000C90EE96E26C42EF425C42DF424C42CF451
:1033300023C42BF4010E04012F6F000120DCDD0EED
:10334000F66E040EF76E060E04012B6F000172EC90
:1033500006F0400E04012B6F000168EC06F03E50B1
:103360000A0DF3CF27F40401E40EF66E040EF76E97
:10337000090E2B6F000172EC06F027C428F4180E1A
:103380000401296F00013BD7250E0401386F0001AD
:1033900052EC06F0DDEF1CF0520EF66E040EF76EE6
:1033A00058EC06F0400E04012B6F000168EC06F0AB
:1033B0005BC127F41B0E0401286F00013CEC09F0EF
:1033C000620EF66E040EF76E080E04012B6F0001FC
:1033D00072EC06F0E2EF1CF0200E040129A9300E79
:1033E0002A6F28C400F028AF08D0001E002A00C0B1
:1033F00028F42D0E2A6F298F2981015028C437F512
:10340000640E0501386F000126EC09F000C028F4B5
:10341000300E012404012B6F28C437F50A0E050174
:10342000386F000126EC09F0300E002404012D6FE6
:10343000300E01242C6F2AC400F0300E2B5D04E006
:10344000298329BF298512D029B510D02AC42BF48D
:1034500029B304D0300E2C5D04E0298129BF2983D3
:1034600005D0D8A42981D8B42BC42CF429B505D013
:1034700029B308D029B10BD00FD02AC438F40001E9
:1034800052EC06F02BC438F4000152EC06F02CC4C8
:1034900038F4000152EC06F02DC438F4000152EC6F
:1034A00006F01200400E04012B6F000168EC06F0DC
:1034B000900EF66E050EF76E58EC06F01200400EF8
:1034C00004012B6F000168EC06F0A20EF66E050EEB
:1034D000F76E58EC06F0120097928E9228C442F4D0
:1034E000CEEC03F01A0E006E002EFED70000120084
:1034F00028C429F404012A6B2951090805E20A0E9F
:10350000295F100E2A2703D029512A2701D0F4D78A
:103510002AC401F000011200040127911551000A8C
:10352000000105E0010A0DE0030A15E01FD00401C7
:10353000246B630E256F090E236F59C126F4000119
:1035400015D0010E0401246F0C0E256F236F58C196
:1035500026F400010BD0010E0401246F1F0E256F0D
:103560000F0E236F57C126F4000100D0520EF66EE5
:10357000060EF76E080E04012B6F000172EC06F0C8
:1035800059C128F4010E0401296F000125DF2D0E19
:103590000401386F000152EC06F058C128F4010E06
:1035A0000401296F000118DF2D0E0401386F00019E
:1035B00052EC06F057C128F4010E0401296F0001F6
:1035C0000BDF0301DFB50CD0010152A905D00301C7
:1035D000DF850101529903D0000164DF010103017D
:1035E000DFA52ED000016BDF23C42BF468EC06F0BE
:1035F0000E0E0401286F00016FDF010152A50CD0EF
:1036000052950401262B26BF05D02651255D02E2E6
:1036100024C426F42781010152A70CD0529704013B
:10362000260726BF03D02451265D02E225C426F4D6
:103630002781010152A904D052990401152B0101DF
:10364000040127A13DD00101518104011551000A57
:10365000000105E0010A13E0030A21E030D026C48E
:1036600059F159C128F444DF01C028F4060E0401C1
:10367000426F01C043F4000174EC04F020D026C472
:1036800058F158C128F434DF01C028F4050E0401B4
:10369000426F01C043F4000174EC04F010D026C462
:1036A00057F157C128F424DF01C028F4040E0401A7
:1036B000426F01C043F4000174EC04F000D0040137
:1036C0001551030808E10301DF950401156B0C0E89
:1036D000286F000101DF000E0301DFB5010E016E4E
:1036E0000001E7EF1CF0040127911651000A0001C8
:1036F00005E0010A0DE0030A15E01ED00401246B69
:10370000170E256F070E236F54C126F4000114D045
:103710000401246B3B0E256F0A0E236F55C126F45E
:1037200000010AD00401246B3B0E256F0D0E236FA0
:1037300056C126F4000100D06A0EF66E060EF76E32
:10374000060E04012B6F000172EC06F054C128F440
:10375000010E0401296F00013FDE3A0E0401386FAB
:10376000000152EC06F055C128F4010E0401296F46
:10377000000132DE3A0E0401386F000152EC06F00F
:1037800056C128F4010E0401296F000125DE030152
:10379000DFB70DD0010152A906D00301DF87010177
:1037A0005299518103D000017DDE01010301DFA7A1
:1037B00031D0000184DE23C42BF468EC06F00E0E39
:1037C0000401286F000188DE010152A50DD0529539
:1037D0000401262B26BF05D02651255D02E224C414
:1037E00026F427810101518152A70DD0529704017F
:1037F000260726BF03D02451265D02E225C426F405
:1038000027810101518152A905D052990401162B3B
:1038100001015181040127A13CD001015181040122
:103820001651000A000105E0010A13E0030A21E035
:103830002FD026C454F154C128F45ADE01C028F414
:10384000020E0401426F01C043F4000174EC04F065
:103850001FD026C455F155C128F44ADE01C028F412
:10386000010E0401426F01C043F4000174EC04F046
:103870000FD026C456F156C128F43ADE01507F0B12
:103880000401286F426B436F000174EC04F000D018
:103890000401165103080AE10301DF970401166BC6
:1038A0000C0E286F000118DE01015181000E03018A
:1038B000DFB7010E016E0001EEEF1CF0180EF66E80
:1038C000040EF76E090E04012B6F000172EC06F076
:1038D000080EE96ED5C328F4D4C327F486EC06F0AD
:1038E000400E04012B6F000168EC06F0280EF66E06
:1038F000040EF76E090E04012B6F000172EC06F046
:10390000080EE96ED7C328F4D6C327F486EC06F078
:10391000F5EF1CF00A0E0401226F0301DFB90ED08F
:10392000010152B502D0030109D052950401225180
:10393000175D02E2172B01D0176B0301DFB90DD021
:10394000010152B702D0030108D052970401175366
:1039500002E0170702D022C417F4000145EC06F07C
:1039600004011751F50F46E20B0F0001FDEF1CF0AB
:103970009AEF16F00301DF9904013CD06CEF17F0C9
:103980000301DF99040136D0F7EF17F00301DF9947
:10399000040130D065EF18F00301DF9904012AD04B
:1039A000A9EF18F00301DF99040124D0CDEF18F03E
:1039B0000301DF9904011ED089D40301DF990401BA
:1039C00019D0EAD40301DF99040114D0A5D503016D
:1039D000DF9901B0DF8904010DD085D60301DF999D
:1039E00001B0DF89040106D069D70301DF99040122
:1039F00001D004010001FCEF21F0E824F76AF7365A
:103A0000150FF66E3A0EF7220A00F550FA6E08000E
:103A1000F550F96E70397C3988399439A039AC3950
:103A2000B839C239CC39DA39E839E1C3EAFFE0C341
:103A3000E9FF050142C5EFFFE92AD8B4EA2AEF6A97
:103A40000301E02BD8B4E12B00011200015035C571
:103A500037F5640E0501386F000126EC09F000C04F
:103A600035F50150300E08E1050136A30FD036B709
:103A70000DD036B9200E04D005013697369936811F
:103A8000012601C042F50001D0DF050135C537F53B
:103A90000A0E386F000126EC09F000C035F5015020
:103AA000300E08E1050136B70AD036A108D036B984
:103AB000200E0001012601C042F5B7DF0501300EDE
:103AC000352735C542F50001B0DF1200EACF3DF5DC
:103AD000E9CF3CF505013639F009386F3827E20F98
:103AE000396F320F3B6F36510F0B392739273B2780
:103AF000E90F3A6F3A273A2735390F0B3A273B2718
:103B00003A373B373B1F3B3735510F0B3B27383795
:103B1000070E376F0A0E3A073B27FDE339073A27AE
:103B2000FDE338073927FDE337073827FDE3050EA6
:103B3000EA6E370EE96E070E3C153C9DE9263B0EFA
:103B4000E95CD8B43C8DEF50006E08E13CBD06D076
:103B50003CB915D03CB702D0200E03D03C873C992D
:103B6000300E0026EACF36F5E9CF35F500C042F534
:103B700000015BDF36C5EAFF35C5E9FF0501EE5000
:103B80003CADDDD700011200E95005013A6F395113
:103B90003C6F1CE038C545F537C544F536C543F5DF
:103BA00035C542F5496B486B200E476F820E466F54
:103BB000000123EC15F003C038F502C037F501C051
:103BC00036F500C035F505013C2FE4D738C545F57D
:103BD00037C544F536C543F535C542F500019EECC1
:103BE00015F003C038F502C037F501C036F500C046
:103BF00035F5050138AF0DD03A073A8B351F361F22
:103C0000371F381F352BD8B4362BD8B4372BD8B440
:103C1000382B3B0E416F9A0E406FCA0E3F6F3E6BC2
:103C20000A0E3C6F3951D8B43A2BD882050EEA6E91
:103C3000350EE96E38C545F537C544F536C543F54B
:103C400035C542F541C549F540C548F53FC547F57D
:103C50003EC546F50001FAEC0DF00150005213E1AB
:103C6000050139293C5DD8A402D000010CD03A519D
:103C70000DE00F0B3C5D01E040E23ABF3ED03ABDA3
:103C800005D0200E34D0200E05013A173AAB0ED0E5
:103C90003A9B3951D8A43A0700503A6F2D0E426F23
:103CA0000001C3DE05013A51006E3A6B39513C5DAB
:103CB0000CE100503A6F2E0E426F0001B6DE050196
:103CC0003A51006E200E3A17000E300E3AAB0FD06C
:103CD0003A9B3951D8A43A0700503A6F2D0E426FE3
:103CE0000001A3DE05013A51006E3A6B300E00264A
:103CF00000C042F5000199DE0501D89241C545F5A5
:103D000040C544F53FC543F53EC542F5496B486B98
:103D1000476B0A0E466F0001FAEC0DF003C041F547
:103D200002C040F501C03FF500C03EF505013C2F43
:103D30007CD70001120095948C9400006650AB0E65
:103D4000666E6430FEE395948C840000010E0501DC
:103D50003D6F0001B5EC03F00CEF1FF00501406B67
:103D60003F6B00015EEC10F001C039F5036A0501FC
:103D700039C53DF503C03EF5406B0C0E3F6F03C0E7
:103D800042F539C541F50001EEEC11F001C037F5FF
:103D90000501020E0224386F3C6B3C510B081BE3FB
:103DA0003C5137253D6F000E38213E6F036A3C5170
:103DB0003525E96E36510320EA6EEFCF3FF53EC55B
:103DC00041F53DC540F53FC542F500015DEC0BF006
:103DD00005013C2BE2D7392B416B406B39C542F5CD
:103DE00000015DEC0BF0050139512C08D8A47BD003
:103DF000406B020E3F6F00015EEC10F001C03DF51C
:103E00000501406B030E3F6F00015EEC10F03DC5F5
:103E10003BF501C03AF58FD795948C94000066501D
:103E2000820E666E6430FEE305013A35376F3B352E
:103E3000386F37373837FC0E371738C53DF56650C1
:103E400038C566FF6430FEE337C53DF5665037C5BB
:103E500066FF6430FEE36650666A6430FEE3386BEA
:103E6000376B385102081CE303E137510F0818E3A0
:103E7000040037C53DF5020E38253E6F406F37C54B
:103E80003FF500015EEC10F001C03CF566503CC50A
:103E900066FF6430FEE30501372BD8B4382BE1D739
:103EA00095948C840000416B406B426B00015DEC8B
:103EB0000BF005013A2BD8B43B2B3BC53DF5416BCC
:103EC000020E406F3BC542F500015DEC0BF03AC5B8
:103ED0003DF50501416B030E406F3AC542F5000107
:103EE0005DEC0BF005010001C2EF20F036C538F59E
:103EF00035C537F538C503F0050137C5E9FF38C5C5
:103F0000EAFFEF5206E0372BD8B4382B0001F2D786
:103F100005013551375D006E36513859036E00C0CA
:103F200001F00001CAEF20F0A4A8FED76D6EDAEF11
:103F300020F09D9236C02FF535C02EF538C031F5F2
:103F400037C030F53AC033F539C032F5366A356AD4
:103F5000386837683A6A396A9D8259C122F458C173
:103F600023F457C124F454C125F455C126F42FC5B8
:103F700027F404012EC528F4040131C529F40401F5
:103F800030C52AF4040133C52BF4040132C52CF4E6
:103F900004013E380501356FF00E35173D500F0B0B
:103FA000352504012D6F040E0301E16F2E0EE06F25
:103FB000320E0501426F000138DD300E0501426FFF
:103FC000000133DD59C135F5010E0501366F0001E1
:103FD0003DDD2D0E0501426F000127DD58C135F58D
:103FE000010E0501366F000131DD2D0E0501426F16
:103FF00000011BDD57C135F5010E0501366F0001CB
:1040000025DD200E0501426F00010FDD54C135F59D
:10401000010E0501366F000119DD3A0E0501426FF0
:10402000000103DD55C135F5010E0501366F0001B4
:104030000DDD2C0E0501426F0001F7DC100EE96E5C
:104040002FC536F52EC535F541DD2C0E0501426F25
:104050000001EBDC100EE96E31C536F530C535F5E3
:1040600035DD2C0E0501426F0001DFDC100EE96E1C
:1040700033C536F532C535F529DD2C0E0501426F05
:104080000001D3DC100EE96E3CC036F53BC035F5BF
:104090001DDD2C0E0501426F0001C7DC3DC035F56A
:1040A0001B0E0501366F0001D1DC2C0E0501426F9D
:1040B0000001BBDCC90EE96E64C138F563C137F598
:1040C00062C136F561C135F5050E0501396F000194
:1040D0005BDD2C0E0501426F0001A7DCC90EE96E05
:1040E00068C138F567C137F566C136F565C135F584
:1040F000050E0501396F000147DD2C0E0501426FE9
:10410000000193DC0501356B1B0E366F00019EDC50
:104110002C0E0501426F000188DC0501356B1B0E7A
:10412000366F000193DC2C0E0501426F00017DDC2F
:104130000501356B1B0E366F000188DC2C0E050166
:10414000426F000172DC100EE96E46C036F545C0C4
:1041500035F5BCDC2C0E0501426F000166DC100E4B
:10416000E96E0501366B356B0001B0DC0A0E050106
:10417000426F00015ADC040E0501366F220E356FC6
:104180000001ECD50501346B040E366F2E0E356F31
:104190000001ACD601500501345D15E2036A3451CB
:1041A0002E0FE96E040E0320EA6EEFCF35F5355180
:1041B0000001BAD6010E05013D6F0001B5EC03F018
:1041C0000501342BE1D7000102EF22F0F86A9F824B
:1041D000A2929F9AA59AD08E078EEA6AE96A700E1B
:1041E000D36ED350346A7E86220EAF6E000E7F6E81
:1041F000A60EAC6E900EAB6E7C960C0E6F6EA20E81
:104200006C6E900E6B6E0301D96BD86BDB6BDA6B47
:10421000DD6BDC6BDE6BDF91DF93E16BE06BE26B00
:10422000F16BF26B0401136B146B0301DF95040156
:10423000156B0301DF970401166B0301DF9904017D
:10424000186B196B1A6B0301DF9BDF9D640E040171
:104250001B6F1D6B1C6B1F6B1E6B216B206BC1508A
:10426000C00B0F09C16E070EB46E2E6A2F6A0301D0
:10427000E36BE46BE56BE66BE76BE86BE96BEA6BB2
:10428000EB6BEC6BED6BEE6BEF6BF06BF36BF46B5E
:10429000F56BF66BF76BF86BF96BFA6BFB6BFC6B02
:1042A000FD6BFE6BFF6B0401006B016B026B036B1C
:1042B000046B056B066B076B086B096B0A6B0B6B6A
:1042C0000C6B0D6B0E6B0F6B106B116B126B176B16
:1042D00000013DEF05F0A08297908E901E0E040124
:1042E000256F00013AEC06F0020E0401226FFA0E6F
:1042F00005013D6F0001B5EC03F00401222FF7D753
:10430000000145EC06F0EEEF08F036EF0AF001018F
:1043100053BB35D053BD33D053BD31D05295529796
:104320005299000145EC06F0260EF66E070EF76E68
:1043300058EC06F0400E04012B6F000168EC06F00B
:10434000340EF66E070EF76E58EC06F0040E0401FC
:10435000226FFA0E05013D6F0001B5EC03F0040178
:10436000222FF7D7010152995295529752A906D0A0
:10437000529900018FEC0BF003D00101F7D7000137
:104380000A0E01015C6F640E05013D6F0001B5EC82
:1043900003F0A09297908E809D820400010151ADA0
:1043A00005D0519D000113EF0CF0010151AF05D074
:1043B000519F0001FBEF0CF0010148A004D0000167
:1043C00043EF0DF048900001ABEF0DF0010151A952
:1043D00004D0000140EF10F0010151AB03D0000107
:1043E00080EF11F00001AFEF12F0010151A105D0F3
:1043F000519100018AEF1CF0010151A304D05193A7
:10440000000197D5010151A505D0519500018FEC10
:0A4410000BF001010001C1D7030009
:020000040030CA
:0E00000000C81E1B0305B100FFC0FFE0FF405B
:00000001FF
;PIC18F6622
;CRC=04FD  CREATED="06-Nov-15 17:10"
