:0400000072EF20F08B
:0800080065EF00F000000000AC
:100010000000000000000000046ED8CF05F0E0CF23
:1000200006F00001E9CF0CF0EACF07F0E1CF08F0CD
:10003000E2CF09F0D9CF0AF0DACF0BF0F3CF12F00C
:10004000F4CF13F0FACF14F0F5CF15F0F6CF16F089
:10005000F7CF17F000C00EF001C00FF002C010F093
:1000600003C011F09DAA38EF00F09EBA21EF01F015
:10007000A3AA3EEF00F0A4BA45EF01F00EC000F0D5
:100080000FC001F010C002F011C003F00CC0E9FF76
:1000900007C0EAFF078E08C0E1FF09C0E2FF0AC0FF
:1000A000D9FF0BC0DAFF12C0F3FF13C0F4FF14C076
:1000B000FAFF15C0F5FF16C0F6FF17C0F7FF045092
:1000C00006C0E0FF05C0D8FF1000196ED8CF1AF0A7
:1000D000E0CF1BF00001E9CF21F0EACF1CF0E1CF27
:1000E0001DF0E2CF1EF0D9CF1FF0DACF20F0F3CF12
:1000F00027F0F4CF28F0FACF29F0F5CF2AF0F6CF89
:100100002BF0F7CF2CF000C023F001C024F002C088
:1001100025F003C026F09DA291EF00F09EB2C5EF3E
:1001200000F023C000F024C001F025C002F026C07A
:1001300003F021C0E9FF1CC0EAFF1C8E1DC0E1FFD7
:100140001EC0E2FF1FC0D9FF20C0DAFF27C0F3FFA7
:1001500028C0F4FF29C0FAFF2AC0F5FF2BC0F6FF24
:100160002CC0F7FF19501BC0E0FF1AC0D8FF1000C9
:10017000F76A800FF66E010EF7220900F5501200A3
:1001800030362D4E6F762D31350005014CA10CD047
:1001900001015D3D05D05E3D03D0050105D00101A3
:1001A0005D2BD8B45E2B050193804C9381B04C83BA
:1001B0004CB326D00301D9B102D0050121D0392A90
:1001C000D8B43A2AD9A313D005014C915EC136F0B8
:1001D0005DC135F03650385C08E303E13750355CDB
:1001E00004E236C038F035C037F00301D993D9B3F3
:1001F00007D001015E6B5D6B05014C810301D98362
:100200000301D99105014CA303D00301D981050154
:100210000301D82BD851640804E1D86B0101518D3A
:1002200003019E92000191EF00F09EAAFED7ABCF92
:1002300034F0AECF01F034A202D0AB98AB8824EFFB
:1002400001F0CC6BCB6BF1D701C049F5CA530EE17D
:10025000C9517F080BE3490EC925E96E000ECA217A
:10026000EA6E49C5EFFFC92BD8B4CA2B9E9A3EEF60
:1002700000F0A4AAFED76BCF34F06ECF01F034A209
:1002800002D06B986B8846EF01F0F3D701C049F5B7
:10029000A49A3EEF00F0232044617461666C6173A0
:1002A00068207061676520726561642066726F6D99
:1002B00020256C750D0A00000D0A00000D0A232090
:1002C000446F6E650D0A00002320696E69746961D0
:1002D0006C697A696E67206C6F6767696E670D0A73
:1002E0000000526573657474696E67204C6F6721F6
:1002F0000000446F6E6500003E20646F6E650D0A5D
:1003000000002320706C6179696E67206C6F670D47
:100310000A003E20646F6E650D0A000023204475BC
:100320006D70696E67206C6F670D0A003E20646F08
:100330006E650D0A000050616765205265713A25AF
:1003400030356C750000204E2050616765733A258A
:1003500030356C750000556E697420557074696D88
:10036000653A0000256C75206D696E7574657300C3
:10037000576972656C657373206F6E3A000025755E
:10038000207365636F6E647300004C61743A2020C3
:100390002530322E346C66004C6F6E3A2025303397
:1003A0002E346C6600005344204361726420537401
:1003B000617475733A00202020204C6F6767696E66
:1003C00067002020204E6F742052656164792100FF
:1003D000496E7465726E616C204D656D6F72790047
:1003E000256C752F256C752066756C6C0000496E48
:1003F0007075743A2025302E316C6620766F6C74DF
:100400007300426174746572793A20256425250071
:1004100057696E6420446972656374696F6E3A004F
:10042000536563746F7220257520280034350000F1
:100430003930000031333500313830003232350088
:100440003237300033313500542020202020546DC5
:10045000696E20436F756E740000446174653A20C4
:100460003230253032752D253032752D25303275DC
:1004700000004E6F7720253032753A253032753ABC
:100480002530327520555443000053706565643A39
:10049000202530322E3166206D2F7300477573741E
:1004A0003A20202530322E3166206D2F7300507295
:1004B000657620205365742020204E6578740000F6
:1004C0002D20202020205365742020202020202B48
:1004D00000002D20202020204E6578742020202030
:1004E000202B00004E4F20202020594553005072F1
:1004F000657620456E74657220204E657874000024
:1005000057726F74652044656661756C7420534E34
:10051000000053657269616C3A202563256C752073
:100520002020202000002D2020202020444F4E4558
:1005300020202020202B000057726F746520534E1E
:100540000000202D2048572054595045202D2000D0
:1005500052444C20202020202020202052444C5562
:10056000000057726F7465204857205479706500F9
:10057000446174653A203230253032642D253032A2
:10058000642D25303264000054696D653A202530B1
:1005900032643A253032643A2530326400007264A5
:1005A0004C6F676765722855290072644C6F6767E6
:1005B0006572556E6976657273616C00756E6B6EEF
:1005C0006F776E210000557020696E2025752049D7
:1005D000443D2563256C752000002320555020499B
:1005E0004E202575205345434F4E44530D0A0000BD
:1005F000232072644C6F67676572556E6976657209
:1006000073616C20257320283230253032752D25FA
:100610003032752D25303275292028736572696155
:100620006C202563256C75292028686172647761C8
:100630007265202575290D0A000030362D4E6F7623
:100640002D3135005072657373206D6964646C657B
:100650000000627574746F6E20746F20636C656146
:100660007200639A9598958A959C300E636EC00EC1
:10067000646E95968C8695948C840000AAEF05F0A4
:1006800094869488ABEF05F0050EEA6E370EE96E9E
:10069000EF500DE0020E016E006A002EFED7012E13
:1006A000FBD7970E006E002EFED7EF2EF3D7120069
:1006B00097968E8697968E96120004013CBF02D0C4
:1006C0008E9E01D08E8E979E3CBD02D08E9C01D016
:1006D0008E8C979C3CBB02D08E9A01D08E8A979AC2
:1006E0003CB902D08E9801D08E8897980001E0DF47
:1006F00004013CB702D08E9E01D08E8E979E3CB5F1
:1007000002D08E9C01D08E8C979C3CB302D08E9AE6
:1007100001D08E8A979A3CB102D08E9801D08E88F3
:1007200097980001C5DF1A0E006E002EFED700005C
:1007300012000F0E0501376F0001A6DF97928E920F
:1007400097948E94979E8E9E979C8E9C979A8E8A55
:1007500097988E88ADDF050E0501376F000194DF95
:10076000A7DF420E006E002EFED70000A1DF050EAF
:100770000501376F000188DF97988E9899DF1A0E70
:10078000006E002EFED70000280E04013C6F000111
:1007900094DF0C0E04013C6F00018FDF060E040194
:1007A0003C6F00018ADF010E04013C6F000185DF10
:1007B000ACEF05F0080E016E00008B9694960000D9
:1007C000050140378B98D8B09488D8A09498948627
:1007D00082A6FED7012E01D002D00001EDD7000085
:1007E0008B9694960000948800000000948682A660
:1007F000FED7016A000082B801808B9694968B9890
:1008000094980001120094880000948600008B9850
:10081000949800008B969496D00E0501406F0001CD
:10082000C9DF015004013E9101B03E813EA102D0DA
:100830000001E9D73CC440F50001BCDF3DC440F5F0
:10084000B9DF94980000948682A6FED7000000D0FD
:100850000000948800001200070E04013C6F100E87
:100860003D6F0001D0DFADEF05F0080E05013E6FD2
:1008700000C03FF594880000948682A6FED782B817
:10088000D88082A8D8900136000094968B963E2F8F
:10089000F1D7948800008B983F51D8A49498000019
:1008A000948682A6FED700008B96949600008B98C3
:1008B00094980001120094880000948600008B98A0
:1008C000949800008B969496D00E0501406F00011D
:1008D00071DF01500108EFE03CC440F56BDF948804
:1008E00000009486000082A6FED78B9894980000A2
:1008F0008B969496D10E0501406F00015BDF01508D
:100900000108EDE0006AB1DF01C03DF494980000F9
:10091000948682A6FED7000000D0000094880000D4
:1009200004013DC401F00001120004013D393E6F95
:100930000F0E3E173D510F0B3F6F3E510A0DF35006
:100940003F25016E0001120004013C6B3D6B00016C
:100950005ADF060E04013C6F0A0E3D6F000153DFA3
:10096000050E04013C6F010E3D6F00014CDF040ECB
:1009700004013C6F010E3D6F000145DF020E0401D2
:100980003C6F3D6B00013FDF010E04013C6F3D6B8E
:10099000000139DFBBEF05F0720ED36ED350C150AA
:1009A000C00B0B09C16EC050C00B0709C06EC08ED2
:1009B000C280010151935195519751815199519B99
:1009C0005281519D519F52955297529981CF53F127
:1009D0001E0E5A6F366A356A386837683A6A396A5D
:1009E000040EEA6E1C0EE96E000E0001B8EC00F079
:1009F0000A000900F550EE6E0009FBE1300E04011B
:100A00001C5D0A0DF3CF44F0300E1D5D44261F51CE
:100A10004A080FE12051410803E1010E436E08D05E
:100A200021514E0803E1060E436E02D0070E436EBD
:100A300037D01F51410809E12051500803E1040E4D
:100A4000436E02D0080E436E2BD01F514D0809E1B2
:100A50002151520803E1030E436E02D0050E436E8E
:100A60001FD01F51460803E1020E436E19D01F51DB
:100A7000530803E1090E436E13D01F514F0803E1E1
:100A80000A0E436E0DD01F514E0803E10B0E436E4C
:100A900007D01F51440803E10C0E436E01D0436898
:100AA000300E235D0A0DF3CF42F0300E245D422656
:100AB000466A456A48900001CA6BC96BCC69CB692C
:100AC000CE69CD6901015091F2CF3CF4F29CF29EC7
:100AD000AA6A100EA96EA69CA69EA680A850040124
:100AE0003CBDF28C3CBFF28E3F6EF2CF3CF4F29CE8
:100AF000F29EAA6A110EA96EA69CA69EA680A85078
:100B00003CBDF28C3CBFF28E406EF2CF3CF4F29CC6
:100B1000F29EAA6A120EA96EA69CA69EA680A85056
:100B20003CBDF28C3CBFF28E416EF2CF3CF4F29CA5
:100B3000F29EAA6A130EA96EA69CA69EA680A85035
:100B40003CBDF28C3CBFF28E476E0301D569D4697F
:100B5000000187D595D5EDD57FD6060E04013C6FF3
:100B60000001A9DE01C03CF401C03DF4DEDE01500D
:100B7000040801E3E9D6000E0509CA6E300ECB6EFB
:100B80009D8AA38A9D82F19E010E0501376F0001A7
:100B90007BDDF19CC00EF212F0EF20F004011F513A
:100BA00001015B5D02E21FC45BF1969A8D9A000120
:100BB000120097928E92010E04013C6F00017DDDC0
:100BC000020E0501376F00015FDD120097928E82E1
:100BD00032C43CF472DD12000900F5520CE0F6CF8D
:100BE00022F4F7CF23F4F5CF32F4F0DF22C4F6FF7E
:100BF00023C4F7FFF1D7120097928E92800E040162
:100C00002525266F3C6F000158DD12000900F6CF44
:100C100026F4F7CF27F4F5CF32F4D8DF26C4F6FF59
:100C200027C4F7FF0401252F01D002D00001EED721
:100C300000011200EACF29F4E9CF28F40401223997
:100C4000F009246F2427E20F256F320F276F2251FE
:100C50000F0B252725272727E90F266F262726276D
:100C600021390F0B2627272726372737271F273716
:100C700021510F0B27272437070E236F0A0E260753
:100C80002727FDE325072627FDE324072527FDE386
:100C900023072427FDE3040EEA6E230EE96E070EF8
:100CA0002815289DE926270EE95CD8B4288DEF5039
:100CB000006E08E128BD06D028B915D028B702D0AB
:100CC000200E03D028872899300E0026EACF22F480
:100CD000E9CF21F400C032F4000178DF22C4EAFF3A
:100CE00021C4E9FF0401EE5028ADDDD70001120058
:100CF00004011C536CE0AA6A100EA96E520EA86E75
:100D0000A69CA69EA684F250006EF29CF29E0F0155
:100D1000550EA76EAA0EA76EA682A6B2FED7A694FF
:100D20000050F212AA6A110EA96EA86AA69CA69E8D
:100D3000A684F2CF00F0F29CF29E550EA76EAA0E8A
:100D4000A76EA682A6B2FED7A6940050F212AA6A97
:100D5000120EA96EA86AA69CA69EA684F2CF00F0E9
:100D6000F29CF29E550EA76EAA0EA76EA682A6B2A0
:100D7000FED7A6940050F212AA6A130EA96E020EB4
:100D8000A86EA69CA69EA684F2CF00F0F29CF29ECE
:100D9000550EA76EAA0EA76EA682A6B2FED7A6947F
:100DA0000050F212000105DF000EF66E050EF76E20
:100DB00013DF040E0401216FFA0E0501376F0001E5
:100DC00063DC0401212FF8D70001F3DE0401F2CF28
:100DD00021F4F29CF29EAA6A100EA96EA69CA69E11
:100DE000A680A85021BDF28C21BFF28E1D6FF2CFDC
:100DF00021F4F29CF29EAA6A110EA96EA69CA69EF0
:100E0000A680A85021BDF28C21BFF28E226FF2CFB6
:100E100023F4F29CF29EAA6A120EA96EA69CA69ECC
:100E2000A680A85023BDF28C23BFF28E246F22C46B
:100E30001FF424C41EF4256B0001DEDE120EF66ED4
:100E4000050EF76E080E0401256F0001DFDE1DC4DC
:100E500032F4BCDE100EE96E1FC422F41EC421F46D
:100E6000E9DE1F0EF66E050EF76E050E0401256F06
:100E70000001CCDE400E0401256F0001BDDE260E10
:100E8000F66E050EF76EA8DE010152A902D0529946
:100E90001AD052A506D0529504011E2BD8B41F2B90
:100EA000010152A706D0529704011E51D8B41F0762
:100EB0001E07140E0501376F000144EC03F0040017
:100EC0000401B9D70101AA6A100EA96E520EA86ECC
:100ED000A69CA69EA684F250006EF29CF29E0F0184
:100EE000550EA76EAA0EA76EA682A6B2FED7A6942E
:100EF0000050F2121FC421F4AA6A110EA96E1FC479
:100F0000A8FFA69CA69EA684F2CF00F0F29CF29EBB
:100F1000550EA76EAA0EA76EA682A6B2FED7A694FD
:100F20000050F2121EC421F4AA6A120EA96E1EC449
:100F3000A8FFA69CA69EA684F2CF00F0F29CF29E8B
:100F4000550EA76EAA0EA76EA682A6B2FED7A694CD
:100F50000050F212AA6A130EA96E20C4A8FFA69C24
:100F6000A69EA684F2CF00F0F29CF29E550EA76ECC
:100F7000AA0EA76EA682A6B2FED7A6940050F212C1
:100F8000F2CF21F4F29CF29EAA6A100EA96EA69CE2
:100F9000A69EA680A850040121BDF28C21BFF28E2E
:100FA0003F6EF2CF21F4F29CF29EAA6A110EA96E56
:100FB000A69CA69EA680A85021BDF28C21BFF28ED1
:100FC000406EF2CF21F4F29CF29EAA6A120EA96E34
:100FD000A69CA69EA680A85021BDF28C21BFF28EB1
:100FE000416EF2CF21F4F29CF29EAA6A130EA96E12
:100FF000A69CA69EA680A85021BDF28C21BFF28E91
:10100000476E0001D6DD380EF66E050EF76EE4DD94
:10101000040E0401216FFA0E0501376F000144EC44
:1010200003F00401212FF7D70001C3DD0401256B74
:101030000001E2DD420EF66E050EF76ECDDD400ECC
:101040000401256F0001D8DD500EF66E050EF76E17
:10105000C3DD010152A901D0529952A506D0529583
:10106000020E0401206F10D0010152A704D0529744
:101070000401206B09D0140E0501376F000144EC08
:1010800003F00400D3D70401AA6A130EA96E20C48A
:10109000A8FFA69CA69EA684F250006EF29CF29E2B
:1010A0000F01550EA76EAA0EA76EA682A6B2FED796
:1010B000A6940050F212F2CF21F4F29CF29EAA6A9A
:1010C000130EA96EA69CA69EA680A850040121BD61
:1010D000F28C21BFF28E476E00016BDD620EF66E60
:1010E000050EF76E79DD040E0401216FFA0E05017D
:1010F000376F000144EC03F00401212FF7D7000102
:1011000058DD1200F2CF1CF4F29CF29EAA6A100E77
:10111000A96EA69CA69EA680A85004011CBDF28CB8
:101120001CBFF28E520811E1F2CF1DF4F29CF29E28
:10113000AA6A130EA96EA69CA69EA680A8501DBDE5
:10114000F28C1DBFF28E020805E2010E1C6F000139
:10115000CFDD0CD0010152B50AD052A908D052B748
:1011600006D0529904011C6B0001C2DD010100018F
:1011700007EF21F005013251016A315D03E231C50B
:1011800000F00CD0006A080E336F31370036325150
:10119000005CD8B0006E0136332FF7D70001120083
:1011A000015021C431F5640E0501326F0001E2DF08
:1011B00000C021F40150300E08E1040122A30ED03A
:1011C00022B70CD022B9200E04D004012297229914
:1011D0002281012601C032F40001F8DC21C431F57E
:1011E0000A0E0501326F0001C5DF00C021F4015075
:1011F000300E08E1040122B70AD022A108D022B99A
:10120000200E0001012601C032F4E0DC0401300EA2
:10121000212721C432F40001D9DC12000900F6CFE5
:1012200022F4F7CF23F4F5509EA8FED7AD6E22C46A
:10123000F6FF23C4F7FF0401212F01D002D00001E3
:10124000EDD700011200015021C431F5640E0501F3
:10125000326F00018FDF00C021F40150300E08E131
:10126000040122A30ED022B70CD022B9200E04D044
:101270000401229722992281012601509EA8FED7BF
:10128000AD6E21C431F50A0E0501326F000172DF27
:1012900000C021F40150300E08E1040122B70BD048
:1012A00022A109D022B9200E0001012601509EA8DA
:1012B000FED7AD6E0401300E212721519EA8FED726
:1012C000AD6E000112000900F5520DE0F6CF21F4D9
:1012D000F7CF22F4F5509EA8FED7AD6E21C4F6FFDD
:1012E00022C4F7FFF0D71200EACF29F4E9CF28F49F
:1012F00004012239F009246F2427E20F256F320FF1
:10130000276F22510F0B252725272727E90F266F47
:101310002627262721390F0B262727272637273769
:10132000271F273721510F0B27272437070E236F3D
:101330000A0E26072727FDE325072627FDE32407B6
:101340002527FDE323072427FDE3040EEA6E230E81
:10135000E96E070E2815289DE926270EE95CD8B40A
:10136000288DEF50006E08E128BD06D028B90CD0BA
:1013700028B702D0200E03D028872899300E0026E7
:1013800000509EA8FED7AD6EEE5028ADE6D7000106
:10139000C7EF0AF004011C6B140E1F6F0001CEECA6
:1013A00005F0475206E19E0EF66E050EF76E14DC50
:1013B0000ED04750020806E1AA0EF66E050EF76E33
:1013C0000BDC05D0BC0EF66E050EF76E05DCF2CF19
:1013D0001FF4F29CF29EAA6A110EA96EA69CA69E0C
:1013E000A680A85004011FBDF28C1FBFF28E206F93
:1013F000F2CF21F4F29CF29EAA6A120EA96EA69C6C
:10140000A69EA680A85021BDF28C21BFF28E226F2D
:1014100020C41EF422C41DF40A0E1C6F1C535EE08F
:10142000400E256F0001FCEC05F0F2CF1FF4F29C9A
:10143000F29EAA6A100EA96EA69CA69EA680A8502F
:1014400004011FBDF28C1FBFF28E206FC60EF66E18
:10145000050EF76E060E256F000106EC06F01CC4A3
:1014600021F41B0E0401226F00019ADECE0EF66EEF
:10147000050EF76E040E0401256F000106EC06F060
:1014800020C432F4E6EC05F0100EE96E1EC422F41E
:101490001DC421F41AEC06F0200E0401326F000185
:1014A000E6EC05F0DA0EF66E050EF76E080E040196
:1014B000216F0001B3DE1CC421F41B0E0401226F56
:1014C0000001C1DEE40EF66E050EF76E0A0E040191
:1014D000216F0001A3DE04011C07A0D7F2CF1FF487
:1014E000F29CF29EAA6A100EA96EA69CA69EA680E9
:1014F000A8501FBDF28C1FBFF28E206FF00EF66E4B
:10150000050EF76E140E216F000188DE3A0EF66E9E
:10151000060EF76ED8DE060EF66E060EF76E040E99
:101520000401216F00017ADE42C021F4010E0401A2
:10153000226F000188DE2D0E9EA8FED7AD6E43C03F
:1015400021F4010E0401226F00017DDE2D0E9EA804
:10155000FED7AD6E44C021F4010E0401226F0001DC
:1015600072DE180EF66E060EF76E0A0E0401216F7B
:10157000000154DE040120519EA8FED7AD6E100E6E
:10158000E96E1EC422F41DC421F40001ADD6270E5D
:10159000F66E060EF76E0C0E0401216F00013EDEA2
:1015A00047C021F41B0E0401226F00014CDE290EFE
:1015B0009EA8FED7AD6E0D0E9EA8FED7AD6E0A0E8C
:1015C0009EA8FED7AD6E09EF21F0A00E05013D6F7C
:1015D0003B517F0802E23D833B9F94880000948644
:1015E00000008B98949800008B9694963DC540F52A
:1015F0000001DAEC03F03BC53EF505013F6B3BC54E
:1016000040F50001DAEC03F03AC540F5DAEC03F0FE
:101610003CC540F5DAEC03F094980000948682A66D
:10162000FED7000000D00000948800001200C80E11
:10163000F66E020EF76E47DED9EC05F0E20EF66E9E
:10164000020EF76EECEC05F0050E04011C6FF00EB7
:101650000501376F000144EC03F004011C2FF7D79C
:1016600005013B6B3A6B3C6B0001AFDF05013B6B47
:10167000020E3A6F3C6B0001A8DF05013B6B030EC5
:101680003A6F3C6B0001A1DF95948C94000066508A
:10169000500E666E6430FEE36650666A6430FEE3A8
:1016A0006650666A6430FEE36650666A6430FEE344
:1016B00095948C8400000A0E0501376F000144ECFC
:1016C00003F095948C9400006650D70E666E6430DB
:1016D000FEE36650666A6430FEE366CF4CF4959490
:1016E0008C84000004014CC401F001C01CF401BE54
:1016F00004D004000001E5D70401400E256F00016D
:10170000FCEC05F0F20EF66E020EF76EECEC05F056
:10171000F80EF66E020EF76ED6DD050E04011C6F94
:10172000F00E0501376F000144EC03F004011C2F9B
:10173000F7D7000112009D9A010150B12DD0EA6A3D
:10174000CF0EE96EE26A490EE16ECAC002F0C9C06E
:1017500001F0015202E0022A02D0025206E0E6CF76
:10176000EEFF012EFCD7022EFAD7010E0001C9258B
:1017700004011C6F000E0001CA2104011D6FCF0E71
:101780001C25E96E000E1D21EA6EEF6A01015081F1
:101790000001CA6BC96B01019D8A000152EF21F063
:1017A00004016669656963516307000A26E062C443
:1017B00003F06151612BD8B4622BE96E03C0EAFFDC
:1017C000EF50651B646B6451070816E36551010B0C
:1017D000006E036A005003100AE0D8906631686F0B
:1017E0006531010A656F6851A00A666F03D0D89011
:1017F00066336533642BE7D7D6D765C401F066C47A
:1018000002F000011200010150A148D050910001E6
:10181000CF51230842E1D0513F5C3FE1D151405CC0
:101820003CE1D251415C39E1D3510D0836E1D4514C
:10183000160833E10401626BD00E616F0A0E636F0C
:101840000001AEDF02C01DF401C01CF4DAC003F0D9
:10185000DB5104011C5D03E103501D5D01E01FD05D
:10186000FA0E1F6F0001CEEC05F0D55105E0010A1C
:1018700007E0030A09E011D00101518B00010DD0EE
:1018800001015185000109D0D6C0D5F3D7C0D4F3EA
:10189000D8C0D7F3D9C0D6F300D0010104010001AC
:1018A00055EF21F081CF1CF404011CB907D00101D0
:1018B00053B902D0040102D0518F04011CA907D0F2
:1018C000010153A902D0040102D0518104011CC4BA
:1018D00053F10001CB3D03D0CC3D01D003D0CB2B45
:1018E000D8B4CC2BCD3D03D0CE3D01D003D0CD2BF1
:1018F000D8B4CE2BC951CA110BE0CC5303E1CB5164
:10190000050806E2CB3D03D0CC3D01D001D0488094
:10191000D890040116351D6F17351E6F000E01019A
:1019200053AB010E04011D131DC416F41E51E00932
:10193000176F165309E11751F00806E101015287AC
:1019400051811E0E5A6F0401D89018351D6F19353C
:101950001E6F000E010153AD010E04011D131DC4C5
:1019600018F41E51E009196F185309E11951F008D4
:1019700006E10101528951811E0E5A6F0401D8906F
:101980001A351D6F1B351E6F000E010153AF010E7E
:1019900004011D131DC41AF41E51E0091B6F1A53D4
:1019A00009E11B51F00806E10101528551811E0E2B
:1019B0005A6F040100015CEF21F0020E04013C6F3C
:1019C00000015BEC04F001503F0B04011C6F3D6F04
:1019D000000195EC04F001C054F1010E04013C6FCC
:1019E00000015BEC04F001C01CF401C03DF495EC77
:1019F00004F001C055F104013C6B00015BEC04F004
:101A000001507F0B04011C6F3D6F000195EC04F049
:101A100001C056F1040E04013C6F00015BEC04F0C0
:101A200001C01CF401C03DF495EC04F001C057F175
:101A3000050E04013C6F00015BEC04F001C01CF4D6
:101A400001C03DF495EC04F001C058F1060E04010C
:101A50003C6F00015BEC04F001C01CF401C03DF4DC
:101A600095EC04F001C059F13EEF0DF0969A8D8A85
:101A70004BEF0DF00101519F00019FD701015A5317
:101A800003E197908E8003D097908E905A075B5316
:101A900004E10001EBD708D0010104011F6B000134
:101AA000CEEC05F001015B0701015C5304E15189B3
:101AB000090E5C6F01D05C07040115510101555DF1
:101AC00021E0518355C115F4453C03D0463C01D07B
:101AD00003D0452AD8B4462A55511E0802E1528146
:101AE00004D055512D0801E152915551050809E0E6
:101AF0005551140806E05551230803E055513208AA
:101B000001E1518B000162EF21F0D8B204D0050E43
:101B1000EA6E440EE96E006A016A026A036A050110
:101B2000446B456B466B476B435142114111401169
:101B30002CE0200E486FD8903C373D373E373F377A
:101B400044374537463747374351475D08E14251EF
:101B5000465D05E14151455D02E14051445D0FE3C1
:101B60004051445F4151D8A0413D455F4251D8A00A
:101B7000423D465F4351D8A0433D475FD880003681
:101B8000013602360336482FD6D744C5EFFF45C588
:101B9000ECFF46C5ECFF47C5ECFF00011200D890F2
:101BA00004010D35036AED0FE96E030E0320EA6EA2
:101BB00022C4ECFFED5221C4EFFF0D2B0D510F0895
:101BC00001E20D6B0E510F0801E30E2B2A6B296BFE
:101BD000286B276B2B6B0E512B5D14E2D8902B35A5
:101BE000036AED0FE96E030E0320EA6EECCF03F0FB
:101BF000ED52EF50272703502823000E29232A23D4
:101C00002B2BE9D7D8900E31006E016A026A036A65
:101C1000005027252D6F015028212E6F02502921B9
:101C20002F6F03502A21306FD892E8CF3FF52FC491
:101C30003EF52EC43DF52DC43CF50501436B426BCA
:101C4000416B0EC440F5000160DF03C026F402C002
:101C500025F401C024F400C023F4040123C401F0DE
:101C600024C402F0000145EF0FF0040120510008E8
:101C700008E2FF0A03E11F51440803E20A0E016E65
:101C800065D02051000808E2FF0A03E11F513F0818
:101C900003E2090E016E5AD02051000808E2FF0A43
:101CA00003E11F513D0803E2080E016E4FD02051A1
:101CB000000808E2FF0A03E11F513A0803E2070E99
:101CC000016E44D02051000808E2FF0A03E11F51D1
:101CD000370803E2060E016E39D02051000808E2F1
:101CE000FF0A03E11F51330803E2050E016E2ED0F7
:101CF0002051000808E2FF0A03E11F512F0803E208
:101D0000040E016E23D02051000808E2FF0A03E10F
:101D10001F512C0803E2030E016E18D02051000859
:101D200008E2FF0A03E11F51270803E2020E016ED9
:101D30000DD02051000808E2FF0A03E11F512008DE
:101D400003E2010E016E02D0000E016E000156EF9B
:101D50000FF00401225303E121513F0808E222530E
:101D600006E12151BF0803E3010E016E6BD022533F
:101D700003E12151BF080AE22251010807E303E110
:101D800021513F0803E3020E016E5CD0225100088E
:101D90000FE2FF0A03E121513F080AE22251010844
:101DA00007E303E12151BF0803E3030E016E4AD0AC
:101DB000225100080FE2FF0A03E12151BF080AE2A5
:101DC0002251020807E303E121513F0803E3040E17
:101DD000016E38D0225101080FE2FF0A03E12151C0
:101DE0003F080AE22251020807E303E12151BF083C
:101DF00003E3050E016E26D0225101080FE2FF0A0F
:101E000003E12151BF080AE22251030807E303E17D
:101E100021513F0803E3060E016E14D0225102083F
:101E20000FE2FF0A03E121513F080AE222510308B1
:101E300007E303E12151BF0803E3070E016E02D05F
:101E4000000E016E00017BEF0FF0000E016EC2501C
:101E5000C30B0110C26E010E0501376F000144EC87
:101E600003F004011C6B1C510F0816E3C282C2B2BE
:101E7000FED7C4CF03F0C3CF1FF4C4CF20F4C4CF28
:101E800022F4C3CF21F400018AD602C01EF401C09F
:101E90001DF404011C2BE7D71EC43CF01DC43BF00D
:101EA0001EC420F41DC41FF40001DFD601C03EF0A3
:101EB0004750020807E1040E016EC250C30B011027
:101EC000C26E06D00C0E016EC250C30B0110C26E62
:101ED000010E0501376F000144EC03F0C282C2B26B
:101EE000FED7C4CF20F4C3CF1FF4C4CF22F4C3CF96
:101EF00021F400012ED701C03DF0E3EF0FF09EA8C2
:101F0000FED7AD6E1200230E04011C6F3FC01DF4FE
:101F100040C01EF441C01FF40F0E206F070E216F4A
:101F200036C022F435C023F438C024F437C025F479
:101F30003E382E6FF00E2E173D500F0B2E25266FBC
:101F40003AC027F439C028F4040E626F1D0E616F89
:101F50000C0E636F000124DC02C02CF401C02BF4D2
:101F600004012CC429F42BC42AF42D6B2D510E0826
:101F70000FE3036A2D511C0FE96E040E0320EA6E75
:101F8000EFCF2EF42E510001BADF04012D2BEED736
:101F90000001E4EF0FF00301D9BB0BD0010E0401E7
:101FA0001F6F0001CEEC05F0CE6BCD6B0301D98B1A
:101FB0000DD00001CE5303E1CD510D0807E2010120
:101FC0005199000142D79FD70301D99B000168EFC7
:101FD00021F0A00E05013C6F3A517F0802E23C83DC
:101FE0003A9F94880000948600008B989498000093
:101FF0008B9694963CC540F50001DAEC03F03AC5A7
:102000003DF505013E6B3AC540F50001DAEC03F001
:1020100039C540F5DAEC03F094880000948600009E
:1020200082A6FED78B98949800008B969496050113
:102030003C5101093D6F406F0001DAEC03F0006A8A
:1020400035EC04F001C03BF594980000948682A61C
:10205000FED7000000D000009488000005013BC5B9
:1020600001F000011200230E04011C6F3FC01DF49B
:1020700040C01EF441C01FF42B0E206F080E216FCC
:1020800036C022F435C023F438C024F437C025F418
:102090003AC026F439C027F459C128F458C129F4AC
:1020A00057C12AF454C12BF455C12CF456C12DF458
:1020B00095948C9400006650D70E666E6430FEE3F3
:1020C0006650666A6430FEE366CF4CF495948C8467
:1020D00000004CC401F001C02EF405013A6B020E61
:1020E000396F000176DF01C02FF405013A6B030E52
:1020F000396F00016EDF01C030F43CC031F40401DF
:102100003BC032F49682336B84B2332B010E4D6F99
:10211000610E4DC44BF44A6F4AC4E9FF4BC4EAFF59
:10212000EFCF34F4010E4A25E96E000E4B21EA6E22
:10213000EFCF35F4020E4A25E96E000E4B21EA6E10
:10214000EFCF36F4030E4A25E96E000E4B21EA6EFE
:10215000EFCF37F4010E4D6F650E4DC44BF44A6F4F
:102160004AC4E9FF4BC4EAFFEFCF38F4010E4A2519
:10217000E96E000E4B21EA6EEFCF39F4020E4A25CC
:10218000E96E000E4B21EA6EEFCF3AF4030E4A25BA
:10219000E96E000E4B21EA6EEFCF3BF43DC03CF4FC
:1021A0003D6B3E6B3F6B42C040F443500F0B4C6F96
:1021B00001015B51F00B04014C25416F44C042F416
:1021C00046C043F445C044F4040E626F1D0E616FB7
:1021D000280E636F0001D0EC0BF002C048F401C080
:1021E00047F4040148C445F447C446F4496B4951D7
:1021F0002A080FE3036A49511C0FE96E040E0320FD
:10220000EA6EEFCF4CF44C51000179DE0401492B0A
:10221000EED7000125EF11F00301D9BD0CD000016C
:10222000CE6BCD6B010E04011F6F0001CEEC05F0EB
:102230000301D98D0CD00001CE5303E1CD510D081F
:1022400006E20101519B00010ED70301D99D000157
:102250006EEF21F095948C9400006650D20E666E5D
:102260006430FEE304011C371D371C371D37FC0E9C
:102270001C171DC420F466501DC466FF6430FEE3C5
:102280001CC420F466501CC466FF6430FEE3665034
:10229000666A6430FEE36650666A6430FEE3665048
:1022A000666A6430FEE36650666A6430FEE3665038
:1022B000666A6430FEE31F6B1E6B1F51020814E355
:1022C00003E11E510F0810E3C40E1E25E96E010E36
:1022D0001F21EA6E6650666A6430FEE366CFEFFF48
:1022E0001E2BD8B41F2BE9D795948C8400000001D5
:1022F0005AEF12F0050139513B03F3CF01F0F4CF4F
:1023000000F03C03F35000263A513B03F350002009
:10231000026E0001120005013A6B396B000159DEB3
:10232000036A01C020F403C021F405013A6B0C0ECE
:10233000396F03C03CF501C03BF50001DBDF02C093
:102340001FF401C01EF404011D6B1C6B1D511F5DA9
:1023500023E303E11E511C5D1FE2C40E1C25016E28
:10236000010E1D21036E01C020F4216F1CC422F454
:10237000020E1D25236FE8CF3AF51CC439F5000184
:1023800028DE21C4EAFF20C4E9FF01C0EFFF0401F9
:102390001C2BD8B41D2BDAD71D5102080FE303E123
:1023A0001C510F080BE3C40E1C25E96E010E1D2104
:1023B000EA6EEF681C2BD8B41D2BEED700015EEF40
:1023C00012F0230E0401246F3FC025F440C026F410
:1023D00041C027F43A0E286F150E296F21C42AF444
:1023E00020C42BF4606B60512F081DE3080E60259C
:1023F000036A240F016E040E032260512225636FCD
:10240000000E2321646FC40E6325E96E010E642162
:10241000EA6EEFCF65F403C0EAFF01C0E9FF65C4CF
:10242000EFFF602BE0D7040E626F250E616F370E51
:10243000636F0001D0EC0BF002C05FF401C05EF4EA
:1024400004015FC45CF45EC45DF4606B60513908E4
:102450000FE3036A6051240FE96E040E0320EA6E55
:10246000EFCF61F4615100014ADD0401602BEED72A
:10247000000192EF12F00301D5510F0805E2FF0AA7
:1024800007E1D451010804E3D65305E1D75303E132
:10249000D76BD66B5BD0968884A801D057D0DC531D
:1024A0000DE1D5510F0808E3D5C31DF4D4C31CF4C6
:1024B0000001D0D603D0030100012DD7010E040185
:1024C0001F6F0001CEEC05F0D5C33AF5D4C339F542
:1024D00005013C6B0B0E3B6F00010CDF02C01DF4CD
:1024E00001C01CF40301DC5104011C27000E1D2354
:1024F0001F6BDCC31EF41FC43AF5DCC339F50501BC
:102500003C6B300E3B6F0001F5DE02C01FF401C0D2
:102510001EF41DC421F41CC420F402C023F401C025
:1025200022F44FD70301DC2BDC510B080FE1DC6BED
:10253000D65302E1D75308E0D42BD8B4D52BD651CB
:10254000D8B4D707D60702D0D569D469000171EF96
:1025500021F08E0E006E26C401F025C402F0036A3D
:10256000015209E102C001F0026A080E005E015248
:1025700002E1006A08D0D89001BE04D002360136CC
:102580000006F9D7019E120004012551D8B4A5D048
:10259000316F2951D8B4A1D0315F05E37F0E3127C7
:1025A000D8B09BD006D0810E315FD8A096D0D8B4D9
:1025B00094D031C400F0016A026A036A306B26C409
:1025C0002FF42F8F27C42EF428C42DF4190E316F49
:1025D0002C512D5F0DE2010E2E5F0AE22F5F08E203
:1025E000305F06E2302B2F2B2E2B2C512D2728D09D
:1025F0002B512E5F12E2010E2F5F0FE2305F0DE2D2
:10260000302B2F2B2B512E272C512D2719E32E2B1E
:1026100017E12F2B15E1302B13D02A5180092F5FA2
:102620000EE2010E305F0BE2302B2A5180092F277A
:102630002B512E27E9E32F2BE7E1302BE5D7038041
:10264000312F01D00BD0D8902D372E372F37303780
:10265000D8900336023601363237BAD732A106D0C7
:10266000D890013202320332323302D0000635E014
:1026700032BF1ED0D8902D372E372F3730372C5100
:102680002D5F07E2010E2E5F04E22F5F02E2305F52
:102690001AE32B512E5F05E2010E2F5F02E2305F3D
:1026A00012E32A5180092F5F03E2010E305F0BE332
:1026B000032A09E1022A07E1012A05E1002A0DE0C7
:1026C00001320232033226C431F42A51311B31AFB8
:1026D00002D0018E06D0019E04D0006A016A026A0F
:1026E000036A00011200800ED8A202D004012E1B42
:1026F0000401336B346B2AC432F42E51321B29513E
:10270000D8B4DFD0316F006E2D51D8B4E3D0315F33
:10271000D8B483D03EE32EC437F4378F2FC436F4B9
:1027200030C435F4346BD8903733363335333433E3
:10273000312FF8D732AF03D03381E0D033913191CC
:102740003389040EEA6E2C0EE96EEBD0339932BF5A
:102750000AD031A113D03733363335333433002A1E
:10276000D8B4C7D00BD037BF0CD0D890343735375A
:10277000363737370006D8B4BCD0F5D7338D6DD097
:10278000339D2AC432F42AAF02D0378FABD0379FA3
:10279000A9D02DC431F42DC400F02951315F2AC4D1
:1027A00037F4378F2BC436F42CC435F4346BD890FF
:1027B0003733363335333433312FF8D732AF03D094
:1027C00033839CD033933191338B040EEA6E300EF9
:1027D000E96EA7D0339B32BF0AD031A113D0373373
:1027E000363335333433002AD8B483D00BD037BFD7
:1027F0000CD0D89034373537363737370006D8B451
:1028000078D0F5D7338F29D0339F2EC432F42EAF32
:1028100002D0378F67D0379F65D02EC437F4378FFB
:102820002FC436F430C435F432AF04D0379F33852B
:1028300065D03395346B3191040EEA6E2C0EE96E3F
:1028400070D032BF1CD02AC432F431A106D0373345
:10285000363335333433002A4CE034AF0BD0352BCC
:1028600009E1362B07E1372B05E1373336333533B2
:10287000002A3FE033BD84D733BFC6D71CD0800EBB
:10288000371B37AF04D03AD02EC432F40AD02AC452
:1028900032F4375306E1365304E1355302E1006A5E
:1028A00021D037BF08D0D89034373537363737374F
:1028B000002EF7D71ED032AF02D0378F13D0379FFC
:1028C00011D02DC400F02EC437F42FC436F430C418
:1028D00035F408D029C400F02AC437F42BC436F4E8
:1028E0002CC435F437C401F036C402F035C403F00B
:1028F00034D0006A016A026A036A2FD0346B351F34
:10290000361F371F341F342B05E1352B03E1362BDF
:1029100001E1372B33B112D733B354D733B589D74D
:10292000B3D7EF50352705E3362B03E1372BD8B467
:102930003181ED52EF50362703E3372BD8B4318184
:10294000ED52EF50EFBE01D0800A3727D8B0318169
:1029500033B9FCD633BB3ED774D700011200050152
:102960003C51D8B471D0006E4051D8B46DD000261F
:1029700004E3810E002668E204D07F0E005E64E36B
:1029800063E03DC544F54151441B3D8F418F3F51AC
:102990004303F4CF46F53E514203F4CF03F0F3CFA7
:1029A00045F54303F3504627F4504523000E032218
:1029B0003F514203F3504627F4504523000E026A6C
:1029C000032202223D514303F3504527F4500322D2
:1029D000000E02223D514203F3500326F45002221E
:1029E000000E016A01223F514103F3504527F45084
:1029F0000322000E022201223E514103F35003261E
:102A0000F4500222000E01223D514103F3500226F0
:102A1000F4500122002A01BE05D0453703360236A4
:102A200001360006000E45AF0AD0032A0222012219
:102A3000015005E1025003E1035001E1002A44BFC7
:102A4000018E44AF019E04D0006A016A026A036AE3
:102A50000001120005013C51B6083C6F036A3DC5F8
:102A600040F53D8FD8903D333E333F330332023241
:102A7000013200323C2FF6D740AF0BD0001E011EB2
:102A8000021E031E002AD8B4012AD8B4022AD8B4E0
:102A9000032A00011200E95004012A6F29512C6F0A
:102AA0001CE028C43FF527C43EF526C43DF525C4E7
:102AB0003CF50501436B426B200E416F820E406F67
:102AC00000014DDF03C028F402C027F401C026F442
:102AD00000C025F404012C2FE4D728C43FF527C4F7
:102AE0003EF526C43DF525C43CF50001B3DF03C027
:102AF00028F402C027F401C026F400C025F4040124
:102B000028AF0DD02A072A8B251F261F271F281F15
:102B1000252BD8B4262BD8B4272BD8B4282B3B0E82
:102B2000316F9A0E306FCA0E2F6F2E6B0A0E2C6FFC
:102B30002951D8B42A2BD882040EEA6E250EE96EEC
:102B400028C43FF527C43EF526C43DF525C43CF511
:102B500031C443F530C442F52FC441F52EC440F5CD
:102B6000000185EC0DF00150005213E10401292908
:102B70002C5DD8A402D000010CD02A510DE00F0B1F
:102B80002C5D01E044E22ABF42D02ABD05D0200ED0
:102B900037D0200E04012A172AAB0FD02A9B2951C7
:102BA000D8A42A0700502A6F2D0E326F0001E6ECE0
:102BB00005F004012A51006E2A6B29512C5D0DE1AC
:102BC00000502A6F2E0E326F0001E6EC05F0040172
:102BD0002A51006E200E2A17000E300E2AAB10D09C
:102BE0002A9B2951D8A42A0700502A6F2D0E326F34
:102BF0000001E6EC05F004012A51006E2A6B300E4C
:102C0000002600C032F40001E6EC05F00401D89281
:102C100031C43FF530C43EF52FC43DF52EC43CF51C
:102C20000501436B426B416B0A0E406F000185EC5E
:102C30000DF003C031F402C030F401C02FF400C025
:102C40002EF404012C2F77D700011200355202E137
:102C500036523EE0353C03D0363C01D039D036C048
:102C600026F435C025F475DC0401286B100E276F9F
:102C70006F0E266F8B0E256F03C02CF402C02BF451
:102C800001C02AF400C029F400017EDC00C025F454
:102C900001C026F402C027F403C028F4D89203C070
:102CA0002CF402C02BF401C02AF400C029F4330E26
:102CB0000401306F2F6F2E6F7D0E2D6F000113DD1D
:102CC00003C020F402C01FF401C01EF400C01DF4B4
:102CD000375202E138523EE0373C03D0383C01D055
:102CE00039D038C026F437C025F433DC0401286B12
:102CF000100E276F6F0E266F8B0E256F03C02CF4FE
:102D000002C02BF401C02AF400C029F400013CDC0D
:102D100000C025F401C026F402C027F403C028F443
:102D2000D89203C02CF402C02BF401C02AF400C0D6
:102D300029F4330E0401306F2F6F2E6F7D0E2D6F2F
:102D40000001D1DC03C024F402C023F401C022F44A
:102D500000C021F48A0EF66E040EF76E070E040111
:102D6000256F000106EC06F0410EE96E20C428F440
:102D70001FC427F41EC426F41DC425F4010E04014B
:102D8000296F000188DE970EF66E040EF76E040EB2
:102D90000401256F000106EC06F0400E0401256FCA
:102DA0000001FCEC05F09C0EF66E040EF76E070EAB
:102DB0000401256F000106EC06F0410EE96E24C403
:102DC00028F423C427F422C426F421C425F4010ED8
:102DD0000401296F00015FDEA90EF66E040EF76E86
:102DE000040E0401256F000106EC06F046EF1CF00E
:102DF000100EF66E040EF76EECEC05F0400E0401BA
:102E0000256F0001FCEC05F0200EF66E040EF76E47
:102E1000070E0401256F000106EC06F03DC021F409
:102E20001B0E0401226F0001D0EC08F0200E0401FB
:102E3000326F0001E6EC05F0280E0401326F00014C
:102E4000E6EC05F03D50F80F3BE2080F6EEF17F08F
:102E5000300E0401326F0001E6EC05F031D02C0E8B
:102E6000F66E040EF76EECEC05F02AD0300EF66E1E
:102E7000040EF76EECEC05F023D0340EF66E040E63
:102E8000F76EECEC05F01CD0380EF66E040EF76E03
:102E9000ECEC05F015D03C0EF66E040EF76EECEC83
:102EA00005F00ED0400EF66E040EF76EECEC05F059
:102EB00007D0440EF66E040EF76EECEC05F000D071
:102EC000DF0E0401326F0001E6EC05F0290E04016B
:102ED000326F0001E6EC05F04CEF1CF0E824F76AD5
:102EE000F736F70FF66E2E0EF7220A00F550FA6E3F
:102EF0000800F550F96E502E5E2E6C2E7A2E882E1C
:102F0000962EA42EB22E5A0EF66E040EF76E080EF2
:102F10000401256F000106EC06F059C121F4010EF1
:102F20000401226F0001D0EC08F02D0E0401326F75
:102F30000001E6EC05F058C121F4010E0401226FF6
:102F40000001D0EC08F02D0E0401326F0001E6EC18
:102F500005F057C121F4010E0401226F0001D0ECED
:102F600008F0400E0401256F0001FCEC05F0720E24
:102F7000F66E040EF76E040E0401256F000106ECD8
:102F800006F054C121F4010E0401226F0001D0ECBF
:102F900008F03A0E0401326F0001E6EC05F055C16D
:102FA00021F4010E0401226F0001D0EC08F03A0E6A
:102FB0000401326F0001E6EC05F056C121F4010E68
:102FC0000401226F0001D0EC08F0840EF66E040EAE
:102FD000F76E040E0401256F000106EC06F052EFB7
:102FE0001CF0D00EF66E030EF76EECEC05F0400E02
:102FF0000401256F0001FCEC05F005013A6B020E9F
:10300000396F0001E9EC0FF001C01DF405013A6BC6
:10301000030E396F0001E9EC0FF001C01EF41DC46E
:1030200020F401C01FF4100EE96E1DC422F401C08B
:1030300021F41AEC06F02F0E0401326F0001E6ECC9
:1030400005F0100EE96E0401226F216B00011AECED
:1030500006F0E70EF66E030EF76E050E0401256FFF
:10306000000106EC06F058EF1CF0A60EF66E030EFB
:10307000F76EECEC05F0400E0401256F0001FCEC4E
:1030800005F0968284B207D0B60EF66E030EF76E88
:10309000ECEC05F006D0C20EF66E030EF76EECEC0B
:1030A00005F0010152A902D05299518B00015EEF47
:1030B0001CF0080EE96E36C022F435C021F41AEC7B
:1030C00006F0060E0401256F0001FCEC05F0080E69
:1030D000E96E38C022F437C021F41AEC06F00C0E69
:1030E0000401256F0001FCEC05F0090EE96E3AC001
:1030F00022F439C021F41AEC06F0400E0401256FC9
:103100000001FCEC05F0480EF66E040EF76EECECD8
:1031100005F064EF1CF0200E040123A9300E246F8B
:1031200022C400F022AF08D0001E002A00C022F402
:103130002D0E246F238F2381015022C431F5640E9C
:103140000501326F0001BAEC08F000C022F4300E25
:1031500001240401256F22C431F50A0E0501326FE6
:103160000001BAEC08F0300E00240401276F300E85
:103170000124266F24C400F0300E255D04E0238373
:1031800023BF238512D024C425F4200E246F300ED3
:10319000265D04E0238123BF238307D0D8A42381A5
:1031A00004E125C426F4200E256F23B505D023B3F2
:1031B00008D023B10BD00FD024C432F40001E6ECC8
:1031C00005F025C432F40001E6EC05F026C432F423
:1031D0000001E6EC05F027C432F40001E6EC05F04E
:1031E00050EF19F03CC026F43BC025F4A9EC12F0D6
:1031F00005013F6B3E6B200E3D6F7A0E3C6F03C0A6
:1032000043F502C042F501C041F500C040F50001A0
:10321000AFEC14F003C020F402C01FF401C01EF490
:1032200000C01DF4EE0EF66E030EF76E070E0401DD
:10323000256F000106EC06F0C90EE96E20C428F4E3
:103240001FC427F41EC426F41DC425F4010E040176
:10325000296F000120DCFB0EF66E030EF76E060EE2
:103260000401256F000106EC06F0400E0401256FF5
:103270000001FCEC05F03E500A0DF3CF21F40401EF
:10328000020EF66E040EF76E090E256F000106ECB5
:1032900006F021C422F4180E0401236F00013BD76D
:1032A000250E0401326F0001E6EC05F069EF1CF019
:1032B000700EF66E030EF76EECEC05F0400E040196
:1032C000256F0001FCEC05F05BC121F41B0E04012D
:1032D000226F0001D0EC08F0800EF66E030EF76E40
:1032E000080E0401256F000106EC06F06EEF1CF0DD
:1032F000200E040123A9300E246F22C400F022AF57
:1033000008D0001E002A00C022F42D0E246F238F47
:103310002381015022C431F5640E0501326F000192
:10332000BAEC08F000C022F4300E01240401256F2D
:1033300022C431F50A0E0501326F0001BAEC08F023
:10334000300E00240401276F300E0124266F24C4A0
:1033500000F0300E255D04E0238323BF238512D0C7
:1033600023B510D024C425F423B304D0300E265D39
:1033700004E0238123BF238305D0D8A42381D8B4BC
:1033800025C426F423B505D023B308D023B10BD030
:103390000FD024C432F40001E6EC05F025C432F469
:1033A0000001E6EC05F026C432F40001E6EC05F07D
:1033B00027C432F40001E6EC05F01200400E0401CF
:1033C000256F0001FCEC05F0AE0EF66E040EF76EF4
:1033D000ECEC05F01200400E0401256F0001FCEC3E
:1033E00005F0C00EF66E040EF76EECEC05F0120060
:1033F00097928E9222C43CF45DEC03F01A0E006E9C
:10340000002EFED70000120022C423F40401246B16
:103410002351090805E20A0E235F100E242703D06A
:103420002351242701D0F4D724C401F00001120055
:10343000040121910F51000A000105E0010A0DE08D
:10344000030A15E01FD004011E6B630E1F6F090EE7
:103450001D6F59C120F4000115D0010E04011E6F2B
:103460000C0E1F6F1D6F58C120F400010BD0010E10
:1034700004011E6F1F0E1F6F0F0E1D6F57C120F42A
:10348000000100D0700EF66E050EF76E080E0401F6
:10349000256F000106EC06F059C122F4010E04016B
:1034A000236F000125DF2D0E0401326F0001E6ECD1
:1034B00005F058C122F4010E0401236F000118DF4A
:1034C0002D0E0401326F0001E6EC05F057C122F425
:1034D000010E0401236F00010BDF0301D9B50CD0ED
:1034E000010152A905D00301D9850101529903D0E8
:1034F000000164DF01010301D9A52ED000016BDFBB
:103500001DC425F4FCEC05F00E0E0401226F000131
:103510006FDF010152A50CD052950401202B20BF72
:1035200005D020511F5D02E21EC420F4218101015B
:1035300052A70CD052970401200720BF03D01E5180
:10354000205D02E21FC420F42181010152A904D0B0
:10355000529904010F2B0101040121A13DD0010169
:10356000518104010F51000A000105E0010A13E036
:10357000030A21E030D020C459F159C122F444DFBC
:1035800001C022F4060E04013C6F01C03DF40001AD
:1035900003EC04F020D020C458F158C122F434DFE9
:1035A00001C022F4050E04013C6F01C03DF400018E
:1035B00003EC04F010D020C457F157C122F424DFEB
:1035C00001C022F4040E04013C6F01C03DF400016F
:1035D00003EC04F000D004010F51030808E10301DB
:1035E000D99504010F6B0C0E226F000101DF000E54
:1035F0000301D9B5010E016E000173EF1CF0040147
:1036000021911051000A000105E0010A0DE0030AB2
:1036100015E01ED004011E6B170E1F6F070E1D6FE5
:1036200054C120F4000114D004011E6B3B0E1F6F27
:103630000A0E1D6F55C120F400010AD004011E6B53
:103640003B0E1F6F0D0E1D6F56C120F4000100D000
:10365000880EF66E050EF76E060E0401256F00014A
:1036600006EC06F054C122F4010E0401236F0001A0
:103670003FDE3A0E0401326F0001E6EC05F055C161
:1036800022F4010E0401236F000132DE3A0E040120
:10369000326F0001E6EC05F056C122F4010E040180
:1036A000236F000125DE0301D9B70DD0010152A916
:1036B00006D00301D98701015299518103D000013D
:1036C0007DDE01010301D9A731D0000184DE1DC4D4
:1036D00025F4FCEC05F00E0E0401226F000188DEDB
:1036E000010152A50DD052950401202B20BF05D019
:1036F00020511F5D02E21EC420F42181010151818D
:1037000052A70DD052970401200720BF03D01E51AD
:10371000205D02E21FC420F421810101518152A9E0
:1037200005D052990401102B01015181040121A1FE
:103730003CD00101518104011051000A000105E053
:10374000010A13E0030A21E02FD020C454F154C130
:1037500022F45ADE01C022F4020E04013C6F01C0C3
:103760003DF4000103EC04F01FD020C455F155C115
:1037700022F44ADE01C022F4010E04013C6F01C0B4
:103780003DF4000103EC04F00FD020C456F156C103
:1037900022F43ADE01507F0B0401226F3C6B3D6F37
:1037A000000103EC04F000D00401105103080AE109
:1037B0000301D9970401106B0C0E226F000118DE73
:1037C00001015181000E0301D9B7010E016E000104
:1037D0007AEF1CF0360EF66E030EF76E090E04013A
:1037E000256F000106EC06F0080EE96ED5C322F441
:1037F000D4C321F41AEC06F0400E0401256F000139
:10380000FCEC05F0460EF66E030EF76E090E040191
:10381000256F000106EC06F0080EE96ED7C322F40E
:10382000D6C321F41AEC06F081EF1CF00A0E040155
:103830001C6F0301D9B90ED0010152B502D00301AA
:1038400009D0529504011C51115D02E2112B01D0E7
:10385000116B0301D9B90DD0010152B702D0030198
:1038600008D052970401115302E0110702D01CC482
:1038700011F40001D9EC05F004011151F50F46E2F5
:103880000B0F000189EF1CF026EF16F00301D99908
:1038900004013CD0F8EF16F00301D999040136D0A9
:1038A00083EF17F00301D999040130D0F1EF17F03D
:1038B0000301D99904012AD035EF18F00301D999F1
:1038C000040124D059EF18F00301D99904011ED046
:1038D00089D40301D999040119D0EAD40301D999F3
:1038E000040114D0A5D50301D99901B0D9890401E7
:1038F0000DD085D60301D99901B0D989040106D02C
:1039000069D70301D999040101D00401000178EFBE
:1039100021F0E824F76AF7362D0FF66E390EF722FC
:103920000A00F550FA6E0800F550F96E88389438A0
:10393000A038AC38B838C438D038DA38E438F2387F
:103940000039DBC3EAFFDAC3E9FF05013CC5EFFF3D
:10395000E92AD8B4EA2AEF6A0301DA2BD8B4DB2BC0
:103960000001120001502FC531F5640E0501326FC0
:103970000001BAEC08F000C02FF50150300E08E14C
:10398000050130A30FD030B70DD030B9200E04D0D0
:103990000501309730993081012601C03CF50001C6
:1039A000D0DF05012FC531F50A0E326F0001BAECE8
:1039B00008F000C02FF50150300E08E1050130B7C6
:1039C0000AD030A108D030B9200E0001012601C074
:1039D0003CF5B7DF0501300E2F272FC53CF5000160
:1039E000B0DF1200EACF37F5E9CF36F505013039FF
:1039F000F009326F3227E20F336F320F356F3051DB
:103A00000F0B332733273527E90F346F342734273B
:103A10002F390F0B3427352734373537351F3537D6
:103A20002F510F0B35273237070E316F0A0E34072F
:103A30003527FDE333073427FDE332073327FDE362
:103A400031073227FDE3050EEA6E310EE96E070EEF
:103A50003615369DE926350EE95CD8B4368DEF5023
:103A6000006E08E136BD06D036B915D036B702D0A3
:103A7000200E03D036873699300E0026EACF30F577
:103A8000E9CF2FF500C03CF500015BDF30C5EAFF50
:103A90002FC5E9FF0501EE5036ADDDD7000112005C
:103AA000E9500501346F3351366F1CE032C53FF5E4
:103AB00031C53EF530C53DF52FC53CF5436B426B36
:103AC000200E416F820E406F0001AFEC14F003C076
:103AD00032F502C031F501C030F500C02FF5050107
:103AE000362FE4D732C53FF531C53EF530C53DF53B
:103AF0002FC53CF500012AEC15F003C032F502C0D9
:103B000031F501C030F500C02FF5050132AF0DD001
:103B10003407348B2F1F301F311F321F2F2BD8B487
:103B2000302BD8B4312BD8B4322B3B0E3B6F9A0ECE
:103B30003A6FCA0E396F386B0A0E366F3351D8B4EC
:103B4000342BD882050EEA6E2F0EE96E32C53FF592
:103B500031C53EF530C53DF52FC53CF53BC543F5B8
:103B60003AC542F539C541F538C540F5000185EC47
:103B70000DF00150005213E105013329365DD8A440
:103B800002D000010CD034510DE00F0B365D01E086
:103B900040E234BF3ED034BD05D0200E34D0200EDC
:103BA0000501341734AB0ED0349B3351D8A43407FD
:103BB0000050346F2D0E3C6F0001C3DE05013451FF
:103BC000006E346B3351365D0CE10050346F2E0EB5
:103BD0003C6F0001B6DE05013451006E200E341733
:103BE000000E300E34AB0FD0349B3351D8A43407C1
:103BF0000050346F2D0E3C6F0001A3DE05013451DF
:103C0000006E346B300E002600C03CF5000199DEDA
:103C10000501D8923BC53FF53AC53EF539C53DF59E
:103C200038C53CF5436B426B416B0A0E406F000197
:103C300085EC0DF003C03BF502C03AF501C039F543
:103C400000C038F50501362F7CD70001120095948D
:103C50008C9400006650AB0E666E6430FEE3959463
:103C60008C840000010E0501376F000144EC03F065
:103C700098EF1EF005013A6B396B0001E9EC0FF08B
:103C800001C033F5036A050133C537F503C038F5C4
:103C90003A6B0C0E396F03C03CF533C53BF50001A0
:103CA0007AEC11F001C031F50501020E0224326FE9
:103CB000366B36510B081BE336513125376F000E3A
:103CC0003221386F036A36512F25E96E30510320B7
:103CD000EA6EEFCF39F538C53BF537C53AF539C54A
:103CE0003CF50001E5EC0AF00501362BE2D7332B59
:103CF0003B6B3A6B33C53CF50001E5EC0AF005017E
:103D000033512C08D8A47BD03A6B020E396F0001D6
:103D1000E9EC0FF001C037F505013A6B030E396F7E
:103D20000001E9EC0FF037C535F501C034F58FD748
:103D300095948C9400006650820E666E6430FEE3AB
:103D400005013435316F3535326F31373237FC0E7E
:103D5000311732C537F5665032C566FF6430FEE371
:103D600031C537F5665031C566FF6430FEE36650F5
:103D7000666A6430FEE3326B316B325102081CE339
:103D800003E131510F0818E3040031C537F5020E85
:103D90003225386F3A6F31C539F50001E9EC0FF083
:103DA00001C036F5665036C566FF6430FEE3050196
:103DB000312BD8B4322BE1D795948C8400003B6B27
:103DC0003A6B3C6B0001E5EC0AF00501342BD8B4EA
:103DD000352B35C537F53B6B020E3A6F35C53CF5D3
:103DE0000001E5EC0AF034C537F505013B6B030E25
:103DF0003A6F34C53CF50001E5EC0AF0050100011D
:103E00004EEF20F030C532F52FC531F532C503F045
:103E1000050131C5E9FF32C5EAFFEF5206E0312B5B
:103E2000D8B4322B0001F2D705012F51315D006E5D
:103E300030513259036E00C001F0000156EF20F0FE
:103E4000A4A8FED76D6E66EF20F0F29836C029F573
:103E500035C028F538C02BF537C02AF53AC02DF506
:103E600039C02CF5366A356A386837683A6A396A73
:103E7000F28859C11CF458C11DF457C11EF454C135
:103E80001FF455C120F429C521F4040128C522F4EA
:103E900004012BC523F404012AC524F404012DC513
:103EA00025F404012CC526F404013E3805012F6FCA
:103EB000F00E2F173D500F0B2F250401276F040E16
:103EC0000301DB6F280EDA6F320E05013C6F000133
:103ED00038DD300E05013C6F000133DD59C12FF58F
:103EE000010E0501306F00013DDD2D0E05013C6F17
:103EF000000127DD58C12FF5010E0501306F0001CB
:103F000031DD2D0E05013C6F00011BDD57C12FF582
:103F1000010E0501306F000125DD200E05013C6F0B
:103F200000010FDD54C12FF5010E0501306F0001B6
:103F300019DD3A0E05013C6F000103DD55C12FF577
:103F4000010E0501306F00010DDD2C0E05013C6FE7
:103F50000001F7DC100EE96E29C530F528C52FF5F4
:103F600041DD2C0E05013C6F0001EBDC100EE96E0B
:103F70002BC530F52AC52FF535DD2C0E05013C6F1C
:103F80000001DFDC100EE96E2DC530F52CC52FF5D4
:103F900029DD2C0E05013C6F0001D3DC100EE96E0B
:103FA0003CC030F53BC02FF51DDD2C0E05013C6FEC
:103FB0000001C7DC3DC02FF51B0E0501306F00016D
:103FC000D1DC2C0E05013C6F0001BBDCC90EE96E93
:103FD00064C132F563C131F562C130F561C12FF5BD
:103FE000050E0501336F00015BDD2C0E05013C6FF2
:103FF0000001A7DCC90EE96E68C132F567C131F571
:1040000066C130F565C12FF5050E0501336F00015E
:1040100047DD2C0E05013C6F000193DC05012F6B81
:104020001B0E306F00019EDC2C0E05013C6F000161
:1040300088DC05012F6B1B0E306F000193DC2C0E0A
:1040400005013C6F00017DDC05012F6B1B0E306FFD
:10405000000188DC2C0E05013C6F000172DC100EA3
:10406000E96E46C030F545C02FF5BCDC2C0E0501CD
:104070003C6F000166DC100EE96E0501306B2F6BA2
:104080000001B0DC0A0E05013C6F00015ADC040E91
:104090000501306F1C0E2F6F0001ECD505012E6B52
:1040A000040E306F280E2F6F0001ACD601500501B1
:1040B0002E5D15E2036A2E51280FE96E040E0320CF
:1040C000EA6EEFCF2FF52F510001BAD6010E050190
:1040D000376F000144EC03F005012E2BE1D70001FE
:1040E0007EEF21F0F86A9F829F9AA59AD08E078E64
:1040F000EA6AE96A700ED36ED350346A7E86220E65
:10410000AF6E000E7F6EA60EAC6E900EAB6E7C9600
:104110000C0E6F6EA20E6C6E900E6B6E0301D86B60
:10412000D991D993DB6BDA6BDC6BEB6BEC6B040135
:104130000D6B0E6B0301D99504010F6B0301D99729
:104140000401106B0301D9990401126B136B146BFA
:104150000301D99BD99D640E0401156F176B166B73
:10416000196B186B1B6B1A6BC150C00B0F09C16E1A
:10417000070EB46E2E6A2F6A0301DD6BDE6BDF6BF8
:10418000E06BE16BE26BE36BE46BE56BE66BE76BBB
:10419000E86BE96BEA6BED6BEE6BEF6BF06BF16B61
:1041A000F26BF36BF46BF56BF66BF76BF86BF96B0B
:1041B000FA6BFB6BFC6BFD6BFE6BFF6B0401006B22
:1041C000016B026B036B046B056B066B076B086B73
:1041D000096B0A6B0B6B0C6B116B0001CCEF04F0DD
:1041E0001E0E04011F6F0001CEEC05F0020E04014B
:1041F0001C6FFA0E0501376F000144EC03F0040157
:104200001C2FF7D70001D9EC05F082EF08F0CAEFB8
:1042100009F081CF53F1010153BB35D053BD33D0E9
:1042200053BD31D05295529752990001D9EC05F007
:10423000440EF66E060EF76EECEC05F0400E04012F
:10424000256F0001FCEC05F0520EF66E060EF76EBF
:10425000ECEC05F0040E04011C6FFA0E0501376F3B
:10426000000144EC03F004011C2FF7D7010152991F
:104270005295529752A906D05299000117EC0BF0B3
:1042800003D00101F7D700010A0E01015C6F640E33
:104290000501376F000144EC03F0040048A003D08F
:1042A0009BEF0BF0489003EF0CF0010151AD05D0EE
:1042B000519D000152EF0CF0010151AF04D00001FB
:1042C0003AEF0DF0010151A904D00001CBEF0FF03E
:1042D000010151AB03D000010CEF11F000013BEFE5
:1042E00012F0010151A105D05191000116EF1CF00F
:1042F000010151A304D051930001A7D5010151A59B
:1043000005D05195000117EC0BF001010001C5D754
:024310000300A8
:020000040030CA
:0E00000000C81E1B0305B100FFC0FFE0FF405B
:00000001FF
;PIC18F6622
;CRC=E6D6  CREATED="06-Nov-15 14:53"
